:100000000C94F9000C941A010C941A010C941A0126
:100010000C941A010C941A010C941A010C941A01F4
:100020000C941A010C941A010C941A010C941A01E4
:100030000C941A010C941A010C941A010C941A01D4
:100040000C941A010C941A010C941A010C941A01C4
:100050000C941A010C941A010C941A010C941A01B4
:100060000C941A010C941A010C941A010C941A01A4
:100070000C941A010C941A010C941A010C941A0194
:100080000C941A010C941A010C941A010C941A0184
:100090000C941A010C941A010C941A010C941A0174
:1000A0000C941A010C941A010C941A010C941A0164
:1000B0000C941A010C941A010C941A010C941A0154
:1000C0000C941A010C941A010C941A010C941A0144
:1000D0000C941A010C941A010C941A010C941A0134
:1000E0000C941A010C941A010C941A010C941A0124
:1000F0000C941A010C941A010C941A010C941A0114
:100100000C941A010C941A010C941A010C941A0103
:100110000C941A010C941A010C941A010C941A01F3
:100120000C941A010C941A010C941A010C941A01E3
:100130000C941A010C941A010C941A010C941A01D3
:100140000C941A010C941A010C941A010C941A01C3
:100150000C941A010C941A010C941A010C941A01B3
:100160000C941A010C941A010C941A010C941A01A3
:100170000C941A010C941A010C941A010C941A0193
:100180000C941A010C941A010C941A010C941A0183
:100190000C941A010C941A010C941A010C941A0173
:1001A0000C941A010C941A010C941A010C941A0163
:1001B0000C941A010C941A010C941A010C941A0153
:1001C0000C941A010C941A01D158D658DB58E058F7
:1001D000E558EA58EF580C94D6580C94E0580C9413
:1001E000EF580C94DB580C94D1580C94EA580C94AA
:1001F000E55811241FBECFEFDFE3DEBFCDBF00E027
:100200000CBF14E2A0E0B0E2E2EFF7EB00E00BBFBE
:1002100002C007900D92A233B107D9F719E2A2E309
:10022000B4E201C01D92A83DB107E1F70E942F5A28
:100230000C94F75B0C940000CF93DF93C42FD52F61
:10024000A0E0B0E0A617B707F0F4FC01EA0FFB1F2F
:1002500020812A3328F0206230E02755310903C07D
:1002600030E020533109E181EA3328F0E062F0E028
:10027000E755F10902C0F0E0F0972295207FE22BCC
:10028000E9931296DFCFCA01DF91CF9108951F93B2
:10029000CF93DF93DA0111969C01260F371F821747
:1002A0009307B9F0EC01FC011191CF01E12FE29528
:1002B000EF70F0E0E050F04E1081FD0131971083B7
:1002C000E881EF70F0E0E050F04EE081EC931296A0
:1002D000E6CF660F771FFA01E60FF71F1082DF9156
:1002E000CF911F910895E0E4F6E088E0818384E0F7
:1002F0008283E0EAF8E083E085838BE086831782DF
:100300008481806184838481886084830895CF930D
:10031000DF931F921F92CDB7DEB769837A8320E007
:1003200030E049815A812417350769F04091A108CE
:1003300047FF06C02091A008FC01208381E004C093
:100340002F5F3F4FEECF80E00F900F90DF91CF9166
:1003500008958091A10887FFFCCF8091A00808959F
:100360009091A10895FFFCCF8093A0080895FC010F
:1003700060837183428314861386168615860895DA
:10038000FC0162830895FC01958526859F5F93702B
:1003900081E0921301C080E008950F931F93CF93E3
:1003A000DF931F92CDB7DEB78C0169830E94C30132
:1003B00069818823A9F0D8011D969C911D97F801A9
:1003C000E90FF11D67839F5F9370F8019587019096
:1003D000F081E02D93819C7F12962C91922B938338
:1003E0000F90DF91CF911F910F910895FC0123850C
:1003F000948581E0291301C080E00895FC01848583
:10040000DF01A80FB11D13968C9194859F5F9370A7
:1004100094870895FC0183858F5F83702485A08174
:10042000B1819C91821749F02385DF01A20FB11D94
:1004300013969C93838781E0089580E00895CF937D
:10044000DF93FC0186859585A081B181981307C053
:1004500013968C9113978C7F13968C930AC0868584
:10046000EF01C80FD11D8F818C9386858F5F8370BC
:100470008687DF91CF910895FC01848170FF02C0CF
:10048000816001C08E7F848360830895FC01848134
:1004900080FF04C0808190E091600895808190E0A9
:1004A000089510925200109255008091500088607B
:1004B000809350008091510083FFFCCF88ED84BF72
:1004C00083E08093400088E08093500080E6809332
:1004D0000106809305060895DF92EF92FF920F9335
:1004E0001F93CF93DF93FC019B01205F3F4FDC0103
:1004F000EB014991BE014D93C217D307C9F7BC0167
:10050000635F7F4F08E210E2AC01425F5F4F9C01E6
:10051000215F3F4FDC011C9681E0E801E9908E01EC
:100520009081E926EB019881C92FD0E0CE5CDC4DAB
:100530009881E926E08AEA019881C92FD0E0CE5C53
:10054000DC4DF8809181F926F18AE9019881C92F63
:10055000D0E0CE5CDC4DD8819281DD2ED926D28AC6
:10056000CC91D0E0CE5CDC4DC88193819C27938BED
:10057000C481EC26E48AC581FC26F58AC681DD2D7E
:10058000DC27D68BC7819C27978BC085EC26E08E15
:10059000C185FC26F18EC285DD2EDC26D28EC38578
:1005A0009C27938FCC91EC26E48EEB01E880FE240F
:1005B000F58EEA01F880DD2DDF25D68FE901F88080
:1005C0009F25978F8F5F605F7F4F7096405F5F4F73
:1005D000205F3F4F50968B3009F09FCFDF91CF9136
:1005E0001F910F91FF90EF90DF9008955091D629C1
:1005F00053FB332730F9252F221F2227221F2327C1
:10060000352F32953F70452F4295469547704327C9
:100610004170322F3427252F220F232B2093D629E8
:1006200040E02E7030E051E0540FE42FF0E0E2178C
:10063000F30714F4452FF7CF4093B429DB01FC01F5
:10064000AC01405F5F4F8D9190818927819390919C
:10065000D62995FB882780F9292F2295269526955E
:100660002270282794FB882780F9822764E0969FD0
:1006700090011124282B2093D62930E02770822F57
:1006800090E021E0230F632F70E06817790714F4DE
:10069000322FF7CF3093B429E417F507A1F6089568
:1006A0005091D62953FB332730F9252F221F2227BB
:1006B000221F2327352F32953F70452F42954695AF
:1006C000477043274170322F3427252F220F232BC9
:1006D0002093D62940E02E7030E051E0540FE42FF3
:1006E000F0E0E217F30714F4452FF7CF4093B42955
:1006F0006130710599F5FC01AC01405F5F4FA0814D
:10070000B0E0AE5CBC4D8C9181939091D62995FB65
:10071000882780F9292F229526952695227028274B
:1007200094FB882780F9822764E0969F900111242A
:10073000282B2093D62930E02770822F90E021E0EB
:10074000230F632F70E06817790714F4322FF7CF67
:100750003093B429E417F50791F6089562307105D6
:10076000D9F5DC01AC01405F5F4FEC918E2F8F70AB
:10077000E295EF7090E1E99FF0011124E80FF11D7F
:10078000EE5CFD4D80818D939091D62995FB882755
:1007900080F9292F2295269526952270282794FBEB
:1007A000882780F9822764E0969F90011124282BE6
:1007B0002093D62930E02770822F90E021E0230F8C
:1007C000632F70E06817790714F4322FF7CF309356
:1007D000B429A417B50749F608955091D62953FBBB
:1007E000332730F9252F221F2227221F2327352FB9
:1007F00032953F70452F429546954770432741708B
:10080000322F3427252F220F232B2093D62940E087
:100810002E7030E051E0540FE42FF0E0E217F307C0
:1008200014F4452FF7CF4093B4296130710599F541
:10083000FC01AC01405F5F4FA081B0E0AE5CB84D01
:100840008C9181939091D62995FB882780F9292F47
:100850002295269526952270282794FB882780F9D3
:10086000822764E0969F90011124282B2093D6299B
:1008700030E02770822F90E021E0230F632F70E09B
:100880006817790714F4322FF7CF3093B429E4179F
:10089000F50791F6089562307105D9F5DC01AC01D8
:1008A000405F5F4FEC918E2F8F70E295EF7090E17B
:1008B000E99FF0011124E80FF11DEE5CF94D8081F4
:1008C0008D939091D62995FB882780F9292F229521
:1008D000269526952270282794FB882780F9822761
:1008E00064E0969F90011124282B2093D62930E0B4
:1008F0002770822F90E021E0230F632F70E06817AC
:10090000790714F4322FF7CF3093B429A417B50721
:1009100049F60895FC018091D62983FB332730F9ED
:10092000982F991F9927991F9327382F32953F7039
:10093000582F52955695577053275170392F352798
:10094000482F440F942F932B80E0292F2E7030E0F6
:10095000482F50E08F5F42175307D4F381812581E0
:1009600021832185258325852187858795FB22275E
:1009700020F9492F4295469546954270422794FBAF
:10098000222720F9242784E0989FA0011124422BDC
:1009900020E0842F877090E0622F70E02F5F68174F
:1009A0007907D4F3828192859283828786819685A6
:1009B0009683868745FB882780F9242F22952695E4
:1009C00026952270282744FB882780F9822794E007
:1009D000499F90011124282B30E0822F877090E0EE
:1009E000432F50E03F5F48175907D4F38381978521
:1009F00093839385978797819387878323FB992791
:100A000090F9822F881F8827881F8927322F3295D7
:100A10003F70922F929596959770932791708927A2
:100A2000220F282B2093D62980E02E7030E091E011
:100A3000980F482F50E04217530714F4892FF7CF2F
:100A40008093B4290895FC013091D62935FB99276C
:100A500090F9832F8295869586958270892734FB3D
:100A6000222720F9282744E0349FC0011124822B3B
:100A700090E0282F277030E0492F50E09F5F421709
:100A80005307D4F3948125812483268125832781EC
:100A90002683978383FB332730F9982F991F992753
:100AA000991F9327382F32953F70482F42954695CE
:100AB000477043274170392F3427880F982F932B85
:100AC00080E0292F2E7030E0482F50E08F5F4217D2
:100AD0005307D4F3808522852087828781852385EB
:100AE0002187838795FB882780F9292F22952695D2
:100AF00026952270282794FB882780F9822744E0D6
:100B0000949F90011124282B30E0822F877090E071
:100B1000432F50E03F5F48175907D4F384859785EA
:100B200094879685978795859687858723FB992750
:100B300090F9822F881F8827881F8927322F3295A6
:100B40003F70922F92959695977093279170892771
:100B5000220F282B2093D62980E02E7030E091E0E0
:100B6000980F482F50E04217530714F4892FF7CFFE
:100B70008093B429089587FF04C0880F9BE18927DB
:100B80000895880F08958F929F92AF92BF92CF924F
:100B9000DF92EF92FF920F931F93CF93DF93CDB726
:100BA000DEB7A097CDBFDEBF8C018091D62983FB35
:100BB000222720F9982F991F9927991F2927982FC5
:100BC00092959F70382F329536953770392731704E
:100BD000922F9327282F220F292B2093D62980E0AC
:100BE0002E7030E0482F50E08F5F42175307D4F348
:100BF0005801CE0101966C01FE0171967F0180E1E2
:100C0000982E9E0E8091D62985FB222720F9482F09
:100C10004295469546954270422784FB222720F94B
:100C20002427F4E08F9FA0011124422B4093D62962
:100C300080E04770242F30E091E0980F482F50E07B
:100C40004217530714F4892FF7CF8093B429F50185
:100C500081915F01F70181937F010E94BB05F6013D
:100C600081936F019E10CECF4E01F4E08F0E911C48
:100C70000D5F1F4FDE015496BD019091D62995FB63
:100C8000222720F9492F42954695469542704227E2
:100C900094FB222720F9242734E0939FA0011124FC
:100CA000422B4093D62980E04770242F30E091E01A
:100CB000980F482F50E04217530714F4892FF7CFAD
:100CC0008093B429C4010397FC01C0800196FC0104
:100CD00080819D0122503109F901E0802F5F3F4F53
:100CE000F901F0804C919801235031099C2D9827EF
:100CF00094279E259F25F90190839D01235031095A
:100D0000F9015081940121503109F901D0809801F5
:100D1000225031098F25842785278D25F90180836D
:100D20009091D62995FB222720F9892F82958695C7
:100D300086958270822794FB222720F92827F4E0E9
:100D40009F9FC0011124822B8093D629B12C8770DC
:100D5000282F30E0AA24A394AB0C8B2D90E08217AF
:100D6000930714F4BA2CF6CFB092B429F401208181
:100D7000C801019742274E254527D426FC01D08281
:100D8000EC24E226FE245F25F8015083F4E08F0E68
:100D9000911C0C5F1F4F14968616970609F06DCFB5
:100DA000A096CDBFDEBFDF91CF911F910F91FF9035
:100DB000EF90DF90CF90BF90AF909F908F9008956D
:100DC0006F927F928F929F92AF92BF92CF92DF925B
:100DD000EF92FF920F931F93CF93DF93CDB7DEB7C0
:100DE000A197CDBFDEBF4C018C016E0131E1C30E76
:100DF000D11CCE0101967C01540190E08091D6294E
:100E000085FB222720F9482F42954695469542704A
:100E1000422784FB222720F92427A4E08A9FA001EF
:100E20001124422B4093D62980E04770242F30E0D4
:100E300061E0680F482F50E04217530714F4862FE3
:100E4000F7CF8093B429F50121915F01E92FE37079
:100E5000F0E0EA5CF74D80818227D6018D936D0129
:100E600099A30E94BB05F70181937F0199A19F5F20
:100E7000903121F6DE0114963401F3E06F0E711CFF
:100E8000BE016C5E7F4F7B019091D62995FB222796
:100E900020F9492F4295469546954270422794FB8A
:100EA000222720F9242734E0939FA0011124422B0C
:100EB0004093D62980E04770242F30E091E0980FCE
:100EC000482F50E04217530714F4892FF7CF80932F
:100ED000B429CD010397FC01B0800196FC0180810B
:100EE0009B0122503109F901C0802F5F3F4FF9016A
:100EF000D080FB0140819301235031099B2D98271D
:100F000094279C259D25F90190839B01235031094D
:100F1000F90150819D0121503109F901A08093010F
:100F2000225031098D25842785278A25F901808360
:100F30003091D62935FB882780F9932F9295969585
:100F400096959270982734FB882780F9292F2827B7
:100F5000F4E03F9FC0011124822B8093D629912C6D
:100F60008770282F30E088248394890C892D90E0A5
:100F70008217930714F4982CF6CF9092B4292C91F1
:100F8000C301019742274C254527A426FC01A082D6
:100F9000CB24C226DC245D25F30150831496F4E0B3
:100FA0006F0E711C6C5F7F4FAE15BF0509F06CCFE3
:100FB00080E0E82FE370F0E0EE5CF74DD8012C9173
:100FC00090819227F80191938F018F5F803189F78B
:100FD000A196CDBFDEBFDF91CF911F910F91FF9002
:100FE000EF90DF90CF90BF90AF909F908F907F90C9
:100FF0006F9008952F923F924F925F926F927F92DF
:101000008F929F92AF92BF92CF92DF92EF92FF9218
:101010000F931F93CF93DF93CDB7DEB7A697CDBFC6
:10102000DEBF8C015C016E0121E1C20ED11CCE013C
:1010300001967C01912C9091D62995FB222720F9CD
:10104000492F4295469546954270422794FB2227A8
:1010500020F92427A4E09A9FA0011124822E842A3B
:101060008092D62980E0282D277030E091E0980FFB
:10107000682F70E06217730714F4892FF7CF8093FD
:10108000B429F50191915F01E92DE695E695F0E02F
:10109000EA5CF74D80818927D6018D936D010E940E
:1010A000BB05F70181937F019394F0E19F12C3CFB9
:1010B00085FA882780F9282D229526952695227075
:1010C000282784FA882780F9822794E0899E900156
:1010D0001124282B2093D62930E02770822F90E00E
:1010E00041E0430F232F30E02817390714F4342F41
:1010F000F7CF29807D818D88B98DBD8C872F822582
:1011000088258B278B25F80180839A8DFA80F92614
:10111000F9A24E80FE89FDA36E8D8F2F8425862730
:101120008F25F80181832091D62925FB552450F87D
:10113000A22FA295A695A695A270A52524FB5524BD
:1011400050F8A525F4E02F9F90011124A22B80E0F8
:101150002A2F277030E0482F50E08F5F4217530747
:10116000D4F32B8D2AA33F8C622E63243B813BA3B7
:101170007F804F89832F872584278625F8018283E6
:101180002885F88DFEA3AC8C58A13C813CA38F2F01
:1011900082278A2585278327F8018383A3FB55248B
:1011A00050F88A2F881F8827881F58268A2F8295F3
:1011B0008F703A2F32953695377038273170852DDC
:1011C0008327AA0F5A2E582A80E0352D3E70E32E31
:1011D000F12CC82ED12C8F5FCE14DF04D4F33985C7
:1011E000A9897B277B2573277A27F80174839A883E
:1011F0007A859425962799259727958355FA9927D7
:1012000090F9852D8295869586958270892754FA66
:10121000992790F9F82EF926F4E05F9EC001112479
:101220009F2D982B80E0E92FE770EE2EF12CC82E31
:10123000D12C8F5FCE14DF04D4F35B884B847524EC
:1012400074247624F80176827C886C842A252527EC
:1012500027252625278395FB222720F9892F82958C
:10126000869586958270822794FB222720F928276D
:10127000F4E09F9FC0011124822B90E0282F27705B
:10128000E22EF12CC92ED12C9F5FCE14DF04D4F3B3
:10129000ED84B8243B253A273E25F8013087FE84AB
:1012A000FDA16F27692576277F25F801718785FBCA
:1012B000222720F9982F92959695969592709227CD
:1012C00084FB222720F92927F4E08F9FC0011124F5
:1012D000822B90E0282F277030E0692F70E09F5F0D
:1012E00062177307D4F34525DF8443244D24442635
:1012F000F8014286C888FEA15F27572565266C2421
:10130000F801638685FB992790F9582F52955695D9
:1013100056955270592784FB992790F95927F4E084
:101320008F9FC0011124582B80E0252F277030E0BB
:10133000682F70E08F5F62177307D4F38224B8259B
:10134000AB27AE25F801A487FDA1F925FF2529A12A
:10135000F227D8011D96FC9353FB992790F9852F0E
:10136000881F8827881F8927952F92959F70252F82
:1013700022952695277029272170982F9227852F4F
:10138000880F892B8093D62920E08E7090E031E081
:10139000320F622F70E06817790714F4232FF7CF0C
:1013A0002093B4295BA0BAA15B26D5244D25F80172
:1013B0004687EEA1EA25FCA1EF277E267C24D801F2
:1013C0001F967C92A696CDBFDEBFDF91CF911F9175
:1013D0000F91FF90EF90DF90CF90BF90AF909F90D4
:1013E0008F907F906F905F904F903F902F900895D7
:1013F000FC01818194819183848382819085928391
:101400008087838194859383848786819185968361
:10141000818787819585978385878385968593873F
:1014200086870895CF93DF93DC01FB019091D62945
:1014300095FB882780F9292F2295269526952270DD
:10144000282794FB882780F9822744E0949F900105
:101450001124282B2093D62930E02770822F90E08A
:1014600021E0230F432F50E04817590714F4322F7F
:10147000F7CF3093B429858190E08E5C9F4DC08179
:10148000D0E09E012E5C3E4DEC019881E9018881FF
:101490008927C285D0E0CE5CDC4D98818927C7853D
:1014A000D0E0CE5CDC4D988189278C93858190E0DB
:1014B0008E5C9E4DC081D0E09E012E5C3C4DEC01C7
:1014C0009881E90188818927C285D0E0CE5CDF4D13
:1014D00098818927C785D0E0CE5CDC4D988189272B
:1014E00011968C9311979091D62995FB882780F9B6
:1014F000292F2295269526952270282794FB882748
:1015000080F98227D4E09D9F90011124282B2093FD
:10151000D62980E0422F477050E091E0980F682F65
:1015200070E06417750714F4892FF7CF8093B429FE
:10153000858190E08E5C9C4DC081D0E0AE014E5C18
:101540005C4DEC019881EA0188818927C285D0E051
:10155000CE5CDE4D98818927C785D0E0CE5CDF4D1B
:101560009881892712968C931297858190E08E5CE2
:101570009C4DC081D0E0AE014E5C5F4DEC01988186
:10158000EA0188818927C285D0E0CE5CDC4D988154
:101590008927C785D0E0CE5CDE4D988189271396D8
:1015A0008C93139723FB442740F9822F881F8827A9
:1015B000881F8427422F42954F70922F92959695BF
:1015C000977094279170482F4927822F880F982F62
:1015D000942B80E0292F2E7030E0482F50E08F5F51
:1015E00042175307D4F3218530E02E5C3F4DC48170
:1015F000D0E0AE014E5C5E4DE9012881EA018881B0
:101600008227C685D0E0CE5CDC4D28818227C3814D
:10161000D0E0CE5CDC4D2881822714968C93149701
:10162000218530E02E5C3E4DC481D0E0AE014E5CA1
:101630005C4DE9012881EA0188818227C685D0E0D6
:10164000CE5CDF4D28818227C381D0E0CE5CDC4DAB
:101650002881822715968C93159795FB442740F98E
:10166000892F8295869586958270842794FB4427DE
:1016700040F94827D4E09D9FC0011124842B90E0BD
:10168000282F277030E0492F50E09F5F4217530703
:10169000D4F3218530E02E5C3C4DC481D0E0AE0116
:1016A0004E5C5C4DE9012881EA0198819227C6854C
:1016B000D0E0CE5CDE4D28819227C381D0E0CE5CA5
:1016C000DF4D2881922716969C931697218530E04E
:1016D0002E5C3C4DC481D0E0AE014E5C5F4DE90113
:1016E0002881EA0198819227C685D0E0CE5CDC4D46
:1016F00028819227C381D0E0CE5CDE4D28819227DD
:1017000017969C93179785FB222720F9482F42951F
:10171000469546954270422784FB222720F92427CC
:10172000D4E08D9FA0011124422B20E0842F8770EC
:1017300090E0622F70E02F5F68177907D4F38585FA
:1017400090E08E5C9F4DC085D0E09E012E5C3E4DAA
:10175000EC019881E90188818927C281D0E0CE5CC3
:10176000DC4D98818927C781D0E0CE5CDC4D988123
:10177000892718968C931897858590E08E5C9E4DEE
:10178000C085D0E09E012E5C3C4DEC019881E901C2
:1017900088818927C281D0E0CE5CDF4D988189277E
:1017A000C781D0E0CE5CDC4D9881892719968C9357
:1017B000199745FB882780F9242F22952695269591
:1017C0002270282744FB882780F98227D4E04D9F88
:1017D00090011124282B30E0822F877090E0432F56
:1017E00050E03F5F48175907D4F3858590E08E5C41
:1017F0009C4DC085D0E0AE014E5C5C4DEC01988103
:10180000EA0188818927C281D0E0CE5CDE4D9881D3
:101810008927C781D0E0CE5CDF4D988189271A9651
:101820008C931A97858590E08E5C9C4DC085D0E0A6
:10183000AE014E5C5F4DEC019881EA0188818927F9
:10184000C281D0E0CE5CDC4D98818927C781D0E091
:10185000CE5CDE4D988189271B968C931B9723FBCA
:10186000442740F9822F881F8827881F4827822F06
:1018700082958F70922F9295969597709827917078
:101880004927822F880F842B90E0282F2E7030E07C
:10189000492F50E09F5F42175307D4F3218130E076
:1018A0002E5C3F4DC485D0E0AE014E5C5E4DE9013B
:1018B0002881EA0198819227C681D0E0CE5CDC4D78
:1018C00028819227C385D0E0CE5CDC4D2881922709
:1018D0001C969C931C97218130E02E5C3E4DC48564
:1018E000D0E0AE014E5C5C4DE9012881EA019881AF
:1018F0009227C681D0E0CE5CDF4D28819227C38538
:10190000D0E0CE5CDC4D288192271D969C931D97DC
:1019100085FB222720F9482F42954695469542702F
:10192000422784FB222720F92427D4E08D9FA001A1
:101930001124422B4093D62980E04770242F30E0B9
:1019400091E0980F482F50E04217530714F4892F65
:10195000F7CF8093B429818190E08E5C9C4DC48543
:10196000D0E09E012E5C3C4DEC019881E90188811C
:101970008927C681D0E0CE5CDE4D98818927C3855A
:10198000D0E0CE5CDF4D988189271E968C931E9700
:10199000818190E08E5C9C4DC485D0E09E012E5CE0
:1019A0003F4DEC019881E90188818927C681D0E00B
:1019B000CE5CDC4D98818927E385F0E0EE5CFE4D3E
:1019C000908189271F968C93DF91CF910895AF92D4
:1019D000BF92CF92DF92EF92FF920F931F93CF931C
:1019E000DF931F92CDB7DEB75C018B0140967C017F
:1019F000442329F04A30E9F56501F50119C0650174
:101A0000F50190818091B52989278193EE15FF0515
:101A1000C1F7B801C5010E94F602F60190818091DC
:101A2000B529892781936F01EE15FF05B1F74BC0EA
:101A300090818091B52989278193EE15FF05C1F723
:101A400061E070E0C5010E94ED03C5010E948A04B7
:101A5000B80160567F4FC5010E94F602F6019081E1
:101A60008091A229892781936F01EE15FF05B1F7B7
:101A70002AC06501F50190818091B529892781935C
:101A8000EE15FF05C1F761E070E0C50149830E94D2
:101A9000ED03C5010E948A04C5010E94E006498148
:101AA000B801F0E14F9F600D711D1124C5010E9426
:101AB000F602F60190818091B529892781936F0103
:101AC000EE15FF05B1F70F90DF91CF911F910F91A8
:101AD000FF90EF90DF90CF90BF90AF9008952F923E
:101AE0003F924F925F926F927F928F929F92AF92AE
:101AF000BF92CF92DF92EF92FF920F931F93CF93FB
:101B0000DF93CDB7DEB76D97CDBFDEBFFC01688F29
:101B1000798F8C01005F1F4F09831A83442329F0BA
:101B20004A3009F0D2C71C0189C28C01DC013C910A
:101B30002091B52923272D93CD0129813A81A21720
:101B4000B307A1F79091D62995FB882780F9292F13
:101B50002295269526952270282794FB882780F9C0
:101B6000822744E0949F90011124282B2093D629AA
:101B700030E02770822F90E021E0230F432F50E0C8
:101B80004817590714F4322FF7CF3093B4299081B6
:101B9000A88DB98D8C91892780835091D62953FBCC
:101BA000332730F9852F881F8827881F3827952FDE
:101BB00092959F70452F42954695477049274170F1
:101BC000932F9427852F880F382F392B20E0832FD0
:101BD0008E7090E0422F50E02F5F48175907D4F3E2
:101BE0009181A88DB98D11968C918927818335FBC0
:101BF000222720F9832F82958695869582708227E9
:101C000034FB222720F92827B4E03B9FC001112490
:101C1000822B90E0282F277030E0492F50E09F5F03
:101C200042175307D4F32281A88DB98D12969C9147
:101C30009227928385FB992790F9282F2295269544
:101C400026952270292784FB992790F99227B4E0E2
:101C50008B9F90011124292B30E0822F877090E018
:101C6000432F50E03F5F48175907D4F39381A88D65
:101C7000B98D13968C918927838323FB992790F93B
:101C8000822F881F8827881F9827322F32953F7010
:101C9000522F52955695577053275170392F35272B
:101CA000220F922F932B80E0292F2E7030E0482FA7
:101CB00050E08F5F42175307D4F32481A88DB98D6C
:101CC00014968C918227848395FB442740F9892FB1
:101CD0008295869586958270842794FB442740F9E7
:101CE0004827B4E09B9FC0011124842B90E0282F4B
:101CF000277030E0492F50E09F5F42175307D4F31D
:101D00002581A88DB98D15969C919227958385FB89
:101D1000222720F9482F4295469546954270422742
:101D200084FB222720F92427B4E08B9FA0011124F3
:101D3000422B20E0842F877090E0622F70E02F5FAD
:101D400068177907D4F39681A88DB98D16968C9172
:101D50008927868345FB882780F9242F229526959D
:101D600026952270282744FB882780F98227B4E033
:101D70004B9F90011124282B30E0822F877090E038
:101D8000432F50E03F5F48175907D4F39781A88D40
:101D9000B98D17968C918927878325FB992790F910
:101DA000822F8295869586958270892724FB33271A
:101DB00030F93827B4E02B9FC0011124832B90E029
:101DC000282F277030E0492F50E09F5F42175307BC
:101DD000D4F32085A88DB98D18969C919227908771
:101DE00083FB222720F9982F991F9927991F2927CC
:101DF000382F32953F70982F92959695977093272C
:101E000091702927880F822B90E0282F2E7030E0C8
:101E1000492F50E09F5F42175307D4F32185A88DC7
:101E2000B98D19969C919227918785FB222720F9DD
:101E3000982F9295969596959270922784FB2227DB
:101E400020F92927B4E08B9FC0011124922F982BF1
:101E500080E0292F277030E0482F50E08F5F421735
:101E60005307D4F32285A88DB98D1A968C918227B9
:101E7000828795FB882780F9292F2295269526951C
:101E80002270282794FB882780F98227B4E09B9F43
:101E900090011124282B30E0822F877090E0432F8F
:101EA00050E03F5F48175907D4F39385A88DB98D4B
:101EB0001B968C918927838725FB992790F9822F80
:101EC0008295869586958270892724FB332730F981
:101ED0003827B4E02B9FC0011124832B90E0282FDA
:101EE000277030E0492F50E09F5F42175307D4F32B
:101EF0002485A88DB98D1C969C919227948783FB8D
:101F0000332730F9982F991F9927991F3927282FA0
:101F100022952F70982F9295969597709227917091
:101F20003927880F382B20E0832F8E7090E0422FC6
:101F300050E02F5F48175907D4F39585A88DB98DC8
:101F40001D968C918927858735FB992790F9832FDA
:101F50008295869586958270892734FB992790F91A
:101F6000282F2927B4E03B9FC0011124922F982BE2
:101F700080E0292F277030E0482F50E08F5F421714
:101F80005307D4F32685A88DB98D1E968C91822790
:101F9000868795FB222720F9892F8295869586953D
:101FA0008270822794FB222720F92827B4E09B9F88
:101FB000C0011124822B90E0282F277030E0492F98
:101FC00050E09F5F42175307D4F32785A88DB98D42
:101FD0001F969C919227978785FB992790F9282F28
:101FE0002295269526952270292784FB992790F91A
:101FF0009227B4E08B9F90011124292B2093D6299E
:1020000030E02770822F90E021E0230F432F50E033
:102010004817590714F4322FF7CF3093B429F80139
:1020200090818091B5298927D8018D938D012981CF
:102030003A81A217B30799F70C94A51EDC013C91D5
:102040002091B52923272D93CD0109811A81A0174D
:10205000B107A1F79091D62995FB882780F9292F00
:102060002295269526952270282794FB882780F9AB
:10207000822714E0919F90011124282B2093D629C8
:1020800030E02770822F90E021E0230F432F50E0B3
:102090004817590714F4322FF7CF3093B4298081B1
:1020A00090E08E5C984DDC018C9180833091D62934
:1020B00035FB882780F9232F2295269526952270B7
:1020C000282734FB882780F98227B4E03B9F9001C2
:1020D0001124282B30E0822F877090E0432F50E0AE
:1020E0003F5F48175907D4F3818190E08E5C984D8B
:1020F000DC01BC90B18225FB992790F9822F829553
:10210000869586958270892724FB662760F9682763
:10211000B4E02B9FC0011124862B90E0282F27705C
:1021200030E0492F50E09F5F42175307D4F32281DC
:1021300030E02E5C384DD9013C91328383FB22275D
:1021400020F9982F991F9927991F9227282F2295B8
:102150002F70482F42954695477042274170292F8E
:102160002427880F982F922B80E0492F4E7050E043
:10217000682F70E08F5F64177507D4F3438150E0D8
:102180004E5C584DDA015C91538395FB882780F9AA
:10219000692F6295669566956270682794FB88271B
:1021A00080F98627B4E09B9FB0011124682B20E0C2
:1021B000862F877090E0022F10E02F5F0817190715
:1021C000D4F3848190E08E5C984DDC016C90648245
:1021D00065FB992790F9862F829586958695827062
:1021E000892764FB992790F9282F2927B4E06B9F52
:1021F000C0011124922F982B80E0692F677070E046
:10220000082F10E08F5F06171707D4F3658170E081
:102210006E5C784DDB010C91058395FB222720F93C
:10222000892F8295869586958270822794FB222736
:1022300020F92827B4E09B9FC0011124822B90E055
:10224000682F677070E0E92EF12C9F5FE616F706A5
:10225000D4F3668170E06E5C784DDB01AC90A682B1
:1022600083FB222720F9982F991F9927991F9227DE
:10227000482F42954F70282F2295269527702427A6
:1022800021709227880F982B80E0692F6E7070E084
:10229000E82EF12C8F5FE616F706D4F3678170E025
:1022A0006E5C784DDB012C91278395FB442740F928
:1022B000892F8295869586958270842794FB442782
:1022C00040F94827B4E09B9FC0011124482B10E03F
:1022D000842F877090E0612F70E01F5F6817790787
:1022E000D4F3808590E08E5C984DDC015C90508644
:1022F00045FBCC24C0F8842F829586958695827004
:102300008C2544FBCC24C0F8C826B4E04B9FC00108
:1023100011248C2990E0682F677070E0892E912C31
:102320009F5F86169706D4F3618570E06E5C784DEA
:10233000DB017C91718785FBEE24E0F8982F929564
:10234000969596959270E92684FB442740F9E426F9
:10235000B4E08B9F600111244E2D4C2980E0942F16
:102360009770C92ED12C882E912C8F5F8C149D04D0
:10237000D4F3828590E08E5C984DDC011C9112872D
:1023800045FBEE24E0F8642F6295669566956270D1
:102390006E2544FBEE24E0F86E25B4E04B9F7001FF
:1023A00011246E2980E0962F9770E92EF12C882E4B
:1023B000912C8F5F8E149F04D4F3838590E08E5C04
:1023C000984DDC017C90738665FB442740F9862F8D
:1023D0008295869586958270842764FB442740F910
:1023E0004827B4E06B9FC0011124482B60E0842F84
:1023F0008770882E912C862F90E06F5F8815990545
:10240000D4F38484882D90E08E5C984DDC014C9050
:10241000448643FBEE24E0F8842F881F8827881F1A
:10242000E826842F82958F70942F929596959770B9
:1024300098279170E926842F880F682F6E2940E035
:10244000862F8E70882E912C842F90E04F5F8815F8
:102450009905D4F3858590E08E5C984DDC014C9114
:10246000458765FBCC24C0F8862F82958695869596
:102470008270C82664FBEE24E0F8EC24B4E06B9F85
:1024800060011124FE2CFC2880E09F2D9770C92E3E
:10249000D12C882E912C8F5F8C149D04D4F38685CB
:1024A00090E08E5C984DDC016C916687F5FAEE2425
:1024B000E0F88F2D8295869586958270E826F4FA4D
:1024C000882780F98E25B4E0FB9E70011124D82E58
:1024D000DE28C12C8D2D877090E0EC2CF12CC3945C
:1024E000E816F906D4F3878590E08E5C984DDC0100
:1024F0009C90D5FA992790F98D2D82958695869591
:1025000082708927D4FAFF24F0F8F826B4E0DB9E25
:10251000C0011124DF2CD82AC12C8D2D877090E0AA
:10252000EC2CF12CC394E816F906D4F3D3FAEE247C
:10253000E0F88D2D881F8827881F8E25ED2CE294CA
:10254000BFE0EB229D2D9295969597709E259170F8
:10255000E82EE9268D2D880FD82EDE28C12C8D2D52
:102560008E7090E0EC2CF12CC394E816F906D4F3AD
:10257000018375834187B586D5FAEE24E0F88D2D69
:1025800082958695869582708E25D4FAEE24E0F8A1
:10259000E826A4E0DA9EC00111248E2990E0B82F2D
:1025A000B770EB2EF12CC92ED12C9F5FCE14DF0417
:1025B000D4F3128332876683A68683FBEE24E0F889
:1025C000982F991F9927991FE926982F92959F7008
:1025D000F82EF294F694A7E0FA229F2591709E259A
:1025E000880F892B90E0A82FAE70EA2EF12CC92E0F
:1025F000D12C9F5FCE14DF04D4F393827786238798
:10260000578385FBEE24E0F8982F92959695969542
:102610009270E92684FB992790F99E25B4E08B9F60
:1026200070011124892F8E298093D629D12C87708F
:1026300090E0CC24C394CD0CED2CF12CE816F906D7
:1026400014F4DC2CF6CFD092B429A88DB98DA05605
:10265000BF4F90818C9189278083E090D629E3FA3F
:10266000992790F98E2D881F8827881F98278E2DEF
:1026700082958F70FE2CF694F694F694F694F69468
:102680008F25817098278E2D880FD82ED92AC12C9E
:102690008D2D8E7090E0EC2CF12CC394E816F90689
:1026A000D4F311968C91119708270183D5FA9927B5
:1026B00090F98D2D82958695869582708927D4FA1A
:1026C000002700F9F02EF82604E0D09EC001112466
:1026D0000F2D082BD12C802F877090E0ED2CF12C42
:1026E000D394E816F906D4F312968C911297182712
:1026F000128305FB882780F9902F929596959695E1
:102700009270982704FB882780F9F92EF82614E0A8
:10271000019FC00111248F2990E0082F077010E05D
:10272000E92EF12C9F5FE016F106D4F313969C91ED
:1027300013979926938283FB112710F9982F991FDD
:102740009927991F9127082F02950F70182F12951E
:1027500016951770102711709127880F892B90E01C
:10276000082F0E7010E0E92EF12C9F5FE016F106A5
:10277000D4F314969C9114976926648285FB1127E3
:1027800010F9982F9295969596959270912784FBC3
:10279000FF24F0F8F92604E0809FC0011124F82AF4
:1027A000E12C8F2D877090E00E2D10E0E394081738
:1027B0001907D4F315968C91159778277583F5FA38
:1027C000882780F99F2D92959695969592709827D7
:1027D000F4FA772770F9792714E0F19EC0011124EB
:1027E000972F982B80E0092F077010E0E82EF12C2E
:1027F0008F5FE016F106D4F316968C911697682732
:10280000668395FB882780F9092F02950695069522
:102810000270082794FB882780F9082764E0969FB8
:10282000C0011124802B90E0682F677070E0092FA1
:1028300010E09F5F06171707D4F317969C91179720
:102840005927578385FB992790F9682F62956695DC
:1028500066956270692784FB992790F9692794E04F
:10286000899F80011124862F802B90E0682F67704C
:1028700070E0092F10E09F5F06171707D4F3189632
:102880009C9118975926508683FB552750F9982F0D
:10289000991F9927991F9527582F52955F70782F68
:1028A00072957695777075277170592F5727682F15
:1028B000660F962F952B80E0692F6E7070E0082FC1
:1028C00010E08F5F06171707D4F319968C911997AC
:1028D0004827418795FB442740F9692F6295669503
:1028E00066956270642794FB442740F9462704E00C
:1028F000909FB0011124642B80E0062F077010E038
:10290000E82EF12C8F5FE016F106D4F31A968C9125
:102910001A973827328765FB882780F9462F42951A
:10292000469546954270482764FB882780F984279E
:1029300014E0619FA0011124482B30E0842F8770A0
:1029400090E0632F70E03F5F68177907D4F31B9620
:102950008C911B972827238745FB992790F9842F73
:102960008295869586958270892744FB222720F9D7
:10297000282734E0439FC0011124822B90E0282FA8
:10298000277030E0492F50E09F5F42175307D4F380
:102990001C969C911C974926448683FB332730F96B
:1029A000982F991F9927991F3927282F22952F7023
:1029B000982F929596959770922791703927880F46
:1029C000382B20E0832F8E7090E0422F50E02F5F55
:1029D00048175907D4F31D968C911D97B826B586D4
:1029E00035FB992790F9832F82958695869582707D
:1029F000892734FB992790F9282F292744E0349F11
:102A0000C0011124922F982B80E0292F277030E0ED
:102A1000482F50E08F5F42175307D4F31E968C91D6
:102A20001E97A826A68695FB222720F9892F829536
:102A3000869586958270822794FB222720F9282785
:102A400054E0959FC0011124822B90E0282F27701D
:102A500030E0492F50E09F5F42175307D4F31F9691
:102A60009C917926778685FB992790F9282F2295C6
:102A7000269526952270292784FB992790F992277D
:102A800064E0869F90011124292B2093D62930E001
:102A90002770822F90E021E0230F432F50E048174A
:102AA000590714F4322FF7CF3093B429D1019C91F8
:102AB0008091A2298927F10181931F0109811A813F
:102AC000E017F10799F70C94A51E8B839C83DC011A
:102AD0009C918091B52989278D9329813A81A217EC
:102AE000B307B1F79091D62995FB882780F9292F54
:102AF0002295269526952270282794FB882780F911
:102B0000822754E0959F90011124282B2093D629E9
:102B100030E02770822F90E021E0230F632F70E0D8
:102B20006817790714F4322FF7CF3093B4298081D6
:102B300090E08E5C984DDC018C9180833091D62999
:102B400035FB222720F9832F829586958695827002
:102B5000822734FB222720F92827B4E03B9FC001BD
:102B60001124822B90E0282F277030E0692F70E02D
:102B70009F5F62177307D4F3218130E02E5C384DDC
:102B8000D901BC91BB87B18385FB992790F9282F88
:102B90002295269526952270292784FB992790F95E
:102BA000922704E0809F90011124892F822B90E0CE
:102BB000282F277030E0692F70E09F5F621773073E
:102BC000D4F3228130E02E5C384DD901AC90A28242
:102BD00083FB222720F9982F991F9927991F922765
:102BE000282F22952F70382F32953695377032273F
:102BF0003170292F2327880F982F922B80E0292FBF
:102C00002E7030E0682F70E08F5F62177307D4F387
:102C1000238130E02E5C384DD9014C90438295FBE6
:102C2000332730F9892F8295869586958270832780
:102C300094FB332730F93827B4E09B9FC00111245F
:102C4000382B20E0832F877090E0622F70E02F5F99
:102C500068177907D4F3848190E08E5C984DDC018D
:102C6000DC90D48235FB992790F9832F8295869545
:102C700086958270892734FB222720F92827B4E023
:102C80003B9FC0011124922F982B80E0292F2770A1
:102C900030E0682F70E08F5F62177307D4F32581EF
:102CA00030E02E5C384DD9011C91158395FB8827A7
:102CB00080F9292F2295269526952270282794FBA6
:102CC000882780F98227B4E09B9F90011124282B4C
:102CD00080E0922F9770692F70E0E82EF12C8F5FC3
:102CE000E616F706D4F3868190E0DC01AE5CB84DC1
:102CF0000C910C87068323FB662760F9822F881FBF
:102D00008827881F6827822F82958F70922F92952F
:102D100096959770982791706927822F880F982F22
:102D2000962B80E0292F2E7030E0682F70E08F5FA7
:102D300062177307D4F3278130E02E5C384DD90138
:102D40009C90978295FB882780F9692F62956695FC
:102D500066956270682794FB882780F98627B4E01F
:102D60009B9FB0011124682B80E0962F9770292F2C
:102D700030E0E82EF12C8F5FE216F306D4F3808565
:102D800090E08E5C984DDC01CC90C08665FB2227DC
:102D900020F9862F8295869586958270822764FB1E
:102DA000222720F92827B4E06B9FC0011124822B31
:102DB00090E0282F277030E0E92EF12C9F5FE2167B
:102DC000F306D4F3218530E02E5C384DD901EC9028
:102DD000E18685FB222720F9682F62956695669526
:102DE0006270622784FB222720F92627B4E08B9F9C
:102DF000B0011124622B50E0862F877090E0252FC0
:102E000030E05F5F28173907D4F3828590E08E5C4D
:102E1000984DDC010C91028765FB552750F9262F50
:102E20002295269526952270252764FB882780F910
:102E30008227B4E06B9F90011124582F522B60E041
:102E4000852F877090E0262F30E06F5F28173907B5
:102E5000D4F3838590E0DC01AE5CB84D2C912D87D6
:102E6000238755FB992790F9852F8295869586951E
:102E70008270892754FB662760F9682734E0539FE6
:102E8000C0011124862B90E0282F277030E0692E96
:102E9000712C9F5F62167306D4F3248530E02E5C9C
:102EA000384DD901BC91BE87B48783FB662760F992
:102EB000982F991F9927991F9627682F62956F70F1
:102EC000382F32953695377036273170692F632742
:102ED000880F982F962B80E0692F6E7070E0282F56
:102EE00030E08F5F26173707D4F3258530E02E5C5E
:102EF000384DD9018C90858695FB222720F9692FC2
:102F00006295669566956270622794FB222720F988
:102F10002627B4E09B9FB0011124922F962B80E0CE
:102F2000292F277030E0682F70E08F5F62177307DA
:102F3000D4F3268530E02E5C384DD9013C9036869E
:102F400095FB552750F9292F229526952695227015
:102F5000252794FB882780F98227B4E09B9F900166
:102F60001124582F522B60E0852F877090E0262F78
:102F700030E06F5F28173907D4F3878590E08E5CC7
:102F8000984DDC01BC9055FB992790F9852F8295CF
:102F9000869586958270892754FB222720F9282759
:102FA000B4E05B9FC0011124522F582B60E0852FA5
:102FB000877090E0262F30E06F5F28173907D4F331
:102FC00053FB992790F9852F881F8827881F892709
:102FD000952F92959F70252F22952695277029274A
:102FE0002170982F9227852F880F682F692B50E02A
:102FF000862F8E7090E0252F30E05F5F281739070D
:10300000D4F3118365FB552750F9862F8295869559
:1030100086958270852764FB552750F9582724E050
:10302000629FC0011124582B60E0852F877090E0CB
:10303000262F30E06F5F28173907D4F3028353FB44
:10304000FF24F0F8852F881F8827881FF826852FF2
:1030500082958F70952F929596959770982791707D
:10306000F926852F880F582F5F2960E0852F8E70F5
:1030700090E0262F30E06F5F28173907D4F3B38232
:1030800055FBFF24F0F8852F8295869586958270F2
:10309000F82654FB882780F9F82634E0539FC001B6
:1030A0001124F82AF092D62950E08F2D877090E0F5
:1030B00061E0650F252F30E02817390714F4562FEB
:1030C000F7CF4A8FEC8FFD8F5093B429709036283C
:1030D000808187258D830E94BB058F87F5FA662442
:1030E00060F88F2D82958695869582706826F4FA11
:1030F000882780F9682644E0F49EC0011124682ADC
:1031000040E0862D877090E0242F30E04F5F281735
:103110003907D4F3F09037281F251F83812F0E9491
:10312000BB05888B65FA222420F8862D829586952A
:1031300086958270282664FA552450F8252454E098
:10314000659EC0011124622C682A40E0862D87709C
:1031500090E0242F30E04F5F28173907D4F3109107
:10316000382801270887802F0E94BB05898B65FAC4
:10317000222420F8862D82958695869582702826B1
:1031800064FA552450F8252464E0669EC001112499
:10319000282A40E0822D877090E0242F30E04F5F96
:1031A00028173907D4F300913928B026BE828B2D19
:1031B0000E94BB058A8B25FA552450F8822D8295F2
:1031C000869586958270582624FA662460F85624DF
:1031D000A4E02A9EC0011124582A40E0852D877062
:1031E00090E0242F30E04F5F28173907D4F3D7241D
:1031F000D9868D2D0E94BB058B8B55FA662460F80D
:10320000852D8295869586958270682654FABB2412
:10321000B0F86B24B4E05B9EC0011124682A40E042
:10322000862D877090E0242F30E04F5F28173907F4
:10323000D4F3EF24EA868E2D0E94BB05282E65FA72
:10324000BB24B0F8862D8295869586958270B82627
:1032500064FADD24D0F8BD24E4E06E9EC0011124A0
:10326000B82A40E08B2D877090E0242F30E04F5F2C
:1032700028173907D4F3632C6126862D0E94BB05DD
:103280008C8BB5FADD24D0F88B2D829586958695AA
:103290008270D826B4FAEE24E0F8DE24F4E0BF9E73
:1032A000C0011124D82A40E08D2D877090E0242F92
:1032B00030E04F5F28173907D4F34026842D0E9451
:1032C000BB05382ED5FAEE24E0F88D2D8295869533
:1032D00086958270E826D4FA882780F9E82624E0CB
:1032E000D29EC0011124E82A40E08E2D877090E024
:1032F000242F30E04F5F28173907D4F3BC2CB724B4
:103300008B2D0E94BB058D8BE3FACC24C0F88E2D4B
:10331000881F8827881FC8269E2D92959F708E2D06
:1033200082958695877089278170C826EE0CCE28F5
:1033300040E08C2D8E7090E0242F30E04F5F2817F6
:103340003907D4F3582C5F24852D0E94BB058E8B42
:10335000C5FA882480F88C2D829586958695827092
:103360008826C4FAEE24E0F88E2434E0C39E60017F
:1033700011248C2840E0882D877090E0242F30E0C5
:103380004F5F28173907D4F3CA2CC1268C2D0E9411
:10339000BB058F8B85FAEE24E0F8882D8295869503
:1033A00086958270E82684FADD24D0F8ED2444E086
:1033B000849EC0011124E82A40E08E2D877090E0A1
:1033C000242F30E04F5F28173907D4F3A92CA0260B
:1033D0008A2D0E94BB05882EE5FADD24D0F88E2DBB
:1033E0008295869586958270D826E4FA992790F979
:1033F000D92654E0E59EC0011124D82A40E08D2D45
:10340000877090E0242F30E04F5F28173907D4F3FE
:103410006E857626872D0E94BB05982ED5FAEE2460
:10342000E0F89D2D9295969596959270E926D4FA9E
:10343000992790F9E926A4E0DA9EC0011124E82A30
:1034400040E08E2D877090E0242F30E04F5F2817EA
:103450003907D4F32B85F2268F2D0E94BB05D82E79
:10346000E5FA332730F99E2D9295969596959270B0
:103470009327E4FA332730F9392744E0E49EC0016A
:103480001124932F982B80E0292F277030E0482FAC
:1034900050E08F5F42175307D4F35C851527812FC7
:1034A0009B8F0E94BB05E82E9B8D93FB442740F920
:1034B000892F881F8827881F4827392F32953F700A
:1034C000892F829586958770832781708427492F5D
:1034D000440F342F382B20E0832F8E7090E0622F22
:1034E00070E02F5F68177907D4F36D850627802F6A
:1034F0003B8F0E94BB05982F3B8D35FB222720F97F
:10350000432F4295469546954270422734FB222729
:1035100020F9242784E0389FA0011124422B4093F6
:10352000D62950E04770242F30E081E0850F452FE9
:1035300050E04217530714F4582FF7CF88852F8196
:1035400082272E8128273F85232748892427AC8D71
:10355000BD8D2C9328853E8123274D8124275889B2
:1035600025276989262711962C933091D62935FB7A
:10357000222720F9732F72957695769572707227AF
:1035800034FB222720F97227A4E03A9F90011124EE
:10359000722B60E0272F277030E0462F50E06F5FDE
:1035A00042175307D4F32F813E8123274D812427CF
:1035B000598925276A892627AC8DBD8D12962C93B3
:1035C000129784272F858227862713968C9375FB65
:1035D000442740F9672F6295669566956270642767
:1035E00074FB442740F9462734E0739FB00111244F
:1035F000642B80E0262F277030E0482F50E08F5F4B
:1036000042175307D4F38A85862584254B8984275E
:103610008225AC8DBD8D14968C9314978985862553
:10362000842528262C89222615962C9265FB88272E
:1036300080F9462F4295469546954270482764FB8F
:10364000222720F9242734E0639FA0011124822F30
:10365000842B60E0282F277030E0462F50E06F5F0A
:1036600042175307D4F32A854985242742265C89CB
:1036700045264324AC8DBD8D16964C921697262573
:103680003B892327322617963C9285FB332730F956
:10369000282F2295269526952270232784FB4427E0
:1036A00040F9422754E0859F90011124842F822BFA
:1036B00060E0282F277030E0462F50E06F5F421700
:1036C0005307D4F32C2D25252A256D8926273E89DD
:1036D0002327AC8DBD8D18962C9318972C2D2B2558
:1036E0002A25632E62262F89622619966C9283FB07
:1036F000332730F9282F221F2227221F2327382F74
:1037000032953F70482F4295469547704327417048
:10371000322F3427282F220F822F832B60E0282F6F
:103720002E7030E0462F50E06F5F42175307D4F3FE
:10373000252D2B25A226BF88BA24B824AC8DBD8D9B
:103740001A96BC921A97C2262D89C2268C241B96E3
:103750008C9285FB332730F9282F229526952695C4
:103760002270232784FB442740F9422754E0859F99
:1037700090011124242B80E0422F477050E0682FE5
:1037800070E08F5F64177507D4F3812F8F25802732
:1037900089258D25AC8DBD8D1C968C931C97812F12
:1037A00087258027D826DE241D96DC9225FB33272B
:1037B00030F9822F8295869586958270832724FB27
:1037C000332730F98327B4E02B9F90011124282B55
:1037D0002093D62980E0277030E061E0680F482F01
:1037E00050E04217530714F4862FF7CF8093B42983
:1037F000F7240F25E026E926EC8DFD8DE6861F25B2
:10380000192591279787DF0120E030E0F901E37067
:10381000FF27EE5CF74D9C91808189278D932F5F68
:103820003F4F2031310591F79091D62995FB88279C
:1038300080F9292F2295269526952270282794FB1A
:10384000882780F98227F4E09F9F90011124282B7C
:103850002093D62930E02770822F90E021E0230FBB
:10386000432F50E04817590714F4322FF7CF309305
:10387000B429A88DB98D1A8D00E1109FA00DB11D3E
:103880001124EC8DFD8D90818C918927808350913E
:10389000D62953FB332730F9852F881F8827881FA7
:1038A0003827952F92959F70452F429546954770E2
:1038B00049274170932F9427852F880F382F392B54
:1038C00020E0832F8E7090E0422F50E02F5F48174A
:1038D0005907D4F3EC8DFD8D918111968C91119740
:1038E0008927818335FB222720F9832F82958695AE
:1038F00086958270822734FB222720F92827F4E05E
:103900003F9FC0011124822B90E0282F277030E0C8
:10391000492F50E09F5F42175307D4F3EC8DFD8D84
:10392000228112969C9112979227928385FB992768
:1039300090F9282F2295269526952270292784FB19
:10394000992790F99227F4E08F9F90011124292B59
:1039500030E0822F877090E0432F50E03F5F4817A0
:103960005907D4F3EC8DFD8D938113968C911397A9
:103970008927838323FB992790F9822F881F882723
:10398000881F9827322F32953F70522F52955695A7
:10399000577053275170392F3527220F922F932BB1
:1039A00080E0292F2E7030E0482F50E08F5F4217C3
:1039B0005307D4F3EC8DFD8D248114968C911497CC
:1039C0008227848395FB442740F9892F8295869529
:1039D00086958270842794FB442740F94827F4E0B9
:1039E0009F9FC0011124842B90E0282F277030E086
:1039F000492F50E09F5F42175307D4F3EC8DFD8DA4
:103A0000258115969C9115979227958385FB2227F2
:103A100020F9482F4295469546954270422784FBEF
:103A2000222720F92427F4E08F9FA0011124422BA4
:103A300020E0842F877090E0622F70E02F5F68177E
:103A40007907D4F3EC8DFD8D968116968C9116979F
:103A50008927868345FB882780F9242F2295269580
:103A600026952270282744FB882780F98227F4E0D6
:103A70004F9F90011124282B30E0822F877090E017
:103A8000432F50E03F5F48175907D4F3EC8DFD8D6D
:103A9000978117968C9117978927878325FB9927FC
:103AA00090F9822F8295869586958270892724FBCE
:103AB000332730F93827F4E02F9FC0011124832BDE
:103AC00090E0282F277030E0492F50E09F5F421789
:103AD0005307D4F3EC8DFD8D208518969C91189793
:103AE0009227908783FB222720F9982F991F9927E7
:103AF000991F2927382F32953F70982F92959695C8
:103B00009770932791702927880F822B90E0282F98
:103B10002E7030E0492F50E09F5F42175307D4F3D7
:103B2000EC8DFD8D218519969C911997922791878F
:103B300085FB222720F9982F92959695969592705D
:103B4000922784FB222720F92927F4E08F9FC001C8
:103B50001124922F982B80E0292F277030E0482FD6
:103B600050E08F5F42175307D4F3EC8DFD8D228513
:103B70001A968C911A978227828795FB882780F95D
:103B8000292F2295269526952270282794FB882791
:103B900080F98227F4E09F9F90011124282B30E0C8
:103BA000822F877090E0432F50E03F5F48175907FE
:103BB000D4F3EC8DFD8D93851B968C911B978927F3
:103BC000838725FB992790F9822F82958695869584
:103BD0008270892724FB332730F93827F4E02F9FA0
:103BE000C0011124832B90E0282F277030E0492F4B
:103BF00050E09F5F42175307D4F3EC8DFD8D248571
:103C00001C969C911C979227948783FB332730F94D
:103C1000982F991F9927991F3927282F22952F70A0
:103C2000982F929596959770922791703927880FC3
:103C3000382B20E0832F8E7090E0422F50E02F5FD2
:103C400048175907D4F3EC8DFD8D95851D968C9101
:103C50001D978927858735FB992790F9832F8295B2
:103C6000869586958270892734FB992790F9282FAD
:103C70002927F4E03F9FC0011124922F982B80E068
:103C8000292F277030E0482F50E08F5F42175307ED
:103C9000D4F3EC8DFD8D26851E968C911E97822780
:103CA000868795FB222720F9892F82958695869510
:103CB0008270822794FB222720F92827F4E09F9F17
:103CC000C0011124822B90E0282F277030E0492F6B
:103CD00050E09F5F42175307D4F3EC8DFD8D27858D
:103CE0001F969C919227978785FB992790F9282FFB
:103CF0002295269526952270292784FB992790F9ED
:103D00009227F4E08F9F90011124292B2093D6292C
:103D100030E02770822F90E021E0230F432F50E006
:103D20004817590714F4322FF7CF3093B429AB81D9
:103D3000BC819C918091B52989278D93AB83BC83ED
:103D400009811A81A017B10791F76D96CDBFDEBF2B
:103D5000DF91CF911F910F91FF90EF90DF90CF9067
:103D6000BF90AF909F908F907F906F905F904F909B
:103D70003F902F900895AF92BF92CF92DF92EF9233
:103D8000FF920F931F93CF93DF931F92CDB7DEB7B0
:103D90005C018B0140967C01442329F04A30E9F50F
:103DA0006501F50119C06501F50190818091B52982
:103DB00089278193EE15FF05C1F7B801C5010E945F
:103DC000F602F60190818091B529892781936F01D0
:103DD000EE15FF05B1F74BC090818091B529892779
:103DE0008193EE15FF05C1F762E070E0C5010E9406
:103DF000ED03C5010E948A04B80160567F4FC501DA
:103E00000E94F602F60190818091A2298927819370
:103E10006F01EE15FF05B1F72AC06501F50190812C
:103E20008091B52989278193EE15FF05C1F762E0DE
:103E300070E0C50149830E94ED03C5010E948A0418
:103E4000C5010E94E0064981B801F0E14F9F600D75
:103E5000711D1124C5010E94F602F6019081809126
:103E6000B529892781936F01EE15FF05B1F70F90F2
:103E7000DF91CF911F910F91FF90EF90DF90CF9046
:103E8000BF90AF9008952F923F924F925F926F92A2
:103E90007F928F929F92AF92BF92CF92DF92EF92DA
:103EA000FF920F931F93CF93DF93CDB7DEB76B973E
:103EB000CDBFDEBF8A8F9B8F1B01B901605F7F4F33
:103EC00069837A83442341F04A3011F00C946728C7
:103ED0002B833C83D901D4C2F901D9019C918091F3
:103EE000B52989278D9329813A81A217B307B1F7A4
:103EF0009091D62995FB882780F9292F2295269520
:103F000026952270282794FB882780F9822744E091
:103F1000949F90011124282B2093D62930E02770FC
:103F2000822F90E021E0230F432F50E048175907DC
:103F300014F4322FF7CF3093B429AA8DBB8D9C9106
:103F4000D1018C918927AA8DBB8D8C935091D62954
:103F500053FB332730F9852F881F8827881F382780
:103F6000952F92959F70452F42954695477049270A
:103F70004170932F9427852F880F382F392B20E0FD
:103F8000832F8E7090E0422F50E02F5F4817590723
:103F9000D4F3AA8DBB8D11969C91D10111968C9171
:103FA0008927AA8DBB8D11968C9335FB222720F98A
:103FB000832F8295869586958270822734FB2227EF
:103FC00020F92827B4E03B9FC0011124822B90E008
:103FD000282F277030E0492F50E09F5F421753078A
:103FE000D4F3AA8DBB8D12962C91D10112969C917F
:103FF0009227AA8DBB8D12969C9385FB442740F98E
:10400000282F2295269526952270242784FB442765
:1040100040F94227B4E08B9F90011124422B20E00D
:10402000842F877090E0622F70E02F5F6817790708
:10403000D4F3AA8DBB8D13969C91D10113968C91CC
:104040008927AA8DBB8D13968C9343FB992790F9F2
:10405000842F881F8827881F9827242F22952F7048
:10406000342F32953695377032273170292F232718
:10407000842F880F982F922B80E0292F2E7030E00C
:10408000482F50E08F5F42175307D4F3AA8DBB8DA2
:1040900014962C91D10114968C918227AA8DBB8DF8
:1040A00014968C9395FB662760F9892F82958695E7
:1040B00086958270862794FB662760F96827B4E0AE
:1040C0009B9FC0011124862B90E0282F277030E0A1
:1040D000492F50E09F5F42175307D4F3AA8DBB8D41
:1040E00015962C91D10115969C919227AA8DBB8D86
:1040F00015969C9385FB442740F9682F6295669539
:1041000066956270642784FB442740F94627B4E033
:104110008B9FB0011124642B20E0862F877090E0E4
:10412000422F50E02F5F48175907D4F3AA8DBB8D5B
:1041300016969C91D10116968C918927AA8DBB8DDC
:1041400016968C9365FB882780F9462F42954695F5
:1041500046954270482764FB882780F98427B4E09D
:104160006B9FA0011124482B20E0842F877090E0E2
:10417000622F70E02F5F68177907D4F3AA8DBB8D8B
:1041800017969C91D10117968C918927AA8DBB8D8A
:1041900017968C9345FB992790F9842F82958695E5
:1041A00086958270892744FB222720F92827B4E0CE
:1041B0004B9FC0011124822B90E0282F277030E004
:1041C000492F50E09F5F42175307D4F3AA8DBB8D50
:1041D00018962C91D10118969C919227AA8DBB8D8F
:1041E00018969C9383FB222720F9982F991F9927D3
:1041F000991F2927382F32953F70982F92959695C1
:104200009770932791702927880F822B90E0282F91
:104210002E7030E0492F50E09F5F42175307D4F3D0
:10422000AA8DBB8D19962C91D10119969C9192273C
:10423000AA8DBB8D19969C9385FB222720F9982F78
:104240009295969596959270922784FB222720F955
:104250002927B4E08B9FC0011124922F982B80E076
:10426000292F277030E0482F50E08F5F4217530707
:10427000D4F3AA8DBB8D1A962C91D1011A968C91EC
:104280008227AA8DBB8D1A968C9395FB882780F97F
:10429000292F2295269526952270282794FB88277A
:1042A00080F98227B4E09B9F90011124282B30E0F5
:1042B000822F877090E0432F50E03F5F48175907E7
:1042C000D4F3AA8DBB8D1B969C91D1011B968C912A
:1042D0008927AA8DBB8D1B968C9325FB992790F976
:1042E000822F8295869586958270892724FB3327B5
:1042F00030F93827B4E02B9FC0011124832B90E0C4
:10430000282F277030E0492F50E09F5F4217530756
:10431000D4F3AA8DBB8D1C962C91D1011C969C9137
:104320009227AA8DBB8D1C969C9383FB332730F973
:10433000982F991F9927991F3927282F22952F7079
:10434000982F929596959770922791703927880F9C
:10435000382B20E0832F8E7090E0422F50E02F5FAB
:1043600048175907D4F3AA8DBB8D1D969C91D10196
:104370001D968C918927AA8DBB8D1D968C9335FB3C
:10438000992790F9832F8295869586958270892743
:1043900034FB992790F9282F2927B4E03B9FC001CF
:1043A0001124922F982B80E0292F277030E0482F7E
:1043B00050E08F5F42175307D4F3AA8DBB8D1E9632
:1043C0002C91D1011E968C918227AA8DBB8D1E96B1
:1043D0008C9395FB222720F9892F829586958695C7
:1043E0008270822794FB222720F92827B4E09B9F24
:1043F000C0011124822B90E0282F277030E0492F34
:1044000050E09F5F42175307D4F3AA8DBB8D1F96D0
:104410002C91D1011F969C919227AA8DBB8D1F963E
:104420009C9385FB992790F9282F22952695269510
:104430002270292784FB992790F99227B4E08B9F5B
:1044400090011124292B2093D62930E02770822F48
:1044500090E021E0230F432F50E04817590714F450
:10446000322FF7CF3093B42990818091B5298927D5
:10447000819329813A81E217F307B1F70C94263230
:104480009C918091B52989278D9349815A81A417E0
:10449000B507B1F79091D62995FB882780F9292F88
:1044A0002295269526952270282794FB882780F947
:1044B000822754E0959F90011124282B2093D62920
:1044C00030E02770822F90E021E0230F432F50E04F
:1044D0004817590714F4322FF7CF3093B429AA8D17
:1044E000BB8D9C91892F8F70A92FA295AF70E0E1B1
:1044F000AE9FD0011124A80FB11DAE5CBD4D8C91B3
:10450000AA8DBB8D8C939091D62995FB442740F9B9
:10451000292F2295269526952270242794FB8827FB
:1045200080F98227B4E09B9F90011124482F422BF1
:1045300020E0842F877090E0622F70E02F5F681773
:104540007907D4F3EA8DFB8D9181892F8F70A92F84
:10455000A295AF70F0E1AF9FD0011124A80FB11D5B
:10456000AE5CBD4DBC9043FB992790F9842F881F0A
:104570008827881F9827242F22952F70342F329553
:1045800036953770232721709227842F880F982B18
:1045900080E0292F2E7030E0482F50E08F5F4217C7
:1045A0005307D4F3AA8DBB8D12962C91822F8F7056
:1045B000A22FA295AF70E0E1AE9FD0011124A80F09
:1045C000B11DAE5CBD4D5C9195FB662760F9892FEE
:1045D0008295869586958270862794FB662760F97A
:1045E0006827F4E09F9FC0011124862B90E0282FBC
:1045F000277030E0692F70E09F5F62177307D4F374
:10460000AA8DBB8D13962C91922F9F70A22FA295ED
:10461000AF70E0E1AE9FD0011124A90FB11DAE5CD7
:10462000BD4D6C9085FB222720F9682F6295669519
:1046300066956270622784FB222720F92627F4E022
:104640008F9FB0011124622B20E0862F877090E0AD
:10465000A22FB0E02F5FA817B907D4F3AA8DBB8DA6
:1046600014969C91892F8F70A92FA295AF70E0E1CD
:10467000AE9FD0011124A80FB11DAE5CBD4D0C91B1
:10468000AA8DBB8D14960C9365FB882780F9262F85
:104690002295269526952270282764FB882780F985
:1046A0008227B4E06B9F90011124282B30E0822FE9
:1046B000877090E0632F70E03F5F68177907D4F34D
:1046C000EA8DFB8D9581892F8F70A92FA295AF70F0
:1046D000F0E1AF9FD0011124A80FB11DAE5CBD4D1C
:1046E000DC9025FB662760F9822F8295869586955A
:1046F0008270862724FB662760F9682734E0239FB1
:10470000C0011124862B90E0282F277030E0692FFC
:1047100070E09F5F62177307D4F3AA8DBB8D169666
:104720002C91922F9F70A22FA295AF70E0E1AE9FC7
:10473000D0011124A90FB11DAE5CBD4DAC9085FB1D
:10474000222720F9682F6295669566956270622728
:1047500084FB222720F92627F4E08F9FB001112443
:10476000622B80E0962F9770E92EF12C882E912CE9
:104770008F5F8E149F04D4F3AA8DBB8D17969C91E6
:10478000892F8F70A92FA295AF70E0E1AE9FD00165
:104790001124A80FB11DAE5CBD4D4C9165FB2227C5
:1047A00020F9862F8295869586958270822764FBF4
:1047B000222720F98227F4E06F9F90011124822B99
:1047C00090E0682F677070E0E92EF12C9F5FE6168D
:1047D000F706D4F3AA8DBB8D18962C91922F9F705B
:1047E000A22FA295AF70E0E1AE9FD0011124A90FD6
:1047F000B11DAE5CBD4D7C91AA8DBB8D18967C938E
:1048000083FB222720F9982F991F9927991F292781
:10481000A82FA295AF70982F9295969597709A278A
:1048200091702927880F822B90E0282F2E70E22E7E
:10483000F12C892E912C9F5F8E149F04D4F3EA8D66
:10484000FB8D2185922F9F70A22FA295AF70F0E172
:10485000AF9FD0011124A90FB11DAE5CBD4D1C91BD
:1048600085FB992790F9A82FA295A695A695A270E9
:10487000A92784FB222720F92A2734E0839FD0012F
:104880001124922F9A2B80E0292F2770E22EF12CF1
:10489000882E912C8F5F8E149F04D4F3AA8DBB8D2C
:1048A0001A962C91822F8F70A22FA295AF70E0E103
:1048B000AE9FD0011124A80FB11DAE5CBD4DEC9090
:1048C00095FB882780F9292F229526952695227019
:1048D000282794FB882780F98227F4E09F9F900186
:1048E0001124282B30E0822F877090E0832E912CAA
:1048F0003F5F88169906D4F3AA8DBB8D1B969C91B9
:10490000892F8F70A92FA295AF70E0E1AE9FD001E3
:104910001124A80FB11DAE5CBD4D7C9025FB662710
:1049200060F9822F8295869586958270862724FB72
:10493000AA27A0F9A827F4E02F9FC00111246A2F0D
:10494000682B20E0862F8770882E912C822F90E094
:104950002F5F88159905D4F3AA8DBB8D1C969C9169
:10496000892F8F70A92FA295AF70E0E1AE9FD00183
:104970001124A80FB11DAE5CBD4DCC90AA8DBB8D8E
:104980001C96CC9265FB332730F9A62FA295A695ED
:10499000A695A270A32764FB222720F92A27E4E02A
:1049A0006E9FD0011124322F3A2B80E0A32FA770E5
:1049B000B0E0882E912C8F5F8A169B06D4F3AA8DC7
:1049C000BB8D1D969C91892F8F70A92FA295AF70DA
:1049D000E0E1AE9FD0011124A80FB11DAE5CBD4D2A
:1049E0006C9135FB992790F9232F229526952695D2
:1049F0002270292734FB882780F98227F4E03F9F23
:104A000090011124982F922B80E0292F277030E0FD
:104A1000A82FB0E08F5FA217B307D4F3AA8DBB8D88
:104A20001E962C91822F8F70A22FA295AF70E0E17D
:104A3000AE9FD0011124A80FB11DAE5CBD4D5C909E
:104A400095FB222720F9892F82958695869582707D
:104A5000822794FB222720F92827F4E09F9FC0019A
:104A60001124822B90E0282F277030E0A92FB0E08E
:104A70009F5FA217B307D4F3AA8DBB8D1F962C910D
:104A8000922F9F70A22FA295AF70E0E1AE9FD00150
:104A90001124A90FB11DAE5CBD4DFC9083FBAA276C
:104AA000A0F9982F991F9927991FA927282F229598
:104AB0002F70982F92959695977092279170A927AD
:104AC000880FA82BB0E08A2F8E7090E02B2F30E05B
:104AD000BF5F28173907D4F3A3FB222720F98A2FB9
:104AE000881F8827881F82272A2F22952F709A2FA8
:104AF00092959695977092279170282F29278A2F43
:104B0000880FE82FE22BB0E08E2F8E7090E02B2FD5
:104B100030E0BF5F28173907D4F3AA8DBB8D1196FB
:104B2000DC92119715961C93159719966C9319970B
:104B30001D96BC92E5FB222720F98E2F8295869543
:104B4000869582708227E4FB222720F92827B4E08B
:104B5000EB9FC0011124822B90E0282F277030E0BA
:104B6000A92FB0E09F5FA217B307D4F3EA8DFB8DA6
:104B7000E28252875682A68683FB222720F9982F4D
:104B8000991F9927991F9227282F22952F70382F28
:104B9000329536953770322731709327880F892BDD
:104BA00090E0282F2E7030E0A92FB0E09F5FA21771
:104BB000B307D4F3AA8DBB8D1396FC9213971F965F
:104BC0007C921F971B964C931B9717966C9285FBB4
:104BD000992790F9282F2295269526952270292726
:104BE00084FB992790F99227B4E08B9F90011124C0
:104BF000292B2093D629A0E02770822F90E0B1E0E6
:104C0000BA0F2A2F30E02817390714F4AB2FF7CF4B
:104C1000A093B429D101A056BF4FEA8DFB8D90819E
:104C20008C91892780838091D62983FB222720F9C4
:104C3000982F991F9927991F9227382F32953F70E7
:104C4000282F229526952770232721709227880FD9
:104C5000982E992A812C892D8E7090E0282D30E095
:104C6000839428173907D4F311968C911197D8267D
:104C7000EA8DFB8DD18295FA992790F9892D82953D
:104C8000869586958270892794FADD24D0F8D826F7
:104C9000F4E09F9EC0011124D82A912C8D2D87709D
:104CA00090E0292D30E0939428173907D4F3129619
:104CB0008C911297E826EA8DFB8DE282D5FA88273F
:104CC00080F99D2D92959695969592709827D4FA95
:104CD000EE24E0F8E926F4E0DF9EC0011124E82A82
:104CE000D12C8E2D877090E02D2D30E0D394281795
:104CF0003907D4F313968C911397F826EA8DFB8D20
:104D0000F382E3FA992790F98E2D881F8827881F50
:104D100089279E2D92959F702E2D2295269527707E
:104D200029272170982F92278E2D880F892B90E0AC
:104D3000282F2E7030E0E92EF12C9F5FE216F3064B
:104D4000D4F314969C9114970927EA8DFB8D048364
:104D500085FB222720F9982F92959695969592702B
:104D6000922784FB002700F90927F4E08F9FC001F8
:104D70001124082B80E0202F277030E0E82EF12C42
:104D80008F5FE216F306D4F315968C9115971827CA
:104D9000EA8DFB8D158305FB882780F9902F92956E
:104DA000969596959270982704FB112710F919276C
:104DB000F4E00F9FC0011124182B00E0812F8770B1
:104DC00090E0202F30E00F5F28173907D4F31696B4
:104DD0008C9116978525EA8DFB8D868315FB882798
:104DE00080F9212F2295269526952270282714FBDD
:104DF000882780F92827F4E01F9FC0011124F22E94
:104E0000F82A80E02F2D277030E0082F10E08F5F08
:104E100002171307D4F317968C9117978625EA8DFE
:104E2000FB8D8783F5FA882780F93F2D32953695DB
:104E3000369532703827F4FA992790F99327F4E0E1
:104E4000FF9E90011124892F822B90E0282F27703C
:104E500030E0092F10E09F5F02171307D4F3189674
:104E60009C9118977927EA8DFB8D708783FB3327F8
:104E700030F9982F991F9927991F9327382F32952A
:104E80003F70782F72957695777073277170392FF0
:104E90003727982F990F932B80E0292F2E7030E021
:104EA000082F10E08F5F02171307D4F319968C9127
:104EB00019976827EA8DFB8D618795FB222720F9DA
:104EC000692F6295669566956270622794FB22272A
:104ED00020F92627F4E09F9FB0011124622B80E087
:104EE000962F9770292F30E0082F10E08F5F021760
:104EF0001307D4F31A968C911A975827EA8DFB8DD5
:104F0000528765FB882780F9262F229526952695BE
:104F10002270282764FB882780F98227F4E06F9F9E
:104F200090011124282B30E0822F877090E0632FAE
:104F300070E03F5F68177907D4F31B968C911B973D
:104F40004827EA8DFB8D438725FB992790F9822F0F
:104F50008295869586958270892724FB332730F9C0
:104F60003827F4E02F9FC0011124832B90E0282FD5
:104F7000277030E0492F50E09F5F42175307D4F36A
:104F80001C969C911C97C926EA8DFB8DC48683FBD9
:104F9000332730F9982F991F9927991F3927282FE0
:104FA00022952F70982F92959695977092279170D1
:104FB0003927880F382B20E0832F8E7090E0422F06
:104FC00050E02F5F48175907D4F31D968C911D9719
:104FD000B826EA8DFB8DB58635FB992790F9832F8E
:104FE0008295869586958270892734FB992790F95A
:104FF000282F2927F4E03F9FC0011124922F982BDE
:1050000080E0292F277030E0482F50E08F5F421753
:105010005307D4F31E968C911E97A826EA8DFB8D1C
:10502000A68695FB222720F9892F8295869586955D
:105030008270822794FB222720F92827F4E09F9F83
:10504000C0011124822B90E0282F277030E0492FD7
:1050500050E09F5F42175307D4F31F969C91792627
:10506000AA8DBB8D1F967C9285FB992790F9282FDE
:105070002295269526952270292784FB992790F959
:105080009227B4E08B9F90011124292B2093D629DD
:1050900030E02770822F90E021E0230F432F50E073
:1050A0004817590714F4322FF7CF3093B429EB8106
:1050B000FC8190818091B52989278193EB83FC83C2
:1050C00029813A81E217F30791F70C9426322B835A
:1050D0003C83F90190818091B52989278193698169
:1050E0007A81E617F707B1F79091D62995FB8827C3
:1050F00080F9692F6295669566956270682794FBC2
:10510000882780F98627A4E09A9FB0011124682B94
:105110006093D62950E06770862F90E0E1E0E50FBC
:10512000652F70E06817790714F45E2FF7CF50935E
:10513000B429AA8DBB8DEC918E2F8F70E295EF7004
:10514000B0E1EB9FF0011124E80FF11DEE5CFD4D85
:105150008081EA8DFB8D80839091D62995FB66270F
:1051600060F9892F8295869586958270862794FBB3
:10517000662760F98627F4E09F9FB0011124862BF3
:1051800090E0682F677070E0E92FF0E09F5FE6170E
:10519000F707D4F3AA8DBB8D1196EC919E2F9F70CB
:1051A000E295EF70B0E1EB9FF0011124E90FF11DE2
:1051B000EE5CFD4D5081588783FB662760F9982F80
:1051C000991F9927991F6927582F52955F70982F1B
:1051D000929596959770952791706927880F582F0B
:1051E000562B60E0852F8E7090E0E62FF0E06F5F29
:1051F000E817F907D4F3AA8DBB8D1296EC918E2F88
:105200008F70E295EF70B0E1EB9FF0011124E80F91
:10521000F11DEE5CFD4D6081698755FB992790F982
:10522000852F8295869586958270892754FB6627FF
:1052300060F9682774E0579FC0011124962F982BBE
:1052400080E0692F677070E0E82FF0E08F5FE6176D
:10525000F707D4F3AA8DBB8D1396EC918E2F8F7028
:10526000E295EF70B0E1EB9FF0011124E80FF11D22
:10527000EE5CFD4D708095FB882780F9692F629563
:10528000669566956270682794FB882780F9862763
:10529000E4E09E9FB0011124682B50E0862F8770B8
:1052A00090E0E52FF0E05F5FE817F907D4F3AA8DEF
:1052B000BB8D1496EC918E2F8F70E295EF70B0E15C
:1052C000EB9FF0011124E80FF11DEE5CFD4D5081C4
:1052D0005A8765FB552750F9862F829586958695C6
:1052E0008270852764FB552750F9582774E0679F23
:1052F000C0011124652F682B80E0E62FE770F0E0F5
:10530000A82FB0E08F5FAE17BF07D4F3AA8DBB8D77
:105310001596EC918E2F8F70E295EF70B0E1EB9FB8
:10532000F0011124E80FF11DEE5CFD4D50815B870B
:1053300065FB552750F9962F929596959695927004
:10534000952764FB882780F9892794E0699FB0013D
:105350001124582F562B80E0652F677070E0E82FDE
:10536000F0E08F5FE617F707D4F3AA8DBB8D169692
:10537000EC918E2F8F70E295EF70B0E1EB9FF00112
:105380001124E80FF11DEE5CFD4D60816C8755FB2B
:10539000992790F9852F8295869586958270892721
:1053A00054FB662760F9682774E0579FC0011124F9
:1053B000562F582BE0E0852F877090E06E2F70E01D
:1053C000EF5F68177907D4F3EA8DFB8DA7818A2FE9
:1053D0008F70A295AF70F0E1AF9FD0011124A80F9C
:1053E000B11DAE5CBD4D6C916D8755FB992790F951
:1053F000852F8295869586958270892754FBEE27A6
:10540000E0F9E82774E0579FC00111248E2B90E04B
:10541000A82FA770B0E0692F70E09F5F6A177B0725
:10542000D4F3EA8DFB8DA0859A2F9F70A295AF7063
:10543000F0E1AF9FD0011124A90FB11DAE5CBD4DAD
:105440005C915D8383FBEE27E0F9982F991F9927E4
:10545000991F9E27E82FE295EF70582F5295569589
:1054600057705E275170E92FE527880F982F9E2BE4
:1054700080E0A92FAE70B0E0682F70E08F5F6A17F0
:105480007B07D4F3EA8DFB8DA1858A2F8F70A295BF
:10549000AF70F0E1AF9FD0011124A80FB11DAE5C39
:1054A000BD4D8C9095FB662760F9E92FE295E69556
:1054B000E695E270E62794FB662760F96E2754E0D4
:1054C000959FF0011124E62B80E0AE2FA770B0E08D
:1054D000682F70E08F5F6A177B07D4F3AA8DBB8DAE
:1054E0001A969C91892F8F70A92FA295AF70F0E129
:1054F000AF9FD0011124A80FB11DAE5CBD4D6C90C3
:10550000E5FB882780F96E2F629566956695627037
:105510006827E4FB882780F9862754E0E59FB001DF
:105520001124682B80E0A62FA770B0E0E82FF0E0F0
:105530008F5FEA17FB07D4F3EA8DFB8DA3858A2FD3
:105540008F70A295AF70F0E1AF9FD0011124A80F2A
:10555000B11DAE5CBD4D5C915E8365FBEE27E0F94D
:10556000862F82958695869582708E2764FBEE271E
:10557000E0F9E82774E0679FC00111248E2B90E0CA
:10558000A82FA770B0E0692F70E09F5F6A177B07B4
:10559000D4F3EA8DFB8DA4859A2F9F70A295AF70EE
:1055A000F0E1AF9FD0011124A90FB11DAE5CBD4D3C
:1055B0005C915F8385FB552750F9E82FE295E695CE
:1055C000E695E270E52784FB662760F96E2774E0B4
:1055D000879FF0011124562F5E2B80E0E52FE770A6
:1055E000F0E0A82FB0E08F5FAE17BF07D4F3EA8DCD
:1055F000FB8DA5858A2F8F70A295AF70F0E1AF9FCC
:10560000D0011124A80FB11DAE5CBD4DAC9055FB6F
:10561000992790F9652F629566956695627069275E
:1056200054FB882780F9862794E0599FB001112404
:10563000982F962B80E0692F677070E0E82FF0E0DC
:105640008F5FE617F707D4F3AA8DBB8D1E96EC91FA
:105650008E2F8F70E295EF70B0E1EB9FF001112477
:10566000E80FF11DEE5CFD4D908095FB552750F93C
:10567000892F8295869586958270852794FB55277C
:1056800050F95827E4E09E9FC0011124852B90E03B
:10569000682F677070E0E92FF0E09F5FE617F7076B
:1056A000D4F3AA8DBB8D1F96EC919E2F9F70E2952F
:1056B000EF70B0E1EB9FF0011124E90FF11DEE5CFA
:1056C000FD4D108183FB552750F9982F991F99277D
:1056D000991F5927682F62956F70982F929596950C
:1056E0009770962791705927880F582BE0E0852FE7
:1056F0008E7090E06E2F70E0EF5F68177907D4F33B
:1057000053FB992790F9852F881F8827881F8927A1
:10571000652F62956F70952F929596959770962745
:1057200091708927550F582BE0E0852F8E7090E0FF
:105730006E2F70E0EF5F68177907D4F355FB882769
:1057400080F9E52FE295E695E695E270E82754FBAF
:10575000882780F9E827F4E05F9FC0011124E82B37
:1057600050E08E2F877090E0652F70E05F5F6817C4
:105770007907D4F3E3FB552750F98E2F881F88272C
:10578000881F58279E2F92959F708E2F8295869501
:1057900087709827917059278E2F880F582BE0E03B
:1057A000852F8E7090E06E2F70E0EF5F681779079D
:1057B000D4F355FBFF24F0F8852F829586958695C6
:1057C00082708F2554FBFF24F0F8F82664E0569F82
:1057D000C0011124F82AF092D62950E08F2D87704D
:1057E00090E0E1E0E50F652F70E06817790714F4A9
:1057F0005E2FF7CF2E8B3F8B4D8B2B8A3C8A50939D
:10580000B429AA8DBB8D0C91802F0E94BB05382E28
:10581000F5FABB24B0F88F2D829586958695827017
:10582000B826F4FA882780F9B826B4E0FB9EC001B8
:105830001124FB2CF82A40E08F2D877090E0242F54
:1058400030E04F5F28173907D4F38B850E94BB05E2
:105850008E87F5FABB24B0F88F2D829586958695B4
:105860008270B826F4FADD24D0F8BD24E4E0FE9E70
:10587000C0011124B82A40E08B2D877090E0242FBE
:1058800030E04F5F28173907D4F3862D0E94BB05FF
:10589000282EB5FADD24D0F88B2D82958695869535
:1058A0008270D826B4FAFF24F0F8DF24F4E0BF9E1B
:1058B000C0011124D82A40E08D2D877090E0242F5C
:1058C00030E04F5F28173907D4F3812F0E94BB05C2
:1058D000482ED3FAFF24F0F88D2D881F8827881FC3
:1058E000F826ED2CE2948FE0E8228D2D82958695A6
:1058F00087708E2581708F25FD2CFF0CF82A40E0E3
:105900008F2D8E7090E0242F30E04F5F28173907DD
:10591000D4F38A850E94BB058F87F5FAEE24E0F860
:105920008F2D8295869586958270E826F4FACC2490
:10593000C0F8EC2424E0F29EC0011124E82A40E0E3
:105940008E2D877090E0242F30E04F5F28173907A5
:10595000D4F3882D0E94BB05582EE5FACC24C0F85C
:105960008E2D8295869586958270C826E4FADD2470
:10597000D0F8CD2434E0E39E70011124CE2840E01D
:105980008C2D877090E0242F30E04F5F2817390767
:10599000D4F3892D0E94BB05888BC5FADD24D0F88D
:1059A0008C2D8295869586958270D826C4FAFF2420
:1059B000F0F8FD2444E0C49E60011124DF2CDC28B3
:1059C00040E08D2D877090E0242F30E04F5F281746
:1059D0003907D4F3872D0E94BB05898BD5FAFF24A4
:1059E000F0F88D2D8295869586958270F826D4FAEA
:1059F000EE24E0F8FE2454E0D59EC0011124F82ADC
:105A000040E08F2D877090E0242F30E04F5F281703
:105A10003907D4F38D810E94BB058A8BF5FAEE24F9
:105A2000E0F88F2D8295869586958270E826F4FAA7
:105A3000BB24B0F8EB2464E0F69EC0011124E82AF0
:105A400040E08E2D877090E0242F30E04F5F2817C4
:105A50003907D4F38A2D0E94BB05D82EE5FABB2462
:105A6000B0F88E2D8295869586958270B826E4FAD8
:105A7000CC24C0F8BC2474E0E79E70011124BE2839
:105A800040E08B2D877090E0242F30E04F5F281787
:105A90003907D4F389850E94BB05E82EB5FACC24DA
:105AA000C0F88B2D8295869586958270C826B4FAAB
:105AB000FF24F0F8CF24A4E0BA9EC0011124C82A24
:105AC00040E08C2D877090E0242F30E04F5F281746
:105AD0003907D4F38D850E94BB05B82EC5FAFF2483
