:100000000C94E4000C9405010C9405010C9405017A
:100010000C9405010C9405010C9405010C94050148
:100020000C9405010C9405010C9405010C94050138
:100030000C9405010C9405010C9405010C94050128
:100040000C9405010C9405010C9405010C94050118
:100050000C9405010C9405010C9405010C94050108
:100060000C9405010C9405010C9405010C940501F8
:100070000C9405010C9405010C9405010C940501E8
:100080000C9405010C9405010C9405010C940501D8
:100090000C9405010C9405010C9405010C940501C8
:1000A0000C9405010C9405010C9405010C940501B8
:1000B0000C9405010C9405010C9405010C940501A8
:1000C0000C9405010C9405010C9405010C94050198
:1000D0000C9405010C9405010C9405010C94050188
:1000E0000C9405010C9405010C9405010C94050178
:1000F0000C9405010C9405010C9405010C94050168
:100100000C9405010C9405010C9405010C94050157
:100110000C9405010C9405010C9405010C94050147
:100120000C9405010C9405010C9405010C94050137
:100130000C9405010C9405010C9405010C94050127
:100140000C9405010C9405010C9405010C94050117
:100150000C9405010C9405010C9405010C94050107
:100160000C9405010C9405010C9405010C940501F7
:100170000C9405010C9405010C9405010C940501E7
:100180000C9405010C9405010C9405010C940501D7
:100190000C9405010C9405010C9405010C940501C7
:1001A0000C9405010C9405010C9405010C940501B7
:1001B0000C9405010C9405010C9405010C940501A7
:1001C0000C9405010C94050111241FBECFEFDFE351
:1001D000DEBFCDBF00E00CBF14E2A0E0B0E2E0E77C
:1001E000FBE800E00BBF02C007900D92A232B107FE
:1001F000D9F715E2A2E2B4E201C01D92AF3AB1070D
:10020000E1F70E94F6430C94B6450C940000CF939E
:10021000DF93C42FD52FA0E0B0E0A617B707F0F406
:10022000FC01EA0FFB1F20812A3328F0206230E016
:100230002755310903C030E020533109E181EA3309
:1002400028F0E062F0E0E755F10902C0F0E0F09735
:100250002295207FE22BE9931296DFCFCA01DF912E
:10026000CF9108951F93CF93DF93DA0111969C01EC
:10027000260F371F82179307B9F0EC01FC0111918B
:10028000CF01E12FE295EF70F0E0E050F04E1081E9
:10029000FD0131971083E881EF70F0E0E050F04EFF
:1002A000E081EC931296E6CF660F771FFA01E60F16
:1002B000F71F1082DF91CF911F910895E0E4F6E0DF
:1002C00088E0818384E08283E0EAF8E083E085834C
:1002D0008BE0868317828481806184838481886037
:1002E00084830895CF93DF931F921F92CDB7DEB71B
:1002F00069837A8320E030E049815A8124173507E9
:1003000069F04091A10847FF06C02091A008FC01B8
:10031000208381E004C02F5F3F4FEECF80E00F903D
:100320000F90DF91CF9108958091A10887FFFCCFB6
:100330008091A00808959091A10895FFFCCF80932B
:10034000A0080895FC01608371834283148613869C
:10035000168615860895FC0162830895FC01958533
:1003600026859F5F937081E0921301C080E008951D
:100370000F931F93CF93DF931F92CDB7DEB78C01FE
:1003800069830E94AE0169818823A9F0D8011D9676
:100390009C911D97F801E90FF11D67839F5F937092
:1003A000F80195870190F081E02D93819C7F129652
:1003B0002C91922B93830F90DF91CF911F910F91EE
:1003C0000895FC012385948581E0291301C080E014
:1003D0000895FC018485DF01A80FB11D13968C914F
:1003E00094859F5F937094870895FC0183858F5F48
:1003F00083702485A081B1819C91821749F0238567
:10040000DF01A20FB11D13969C93838781E00895AD
:1004100080E00895CF93DF93FC0186859585A081C8
:10042000B181981307C013968C9113978C7F139604
:100430008C930AC08685EF01C80FD11D8F818C93E4
:1004400086858F5F83708687DF91CF910895FC0149
:10045000848170FF02C0816001C08E7F84836083CD
:100460000895FC01848180FF04C0808190E0916048
:100470000895808190E008951092520010925500E6
:10048000809150008860809350008091510083FFDC
:10049000FCCF88ED84BF83E08093400088E08093A8
:1004A000500080E680930106809305060895DF9250
:1004B000EF92FF920F931F93CF93DF93FC019B0169
:1004C000205F3F4FDC01EB014991BE014D93C21704
:1004D000D307C9F7BC01635F7F4F08E110E2AC01AD
:1004E000425F5F4F9C01215F3F4FDC011C9681E022
:1004F000E801E9908E019081E926EB019881C92FEE
:10050000D0E0CE5DDC4D9881E926E08AEA01988151
:10051000C92FD0E0CE5DDC4DF8809181F926F18ABB
:10052000E9019881C92FD0E0CE5DDC4DD881928160
:10053000DD2ED926D28ACC91D0E0CE5DDC4DC881AB
:1005400093819C27938BC481EC26E48AC581FC2689
:10055000F58AC681DD2DDC27D68BC7819C27978B3A
:10056000C085EC26E08EC185FC26F18EC285DD2E8D
:10057000DC26D28EC3859C27938FCC91EC26E48E0B
:10058000EB01E880FE24F58EEA01F880DD2DDF2501
:10059000D68FE901F8809F25978F8F5F605F7F4F2F
:1005A0007096405F5F4F205F3F4F50968B3009F051
:1005B0009FCFDF91CF911F910F91FF90EF90DF9030
:1005C00008953091AE2534FB442740F9232F221F94
:1005D0002227221F4227232F229526952770532F4B
:1005E000529556955695537052275170242F2527B2
:1005F000E4E03E9FA0011124422B4093AE2550E041
:100600004E70242F30E041E0450FE52FF0E0E21777
:10061000F30714F4542FF7CF50938D25DB01FC0121
:10062000AC01405F5F4F8D919081892781939091BC
:10063000AE2594FB222720F9892F881F8827881F41
:100640002827892F829586958770392F3295369580
:100650003695337038273170822F832764E0969F58
:1006600090011124282B2093AE2530E02E70822F8C
:1006700090E021E0230F632F70E06817790714F4EE
:10068000322FF7CF30938D25E417F50761F60895E3
:100690003091AE2534FB442740F9232F221F222717
:1006A000221F4227232F229526952770532F5295DC
:1006B00056955695537052275170242F2527E4E004
:1006C0003E9FA0011124422B4093AE2550E04E7076
:1006D000242F30E041E0450FE52FF0E0E217F3076B
:1006E00014F4542FF7CF50938D2561307105D9F54F
:1006F000FC01AC01405F5F4FA081B0E0AE5DBC4D3E
:100700008C9181939091AE2594FB222720F9892F1B
:10071000881F8827881F2827892F829586958770AC
:10072000392F329536953695337038273170822FB0
:10073000832764E0969F90011124282B2093AE25F7
:1007400030E02E70822F90E021E0230F632F70E0C5
:100750006817790714F4322FF7CF30938D25E417FB
:10076000F50751F608956230710509F043C0DC01C8
:10077000AC01405F5F4FEC918E2F8F70E295EF7070
:1007800090E1E99FF0011124E80FF11DEE5DFD4DB0
:1007900080818D939091AE2594FB222720F9892F9B
:1007A000881F8827881F2827892F8295869587701C
:1007B000392F329536953695337038273170822F20
:1007C0008327E4E09E9F90011124282B2093AE25DF
:1007D00030E02E70822F90E021E0230F632F70E035
:1007E0006817790714F4322FF7CF30938D25A417AB
:1007F000B50709F60895FC019091AE2594FB2227D8
:1008000020F9892F881F8827881F2827692F62953C
:1008100066956770892F8295869586958370862761
:100820008170622F682784E0989F90011124262B05
:1008300030E0822F8E7090E0432F50E03F5F4817EA
:100840005907D4F38181958191839185958395850D
:100850009187858724FB662760F9822F881F882768
:10086000881F6827422F429546954770822F8295B0
:1008700086958695837084278170462F482784E06B
:10088000289FB0011124642B20E0862F8E7090E009
:10089000422F50E02F5F48175907D4F38281928589
:1008A00092838287868196859683868764FB442718
:1008B00040F9862F881F8827881F4827262F2295D2
:1008C00026952770862F8295869586958370822738
:1008D0008170242F282784E0689FA0011124422BD7
:1008E0004093AE2580E04E70242F30E091E0980FC9
:1008F000482F50E04217530714F4892FF7CF809305
:100900008D25838197859383938597879781938797
:1009100087830895FC019091AE2594FB222720F94E
:10092000892F881F8827881F2827692F6295669539
:100930006770892F8295869586958370862781704A
:10094000622F682784E0989F90011124262B30E0C5
:10095000822F8E7090E0432F50E03F5F4817590779
:10096000D4F384819581948396819583978196832E
:10097000878324FB662760F9822F881F8827881FBA
:100980006827422F429546954770822F829586951B
:100990008695837084278170462F482784E0289F9E
:1009A000B0011124642B20E0862F8E7090E0422F3E
:1009B00050E02F5F48175907D4F3808592859087C0
:1009C0008287818593859187838764FB442740F9DB
:1009D000862F881F8827881F4827262F229526952F
:1009E0002770862F829586958695837082278170E1
:1009F000242F282784E0689FA0011124422B4093D4
:100A0000AE2580E04E70242F30E091E0980F482F03
:100A100050E04217530714F4892FF7CF80938D25A8
:100A2000848597859487968597879585968785870A
:100A3000089587FF04C0880F9BE189270895880FD8
:100A400008959F92AF92BF92CF92DF92EF92FF9262
:100A50000F931F93CF93DF93CDB7DEB7A097CDBF92
:100A6000DEBF7C015C01CE0101966C018E010F5E40
:100A70001F4F80E1982E900EF50181915F01F801E2
:100A800081938F010E941905F60181936F019012E5
:100A9000F3CFDE015496BE016C5F7F4F5701F3E048
:100AA000AF0EB11C8E010C5D1F4F9091AE2594FBD3
:100AB000442740F9892F881F8827881F4827292F16
:100AC000229526952770892F829586958695837025
:100AD00082278170242F282784E0989FA001112469
:100AE000422B4093AE2580E04E70242F30E091E001
:100AF000980F482F50E04217530714F4892FF7CF6F
:100B000080938D25CB010397FC01E0800196FC01C9
:100B100090819D0122503109F901F0802F5F3F4FF4
:100B2000F90130818C91A501435051092E2D2927BF
:100B300028272F252327FA012083AD01435051098F
:100B4000FA012081AB0141505109FA01D080A50181
:100B5000425051099327982792279D25FA019083A7
:100B6000FB0190814F5F5F4F89278F2582278D255D
:100B7000FA018083FE24F9263F252327F5012083EF
:100B800014966C5F7F4FF4E0AF0EB11CA017B10755
:100B900009F08BCFA096CDBFDEBFDF91CF911F9123
:100BA0000F91FF90EF90DF90CF90BF90AF909F900C
:100BB00008952F923F924F925F926F927F928F9201
:100BC0009F92AF92BF92CF92DF92EF92FF920F93DC
:100BD0001F93CF93DF93CDB7DEB72B97CDBFDEBF8B
:100BE00089879A87DC011496AC90149718962C90FC
:100BF00018971C96BC901C971596FC901597199603
:100C00003C9019971D96CC901D9716960C911697AF
:100C10001A964C901A971E96DC901E9717961C9168
:100C200017971B965C901B971F96EC901F976C91E3
:100C300011965C91119712964C91129713963C91D4
:100C40001397262F2A25952F9F25742F7027798398
:100C5000732F71277A833D014D0180E1880E911C2D
:100C6000D3018C912F833E834D835C836B83988764
:100C70000E941905F30181933F012F813E814D812F
:100C80005C816B819885E815F90551F7A985BA85CE
:100C90006C9011968C91119712969C9012971396C6
:100CA0008C90F091AE25F4FBEE27E0F97F2F771FB3
:100CB0007727771FAE2FA727EF2FE295E695E770EE
:100CC0007F2F72957695769573707E277170EA2FD7
:100CD000E72774E0F79FD0011124EA2BE093AE25BB
:100CE00070E0EE70F0E077247394770EA72FB0E0F9
:100CF000AE17BF0714F4772DF6CF70938D25A98515
:100D0000BA8514967C911497A224AB24EC91AE265C
:100D1000A726AC921596AC901597F324FC24F826E0
:100D2000FA241196FC9211971696FC9016970425BA
:100D30000D2509250F2512960C93129717960C91E5
:100D4000179715251E251825102713961C93A0917B
:100D5000AE25A4FB112710F9EA2FEE1FEE27EE1F98
:100D60001E27FA2FF295F695F770EA2FE295E69591
:100D7000E695E370FE27F1701F27B4E0AB9FF0010A
:100D800011241E2B712CE12FEE70F0E0A72DB0E0A6
:100D90007394AE17BF07D4F3E985FA857084EB2D01
:100DA000E2256E2776277725A985BA8514967C9348
:100DB00014971996BC91BB876C2D63255627A526E1
:100DC000AB26E985FA85A582A2845D2D54254527A9
:100DD000F426FA24F682F3844E2D45253427032782
:100DE0000F25078314FBEE27E0F9312F331F33273C
:100DF000331FE327412F429546954770312F329597
:100E0000369536953370342731704E2F432734E0B2
:100E1000139FF0011124E42B30E04E2F4E7050E070
:100E2000632F70E03F5F64177507D4F3A985BA8517
:100E30001C963C911C97B724B326B2261896BC92F8
:100E400018971D960C91BB85CB26C026C926A9856F
:100E5000BA851996CC9219971E96CC901E97DA24D3
:100E6000DC244981D4261A96DC921A971F961C918D
:100E70001F97EF24E1265A81E5261B96EC92E4FBAE
:100E8000552750F94E2F441F4427441F45276E2FE6
:100E90006295669567705E2F52955695569553707C
:100EA00056275170452764E0E69FF0011124E42B9A
:100EB000E093AE25F0E0EE704E2F50E0E1E0EF0F52
:100EC0006F2F70E06417750714F4FE2FF7CFF093BF
:100ED0008D25262423262225A985BA851C962C93A8
:100EE0001C973826302693251D969C931D974924E0
:100EF0004C24398143261E964C921E975824512625
:100F00004A8154261F965C922B96CDBFDEBFDF919F
:100F1000CF911F910F91FF90EF90DF90CF90BF90F6
:100F2000AF909F908F907F906F905F904F903F9089
:100F30002F900895FC018181948191838483828123
:100F4000908592838087838194859383848786812B
:100F5000918596838187878195859783858783850A
:100F60009685938786870895CF93DF93DC01FB01F5
:100F70009091AE2594FB222720F9892F881F88277E
:100F8000881F2827892F829586958770392F32955B
:100F900036953695337038273170822F832744E099
:100FA000949F90011124282B2093AE2530E02E70C1
:100FB000822F90E021E0230F432F50E0481759077C
:100FC00014F4322FF7CF30938D25858190E08E5D1C
:100FD0009F4DC081D0E09E012E5D3E4DEC01988179
:100FE000E90188818927C285D0E0CE5DDC4D9881FA
:100FF0008927C785D0E0CE5DDC4D988189278C9309
:10100000858190E08E5D9E4DC081D0E09E012E5D79
:101010003C4DEC019881E90188818927C285D0E0A7
:10102000CE5DDF4D98818927C785D0E0CE5DDC4D50
:101030009881892711968C931197858190E08E5D18
:101040009C4DC081D0E09E012E5D3C4DEC0198810D
:10105000E90188818927C285D0E0CE5DDE4D988187
:101060008927C785D0E0CE5DDF4D9881892712960C
:101070008C931297858190E08E5D9C4DC081D0E06D
:101080009E012E5D3F4DEC019881E9018881892701
:10109000C285D0E0CE5DDC4D98818927C785D0E040
:1010A000CE5DDE4D9881892713968C93139790918E
:1010B000AE2594FB222720F9892F881F8827881FB7
:1010C0002827892F829586958770392F32953695F6
:1010D0003695337038273170822F8327D4E09D9F57
:1010E00090011124282B30E0822F8E7090E0432F46
:1010F00050E03F5F48175907D4F3818590E08E5D3B
:101100009F4DC481D0E0AE014E5D5E4DEC019881F3
:10111000EA0188818927C685D0E0CE5DDC4D9881C3
:101120008927C381D0E0CE5DDC4D98818927149654
:101130008C931497818590E08E5D9E4DC481D0E0A4
:10114000AE014E5D5C4DEC019881EA0188818927F2
:10115000C685D0E0CE5DDF4D98818927C381D0E080
:10116000CE5DDC4D9881892715968C9315978185E6
:1011700090E08E5D9C4DC481D0E0AE014E5D5C4D33
:10118000EC019881EA0188818927C685D0E0CE5D8F
:10119000DE4D98818927C381D0E0CE5DDF4D9881F7
:1011A000892716968C931697818590E08E5D9C4DCD
:1011B000C481D0E0AE014E5D5F4DEC019881EA0143
:1011C00088818927C685D0E0CE5DDC4D988189274E
:1011D000C381D0E0CE5DDE4D9881892717968C9330
:1011E000179724FB442740F9822F881F8827881FE0
:1011F0004827822F829586958770922F9295969593
:1012000096959370982791704927D4E02D9FC0013F
:101210001124842B90E0282F2E7030E0492F50E0CD
:101220009F5F42175307D4F3258530E02E5D3F4D75
:10123000C085D0E0AE014E5D5E4DE9012881EA0136
:1012400098819227C281D0E0CE5DDC4D2881922723
:10125000C781D0E0CE5DDC4D2881922718969C9303
:101260001897258530E02E5D3E4DC085D0E0AE015B
:101270004E5D5C4DE9012881EA0198819227C28187
:10128000D0E0CE5DDF4D28819227C781D0E0CE5DD2
:10129000DC4D2881922719969C931997258530E07B
:1012A0002E5D3C4DC085D0E0AE014E5D5C4DE90148
:1012B0002881EA0198819227C281D0E0CE5DDE4D7F
:1012C00028819227C781D0E0CE5DDF4D288192270B
:1012D0001A969C931A97258530E02E5D3C4DC0856B
:1012E000D0E0AE014E5D5F4DE9012881EA019881B1
:1012F0009227C281D0E0CE5DDC4D28819227C78144
:10130000D0E0CE5DDE4D288192271B969C931B97E3
:1013100084FB442740F9982F991F9927991F492743
:10132000282F229526952770982F92959695969519
:10133000937092279170242F2927D4E08D9FA001CC
:101340001124422B4093AE2580E04E70242F30E0D4
:1013500091E0980F482F50E04217530714F4892F5B
:10136000F7CF80938D25818190E08E5D9F4DC48560
:10137000D0E09E012E5D3E4DEC019881E90188810F
:101380008927C681D0E0CE5DDC4D98818927C38551
:10139000D0E0CE5DDC4D988189271C968C931C97FC
:1013A000818190E08E5D9E4DC485D0E09E012E5DD2
:1013B0003C4DEC019881E90188818927C681D0E004
:1013C000CE5DDF4D98818927C385D0E0CE5DDC4DB1
:1013D000988189271D968C931D97818190E08E5D61
:1013E0009C4DC485D0E09E012E5D3C4DEC01988162
:1013F000E90188818927C681D0E0CE5DDE4D9881E4
:101400008927C385D0E0CE5DDF4D988189271E9660
:101410008C931E97818190E08E5D9C4DC485D0E0B9
:101420009E012E5D3F4DEC019881E901888189275D
:10143000C681D0E0CE5DDC4D98818927E385F0E060
:10144000EE5DFE4D908189271F968C93DF91CF91A1
:101450000895FF920F931F93CF93DF93442321F1BD
:10146000F42E8B01EC018AE048130CC061E070E0BF
:10147000CE010E944803CE010E94FB03B8016056D2
:101480007F4F11C061E070E0CE010E944803CE01A1
:101490000E94FB03CE010E942105B80180E1F89E65
:1014A000600D711D1124CE01DF91CF911F910F911D
:1014B000FF900C94E1022F923F924F925F926F92B5
:1014C0007F928F929F92AF92BF92CF92DF92EF92D4
:1014D000FF920F931F93CF93DF93CDB7DEB766973D
:1014E000CDBFDEBFFC01688B798B9091AE25442384
:1014F00021F14A3009F05AC794FB222720F9892F9D
:10150000881F8827881F2827892F829586958770AE
:10151000392F329536953695337038273170822FB2
:10152000832704E0909F90011124282B2093AE255F
:1015300030E02E70822F90E065C294FB222720F9C4
:10154000892F881F8827881F2827892F82958695AD
:101550008770392F3295369536953370382731702C
:10156000822F832704E0909F90011124282B209341
:10157000AE2530E02E70822F90E021E0230F432F24
:1015800050E04817590714F4322FF7CF30938D25C8
:101590009081A889B9898C91892780839091AE2503
:1015A00094FB222720F9892F881F8827881F282746
:1015B000892F829586958770392F32953695369585
:1015C000337038273170822F8327B4E09B9F9001BE
:1015D0001124282B30E0822F8E7090E0432F50E0B2
:1015E0003F5F48175907D4F39181A889B9891196AB
:1015F0008C918927818324FB442740F9822F881FFF
:101600008827881F8427422F429546954770922F3E
:10161000929596959695937094279170482F4927A7
:10162000B4E02B9FC0011124842B90E0282F2E7052
:1016300030E0492F50E09F5F42175307D4F32281D7
:10164000A889B98912969C919227928384FB44279A
:1016500040F9982F991F9927991F4927282F2295DC
:1016600026952770982F9295969596959370922728
:101670009170242F2927B4E08B9FA0011124422BC5
:1016800020E0842F8E7090E0622F70E02F5F68174B
:101690007907D4F39381A889B98913968C91892706
:1016A0008383242F22952F70842F8295869586958B
:1016B000837028272170842F881F8827881F8227FE
:1016C000B4E04B9F90011124282B30E0822F8E70C4
:1016D00090E0432F50E03F5F48175907D4F39481BF
:1016E000A889B98914968C9189278483422F4295C1
:1016F0004F70822F82958695869583708427482F18
:101700004170B4E02B9FC0011124842B90E0282F5E
:101710002E7030E0492F50E09F5F42175307D4F3FB
:101720002581A889B98915969C9192279583482F80
:1017300042954F70982F929596959695937049275C
:10174000242F2170B4E08B9FA0011124422B20E0B4
:10175000842F8E7090E0622F70E02F5F68177907FA
:10176000D4F39681A889B98916968C9189278683A6
:10177000242F22952F70842F8295869586958370CD
:101780002827822F8170B4E04B9F90011124282BD1
:1017900030E0822F8E7090E0432F50E03F5F48177B
:1017A0005907D4F39781A889B98917968C9189270D
:1017B0008783422F42954F70822F8295869586951A
:1017C00083708427482F4170B4E02B9FC0011124FF
:1017D000842B90E0282F2E7030E0492F50E09F5F3F
:1017E00042175307D4F32085A889B98918969C918C
:1017F00092279087482F42954F70982F92959695F3
:10180000969593704927242F2170B4E08B9FA001F7
:101810001124422B20E0842F8E7090E0622F70E024
:101820002F5F68177907D4F39185A889B98919962C
:101830008C9189278187242F22952F70842F829560
:101840008695869583702827822F8170B4E04B9F00
:1018500090011124282B30E0822F8E7090E0432FCE
:1018600050E03F5F48175907D4F39285A889B9899A
:101870001A968C9189278287422F42954F70822F2A
:1018800082958695869583708427482F4170B4E0B1
:101890002B9FC0011124842B90E0282F2E7030E064
:1018A000492F50E09F5F42175307D4F32385A8893F
:1018B000B9891B969C9192279387482F42954F7028
:1018C000982F92959695969593704927242F21707D
:1018D000B4E08B9FA0011124422B20E0842F8E7056
:1018E00090E0622F70E02F5F68177907D4F394853A
:1018F000A889B9891C968C9189278487242F2295E1
:101900002F70842F82958695869583702827822F45
:101910008170B4E04B9F90011124282B30E0822F7E
:101920008E7090E0432F50E03F5F48175907D4F383
:101930009585A889B9891D968C9189278587422F1D
:1019400042954F70822F8295869586958370842765
:10195000482F4170B4E02B9FC0011124842B90E0EC
:10196000282F2E7030E0492F50E09F5F4217530719
:10197000D4F32685A889B9891E969C9192279687CB
:10198000482F42954F70982F929596959695937003
:101990004927242F2170B4E08B9FA0011124422BF2
:1019A00020E0842F8E7090E0622F70E02F5F681728
:1019B0007907D4F39785A889B9891F968C918927CF
:1019C0008787242F22952F70842F82958695869560
:1019D00083702827822F8170B4E04B9F90011124DF
:1019E000282B2093AE2530E02E70822F90E021E04E
:1019F000230F432F50E04817590714F00C94371861
:101A0000322FF5CF21E0230F432F50E0481759071D
:101A100014F4322FF7CF30938D25808190E08E5DC6
:101A20009C4DDC018C9180839091AE2594FB4427E2
:101A300040F9892F881F8827881F4827292F22953A
:101A400026952770392F3295369536953370322783
:101A50003170242F2327B4E09B9FA0011124422B37
:101A600020E0842F8E7090E0622F70E02F5F681767
:101A70007907D4F3818190E08E5D9C4DDC019C90D0
:101A800044FB222720F9842F881F8827881F2827B6
:101A9000842F829586958770942F9295969596952A
:101AA000937098279170822F8927B4E04B9F900103
:101AB0001124282B30E0822F8E7090E0432F50E0CD
:101AC0003F5F48175907D4F3828190E08E5D9C4DAB
:101AD000DC01EC9024FB442740F9822F881F8827E3
:101AE000881F8427422F429546954770922F9295E2
:101AF00096959695937094279170482F4927B4E056
:101B00002B9FC0011124842B90E0282F2E7030E0F1
:101B1000492F50E09F5F42175307D4F3238130E0F1
:101B20002E5D3C4DD9016C91482F42954F70982FF6
:101B3000929596959695937049274170282F221F6C
:101B40002227221F2427B4E08B9FA0011124422BBF
:101B500020E0842F8E7090E0A22FB0E02F5FA817B6
:101B6000B907D4F3848190E08E5D9C4DDC013C90FC
:101B70003482242F22952F70842F82958695869506
:101B800083702827822F8170B4E04B9F900111242D
:101B9000282B30E0822F8E7090E0432F50E03F5F83
:101BA00048175907D4F3858190E08E5D9C4DDC0188
:101BB000FC90422F42954F70822F82958695869594
:101BC00083708427482F4170B4E02B9FC0011124FB
:101BD000842B90E0282F2E7030E0492F50E09F5F3B
:101BE00042175307D4F3268130E02E5D3C4DD901D6
:101BF0008C90482F42954F70982F92959695969578
:101C000093704927242F2170B4E08B9FA0011124E9
:101C1000422B20E0842F8E7090E0022F10E02F5F87
:101C200008171907D4F3878190E08E5D9C4DDC0185
:101C3000BC90242F22952F70842F829586958695AF
:101C400083702827822F8170B4E04B9F900111246C
:101C5000282B30E0822F8E7090E0432F50E03F5FC2
:101C600048175907D4F3808590E08E5D9C4DDC01C8
:101C70005C915087022F02950F70822F8295869576
:101C8000869583708027082F0170B4E02B9FC001D8
:101C90001124802B90E0282F2E7030E0092F10E0C7
:101CA0009F5F02171307D4F3218530E02E5D3C4D72
:101CB000D9012C90282F22952F70982F92959695C8
:101CC0009695937029272170B4E08B9F8001112491
:101CD000922F902B80E0292F2E70622E712C482E8F
:101CE000512C8F5F46145704D4F3228530E02E5DCB
:101CF0003C4DD9010C91492F42954F70892F829507
:101D000086958695837084278170B4E09B9F9001AF
:101D10001124482F422B70E0842F8E7090E0272FE3
:101D200030E07F5F28173907D4F3838590E08E5D1C
:101D30009C4DDC017C90C42EC2943FE0C322842FD2
:101D400082958695869583708C25282F2170B4E026
:101D50004B9FC0011124422F482B20E0842F8E700E
:101D6000C82ED12C822F90E02F5F8C159D05D4F3C7
:101D7000248530E02E5D3C4DD901AC90A486242F03
:101D800022952F70842F82958695869583702827BB
:101D90002170B4E04B9F60011124722F7C2980E0F8
:101DA000272F2E7030E0C82ED12C8F5FC216D3069D
:101DB000D4F3858590E08E5D9C4DDC014C91172F0E
:101DC00012951F70872F829586958695837081273F
:101DD0008170B4E07B9F90011124182F122B70E0CA
:101DE000812F8E7090E0272F30E07F5F2817390712
:101DF000D4F3868590E08E5D9C4DDC017C91C12EF4
:101E0000C2942FE0C222812F829586958695837099
:101E10008C25282F2170B4E01B9FC0011124D22EE5
:101E2000D82A10E08D2D8E7090E0212F30E01F5FBA
:101E300028173907D4F3278530E02E5D3C4DD901B2
:101E40001C912D2D22952F708D2D8295869586952E
:101E5000837028272170B4E0DB9E60011124C22A20
:101E6000D12C8C2D8E7090E02D2D30E0D39428173E
:101E70003907D4F36C2C62949FE069228C2D8295F3
:101E80008695869583708625817094E0C99E900121
:101E90001124682E622AD12C862D8E7090E02D2D73
:101EA00030E0D39428173907D4F3F1822582418793
:101EB0009586C62CC2948FE0C822862D8295869581
:101EC000869583708C25282F2170A4E06A9EC0011E
:101ED0001124D22ED82AC12C8D2D8E7090E02C2D5D
:101EE00030E0C39428173907D4F30283E28676835F
:101EF00086862D2D22952F708D2D8295869586951F
:101F0000837028272170B4E0DB9E60011124922F9A
:101F10009C2980E0292F2E7030E0C82ED12C8F5FB5
:101F2000C216D306D4F313837786B3866783292F2B
:101F300022952F70892F8295869586958370282704
:101F4000822F8170A4E09A9F90011124282B209366
:101F5000AE25D12C2E70822F90E0CC24C394CD0CD2
:101F60002D2D30E02817390714F4DC2CF6CFD09251
:101F70008D25A889B989A056BF4F90818C9189275A
:101F800080832091AE2524FBDD24D0F8822F881F8A
:101F90008827881FD826822F829586958770922F52
:101FA000929596959695937098279170D92634E0DE
:101FB000239FC0011124D82AC12C8D2D8E7090E052
:101FC0002C2D30E0C39428173907D4F311968C9147
:101FD0001197F826F182D4FAFF24F0F88D2D881F8E
:101FE0008827881FF8268D2D8295869587709D2DD0
:101FF000929596959695937098279170F92624E07E
:10200000D29EC0011124F82AD12C8F2D8E7090E021
:102010002D2D30E0D39428173907D4F312968C91E4
:10202000129708270283F4FA222720F98F2D881FA0
:102030008827881F82272F2D2295269527709F2D70
:10204000929596959695937092279170282F2927AF
:1020500034E0F39EC0011124822B90E0282F2E70D3
:1020600030E0C92ED12C9F5FC216D306D4F313964D
:102070009C91139719271383282F22952F70982F3F
:10208000929596959695937092279170282F221F7E
:102090002227221F292704E0809FC0011124922FAC
:1020A000982B80E0292F2E7030E0082F10E08F5FF2
:1020B00002171307D4F314968C9114978325848305
:1020C000292F22952F70892F82958695869583706A
:1020D0008227382F317014E0919FC0011124932F73
:1020E000982B80E0292F2E7030E0082F10E08F5FB2
:1020F00002171307D4F315968C91159782258583C3
:10210000292F22952F70892F829586958695837029
:102110002827217034E0939FC0011124922F982B1F
:1021200080E0292F2E7030E0082F10E08F5F02171B
:102130001307D4F316968C91169778277683292F58
:1021400022952F70892F82958695869583702827F2
:10215000822F817074E0979F90011124282B80E0DA
:10216000922F9E70C92ED12C082F10E08F5F0C1576
:102170001D05D4F317968C91179768276783622FF4
:1021800062956F70822F82958695869583708627DB
:10219000682F617004E0209FC0011124862B90E01D
:1021A000282F2E7030E0692F70E09F5F6217730751
:1021B000D4F318969C91189759275087682F6295E9
:1021C0006F70982F92959695969593706927262F04
:1021D000217014E0819FB0011124622B20E0862F32
:1021E0008E7090E0022F10E02F5F08171907D4F3CC
:1021F00019968C91199748274187262F22952F7081
:10220000862F82958695869583702827822F8170E8
:1022100044E0649F90011124282B30E0822F8E70BF
:1022200090E0432F50E03F5F48175907D4F31A96C8
:102230008C911A97E826E286422F42954F70822FA2
:1022400082958695869583708427482F417054E047
:10225000259FC0011124842B90E0282F2E7030E0A0
:10226000492F50E09F5F42175307D4F31B969C9170
:102270001B97B926B386482F42954F70982F929599
:102280009695969593704927242F217074E0879F27
:10229000A0011124422B20E0842F8E7090E0622F49
:1022A00070E02F5F68177907D4F31C968C911C9708
:1022B000A826A486242F22952F70842F8295869598
:1022C000869583702827822F817094E0499F900122
:1022D0001124282B30E0822F8E7090E0432F50E0A5
:1022E0003F5F48175907D4F31D968C911D97982688
:1022F0009586422F42954F70822F829586958695BE
:1023000083708427482F417004E0209FC00111246E
:10231000842B90E0282F2E7030E0492F50E09F5FF3
:1023200042175307D4F31E969C911E9789268686E2
:10233000482F42954F70982F929596959695937049
:102340004927242F217014E0819FA0011124422BE2
:1023500020E0842F8E7090E0622F70E02F5F68176E
:102360007907D4F31F968C9178267786242F2295AF
:102370002F70842F82958695869583702827822FCB
:10238000817054E0459F90011124282B2093AE25A5
:1023900030E02E70822F90E021E0230F432F50E099
:1023A000481759070CF063C6322FF6CF94FB22274B
:1023B00020F9892F881F8827881F2827892F829531
:1023C00086958770392F3295369536953370382734
:1023D0003170822F832774E0979F90011124282B5E
:1023E0002093AE2530E02E70822F90E021E0230F65
:1023F000632F70E06817790714F4322FF7CF30930A
:102400008D25808190E08E5D9C4DDC018C918083D8
:102410009091AE2594FB662760F9892F881F882745
:10242000881F8627692F629566956770392F3295C8
:1024300036953695337036273170682F6327B4E0B0
:102440009B9FC0011124862B90E0282F2E7030E036
:10245000692F70E09F5F62177307D4F3218130E02A
:102460002E5D3C4DD901AC9084FB662760F9982F16
:10247000991F9927991F6927282F2295269527703C
:10248000982F929596959695937092279170262FF6
:102490002927B4E08B9FB0011124622B20E0862F06
:1024A0008E7090E0A22FB0E02F5FA817B907D4F389
:1024B000828190E08E5D9C4DDC015C9064FB222764
:1024C00020F9862F881F8827881F2827862F829526
:1024D00086958770962F92959695969593709827E6
:1024E0009170822F8927B4E06B9F90011124282BD3
:1024F00030E0822F8E7090E0632F70E03F5F6817AE
:102500007907D4F3838190E08E5D9C4DDC01DC90F3
:10251000622F62956F70822F829586958695837063
:1025200086278170622F661F6627661F6827B4E0C2
:102530002B9FC0011124862B90E0282F2E7030E0B5
:10254000692F70E09F5F62177307D4F3248130E036
:102550002E5D3C4DD901BC91B983682F62956F7097
:10256000982F92959695969593706927262F2170AE
:1025700004E0809FB0011124622B20E0862F8E7032
:1025800090E0A22FB0E02F5FA817B907D4F38581A0
:1025900090E08E5D9C4DDC012C90262F22952F70B3
:1025A000862F82958695869583702827822F817045
:1025B000B4E06B9F90011124282B30E0822F8E70A5
:1025C00090E0632F70E03F5F68177907D4F386814E
:1025D00090E0DC01AE5DBC4D0C910A83622F6295E8
:1025E0006F70822F82958695869583708627682FD7
:1025F000617014E0219FC0011124862B90E0282FE8
:102600002E7030E0692F70E09F5F62177307D4F37C
:10261000278130E02E5D3C4DD901BC91BB83682FF2
:1026200062956F70982F92959695969593706927FD
:10263000262F217004E0809FB0011124622B50E00E
:10264000862F8E7090E0252F30E05F5F28173907C6
:10265000D4F3808590E08E5D9C4DDC014C90262F5C
:1026600022952F70862F82958695869583702827D0
:10267000822F8170B4E06B9F90011124282B80E0A1
:10268000622F6E7070E0A82FB0E08F5FA617B707BB
:10269000D4F3818590E08E5D9C4DDC016C90322FEF
:1026A00032953F70822F8295869586958370832719
:1026B000382F3170B4E02B9FC0011124832B90E0A0
:1026C000682F6E7070E0292F30E09F5F2617370764
:1026D000D4F3228530E02E5D3C4DD901EC90282FBB
:1026E00022952F70982F92959695969593702927FD
:1026F0002170B4E08B9FC0011124922F982B80E0B1
:10270000292F2E7030E0682F70E08F5F62177307FB
:10271000D4F3238530E02E5D3C4DD9013C90292F28
:1027200022952F70892F829586958695837028270C
:10273000822F8170B4E09B9F90011124282B30E000
:10274000822F8E7090E0632F70E03F5F68177907EB
:10275000D4F3848590E08E5D9C4DDC01BC90622FAB
:1027600062956F70822F82958695869583708627F5
:10277000682F6170B4E02B9FC0011124862B90E07C
:10278000682F6E7070E0292F30E09F5F26173707A3
:10279000D4F3258530E02E5D3C4DD901FC90682FA7
:1027A00062956F70982F929596959695937069277C
:1027B000262F2170B4E08B9FB0011124622B80E0A2
:1027C000262F2E7030E0A82FB0E08F5FA217B3073E
:1027D000D4F3868590E08E5D9C4DDC017C90762F55
:1027E00072957F70862F8295869586958370872750
:1027F0008170B4E06B9F90011124782F722B50E010
:10280000872F8E7090E0252F30E05F5F2817390703
:10281000D4F3878590E08E5D9C4DDC010C91672F91
:1028200062956F70872F829586958695837068274D
:102830006170B4E07B9FC0011124562F582B60E0DB
:10284000852F8E7090E0262F30E06F5F28173907B4
:10285000D4F3652F62956F70852F82958695869546
:1028600083706827262F217014E0519FB001112436
:10287000622B50E0862F8E7090E0252F30E05F5F56
:1028800028173907D4F3562F52955F70862F8295FB
:102890008695869583708527817054E0659F9001A9
:1028A0001124582F522B60E0852F8E7090E0262F38
:1028B00030E06F5F28173907D4F3152F12951F707A
:1028C000852F82958695869583701827117074E000
:1028D000579FC0011124182B1093AE2550E0812F73
:1028E0008E7090E061E0650F252F30E028173907E2
:1028F00014F4562FF7CF4A8BED8BFE8B50938D251A
:10290000C0808C2D0E941905982E822D0E941905D9
:10291000682F8E2D6C8B0E941905882E802F0E94A7
:102920001905982F89819B8B0E9419058C83862D10
:102930000E9419058D83872D0E9419058E838D2D88
:102940000E9419058F83842D0E94190588878F2D79
:102950000E9419058987852D0E9419058A878B8118
:102960000E9419058B878B2D0E9419058C878A2D53
:102970000E9419058D878A810E9419058E87832DF3
:102980000E941905B82F412F42954F70812F8295D3
:102990008695869583704827417084E0189F900142
:1029A0001124422B4093AE2520E04E7050E06C89FC
:1029B0009B8981E0820F30E02417350714F4282F1B
:1029C000F8CF8E2D8225282F202729252627ED892F
:1029D000FE892083E026EC246E2568256F876183BD
:1029E00002250C25802689268282C8269C249926C9
:1029F00093829091AE2594FBEE24E0F8892F881FF6
:102A00008827881F3E2D3827292F22952695277045
:102A1000892F829586958695837028272170E32ECD
:102A2000E22644E0949F900111242E2980E0422F59
:102A30004E7050E0682F70E08F5F64177507D4F315
:102A4000C62CCD24C7245C81C5267D81C726ED898F
:102A5000FE89C48299819D25892F8725D72ED82666
:102A60000E81D026D582F92FF625F0272F802F262C
:102A7000ED89FE89268209816026762475261F81CC
:102A800017251983178324FBEE24E0F8822F881F73
:102A90008827881FE826022F029506950770822F47
:102AA000829586958695837080278170E82644E01C
:102AB000249F900111242E2930E0822F8E7090E007
:102AC000432F50E03F5F48175907D4F35B815525EA
:102AD000752F7F259885792709857027ED89FE89CF
:102AE0007087542550270A85502751874B814425EC
:102AF0004F2540271B8541274287342D35253F250B
:102B000039273127338724FBEE24E0F8822F881FF2
:102B10008827881FE826022F029506950770822FC6
:102B20008295869586958370802781700E2D082763
:102B300084E0289F70011124102F1E2980E0912F1E
:102B40009E70692E712C482E512C8F5F46145704AD
:102B5000D4F38A818A25682F63259C8569270D8592
:102B60006027ED89FE8964872A8123252B2520276C
:102B70000E8520272587932D9A259B2590279B2717
:102B800096878B250C8580278B278787012F0295B9
:102B90000F70A12FA295A695A695A3700A27017084
:102BA000A12FAA1FAA27AA1FA027B4E01B9F80015C
:102BB00011240A2B0093AE25F12C0E70A02FB0E04B
:102BC000EE24E394EF0C0F2D10E00A171B0714F40A
:102BD000FE2CF6CFF0928D25A889B9890A89E0E10B
:102BE0000E9FA00DB11D1124ED89FE8900811C915D
:102BF00010271083F090AE25F4FABB24B0F81F2DF7
:102C0000111F1127111FB126AF2CA294A69407E023
:102C1000A0221F2D12951695169513701A25117066
:102C2000AB2CA126F4E0FF9E80011124BA2CB02A1F
:102C3000A12C0B2D0E7010E0EA2CF12CA394E016C1
:102C4000F106D4F31196EC9011970F85E026ED89EB
:102C5000FE89E182B4FAAA24A0F81B2D111F1127C6
:102C6000111FA126EB2CE294E69417E0E1221B2D24
:102C700012951695169513701E251170EA2CE126F3
:102C8000F4E0BF9E50011124AE28B12C0A2D0E7025
:102C900010E0EB2CF12CB394E016F106D4F312966D
:102CA0001C9112978126ED89FE898282A4FABB24A9
:102CB000B0F81A2D111F1127111FB1260A2D0295E8
:102CC000069507701A2D12951695169513701027F4
:102CD00011700B2D0127F4E0AF9E70011124B02E6E
:102CE000BE28A12C0B2D0E7010E0EA2CF12CA39421
:102CF000E016F106D4F313961C9113979126ED89F3
:102D0000FE8993820B2D02950F701B2D129516953F
:102D10001695137001270170AB2CAA1CAA24AA1CBB
:102D2000A026F4E0BF9E80011124A02AB12C0A2D18
:102D30000E7010E0EB2CF12CB394E016F106D4F3F6
:102D400014961C911497C126ED89FE89C482EA2C41
:102D5000E294FFE0EF221A2D129516951695137046
:102D60000E2D01270170E02EF4E0AF9E80011124AA
:102D7000BE2CB02AC12C0B2D0E7010E0EC2CF12CC7
:102D8000C394E016F106D4F315961C911597D1263D
:102D9000ED89FE89D582CB2CC294EFE0CE221B2D8B
:102DA00012951695169513701C251170F4E0BF9EB0
:102DB00070011124D12EDE28C12C0D2D0E7010E0D3
:102DC000EC2CF12CC394E016F106D4F316961C916A
:102DD00016971225ED89FE8916830D2D02950F7029
:102DE000FD2DF295F695F695F3700F270170F4E03E
:102DF000DF9E60011124C02AF0E01C2D1E70A12E60
:102E0000B12C8F2E912CFF5F8A149B04D4F317965C
:102E1000FC91179719811F27ED89FE8917830C2DC7
:102E200002950F70EC2DE295E695E695E3700E277E
:102E3000E02FE170F4E0CF9E800111240E2B10E012
:102E4000E02FEE70F0E0E12EF12C1F5FEE16FF0692
:102E5000D4F31896EC9118977E27ED89FE89708738
:102E6000E02FE295EF70702F7295769576957370DE
:102E7000E727E170F4E00F9F70011124EE2A70E063
:102E8000EE2DEE70F0E0072F10E07F5F0E171F07AA
:102E9000D4F319967C9119975727ED89FE895187AC
:102EA000EE2DE295EF705E2D529556955695537026
:102EB000E5270E2F017014E0E19EF00111247E2F12
:102EC000702B50E0072F0E7010E0E52EF12C5F5FA5
:102ED000E016F106D4F31A965C911A974527ED890E
:102EE000FE894287072F02950F70472F429546951E
:102EF000469543700427402F4170F4E07F9F800186
:102F00001124042B70E0402F4E7050E0E72FF0E0CA
:102F10007F5FE417F507D4F31B964C911B9734277A
:102F2000ED89FE893387402F42954F70302F3295BF
:102F30003695369533704327E42FE170F4E00F9F08
:102F4000A00111244E2B30E0E42FEE70F0E0032FAF
:102F500010E03F5F0E171F07D4F31C963C911C979F
:102F60006327ED89FE896487E42FE295EF70342FA3
:102F70003295369536953370E3276E2F617004E0F5
:102F8000409FF00111241E2F162B30E0412F4E7070
:102F900050E0632F70E03F5F64177507D4F31D9610
:102FA0003C911D972327ED89FE892587612F629526
:102FB0006F70212F22952695269523706227462F24
:102FC0004170F4E01F9FB0011124642B40E0262FD4
:102FD0002E7030E0E42FF0E04F5FE217F307D4F3F8
:102FE0001E962C911E979227ED89FE899687462F73
:102FF00042954F70962F9295969596959370492786
:10300000242F2170F4E06F9FA0011124422B90E047
:10301000242F2E7030E0692F70E09F5F62177307D6
:10302000D4F31F969C918927AD89BE891F968C93F6
:10303000242F22952F70842F8295869586958370F4
:103040002827822F8170B4E04B9F90011124282BF8
:103050002093AE2530E02E70822F90E021E0230FE8
:10306000432F50E04817590714F4322FF7CF30930D
:103070008D256696CDBFDEBFDF91CF911F910F9159
:10308000FF90EF90DF90CF90BF90AF909F908F9088
:103090007F906F905F904F903F902F900895FF9298
:1030A0000F931F93CF93DF93442321F1F42E8B01D1
:1030B000EC018AE048130CC062E070E0CE010E948F
:1030C0004803CE010E94FB03B80160567F4F11C038
:1030D00062E070E0CE010E944803CE010E94FB0333
:1030E000CE010E942105B80180E1F89E600D711D9E
:1030F0001124CE01DF91CF911F910F91FF900C947D
:10310000E1022F923F924F925F926F927F928F9245
:103110009F92AF92BF92CF92DF92EF92FF920F9366
:103120001F93CF93DF93CDB7DEB76697CDBFDEBFDA
:10313000FC01688B798B9091AE25442321F14A30B4
:1031400009F0F4C794FB222720F9892F881F8827CC
:10315000881F2827892F829586958770392F329569
:1031600036953695337038273170822F832704E0E7
:10317000909F90011124282B2093AE2530E02E70D3
:10318000822F90E065C294FB222720F9892F881FA7
:103190008827881F2827892F829586958770392F41
:1031A000329536953695337038273170822F8327C4
:1031B00004E0909F90011124282B2093AE2530E04D
:1031C0002E70822F90E021E0230F432F50E048170C
:1031D000590714F4322FF7CF30938D259081A889A9
:1031E000B9898C91892780839091AE2594FB222701
:1031F00020F9892F881F8827881F2827892F8295E3
:1032000086958770392F32953695369533703827E5
:103210003170822F8327B4E09B9F90011124282BCB
:1032200030E0822F8E7090E0432F50E03F5F4817D0
:103230005907D4F39181A889B98911968C9189276E
:10324000818324FB442740F9822F881F8827881F09
:103250008427422F429546954770922F92959695D6
:103260009695937094279170482F4927B4E02B9F2F
:10327000C0011124842B90E0282F2E7030E0492FBC
:1032800050E09F5F42175307D4F32281A889B98980
:1032900012969C919227928384FB442740F9982FA1
:1032A000991F9927991F4927282F2295269527701E
:1032B000982F929596959695937092279170242FBA
:1032C0002927B4E08B9FA0011124422B20E0842FFA
:1032D0008E7090E0622F70E02F5F68177907D4F34B
:1032E0009381A889B98913968C9189278383242F88
:1032F00022952F70842F8295869586958370282736
:103300002170842F881F8827881F8227B4E04B9F55
:1033100090011124282B30E0822F8E7090E0432FF3
:1033200050E03F5F48175907D4F39481A889B989C1
:1033300014968C9189278483422F42954F70822F57
:1033400082958695869583708427482F4170B4E0D6
:103350002B9FC0011124842B90E0282F2E7030E089
:10336000492F50E09F5F42175307D4F32581A88966
:10337000B98915969C9192279583482F42954F7055
:10338000982F92959695969593704927242F2170A2
:10339000B4E08B9FA0011124422B20E0842F8E707B
:1033A00090E0622F70E02F5F68177907D4F3968161
:1033B000A889B98916968C9189278683242F22950E
:1033C0002F70842F82958695869583702827822F6B
:1033D0008170B4E04B9F90011124282B30E0822FA4
:1033E0008E7090E0432F50E03F5F48175907D4F3A9
:1033F0009781A889B98917968C9189278783422F4D
:1034000042954F70822F829586958695837084278A
:10341000482F4170B4E02B9FC0011124842B90E011
:10342000282F2E7030E0492F50E09F5F421753073E
:10343000D4F32085A889B98918969C919227908702
:10344000482F42954F70982F929596959695937028
:103450004927242F2170B4E08B9FA0011124422B17
:1034600020E0842F8E7090E0622F70E02F5F68174D
:103470007907D4F39185A889B98919968C91892700
:103480008187242F22952F70842F8295869586958B
:1034900083702827822F8170B4E04B9F9001112404
:1034A000282B30E0822F8E7090E0432F50E03F5F5A
:1034B00048175907D4F39285A889B9891A968C912F
:1034C00089278287422F42954F70822F8295869559
:1034D000869583708427482F4170B4E02B9FC001EC
:1034E0001124842B90E0282F2E7030E0492F50E0DB
:1034F0009F5F42175307D4F32385A889B9891B9688
:103500009C9192279387482F42954F70982F9295C0
:103510009695969593704927242F2170B4E08B9F40
:10352000A0011124422B20E0842F8E7090E0622FA6
:1035300070E02F5F68177907D4F39485A889B9895B
:103540001C968C9189278487242F22952F70842F95
:1035500082958695869583702827822F8170B4E0A6
:103560004B9F90011124282B30E0822F8E7090E029
:10357000432F50E03F5F48175907D4F39585A8893A
:10358000B9891D968C9189278587422F42954F7066
:10359000822F82958695869583708427482F417067
:1035A000B4E02B9FC0011124842B90E0282F2E70B3
:1035B00030E0492F50E09F5F42175307D4F3268530
:1035C000A889B9891E969C9192279687482F429583
:1035D0004F70982F92959695969593704927242F22
:1035E0002170B4E08B9FA0011124422B20E0842F96
:1035F0008E7090E0622F70E02F5F68177907D4F328
:103600009785A889B9891F968C9189278787242F48
:1036100022952F70842F8295869586958370282712
:10362000822F8170B4E04B9F90011124282B2093AE
:10363000AE2530E02E70822F90E021E0230F432F43
:1036400050E04817590714F00C949227322FF5CF09
:1036500021E0230F432F50E04817590714F4322F6D
:10366000F7CF30938D259081892F8F70292F229548
:103670002F7010E1219F90011124280F311D2E5D24
:103680003D4DD9018C9180839091AE2594FB4427C8
:1036900040F9892F881F8827881F8427492F429542
:1036A00046954770392F32953695369533703427C5
:1036B0003170482F4327B4E09B9FC0011124842B15
:1036C00090E0282F2E7030E0492F50E09F5F421786
:1036D0005307D4F32181922F9F70322F32953F7080
:1036E00000E1309FA0011124490F511D4E5D5D4D39
:1036F000DA019C9084FB442740F9982F991F992761
:10370000991F4927282F229526952770982F929543
:1037100096959695937092279170242F2927B4E05F
:103720008B9FA0011124422B20E0842F8E7090E00B
:10373000622F70E02F5F68177907D4F39281892F89
:103740008F70292F22952F7000E1209F9001112466
:10375000280F311D2E5D3D4DD901EC9044FB2227F1
:1037600020F9842F881F8827881F2827842F829577
:1037700086958770942F9295969596959370982735
:103780009170822F8927B4E04B9F90011124282B40
:1037900030E0822F8E7090E0432F50E03F5F48175B
:1037A0005907D4F39381892F8F70392F32953F7049
:1037B00000E1309FA0011124480F511D4E5D5D4D69
:1037C000DA016C91422F42954F70822F8295869537
:1037D0008695837084278170422F441F4427441F9D
:1037E0004827B4E02B9FC0011124842B90E0282FA0
:1037F0002E7030E0492F50E09F5F42175307D4F3FB
:103800002481922F9F70322F32953F7000E1309FBC
:10381000A0011124490F511D4E5D5D4DDA013C9010
:103820003482482F42954F70982F92959695969591
:1038300093704927242F2170B4E08B9FA00111249D
:10384000422B20E0842F8E7090E0022F10E02F5F3B
:1038500008171907D4F38581282F2F7082958F7050
:1038600000E1809FC0011124820F911D8E5D9D4D4E
:10387000DC01FC90242F22952F70842F8295869551
:10388000869583702827822F8170B4E04B9F90012A
:103890001124282B30E0822F8E7090E0432F50E0CF
:1038A0003F5F48175907D4F38681382F3F708295C0
:1038B0008F7000E1809FC0011124830F911D8E5DE8
:1038C0009D4DDC018C90422F42954F70822F829546
:1038D00086958695837048274170B4E02B9FC00180
:1038E0001124482B20E0842F8E7090E0022F10E0EE
:1038F0002F5F08171907D4F32781822F8F70229525
:103900002F7000E1209F90011124280F311D2E5DA2
:103910003D4DD901BC90942F92959F70842F829534
:103920008695869583709827092F0170B4E04B9F88
:10393000C0011124902F982B80E0292F2E7030E0A9
:10394000482F50E08F5F42175307D4F32085822F12
:103950008F7022952F7000E1209F90011124280F75
:10396000311D2E5D3D4DD9015C915087092F029587
:103970000F70892F82958695869583708027082FF2
:103980000170B4E09B9FC0011124802B90E0282F90
:103990002E7030E0092F10E09F5F02171307D4F359
:1039A0002185922F9F7022952F7000E1209F90011A
:1039B0001124290F311D2E5D3D4DD9012C90282F4A
:1039C00022952F70982F929596959695937029270A
:1039D0002170B4E08B9F80011124922F902B80E006
:1039E000292F2E70622E712C482E512C8F5F461479
:1039F0005704D4F32285822F8F7022952F7000E117
:103A0000209F90011124280F311D2E5D3D4DD901BD
:103A10000C91492F42954F70892F829586958695F6
:103A2000837084278170B4E09B9F90011124482FFC
:103A3000422B70E0842F8E7090E0272F30E07F5F64
:103A400028173907D4F38385282F2F7082958F701C
:103A500010E1819FC0011124820F911D8E5D9D4D4B
:103A6000DC017C90242F22952F70842F82958695DF
:103A70008695837028272170B4E04B9FC0011124E4
:103A8000322F382B20E0832F8E70C82ED12C822F1E
:103A900090E02F5F8C159D05D4F38485982F9F703F
:103AA00082958F7010E1819F20011124D201A90F0E
:103AB000B11DCD018E5D9D4DDC01AC90A486232F00
:103AC00022952F70932F929596959695937029270E
:103AD0002170B4E03B9F60011124722F7C2980E0AB
:103AE000272F2E7030E0C82ED12C8F5FC216D30640
:103AF000D4F38585282F2F7082958F7010E1819FD8
:103B0000C0011124820F911D8E5D9D4DDC014C91F1
:103B1000172F12951F70872F829586958695837033
:103B200081278170B4E07B9F90011124182F122B04
:103B300070E0812F8E7090E0272F30E07F5F281794
:103B40003907D4F38685282F2F7082958F7030E146
:103B5000839FC0011124820F911D8E5D9D4DDC015C
:103B60007C91C12EC2942FE0C222812F829586952E
:103B7000869583708C25282F2170B4E01B9FC0018F
:103B80001124D22ED82A10E08D2D8E7090E0212F96
:103B900030E01F5F28173907D4F32785822F8F70F5
:103BA00022952F7010E1219F90011124280F311DC3
:103BB0002E5D3D4DD9011C912D2D22952F708D2DFF
:103BC000829586958695837028272170B4E0DB9EC8
:103BD00060011124C22AD12C8C2D8E7090E02D2DE5
:103BE00030E0D39428173907D4F36C2C62949FE00B
:103BF00069228C2D829586958695837086258170A5
:103C000094E0C99E90011124682E622AD12C862D41
:103C10008E7090E02D2D30E0D39428173907D4F31F
:103C2000F182258241879586C62CC2948FE0C822F6
:103C3000862D82958695869583708C25282F2170F8
:103C4000A4E06A9EC0011124D22ED82AC12C8D2D49
:103C50008E7090E02C2D30E0C39428173907D4F3F0
:103C60000283E286768386862D2D22952F708D2DF8
:103C7000829586958695837028272170B4E0DB9E17
:103C800060011124922F9C2980E0292F2E7030E0B2
:103C9000C82ED12C8F5FC216D306D4F31383778638
:103CA000B3866783292F22952F70892F8295869559
:103CB000869583702827822F8170A4E09A9F9001B7
:103CC0001124282B2093AE25D12C2E70822F90E02A
:103CD000CC24C394CD0C2D2D30E02817390714F4D3
:103CE000DC2CF6CFD0928D25A889B989A056BF4F7C
:103CF00090818C91892780833091AE2534FB2227D7
:103D000020F9832F881F8827881F8227232F229539
:103D100026952770932F9295969596959370922756
:103D20009170D82ED92624E0329FC0011124D82AC0
:103D3000C12C8D2D8E7090E02C2D30E0C39428176F
:103D40003907D4F311968C911197F826F182D4FAA1
:103D5000222720F98D2D881F8827881F82272D2D47
:103D60002295269527709D2D929596959695937000
:103D700092279170282F292734E0D39EC001112467
:103D8000F22EF82AD12C8F2D8E7090E02D2D30E060
:103D9000D39428173907D4F312968C9112970827D9
:103DA0000283F4FA222720F98F2D881F8827881F85
:103DB00082272F2D2295269527709F2D92959695D7
:103DC0009695937092279170282F292704E0F09EF2
:103DD000C0011124022F082B80E0202F2E7030E02C
:103DE000C82ED12C8F5FC216D306D4F313968C91B4
:103DF000139718271383902F92959F70802F829589
:103E000086958695837089278170902F991F9927B1
:103E1000991F282F292714E0019FC0011124922FF8
:103E2000982B80E0292F2E7030E0082F10E08F5F54
:103E300002171307D4F314968C9114978325848367
:103E4000292F22952F70892F8295869586958370CC
:103E50008227382F317024E0929FC0011124932FC4
:103E6000982B80E0292F2E7030E0082F10E08F5F14
:103E700002171307D4F315968C9115978225858325
:103E8000292F22952F70892F82958695869583708C
:103E90002827217034E0939FC0011124922F982B82
:103EA00080E0292F2E7030E0082F10E08F5F02177E
:103EB0001307D4F316968C91169778277683292FBB
:103EC00022952F70892F8295869586958370282755
:103ED000822F817074E0979F90011124282B80E03D
:103EE000922F9E70C92ED12C082F10E08F5F0C15D9
:103EF0001D05D4F317968C91179768276783622F57
:103F000062956F70822F829586958695837086273D
:103F1000682F617004E0209FC0011124862B90E07F
:103F2000282F2E7030E0692F70E09F5F62177307B3
:103F3000D4F318969C91189759275087682F62954B
:103F40006F70982F92959695969593706927262F66
:103F5000217014E0819FB0011124622B20E0862F94
:103F60008E7090E0022F10E02F5F08171907D4F32E
:103F700019968C91199748274187262F22952F70E3
:103F8000862F82958695869583702827822F81704B
:103F900044E0649F90011124282B30E0822F8E7022
:103FA00090E0432F50E03F5F48175907D4F31A962B
:103FB0008C911A97E826E286422F42954F70822F05
:103FC00082958695869583708427482F417054E0AA
:103FD000259FC0011124842B90E0282F2E7030E003
:103FE000492F50E09F5F42175307D4F31B969C91D3
:103FF0001B97B926B386482F42954F70982F9295FC
:104000009695969593704927242F217074E0879F89
:10401000A0011124422B20E0842F8E7090E0622FAB
:1040200070E02F5F68177907D4F31C968C911C976A
:10403000A826A486242F22952F70842F82958695FA
:10404000869583702827822F817094E0499F900184
:104050001124282B30E0822F8E7090E0432F50E007
:104060003F5F48175907D4F31D968C911D979826EA
:104070009586422F42954F70822F82958695869520
:1040800083708427482F417004E0209FC0011124D1
:10409000842B90E0282F2E7030E0492F50E09F5F56
:1040A00042175307D4F31E969C911E978926868645
:1040B000482F42954F70982F9295969596959370AC
:1040C0004927242F217014E0819FA0011124422B45
:1040D00020E0842F8E7090E0622F70E02F5F6817D1
:1040E0007907D4F31F968C9178267786242F229512
:1040F0002F70842F82958695869583702827822F2E
:10410000817054E0459F90011124282B2093AE2507
:1041100030E02E70822F90E021E0230F432F50E0FB
:10412000481759070CF0FEC6322FF6CF94FB222712
:1041300020F9892F881F8827881F2827892F829593
:1041400086958770392F3295369536953370382796
:104150003170822F832774E0979F90011124282BC0
:104160002093AE2530E02E70822F90E021E0230FC7
:10417000632F70E06817790714F4322FF7CF30936C
:104180008D259081892F8F70292F22952F7090E196
:10419000299F90011124280F311D2E5D3D4DD9011D
:1041A0008C9180839091AE2594FB662760F9892FCE
:1041B000881F8827881F6827292F22952695277012
:1041C000392F329536953695337032273170262F38
:1041D0002327B4E09B9FB0011124622B20E0862F9F
:1041E0008E7090E0A22FB0E02F5FA817B907D4F32C
:1041F0009181892F8F70292F22952F7000E1209FA8
:1042000090011124280F311D2E5D3D4DD901AC9038
:1042100064FB222720F9862F881F8827881F822782
:10422000262F229526952770962F929596959695EE
:104230009370922791708927B4E06B9F90011124AD
:10424000282B30E0822F8E7090E0632F70E03F5F6C
:1042500068177907D4F39281892F8F70392F32959F
:104260003F7000E1309FB0011124680F711D6E5D39
:104270007D4DDB015C9024FB662760F9822F881F4F
:104280008827881F8627622F629566956770922F10
:10429000929596959695937096279170682F6927B9
:1042A000B4E02B9FC0011124862B90E0282F2E70A4
:1042B00030E0692F70E09F5F62177307D4F32381AA
:1042C000922F9F70322F32953F7000E1309FB001E6
:1042D0001124690F711D6E5D7D4DDB01DC90682F2F
:1042E00062956F70982F9295969596959370692721
:1042F0006170282F221F2227221F2627B4E08B9FC0
:10430000B0011124622B20E0862F8E7090E0A22F46
:10431000B0E02F5FA817B907D4F39481892F8F706D
:10432000292F22952F7000E1209F90011124280F42
:10433000311D2E5D3D4DD901BC91B983262F2295AB
:104340002F70862F82958695869583702827822FD9
:10435000817004E0609F90011124282B30E0822FAF
:104360008E7090E0632F70E03F5F68177907D4F399
:104370009581892F8F70392F32953F7010E1319FD1
:10438000B0011124680F711D6E5D7D4DDB012C9015
:10439000922F92959F70822F829586958695837035
:1043A0009827692F6170B4E02B9FC0011124962FCC
:1043B000982B80E0292F2E7030E0682F70E08F5FFF
:1043C00062177307D4F32681822F8F70322F3295B4
:1043D0003F7000E1309FB0011124680F711D6E5DC8
:1043E0007D4DDB01BC91BA83692F62956F70892F77
:1043F00082958695869583708627682F617004E084
:10440000909FC0011124862B90E0282F2E7030E061
:10441000692F70E09F5F62177307D4F32781922F93
:104420009F70322F32953F7010E1319FB0011124FF
:10443000690F711D6E5D7D4DDB01BC91BB83682FE3
:1044400062956F70982F92959695969593706927BF
:10445000262F217004E0809FB0011124622B50E0D0
:10446000862F8E7090E0252F30E05F5F2817390788
:10447000D4F39085892F8F70292F22952F7010E10A
:10448000219F90011124280F311D2E5D3D4DD90132
:104490004C90262F22952F70862F82958695869593
:1044A00083702827822F8170B4E06B9F90011124C4
:1044B000282B80E0622F6E7070E0A82FB0E08F5F35
:1044C000A617B707D4F39185892F8F70392F3295AE
:1044D0003F7000E1309FB0011124680F711D6E5DC7
:1044E0007D4DDB016C90322F32953F70822F82958B
:1044F0008695869583708327382F3170B4E02B9F83
:10450000C0011124832B90E0682F6E7070E0292F7A
:1045100030E09F5F26173707D4F32285922F9F70D4
:10452000322F32953F7000E1309FB0011124690FA6
:10453000711D6E5D7D4DDB01EC90282F22952F7053
:10454000982F929596959695937029272170B4E0AF
:104550008B9FC0011124922F982B80E0292F2E7061
:1045600030E0682F70E08F5F62177307D4F3238504
:10457000822F8F70322F32953F7000E1309FB00153
:104580001124680F711D6E5D7D4DDB013C90292F5C
:1045900022952F70892F829586958695837028277E
:1045A000822F8170B4E09B9F90011124282B30E072
:1045B000822F8E7090E0632F70E03F5F681779075D
:1045C000D4F39485892F8F70392F32953F7000E195
:1045D000309FB0011124680F711D6E5D7D4DDB01B0
:1045E000BC90622F62956F70822F8295869586951A
:1045F00083708627682F6170B4E02B9FC00111245F
:10460000862B90E0682F6E7070E0292F30E09F5F5E
:1046100026173707D4F32585922F9F70322F3295B6
:104620003F7000E1309FB0011124690F711D6E5D74
:104630007D4DDB01FC90682F62956F70982F9295ED
:104640009695969593706927262F2170B4E08B9FDD
:10465000B0011124622B80E0262F2E7030E0A82FAD
:10466000B0E08F5FA217B307D4F39685892F8F70C0
:10467000292F22952F7000E1209F90011124280FEF
:10468000311D2E5D3D4DD9017C90562F52955F70A6
:10469000862F829586958695837085278170B4E0F4
:1046A0006B9F90011124582F522B60E0852F8E7044
:1046B00090E0262F30E06F5F28173907D4F39785F5
:1046C000892F8F70292F22952F7000E1209F900154
:1046D0001124280F311D2E5D3D4DD9010C91652F00
:1046E00062956F70852F8295869586958370682771
:1046F0006170B4E05B9FC0011124562F582B60E01D
:10470000852F8E7090E0262F30E06F5F28173907D5
:10471000D4F3652F62956F70852F82958695869567
:1047200083706827262F217014E0519FB001112457
:10473000622B50E0862F8E7090E0252F30E05F5F77
:1047400028173907D4F3562F52955F70862F82951C
:104750008695869583708527817054E0659F9001CA
:104760001124582F522B60E0852F8E7090E0262F59
:1047700030E06F5F28173907D4F3152F12951F709B
:10478000852F82958695869583701827117074E021
:10479000579FC0011124182B1093AE2550E0812F94
:1047A0008E7090E061E0650F252F30E02817390703
:1047B00014F4562FF7CF4A8BED8BFE8B50938D253B
:1047C000C0808C2D0E941905982E822D0E941905FB
:1047D000682F8E2D6C8B0E941905882E802F0E94C9
:1047E0001905982F89819B8B0E9419058C83862D32
:1047F0000E9419058D83872D0E9419058E838D2DAA
:104800000E9419058F83842D0E94190588878F2D9A
:104810000E9419058987852D0E9419058A878B8139
:104820000E9419058B878B2D0E9419058C878A2D74
:104830000E9419058D878A810E9419058E87832D14
:104840000E941905B82F412F42954F70812F8295F4
:104850008695869583704827417084E0189F900163
:104860001124422B4093AE2520E04E7050E06C891D
:104870009B8981E0820F30E02417350714F4282F3C
:10488000F8CF8E2D8225282F202729252627ED8950
:10489000FE892083E026EC246E2568256F876183DE
:1048A00002250C25802689268282C8269C249926EA
:1048B00093829091AE2594FBEE24E0F8892F881F17
:1048C0008827881F3E2D3827292F22952695277067
:1048D000892F829586958695837028272170E32EEF
:1048E000E22644E0949F900111242E2980E0422F7B
:1048F0004E7050E0682F70E08F5F64177507D4F337
:10490000C62CCD24C7245C81C5267D81C726ED89B0
:10491000FE89C48299819D25892F8725D72ED82687
:104920000E81D026D582F92FF625F0272F802F264D
:10493000ED89FE89268209816026762475261F81ED
:1049400017251983178324FBEE24E0F8822F881F94
:104950008827881FE826022F029506950770822F68
:10496000829586958695837080278170E82644E03D
:10497000249F900111242E2930E0822F8E7090E028
:10498000432F50E03F5F48175907D4F35B8155250B
:10499000752F7F259885792709857027ED89FE89F0
:1049A0007087542550270A85502751874B8144250D
:1049B0004F2540271B8541274287342D35253F252C
:1049C00039273127338724FBEE24E0F8822F881F14
:1049D0008827881FE826022F029506950770822FE8
:1049E0008295869586958370802781700E2D082785
:1049F00084E0289F70011124102F1E2980E0912F40
:104A00009E70692E712C482E512C8F5F46145704CE
:104A1000D4F38A818A25682F63259C8569270D85B3
:104A20006027ED89FE8964872A8123252B2520278D
:104A30000E8520272587932D9A259B2590279B2738
:104A400096878B250C8580278B278787012F0295DA
:104A50000F70A12FA295A695A695A3700A270170A5
:104A6000A12FAA1FAA27AA1FA027B4E01B9F80017D
:104A700011240A2B0093AE25F12C0E70A02FB0E06C
:104A8000EE24E394EF0C0F2D10E00A171B0714F42B
:104A9000FE2CF6CFF0928D25A889B9890A89E0E12C
:104AA0000E9FA00DB11D1124ED89FE8900811C917E
:104AB00010271083F090AE25F4FAAA24A0F81F2D39
:104AC000111F1127111FA1260F2D029506950770A2
:104AD0001F2D129516951695137010271170A1268B
:104AE000F4E0FF9E80011124A02AB12C0A2D0E7043
:104AF00010E0EB2CF12CB394E016F106D4F31196F0
:104B0000EC9011970F85E026ED89FE89E182A4FAE9
:104B1000EE24E0F81A2D111F1127111FE1260A2D8E
:104B20000295069507701A2D129516951695137015
:104B300010271170E126F4E0AF9E50011124AE2839
:104B4000B12C0A2D0E7010E0EB2CF12CB394E01672
:104B5000F106D4F312961C9112978126ED89FE89F5
:104B60008282A4FA002700F91A2D111F1127111FA4
:104B70000127EA2CE294E69417E0E1221A2D12951F
:104B80001695169513701E2511700127F4E0AF9E3F
:104B900070011124B02EBE28A12C0B2D0E7010E038
:104BA000EA2CF12CA394E016F106D4F313961C9191
:104BB00013979126ED89FE8993820B2D02950F7034
:104BC0001B2D129516951695137001270170AB2CAD
:104BD000AA1CAA24AA1CA026F4E0BF9E80011124CE
:104BE000A02AB12C0A2D0E7010E0EB2CF12CB394FE
:104BF000E016F106D4F314961C911497C126ED89A2
:104C0000FE89C482EA2CE294FFE0EF221A2D12956D
:104C10001695169513700E2D01270170E02EF4E005
:104C2000AF9E80011124BE2CB02AC12C0B2D0E701A
:104C300010E0EC2CF12CC394E016F106D4F3159699
:104C40001C911597D126ED89FE89D582CB2CC29473
:104C5000EFE0CE221B2D12951695169513701C258C
:104C60001170F4E0BF9E70011124D12EDE28C12CFA
:104C70000D2D0E7010E0EC2CF12CC394E016F10613
:104C8000D4F316961C9116971225ED89FE8916838A
:104C90000D2D02950F70FD2DF295F695F695F3709A
:104CA0000F270170F4E0DF9E60011124C02AF0E0BC
:104CB0001C2D1E70A12EB12C8F2E912CFF5F8A14FB
:104CC0009B04D4F31796FC91179719811F27ED8940
:104CD000FE8917830C2D02950F70EC2DE295E69559
:104CE000E695E3700E27E02FE170F4E0CF9E80019F
:104CF00011240E2B10E0E02FEE70F0E0E12EF12CED
:104D00001F5FEE16FF06D4F31896EC9118977E27D6
:104D1000ED89FE897087E02FE295EF70702F729514
:104D2000769576957370E727E170F4E00F9F700138
:104D30001124EE2A70E0EE2DEE70F0E0072F10E067
:104D40007F5F0E171F07D4F319967C911997572789
:104D5000ED89FE895187EE2DE295EF705E2D52951B
:104D6000569556955370E5270E2F017014E0E19E7D
:104D7000F00111247E2F702B50E0072F0E7010E0F1
:104D8000E52EF12C5F5FE016F106D4F31A965C91E4
:104D90001A974527ED89FE894287072F02950F70E4
:104DA000472F42954695469543700427402F417002
:104DB000F4E07F9F80011124042B70E0402F4E709F
:104DC00050E0E72FF0E07F5FE417F507D4F31B9680
:104DD0004C911B973427ED89FE893387402F4295EC
:104DE0004F70302F32953695369533704327E42F28
:104DF000E170F4E00F9FA00111244E2B30E0E42F6E
:104E0000EE70F0E0032F10E03F5F0E171F07D4F3A2
:104E10001C963C911C976327ED89FE896487E42FDB
:104E2000E295EF70342F3295369536953370E3273F
:104E30006E2F617004E0409FF00111241E2F162B8D
:104E400030E0412F4E7050E0632F70E03F5F6417F9
:104E50007507D4F31D963C911D972327ED89FE8994
:104E60002587612F62956F70212F229526952695B3
:104E700023706227462F4170F4E01F9FB001112478
:104E8000642B40E0262F2E7030E0E42FF0E04F5FDF
:104E9000E217F307D4F31E962C911E979227ED8903
:104EA000FE899687462F42954F70962F929596953C
:104EB000969593704927242F2170F4E06F9FA001ED
:104EC0001124422B90E0242F2E7030E0692F70E0E7
:104ED0009F5F62177307D4F31F969C918927AD8952
:104EE000BE891F968C93242F22952F70842F829534
:104EF0008695869583702827822F8170B4E04B9F1A
:104F000090011124282B2093AE2530E02E70822FA3
:104F100090E021E0230F432F50E04817590714F485
:104F2000322FF7CF30938D256696CDBFDEBFDF9150
:104F3000CF911F910F91FF90EF90DF90CF90BF9096
:104F4000AF909F908F907F906F905F904F903F9029
:104F50002F900895CF92DF92EF92FF920F931F93BD
:104F6000CF93DF93CDB7DEB76197CDBFDEBF7C01B6
:104F70006B018E010F5F1F4F80E1F80111928A953E
:104F8000E9F7442311F14A3061F461E070E0C701B0
:104F90000E944803C7010E94FB03B60160567F4F81
:104FA00014C0B701C801498B0E94B407D701F801AA
:104FB00080E1800F498991919D938E13FCCFB601BA
:104FC000F0E14F9F600D711D1124C7010E94E102A5
:104FD0006196CDBFDEBFDF91CF911F910F91FF9002
:104FE000EF90DF90CF9008952F923F924F925F9273
:104FF0006F927F928F929F92AF92BF92CF92DF92E9
:10500000EF92FF920F931F93CF93DF93CDB7DEB74D
:105010006097CDBFDEBFFC011B01942F9E012F5F67
:105020003F4F80E1D9011D928A95E9F74091AE2565
:10503000992319F19A3009F045C744FB222720F93A
:10504000842F881F8827881F8227242F2295269542
:105050002770942F929596959695937092279170BC
:10506000282F292734E0439FC0011124822B8093ED
:10507000AE2520E08E7090E054C244FB222720F938
:10508000842F881F8827881F8227242F2295269502
:105090002770942F9295969596959370922791707C
:1050A000282F2927B4E04B9FC0011124822B809325
:1050B000AE2520E08E7090E031E0320F422F50E0BC
:1050C0004817590714F4232FF7CF20938D2590818B
:1050D000D1018C91892780839091AE2594FB222762
:1050E00020F9892F881F8827881F2827892F8295D4
:1050F00086958770392F32953695369533703827D7
:105100003170822F8327B4E09B9F90011124282BBC
:1051100030E0822F8E7090E0432F50E03F5F4817C1
:105120005907D4F39181D10111968C9189278183FC
:1051300024FB442740F9822F881F8827881F842753
:10514000422F429546954770922F92959695969547
:10515000937094279170482F4927B4E02B9FC0018A
:105160001124842B90E0282F2E7030E0492F50E03E
:105170009F5F42175307D4F32281D10112969C916D
:105180009227928384FB442740F9982F991F9927EF
:10519000991F4927282F229526952770982F929599
:1051A00096959695937092279170242F2927B4E0B5
:1051B0008B9FA0011124422B20E0842F8E7090E061
:1051C000622F70E02F5F68177907D4F39381D101C4
:1051D00013968C9189278383242F22952F70842FF7
:1051E000829586958695837028272170842F881F45
:1051F0008827881F8227B4E04B9F90011124282B19
:1052000030E0822F8E7090E0432F50E03F5F4817D0
:105210005907D4F39481D10114968C918927848302
:10522000422F42954F70822F829586958695837086
:105230008427482F4170B4E02B9FC0011124842B98
:1052400090E0282F2E7030E0492F50E09F5F4217EA
:105250005307D4F32581D10115969C91922795830C
:10526000482F42954F70982F9295969596959370EA
:105270004927242F2170B4E08B9FA0011124422BD9
:1052800020E0842F8E7090E0622F70E02F5F68170F
:105290007907D4F39681D10116968C91892786835C
:1052A000242F22952F70842F829586958695837062
:1052B0002827822F8170B4E04B9F90011124282B66
:1052C00030E0822F8E7090E0432F50E03F5F481710
:1052D0005907D4F39781D10117968C918927878339
:1052E000422F42954F70822F8295869586958370C6
:1052F0008427482F4170B4E02B9FC0011124842BD8
:1053000090E0282F2E7030E0492F50E09F5F421729
:105310005307D4F32085D10118969C91922790874A
:10532000482F42954F70982F929596959695937029
:105330004927242F2170B4E08B9FA0011124422B18
:1053400020E0842F8E7090E0622F70E02F5F68174E
:105350007907D4F39185D10119968C91892781879A
:10536000242F22952F70842F8295869586958370A1
:105370002827822F8170B4E04B9F90011124282BA5
:1053800030E0822F8E7090E0432F50E03F5F48174F
:105390005907D4F39285D1011A968C918927828777
:1053A000422F42954F70822F829586958695837005
:1053B0008427482F4170B4E02B9FC0011124842B17
:1053C00090E0282F2E7030E0492F50E09F5F421769
:1053D0005307D4F32385D1011B969C919227938781
:1053E000482F42954F70982F929596959695937069
:1053F0004927242F2170B4E08B9FA0011124422B58
:1054000020E0842F8E7090E0622F70E02F5F68178D
:105410007907D4F39485D1011C968C9189278487D0
:10542000242F22952F70842F8295869586958370E0
:105430002827822F8170B4E04B9F90011124282BE4
:1054400030E0822F8E7090E0432F50E03F5F48178E
:105450005907D4F39585D1011D968C9189278587AD
:10546000422F42954F70822F829586958695837044
:105470008427482F4170B4E02B9FC0011124842B56
:1054800090E0282F2E7030E0492F50E09F5F4217A8
:105490005307D4F32685D1011E969C9192279687B7
:1054A000482F42954F70982F9295969596959370A8
:1054B0004927242F2170B4E08B9FA0011124422B97
:1054C00020E0842F8E7090E0622F70E02F5F6817CD
:1054D0007907D4F39785D1011F968C918927878707
:1054E000242F22952F70842F829586958695837020
:1054F0002827822F8170B4E04B9F90011124282B24
:105500002093AE2530E02E70822F90E021E0230F13
:10551000432F50E04817590714F00C949733322F5B
:10552000F5CF31E0320F422F50E04817590714F4FD
:10553000232FF7CF20938D25808190E08E5D9C4DA9
:10554000DC018C9180839091AE2594FB442740F937
:10555000892F881F8827881F4827292F229526955D
:105560002770392F32953695369533703227317042
:10557000242F2327B4E09B9FA0011124422B20E07D
:10558000842F8E7090E0622F70E02F5F681779078C
:10559000D4F3818190E08E5D9C4DDC017C9044FBD6
:1055A000222720F9842F881F8827881F2827842FE7
:1055B000829586958770942F92959695969593707F
:1055C00098279170822F8927B4E04B9F9001112476
:1055D000282B30E0822F8E7090E0432F50E03F5F09
:1055E00048175907D4F3828190E08E5D9C4DDC0111
:1055F000AC9024FB662760F9822F881F8827881FBC
:105600008627622F629566956770922F9295969580
:105610009695937096279170682F6927B4E02B9F19
:10562000C0011124862B90E0282F2E7030E0492FE6
:1056300050E09F5F42175307D4F3238130E02E5D83
:105640003C4DD9015C91682F62956F70982F9295AF
:1056500096959695937069276170282F221F2227AF
:10566000221F2627B4E08B9FB0011124622B20E07B
:10567000862F8E7090E0022F10E02F5F0817190719
:10568000D4F3848190E08E5D9C4DDC011C911483E9
:10569000262F22952F70862F82958695869583706A
:1056A0002827822F8170B4E06B9F90011124282B52
:1056B00030E0822F8E7090E0632F70E03F5F6817BC
:1056C0007907D4F3858190E08E5D9C4DDC01EC90F0
:1056D000622F62956F70822F829586958695837072
:1056E0008627682F6170B4E02B9FC0011124862BA0
:1056F00090E0282F2E7030E0692F70E09F5F6217D6
:105700007307D4F3268130E02E5D3C4DD9016C90B7
:10571000682F62956F70982F9295969596959370D5
:105720006927262F2170B4E08B9FB0011124622BD2
:1057300020E0862F8E7090E0C22ED12C2F5FC816ED
:10574000D906D4F3878190E08E5D9C4DDC019C905E
:10575000262F22952F70862F8295869586958370A9
:105760002827822F8170B4E06B9F90011124282B91
:1057700030E0822F8E7090E0632F70E03F5F6817FB
:105780007907D4F3808590E08E5D9C4DDC014C91CF
:105790004087922F92959F70822F8295869586954D
:1057A00083709827392F3170B4E02B9FC0011124EA
:1057B000932F982B80E0692F6E7070E0C82ED12C4B
:1057C0008F5FC616D706D4F3218530E02E5D3C4DA1
:1057D000D9017C91292F22952F70892F829586954A
:1057E0008695837028272170B4E09B9FC001112407
:1057F000622F682B00E0862F8E7090E0202F30E023
:105800000F5F28173907D4F3828590E08E5D9C4D99
:10581000DC01FC90262F22952F70862F829586958D
:105820008695837082278170B4E06B9F900111246C
:10583000682F622B00E0862F8E7090E0202F30E0E2
:105840000F5F28173907D4F3838590E08E5D9C4D58
:10585000DC015C90062F02950F70862F829586954D
:105860008695837008270170B4E06B9FC0011124F6
:10587000082B20E0802F8E70C82ED12C822F90E034
:105880002F5F8C159D05D4F3248530E02E5D3C4DB3
:10589000D9018C908486202F22952F70802F82959D
:1058A00086958695837028272170B4E00B9F600150
:1058B0001124622F6C2980E0262F2E7030E0C82E34
:1058C000D12C8F5FC216D306D4F3858590E08E5D10
:1058D0009C4DDC01BC90062F02950F70862F82959F
:1058E00086958695837080278170B4E06B9F9001C8
:1058F0001124082F022B60E0802F8E7090E0262F5D
:1059000030E06F5F28173907D4F3868590E08E5D0D
:105910009C4DDC016C91C02EC2942FE0C222802FDE
:1059200082958695869583708C25282F2170B4E00A
:105930000B9FC0011124D22ED82A00E08D2D8E702D
:1059400090E0202F30E00F5F28173907D4F3278528
:1059500030E02E5D3C4DD9010C912D2D22952F70FC
:105960008D2D829586958695837028272170B4E0C9
:10597000DB9E60011124C22AD12C8C2D8E7090E008
:105980002D2D30E0D39428173907D4F34C2C4294B2
:105990009FE049228C2D829586958695837084257B
:1059A000817094E0C99E90011124482E422AD12C86
:1059B000842D8E7090E02D2D30E0D3942817390778
:1059C000D4F3E1827583B1867586C42CC2948FE0CE
:1059D000C822842D82958695869583708C25282FE4
:1059E0002170A4E04A9EC0011124D22ED82AC12CD5
:1059F0008D2D8E7090E02C2D30E0C3942817390740
:105A0000D4F3F282A286668366862D2D22952F70AE
:105A10008D2D829586958695837028272170B4E018
:105A2000DB9E60011124922F9C2980E0292F2E708B
:105A300030E0C82ED12C8F5FC216D306D4F3038377
:105A4000578693865783292F22952F70892F829509
:105A50008695869583702827822F8170A4E09A9F6F
:105A600090011124282B2093AE25D12C2E70822F4B
:105A700090E0CC24C394CD0C2D2D30E028173907AD
:105A800014F4DC2CF6CFD0928D25D101A056BF4F57
:105A900090818C91892780833091AE2534FB222719
:105AA00020F9832F881F8827881F8227232F22957C
:105AB00026952770932F9295969596959370922799
:105AC0009170D82ED92624E0329FC0011124D82A03
:105AD000C12C8D2D8E7090E02C2D30E0C3942817B2
