:100000000C94E4000C9405010C9405010C9405017A
:100010000C9405010C9405010C9405010C94050148
:100020000C9405010C9405010C9405010C94050138
:100030000C9405010C9405010C9405010C94050128
:100040000C9405010C9405010C9405010C94050118
:100050000C9405010C9405010C9405010C94050108
:100060000C9405010C9405010C9405010C940501F8
:100070000C9405010C9405010C9405010C940501E8
:100080000C9405010C9405010C9405010C940501D8
:100090000C9405010C9405010C9405010C940501C8
:1000A0000C9405010C9405010C9405010C940501B8
:1000B0000C9405010C9405010C9405010C940501A8
:1000C0000C9405010C9405010C9405010C94050198
:1000D0000C9405010C9405010C9405010C94050188
:1000E0000C9405010C9405010C9405010C94050178
:1000F0000C9405010C9405010C9405010C94050168
:100100000C9405010C9405010C9405010C94050157
:100110000C9405010C9405010C9405010C94050147
:100120000C9405010C9405010C9405010C94050137
:100130000C9405010C9405010C9405010C94050127
:100140000C9405010C9405010C9405010C94050117
:100150000C9405010C9405010C9405010C94050107
:100160000C9405010C9405010C9405010C940501F7
:100170000C9405010C9405010C9405010C940501E7
:100180000C9405010C9405010C9405010C940501D7
:100190000C9405010C9405010C9405010C940501C7
:1001A0000C9405010C9405010C9405010C940501B7
:1001B0000C9405010C9405010C9405010C940501A7
:1001C0000C9405010C94050111241FBECFEFDFE351
:1001D000DEBFCDBF00E00CBF13E2A0E0B0E2E0EB79
:1001E000FEE000E00BBF02C007900D92A433B10700
:1001F000D9F715E2A4E3B3E201C01D92AD3CB1070B
:10020000E1F70E9496050C9456070C940000CF93DA
:10021000DF93C42FD52FA0E0B0E0A617B707F0F406
:10022000FC01EA0FFB1F20812A3328F0206230E016
:100230002755310903C030E020533109E181EA3309
:1002400028F0E062F0E0E755F10902C0F0E0F09735
:100250002295207FE22BE9931296DFCFCA01DF912E
:10026000CF9108951F93CF93DF93DA0111969C01EC
:10027000260F371F82179307B9F0EC01FC0111918B
:10028000CF01E12FE295EF70F0E0E050F04E1081E9
:10029000FD0131971083E881EF70F0E0E050F04EFF
:1002A000E081EC931296E6CF660F771FFA01E60F16
:1002B000F71F1082DF91CF911F910895E0E4F6E0DF
:1002C00088E0818384E08283E0EAF8E083E085834C
:1002D0008BE0868317828481806184838481886037
:1002E00084830895CF93DF931F921F92CDB7DEB71B
:1002F00069837A8320E030E049815A8124173507E9
:1003000069F04091A10847FF06C02091A008FC01B8
:10031000208381E004C02F5F3F4FEECF80E00F903D
:100320000F90DF91CF9108958091A10887FFFCCFB6
:100330008091A00808959091A10895FFFCCF80932B
:10034000A0080895FC01608371834283148613869C
:10035000168615860895FC0162830895FC01958533
:1003600026859F5F937081E0921301C080E008951D
:100370000F931F93CF93DF931F92CDB7DEB78C01FE
:1003800069830E94AE0169818823A9F0D8011D9676
:100390009C911D97F801E90FF11D67839F5F937092
:1003A000F80195870190F081E02D93819C7F129652
:1003B0002C91922B93830F90DF91CF911F910F91EE
:1003C0000895FC012385948581E0291301C080E014
:1003D0000895FC018485DF01A80FB11D13968C914F
:1003E00094859F5F937094870895FC0183858F5F48
:1003F00083702485A081B1819C91821749F0238567
:10040000DF01A20FB11D13969C93838781E00895AD
:1004100080E00895CF93DF93FC0186859585A081C8
:10042000B181981307C013968C9113978C7F139604
:100430008C930AC08685EF01C80FD11D8F818C93E4
:1004400086858F5F83708687DF91CF910895FC0149
:10045000848170FF02C0816001C08E7F84836083CD
:100460000895FC01848180FF04C0808190E0916048
:100470000895808190E008951092520010925500E6
:10048000809150008860809350008091510083FFDC
:10049000FCCF88ED84BF83E08093400088E08093A8
:1004A000500080E680930106809305060895CF935F
:1004B000DF93C9E8D4E2AC01EAEAF4E280E18E0F0E
:1004C000DB019D91BD013991219193279227DA019A
:1004D0009D93AD018E13F4CFDF91CF910895CF930B
:1004E000DF93EC0190E0E92FE40FEF70E227F0E0FA
:1004F000DF01A05FBF4D8C91DE01A80FB11D3C91C3
:10050000E60FF71F30839F5F903169F7DF91CF913E
:1005100008958F929F92BF92CF92DF92EF92FF92B7
:100520000F931F93CF93DF9330E0E32FE40FE3703B
:10053000E227EE0FEE0FF0E07B01EE0EFF1E8F01C3
:100540000F5F1F4F060F171FEF012296C60FD71F11
:10055000DF011396A60FB71F4F01880E991EF701F2
:10056000C080D12CF601ED5CFE4DB88050815B253A
:10057000DC905D25F801C080D12CF601ED5CFF4DCB
:10058000D0805D25F4015083DC90F70150815D251A
:10059000F801C080D12CF601ED5CFE4DD0805D25C8
:1005A000C880D12CF601ED5CFF4DD0805D25F401B3
:1005B0005183F801D080F70150815D25C880D12C8E
:1005C000F601ED5CFE4DD0805D25CC90D12CF6017E
:1005D000ED5CFF4DD0805D25F4015283F701E08092
:1005E000F12CF701ED5CFF4D7F01F8011081F7015F
:1005F00050815127C8815C27AC91B0E0AD5CBE4D05
:10060000AC915A27F40153833F5F343009F08DCF0A
:10061000DF91CF911F910F91FF90EF90DF90CF90DE
:10062000BF909F908F9008958F929F92AF92BF92AC
:10063000CF92DF92EF92FF920F931F93CF93DF93AE
:1006400070E09B0144E0220F331F4A95E1F7A901B6
:10065000435F5F4F480F591FE9012E96C80FD91FFE
:10066000E881F0E0ED5CFD4DD080D9011F964D0191
:10067000880E991ED401EC91F0E0ED5CFD4DC08038
:100680008901045F1F4F080F191FF801A081EA2F8D
:10069000F0E0ED5CFD4DF0805C01A20EB31EF501B3
:1006A000605E7F4DE080DB016C91E626DA016C91A3
:1006B00070E06D5C7D4DDB017C917E25708B6181EE
:1006C000D626D18A6281C626C28A6381F626F38A3B
:1006D00064817627748BE580ED24E58A66816C253C
:1006E000668BB780FB24F78AB084B726B08E7185FD
:1006F000E726E18E72856727628F93858F2D892784
:10070000838FD8017C917B25748FDA01DC90ED24F6
:10071000E58E98816927668FD4019C918927878F00
:10072000DF91CF911F910F91FF90EF90DF90CF90CD
:10073000BF90AF909F908F9008952F923F924F92CD
:100740005F926F927F928F92AF92CF92DF92EF92F1
:100750000F93CF93DF93CDB7DEB76297CDBFDEBFE8
:100760001C01CE0101963C01DE015196A98BBA8B8A
:10077000FC01D1018D91819389899A89E817F90744
:10078000C9F78090D823A090D7239BECC92E94E280
:10079000D92EE090D423009199242AEA34E24AE940
:1007A00054E269EE73E2C3010E944E054091D723E3
:1007B0004F702091D82369ED73E2C3010E946F024C
:1007C0004091BA244F702091D8236BEB74E28AE9F0
:1007D00094E20E946F022091CC2523704091BA24AC
:1007E000437069ED73E2C3010E9489022091D7230F
:1007F00023704091CC2543706BEB74E28AE994E25C
:100800000E948902412C512C90E1490E511CB201E9
:1008100067517C4D8090D823A090D7238BECC82EB5
:1008200084E2D82EE090D423009199242AEA34E27D
:100830004AE954E2C3010E944E054091D7234F700C
:100840002091D82369ED73E2C3010E946F024091A9
:10085000BA244F702091D8236BEB74E28AE994E2BA
:100860000E946F022091CC2523704091BA244370DE
:1008700069ED73E2C3010E9489022091D72323709E
:100880004091CC2543706BEB74E28AE994E20E94BC
:100890008902A0E84A16510409F0B6CF8090D82307
:1008A000A090D723E090D423009199242AEA34E23F
:1008B0004AE954E269E774E2C3010E944E0540919F
:1008C000D7234F702091D82369ED73E2C3010E94B2
:1008D0006F024091BA244F702091D8236BEB74E2E1
:1008E0008AE994E20E946F0269ED73E2C3010E94FB
:1008F0005702EBEBF4E2D3018D913D0191918927F1
:10090000D1018D931D0189899A896816790699F715
:100910006296CDBFDEBFDF91CF910F91EF90DF9058
:10092000CF90AF908F907F906F905F904F903F905F
:100930002F900895CF93DF931F92CDB7DEB780E05D
:1009400090E00E94C006682F90E069830E945B06D9
:10095000698180E090E00F90DF91CF910C94D006F8
:10096000DF92EF92FF920F931F93CF93DF93C9EE25
:10097000D3E2FE012C2F205FDC013D91CD013193AC
:100980002E13FACF10E0612F89EE93E20E94140338
:100990001F5F1A30C1F78AEAE82E84E2F82E0AE9CE
:1009A00014E290E1D92ED00E0E94B306F8016193B3
:1009B0008F010E94B306D7016D937D01D012F4CF51
:1009C0000E94B306609399240E94B3066093D423D7
:1009D0000E94B3066093BA240E94B3066093CC25AC
:1009E0000E94B3066093D7230E94B3066F70609392
:1009F000D82380E090E0FC01EF70FF27E655FB4D27
:100A000038812081232729930196803B910599F70E
:100A1000DF91CF911F910F91FF90EF90DF9008959C
:100A2000FF920F931F93CF93DF93AAE9B4E2FC01E7
:100A3000AC01405F5F4F2D91308123272193E41754
:100A4000F507C9F7C091BA24D0E0A091CC25B0E059
:100A50006091992470E0F090D42340E050E09A0136
:100A60002C0F3D1FFD01E2279F01890105531B4DFE
:100A700026273727F901ED5CFD4D20812F25F80150
:100A800020834F5F5F4F4115F1E05F0741F7DF9132
:100A9000CF911F910F91FF900C949D031F922F9265
:100AA0003F924F925F926F927F928F929F92AF92FE
:100AB000BF92CF92DF92EF92FF920F931F931FE0AE
:100AC000212E1127F12EFA0CF220F824FC01EF0D53
:100AD000F11D3080DB01AF0DB11D4C904324402649
:100AE000DA01AF0DB11D5C904524D901AF0DB11DE8
:100AF0006C904624D601A40DB11D7C9075247E24F3
:100B0000708213951031F1F61F910F91FF90EF90C5
:100B1000DF90CF90BF90AF909F908F907F906F901D
:100B20005F904F903F902F901F9008950E943C023D
:100B30000E945E0181E0809301060E949A0484E392
:100B400093E20E94B00410E0C0E0D0E0FF24F394F0
:100B50000E949401883711F410E003C08B3621F411
:100B600011E0C0E0D0E0F4CF803711F412E0F9CF0B
:100B70001130B1F4FE01EC5BFC4D8A3019F08D3080
:100B800009F047C0108244E353E2BE0184E493E2DB
:100B90000E94070184E393E20E94B00410E0D8CFE2
:100BA0001230B1F68A3011F08D3069F5FE01EC5B40
:100BB000FC4D108244E853E2BE0184E493E20E94BB
:100BC0000701F092050684E893E20E941005F09276
:100BD000060644E453E260E170E084E893E20E9498
:100BE000320182E70E949B0104E413E2F801819143
:100BF0008F010E949B01F3E204361F07B9F78AE0D8
:100C00000E949B01CBCFC034D10544F6FE01EC5BC2
:100C1000FC4D808321969CCF8F929F92AF92BF9282
:100C2000CF92DF92EF92FF92CF93DF93EC01688136
:100C300079818A819B81611571058105910521F476
:100C400064E279ED8BE597E02DE133EF41E050E090
:100C50000E94060749015A019B01AC01A7EAB1E4D1
:100C60000E94F3066B017C01ACEEB4EFA501940188
:100C70000E940107DC01CB018C0D9D1DAE1DBF1D27
:100C8000B7FF03C00197A109B04888839983AA835D
:100C9000BB839F77DF91CF91FF90EF90DF90CF9054
:100CA000BF90AF909F908F9008950C940C068BE2AC
:100CB00090E20C940C06A0E0B0E080932B2090937F
:100CC0002C20A0932D20B0932E2008958F929F92D8
:100CD000AF92BF92CF92DF92EF92FF92CF93DF93CA
:100CE000EC01688179818A819B816115710581059B
:100CF000910521F464E279ED8BE597E02DE133EF86
:100D000041E050E00E94060749015A019B01AC01F5
:100D1000A7EAB1E40E94F3066B017C01ACEEB4EFEC
:100D2000A50194010E940107DC01CB018C0D9D1DE2
:100D3000AE1DBF1DB7FF03C00197A109B04888834E
:100D40009983AA83BB83BC01CD019F77DF91CF91AB
:100D5000FF90EF90DF90CF90BF90AF909F908F90DB
:100D600008950C9466068FE290E20C9466066093F8
:100D70002F2070933020809331209093322008955B
:100D800003D0808199270895E0ECF1E0378537FDA5
:100D9000FDCF348538603487FC01E050F04F089572
:100DA000262FE0ECF1E0378537FDFDCF3485377F26
:100DB0003487378531FF09C036E3328738ED34BFD9
:100DC00031E03387378537FDFDCF33E332878083CA
:100DD00091831282248325E3228728ED31E024BF0A
:100DE0003387019608950E942507A59F900DB49F13
:100DF000900DA49F800D911D11240895B7FF0C94B0
:100E0000F3060E94F306821B930B0895052E97FBB1
:100E10001EF400940E941D0757FD07D00E9434075E
:100E200007FC03D04EF40C941D0750954095309567
:100E300021953F4F4F4F5F4F089590958095709546
:100E400061957F4F8F4F9F4F0895A29FB001B39F31
:100E5000C001A39F700D811D1124911DB29F700DC3
:100E6000811D1124911D0895A1E21A2EAA1BBB1BFE
:100E7000FD010DC0AA1FBB1FEE1FFF1FA217B30766
:100E8000E407F50720F0A21BB30BE40BF50B661F7C
:100E9000771F881F991F1A9469F760957095809540
:100EA00090959B01AC01BD01CF010895F894FFCF4F
:100EB0003031323334353637383941424344454690
:100EC00000050A0F04090E03080D02070C01060BAA
:100ED00001020408102040801B366C010000000154
:100EE000000000000306050C0F0A09181B1E1D1444
:100EF000171211303336353C3F3A39282B2E2D242A
:100F0000272221606366656C6F6A69787B7E7D74D9
:100F1000777271505356555C5F5A59484B4E4D4449
:100F2000474241C0C3C6C5CCCFCAC9D8DBDEDDD479
:100F3000D7D2D1F0F3F6F5FCFFFAF9E8EBEEEDE4E9
:100F4000E7E2E1A0A3A6A5ACAFAAA9B8BBBEBDB419
:100F5000B7B2B1909396959C9F9A99888B8E8D8409
:100F60008782819B989D9E97949192838085868F9E
:100F70008C898AABA8ADAEA7A4A1A2B3B0B5B6BF09
:100F8000BCB9BAFBF8FDFEF7F4F1F2E3E0E5E6EFF9
:100F9000ECE9EACBC8CDCEC7C4C1C2D3D0D5D6DF29
:100FA000DCD9DA5B585D5E57545152434045464F99
:100FB0004C494A6B686D6E67646162737075767FC9
:100FC0007C797A3B383D3E37343132232025262F39
:100FD0002C292A0B080D0E07040102131015161FE9
:100FE0001C191A00020406080A0C0E101214161816
:100FF0001A1C1E20222426282A2C2E303234363861
:101000003A3C3E40424446484A4C4E505254565850
:101010005A5C5E60626466686A6C6E707274767840
:101020007A7C7E80828486888A8C8E909294969830
:101030009A9C9EA0A2A4A6A8AAACAEB0B2B4B6B820
:10104000BABCBEC0C2C4C6C8CACCCED0D2D4D6D810
:10105000DADCDEE0E2E4E6E8EAECEEF0F2F4F6F800
:10106000FAFCFE1B191F1D131117150B090F0D0399
:101070000107053B393F3D333137352B292F2D23D0
:101080002127255B595F5D535157554B494F4D43C0
:101090004147457B797F7D737177756B696F6D63B0
:1010A0006167659B999F9D939197958B898F8D83A0
:1010B000818785BBB9BFBDB3B1B7B5ABA9AFADA390
:1010C000A1A7A5DBD9DFDDD3D1D7D5CBC9CFCDC380
:1010D000C1C7C5FBF9FFFDF3F1F7F5EBE9EFEDE370
:1010E000E1E7E5637C777BF26B6FC53001672BFE30
:1010F000D7AB76CA82C97DFA5947F0ADD4A2AF9C6E
:10110000A472C0B7FD9326363FF7CC34A5E5F17144
:10111000D8311504C723C31896059A071280E2EB4D
:1011200027B27509832C1A1B6E5AA0523BD6B329DD
:10113000E32F8453D100ED20FCB15B6ACBBE394A6A
:101140004C58CFD0EFAAFB434D338545F9027F5071
:101150003C9FA851A3408F929D38F5BCB6DA211070
:10116000FFF3D2CD0C13EC5F974417C4A77E3D6408
:101170005D197360814FDC222A908846EEB814DE38
:101180005E0BDBE0323A0A4906245CC2D3AC6291C2
:1011900095E479E7C8376D8DD54EA96C56F4EA65AC
:1011A0007AAE08BA78252E1CA6B4C6E8DD741F4BAB
:1011B000BD8B8A703EB5664803F60E613557B98619
:1011C000C11D9EE1F8981169D98E949B1E87E9CEC6
:1011D0005528DF8CA1890DBFE6426841992D0FB0DB
:0411E00054BB1600E6
:00000001FF
