:100000000C94E4000C9405010C9405010C9405017A
:100010000C9405010C9405010C9405010C94050148
:100020000C9405010C9405010C9405010C94050138
:100030000C9405010C9405010C9405010C94050128
:100040000C9405010C9405010C9405010C94050118
:100050000C9405010C9405010C9405010C94050108
:100060000C9405010C9405010C9405010C940501F8
:100070000C9405010C9405010C9405010C940501E8
:100080000C9405010C9405010C9405010C940501D8
:100090000C9405010C9405010C9405010C940501C8
:1000A0000C9405010C9405010C9405010C940501B8
:1000B0000C9405010C9405010C9405010C940501A8
:1000C0000C9405010C9405010C9405010C94050198
:1000D0000C9405010C9405010C9405010C94050188
:1000E0000C9405010C9405010C9405010C94050178
:1000F0000C9405010C9405010C9405010C94050168
:100100000C9405010C9405010C9405010C94050157
:100110000C9405010C9405010C9405010C94050147
:100120000C9405010C9405010C9405010C94050137
:100130000C9405010C9405010C9405010C94050127
:100140000C9405010C9405010C9405010C94050117
:100150000C9405010C9405010C9405010C94050107
:100160000C9405010C9405010C9405010C940501F7
:100170000C9405010C9405010C9405010C940501E7
:100180000C9405010C9405010C9405010C940501D7
:100190000C9405010C9405010C9405010C940501C7
:1001A0000C9405010C9405010C9405010C940501B7
:1001B0000C9405010C9405010C9405010C940501A7
:1001C0000C9405010C94050111241FBECFEFDFE351
:1001D000DEBFCDBF00E00CBF10E2A0E0B0E2E4E87B
:1001E000F3E300E00BBF02C007900D92AA32B10703
:1001F000D9F710E2AAE2B0E201C01D92AA3DB10710
:10020000E1F70E9400180C94C0190C940000CF93E1
:10021000DF93C42FD52FA0E0B0E0A617B707F0F406
:10022000FC01EA0FFB1F20812A3328F0206230E016
:100230002755310903C030E020533109E181EA3309
:1002400028F0E062F0E0E755F10902C0F0E0F09735
:100250002295207FE22BE9931296DFCFCA01DF912E
:10026000CF9108951F93CF93DF93DA0111969C01EC
:10027000260F371F82179307B9F0EC01FC0111918B
:10028000CF01E12FE295EF70F0E0E050F04E1081E9
:10029000FD0131971083E881EF70F0E0E050F04EFF
:1002A000E081EC931296E6CF660F771FFA01E60F16
:1002B000F71F1082DF91CF911F910895E0E4F6E0DF
:1002C00088E0818384E08283E0EAF8E083E085834C
:1002D0008BE0868317828481806184838481886037
:1002E00084830895CF93DF931F921F92CDB7DEB71B
:1002F00069837A8320E030E049815A8124173507E9
:1003000069F04091A10847FF06C02091A008FC01B8
:10031000208381E004C02F5F3F4FEECF80E00F903D
:100320000F90DF91CF9108958091A10887FFFCCFB6
:100330008091A00808959091A10895FFFCCF80932B
:10034000A0080895FC01608371834283148613869C
:10035000168615860895FC0162830895FC01958533
:1003600026859F5F937081E0921301C080E008951D
:100370000F931F93CF93DF931F92CDB7DEB78C01FE
:1003800069830E94AE0169818823A9F0D8011D9676
:100390009C911D97F801E90FF11D67839F5F937092
:1003A000F80195870190F081E02D93819C7F129652
:1003B0002C91922B93830F90DF91CF911F910F91EE
:1003C0000895FC012385948581E0291301C080E014
:1003D0000895FC018485DF01A80FB11D13968C914F
:1003E00094859F5F937094870895FC0183858F5F48
:1003F00083702485A081B1819C91821749F0238567
:10040000DF01A20FB11D13969C93838781E00895AD
:1004100080E00895CF93DF93FC0186859585A081C8
:10042000B181981307C013968C9113978C7F139604
:100430008C930AC08685EF01C80FD11D8F818C93E4
:1004400086858F5F83708687DF91CF910895FC0149
:10045000848170FF02C0816001C08E7F84836083CD
:100460000895FC01848180FF04C0808190E0916048
:100470000895808190E008951092520010925500E6
:10048000809150008860809350008091510083FFDC
:10049000FCCF88ED84BF83E08093400088E08093A8
:1004A000500080E6809301068093050608950F931F
:1004B0001F93CF93DF9380E090E00E942A1990E091
:1004C0000E94C5180E94C118682F80E090E00E9429
:1004D0003A1980E090E0E0911820F0911920E80F9F
:1004E000F91F8083019680319105A9F780E090E0A3
:1004F000E0911620F0911720E80FF91F80830196F4
:1005000080319105A9F7CFE0D0E00E941D198091BC
:100510001820909119206F70FC01E60FF11D2081C9
:10052000DC01AC0FBD1F8C918083E0911820F0910D
:100530001920EC0FFD1F2083219738F7CFE0D0E082
:100540000E941D1980911620909117206F70FC0158
:10055000E60FF11D2081DC01AC0FBD1F8C91808363
:10056000E0911620F0911720EC0FFD1F20832197BA
:1005700038F7C0E0D0E000911220109113200C0F4A
:100580001D1F0E941D196F70F80160832196C031F4
:10059000D10589F7DF91CF911F910F9108950C94A8
:1005A000B0040C9400040C94570220E030E0FC01ED
:1005B0004191CF01E0911E20F0911F20E20FF31F27
:1005C00040832F5F3F4F2031310589F70C940004A1
:1005D0000F931F93CF93DF93EC01DC0120E030E019
:1005E0008D91E0912020F0912120E20FF31F808374
:1005F0002F5F3F4F2031310599F70E94B00420E072
:1006000030E0E0912020F0912120E20FF31F808163
:1006100089932F5F3F4F2031310599F780E090E0BB
:10062000E0911820F0911920E80FF91F80830196BE
:1006300080319105A9F780E090E0E0911620F091DB
:100640001720E80FF91F8083019680319105A9F7E3
:10065000CFE0D0E00E941D198091182090911920C0
:100660006F70FC01E60FF11D2081DC01AC0FBD1F96
:100670008C918083E0911820F0911920EC0FFD1FE0
:100680002083219738F7CFE0D0E00E941D19809198
:100690001620909117206F70FC01E60FF11D20814C
:1006A000DC01AC0FBD1F8C918083E0911620F0918E
:1006B0001720EC0FFD1F2083219738F7C0E0D0E012
:1006C00000911220109113200C0F1D1F0E941D1964
:1006D0006F70F80160832196C031D10589F7DF91F1
:1006E000CF911F910F9108950000000000000000BD
:1006F00000000000000000000000000000000000FA
:1007000000000000000000000000000000000000E9
:1007100000000000000000000000000000000000D9
:1007200000000000000000000000000000000000C9
:1007300000000000000000000000000000000000B9
:1007400000000000000000000000000000000000A9
:100750000000000000000000000000000000000099
:100760000000000000000000000000000000000089
:100770000000000000000000000000000000000079
:100780000000000000000000000000000000000069
:100790000000000000000000000000000000000059
:1007A0000000000000000000000000000000000049
:1007B0000000000000000000000000000000000039
:1007C0000000000000000000000000000000000029
:1007D0000000000000000000000000000000000019
:1007E0000000000000000000000000000000000009
:1007F00000000000000000000000000000000000F9
:100800000F921F922F923F924F925F926F927F9220
:100810008F929F92AF92BF92CF92DF92EF92FF9210
:100820000F931F932F933F934F935F936F937F93F8
:100830008F939F93AF93BF93CF93DF93EF93FF93E8
:1008400000241124222433244424552466247724AC
:1008500088249924AA24BB24CC24DD24EE24FF245C
:10086000002711272227F894F2E3E0E50190119088
:100870002190319041905190619071908190919030
:10088000A190B190C190D190E190F190F3E3E0E1BB
:1008900000E000830DE001830AE0028307E00383A8
:1008A00004E0048301E005830EE006830BE0078388
:1008B00008E0008705E0018702E002870FE0038778
:1008C0000CE0048709E0058706E0068703E0078758
:1008D000B4E3A0E0ACD0FAE2E0E2059015902590F8
:1008E0003590459055906590759085909590A59020
:1008F000B590C590D590E590F590D2E3C0E009920F
:1009000019922992399249925992699279928992CF
:100910009992A992B992C992D992E992F992FF91CA
:10092000EF91DF91CF91BF91AF919F918F917F9187
:100930006F915F914F913F912F911F910F91FF9078
:10094000EF90DF90CF90BF90AF909F908F907F906F
:100950006F905F904F903F902F901F900F90089551
:100960000F921F922F923F924F925F926F927F92BF
:100970008F929F92AF92BF92CF92DF92EF92FF92AF
:100980000F931F932F933F934F935F936F937F9397
:100990008F939F93AF93BF93CF93DF93EF93FF9387
:1009A000002411242224332444245524662477244B
:1009B00088249924AA24BB24CC24DD24EE24FF24FB
:1009C00000271127222766D0F2E3E0E4019211927A
:1009D00021923192419251926192719281929192BF
:1009E000A192B192C192D192E192F192FF91EF91D5
:1009F000DF91CF91BF91AF919F918F917F916F9137
:100A00005F914F913F912F911F910F91FF90EF9028
:100A1000DF90CF90BF90AF909F908F907F906F901E
:100A20005F904F903F902F901F900F90089501E09E
:100A30001BE1F8E11CC0ED2D249102260026EE2DCD
:100A400024911226EF2D24912226EC2D249132267A
:100A5000402451246224732484249524A624B7249A
:100A6000C824D924EA24FB24000F08F401270D929E
:100A70001D922D923D924D925D926D927D928D923E
:100A80009D92AD92BD92CD92DD92ED92FD920C368B
:100A900091F608955AE07727002411242224332464
:100AA000442455246624772488249924AA24BB242A
:100AB000CC24DD24EE24FF2494E380E066D2D2E34C
:100AC000C0E0B3E3A0E0112785D2F2E3E0E40191B6
:100AD00000260191102601912026019130260191D6
:100AE00040260191502601916026019170260191C6
:100AF0008026019190260191A0260191B0260191B6
:100B0000C0260191D0260191E0260191F02601E056
:100B1000501719F0772309F087C1B2E3A0E40D92D2
:100B20001D922D923D924D925D926D927D928D928D
:100B30009D92AD92BD92CD92DD92ED92FD92A0E894
:100B4000552309F0A0E3B2E3D3E3C0E01D91C10F48
:100B5000FAE16881670F6F70F60FEE27D2E3C0E409
:100B6000C10FE88100270491D3E3C0E1C10FE88100
:100B7000FF27CCD3B2E3D3E3C0E01D91C10FFAE16C
:100B80006881670F6F70F60FEE27D2E3C0E4C10FE4
:100B9000E88100270491D3E3C0E1C10FE881FF277A
:100BA000B5D3B2E3D3E3C0E01D91C10FFAE1688190
:100BB000670F6F70F60FEE27D2E3C0E4C10FE88134
:100BC00000270491D3E3C0E1C10FE881FF279ED342
:100BD000B2E3D3E3C0E01D91C10FFAE16881670F72
:100BE0006F70F60FEE27D2E3C0E4C10FE881002753
:100BF0000491D3E3C0E1C10FE881FF2787D3B2E3BB
:100C0000D3E3C0E01D91C10FFAE16881670F6F70F7
:100C1000F60FEE27D2E3C0E4C10FE881002704916C
:100C2000D3E3C0E1C10FE881FF2770D3B2E3D3E380
:100C3000C0E01D91C10FFAE16881670F6F70F60F78
:100C4000EE27D2E3C0E4C10FE88100270491D3E38B
:100C5000C0E1C10FE881FF2759D3B2E3D3E3C0E07D
:100C60001D91C10FFAE16881670F6F70F60FEE27D3
:100C7000D2E3C0E4C10FE88100270491D3E3C0E1CF
:100C8000C10FE881FF2742D3B2E3D3E3C0E01D9157
:100C9000C10FFAE16881670F6F70F60FEE27D2E39C
:100CA000C0E4C10FE88100270491D3E3C0E1C10F84
:100CB000E881FF272BD3B2E3D3E3C0E01D91C10F3E
:100CC000FAE16881670F6F70F60FEE27D2E3C0E498
:100CD000C10FE88100270491D3E3C0E1C10FE8818F
:100CE000FF2714D3B2E3D3E3C0E01D91C10FFAE1B3
:100CF0006881670F6F70F60FEE27D2E3C0E4C10F73
:100D0000E88100270491D3E3C0E1C10FE881FF2708
:100D1000FDD2B2E3D3E3C0E01D91C10FFAE16881D7
:100D2000670F6F70F60FEE27D2E3C0E4C10FE881C2
:100D300000270491D3E3C0E1C10FE881FF27E6D289
:100D4000B2E3D3E3C0E01D91C10FFAE16881670F00
:100D50006F70F60FEE27D2E3C0E4C10FE8810027E1
:100D60000491D3E3C0E1C10FE881FF27CFD2B2E302
:100D7000D3E3C0E01D91C10FFAE16881670F6F7086
:100D8000F60FEE27D2E3C0E4C10FE88100270491FB
:100D9000D3E3C0E1C10FE881FF27B8D2B2E3D3E3C8
:100DA000C0E01D91C10FFAE16881670F6F70F60F07
:100DB000EE27D2E3C0E4C10FE88100270491D3E31A
:100DC000C0E1C10FE881FF27A1D2B2E3D3E3C0E0C5
:100DD0001D91C10FFAE16881670F6F70F60FEE2762
:100DE000D2E3C0E4C10FE88100270491D3E3C0E15E
:100DF000C10FE881FF278AD2B2E3D3E3C0E01D919F
:100E0000C10FFAE16881670F6F70F60FEE27D2E32A
:100E1000C0E4C10FE88100270491D3E3C0E1C10F12
:100E2000E881FF2773D2A5C0D3E3C0E06881FAE16F
:100E3000670F6F70F60FEE27E02D00240490C4E0DA
:100E40006881FAE1670F6F70F60FEE27E42D4424F6
:100E50004490C8E06881FAE1670F6F70F60FEE27E3
:100E6000E82D88248490CCE06881FAE1670F6F70E8
:100E7000F60FEE27EC2DCC24C490012DC5E068813F
:100E8000FAE1670F6F70F60FEE27E52D112414902D
:100E9000C9E06881FAE1670F6F70F60FEE27E92D60
:100EA00055245490CDE06881FAE1670F6F70F60F1A
:100EB000EE27ED2D99249490C1E06881FAE1670F47
:100EC0006F70F60FEE27E02FDD24D490022DCAE0DC
:100ED0006881FAE1670F6F70F60FEE27EA2D222482
:100EE0002490C2E06881FAE1670F6F70F60FEE2779
:100EF000E02FAA24A490062DCEE06881FAE1670FC6
:100F00006F70F60FEE27EE2D66246490C6E06881C0
:100F1000FAE1670F6F70F60FEE27E02FEE24E490F2
:100F20000F2DCBE06881FAE1670F6F70F60FEE27A7
:100F3000EB2DFF24F490C7E06881FAE1670F6F7032
:100F4000F60FEE27E72DBB24B490C3E06881FAE1E9
:100F5000670F6F70F60FEE27E32D77247490CFE0C4
:100F60006881FAE1670F6F70F60FEE27E02F3324E8
:100F7000349073955A95552309F052D106D08AD0F2
:100F80002CD1552309F40895C2CDA82FB92F0D9166
:100F900000260D9110260D9120260D9130260D91E1
:100FA00040260D9150260D9160260D9170260D91D1
:100FB00080260D9190260D91A0260D91B0260D91C1
:100FC000C0260D91D0260D91E0260D91F0268A2F96
:100FD0009B2F08950D91C00FCF7008810026C12F5F
:100FE0000D91C00FCF7008811026C12F0D91C00F39
:100FF000CF7008812026C12F0D91C00FCF700881BE
:101000003026C12F0D91C00FCF7008814026C12F0F
:101010000D91C00FCF7008815026C12F0D91C00FC8
:10102000CF7008816026C12F0D91C00FCF7008814D
:101030007026C12F0D91C00FCF7008818026C12F5F
:101040000D91C00FCF7008819026C12F0D91C00F58
:10105000CF700881A026C12F0D91C00FCF700881DD
:10106000B026C12F0D91C00FCF700881C026C12FAF
:101070000D91C00FCF700881D026C12F0D91C00FE8
:10108000CF700881E026C12F0D91C00FCF7008816D
:10109000F02608950F921F922F923F924F925F92E7
:1010A0006F927F928F929F92AF92BF92CF92DF9278
:1010B000EF92FF920F93B2E3A0E0A70F1A2FD3E3B2
:1010C000C0E00881A00FAF7000240C90A12F0C810C
:1010D000A00FAF7044244C90A12F0885A00FAF70D3
:1010E00088248C90A12F0C85A00FAF70CC24CC90BD
:1010F000A12F0D81A00FAF7011241C90A12F098585
:10110000A00FAF7055245C90A12F0D85A00FAF707C
:1011100099249C90A12F0981A00FAF70DD24DC9051
:10112000A12F0A85A00FAF7022242C90A12F0A8135
:10113000A00FAF70AA24AC90A12F0E85A00FAF70A6
:1011400066246C90A12F0E81A00FAF70EE24EC905E
:10115000A12F0B85A00FAF70FF24FC90A12F0F8152
:10116000A00FAF70BC90A12F0B81A00FAF707C902F
:10117000A12F0F85A00FAF7033243C90552349F069
:101180004FD0D2E3C0E0B3E3A0E0C70FCF701C2F75
:1011900021DFD2E3C0E9099219922992399249924A
:1011A00059926992799289929992A992B992C99227
:1011B000D992E992F9920F91FF90EF90DF90CF9042
:1011C000BF90AF909F908F907F906F905F904F9067
:1011D0003F902F901F900F900895F2E3E0E9019166
:1011E00000260191102601912026019130260191BF
:1011F00040260191502601916026019170260191AF
:101200008026019190260191A0260191B02601919E
:10121000C0260191D0260191E0260191F026089583
:10122000F9E1002D012502250325102D202D212572
:10123000E22F249102260026212D2225E22F24913F
:1012400012261026222D2325E22F24912226202645
:10125000232D2127E22F249132263026042D052527
:1012600006250725142D242D2525E22F249142261D
:101270004026252D2625E22F249152265026262D64
:101280002725E22F249162266026272D2127E22F91
:10129000249172267026082D09250A250B25182D64
:1012A000282D2925E22F249182268026292D2A25E2
:1012B000E22F2491922690262A2D2B25E22F24918D
:1012C000A226A0262B2D2127E22F2491B226B0267C
:1012D0000C2D0D250E250F251C2D2C2D2D25E22F37
:1012E0002491C226C0262D2D2E25E22F2491D22610
:1012F000D0262E2D2F25E22F2491E226E0262F2D19
:101300002127E22F2491F226F0260895E030F1F013
:10131000E130F1F0E230F1F0E330F1F0E430F1F0FF
:10132000E530F1F0E630F1F0E730F1F0E830F1F0DF
:10133000E930F1F0EA30F1F0EB30F1F0EC30F1F0BF
:10134000ED30F1F0EE30F1F0EF30F1F0002E0895D5
:10135000102E0895202E0895302E0895402E0895C1
:10136000502E0895602E0895702E0895802E0895B1
:10137000902E0895A02E0895B02E0895C02E0895A1
:10138000D02E0895E02E0895F02E0895000000005C
:10139000000000000000000000000000000000004D
:1013A000000000000000000000000000000000003D
:1013B000000000000000000000000000000000002D
:1013C000000000000000000000000000000000001D
:10180000637C777BF26B6FC53001672BFED7AB76BD
:10181000CA82C97DFA5947F0ADD4A2AF9CA472C068
:10182000B7FD9326363FF7CC34A5E5F171D83115D5
:1018300004C723C31896059A071280E2EB27B275F6
:1018400009832C1A1B6E5AA0523BD6B329E32F846E
:1018500053D100ED20FCB15B6ACBBE394A4C58CF66
:10186000D0EFAAFB434D338545F9027F503C9FA83A
:1018700051A3408F929D38F5BCB6DA2110FFF3D208
:10188000CD0C13EC5F974417C4A77E3D645D1973BC
:1018900060814FDC222A908846EEB814DE5E0BDBB6
:1018A000E0323A0A4906245CC2D3AC629195E479ED
:1018B000E7C8376D8DD54EA96C56F4EA657AAE0847
:1018C000BA78252E1CA6B4C6E8DD741F4BBD8B8AE2
:1018D000703EB5664803F60E613557B986C11D9E48
:1018E000E1F8981169D98E949B1E87E9CE5528DFBF
:1018F0008CA1890DBFE6426841992D0FB054BB16EB
:1019000000020406080A0C0E10121416181A1C1EE7
:1019100020222426282A2C2E30323436383A3C3ED7
:1019200040424446484A4C4E50525456585A5C5EC7
:1019300060626466686A6C6E70727476787A7C7EB7
:1019400080828486888A8C8E90929496989A9C9EA7
:10195000A0A2A4A6A8AAACAEB0B2B4B6B8BABCBE97
:10196000C0C2C4C6C8CACCCED0D2D4D6D8DADCDE87
:10197000E0E2E4E6E8EAECEEF0F2F4F6F8FAFCFE77
:101980001B191F1D131117150B090F0D0301070557
:101990003B393F3D333137352B292F2D2321272547
:1019A0005B595F5D535157554B494F4D4341474537
:1019B0007B797F7D737177756B696F6D6361676527
:1019C0009B999F9D939197958B898F8D8381878517
:1019D000BBB9BFBDB3B1B7B5ABA9AFADA3A1A7A507
:1019E000DBD9DFDDD3D1D7D5CBC9CFCDC3C1C7C5F7
:1019F000FBF9FFFDF3F1F7F5EBE9EFEDE3E1E7E5E7
:101A0000777B706FC96367FE276B0D3C7AA7DBF2AB
:101A100071C58EC6FC4B55F6A3AED8A1CC7EA8905E
:101A20002A9FF1BBC0FB333AFDE9A938193DD47DAB
:101A3000CF2FCB0896099A14EE8C1E0B79BE2BE79C
:101A400016208F05AC566217BFDA375E8823EF2564
:101A5000E10CDD5F57BDF02C35B2C766C35440467C
:101A6000F7A6E3DC893F414F730EF549A493305C40
:101A7000834CAF5DF934919E2DD6BAB0DEFFF31CD6
:101A8000E01F00C11B489B533172ABC87F155168E2
:101A9000D0438D6C849C262E18B4E24AD70752D2CC
:101AA00006363EEC50280A456EA0DFCE75E8999DBB
:101AB000613BC4EBA542D981E6F85A6004A276697D
:101AC000222974B6CAB8AA101378D1E48687B14720
:101AD0006AB9327C02FA0F44B55B396D9211CD8A36
:101AE0001D94F4ED9882D565E58B1297D32459C2E5
:101AF0000185AD80644EEAB30321954D1AB758BCF9
:101B0000CBE29E430534521EC75E5AF05649424E00
:101B1000A99147F598E1979ACF6C72C5FFB7FC4839
:101B200044ED04200190D0C4030AC2F982C8A61370
:101B3000DE1287403227B5D72DA330AF31F216F62B
:101B40001CD61AB1670EE3862E5B6F953CB6192F33
:101B50007F796DFA5FFE8B0C15C9846E66E435D80B
:101B60006509AA9D70CC374A767806B0E5DA9FCE33
:101B700025CAC6E78983EF14A7A80DC0649675BA75
:101B800051682C46F1924B086AA27122F83926D985
:101B9000EB6B3EEE73DB8D21171FA5BD55B47AE9C3
:101BA000A4A0D14CF7E699577C331169D5070F3FB4
:101BB000504F9B3D5963C1DFB8E07B9CD2FD02587A
:101BC0007E88BEBFDDE8412A299381F38F4D101B2B
:101BD000B3F428AB5400628C7D36C33B450B805375
:101BE000FB601DEAAE2BB2DC5CECBBA1D4CDAD2416
:101BF00085618E2374AC183A8AD3775DB994BC386A
:101C0000AC22A03FFD3EF9191DD14F88283DD8BA1E
:101C1000050CF6CDC78D1CA9E24B2F0B9F0ECBDF19
:101C200063C0CA7DB8F047F39EA6FA48EE97959830
:101C300051C8FF554659414DEDC44C913B0A115DC9
:101C4000A7A8CF02996BB57AC52AE8C98C861BE094
:101C50007779BF09D5EAC190066A92A5C37F453856
:101C6000C61A618BEB69D73A7670F562F15003843E
:101C700054219A60B9332016D913BE15016889EC36
:101C8000EFB79374F2DD570D405F32946C56D0CEAF
:101C90003C73661E08DA3000AFAB43DEE9F85896B5
:101CA0001018B2AABB5AE67564E4E131D47C2E82E6
:101CB000AD652D7E36F7D629675E49239DFE074424
:101CC000DC8552789BB637B36E8A2C81A37B35179F
:101CD000E353AEB4C2DB2BA26FF4E51224A1D3BD53
:101CE000397234CC044A5C8FFBBCA4270F5B836D34
:101CF0009C26FC8E4280141F8771B0B1E7D2254E1E
:101D0000D0B25742E225BB777393549755CA48C661
:101D1000B5A164F561452188C376E7ADA79C666FE0
:101D2000F2FFFD842290CCF4992D9AD217A0AA0933
:101D3000377B6051FB26AE87272B332C3F95A23B88
:101D40008A71ECE6A38240AF10DF01F368A5C2CD33
:101D5000522F15A9CFF8006CFAAB80BF63D5131DC5
:101D6000EE693A9B089F1A1C50BD0381E10B70ACD1
:101D700086E3026B7FD479B37C4A59D30AF04B3E99
:101D8000A4BA3C06FE58352A673DB7981EF9DD8592
:101D9000FC329283B429C1C56A5AB062740C1956D8
:101DA000E84416BE5B8B8E0E1F8C30D1C0D8727A81
:101DB0002E6D94F74923340D43BC9D5C14470FC727
:101DC0007D5F11C9EB46E004D95DDCF11238EFB656
:101DD000D7B9CB4E788F9E05C841B1A8DEC43989EA
:101DE00007E931654DCED691E536206EA65E1853D3
:101DF000244FB88DDBDA1BED757EEA28E4964CF6AD
:101E00000C8E5FB27FA3EE043594E1661513079044
:101E100056DC7345443105FF0D6489EC76BC70DBFC
:101E20000EFC1FD0CDC267AAE3E9857E4FA0AC8D22
:101E30008FB0F5A41C126CDA1AA65D200F63C0F7F0
:101E400095DD9622A50618AFF28BFDF0C3FB2D9F02
:101E50003C232824AD34309A6F5E3874A188F4296D
:101E60005B987C9C47C95AC5584DDFBDB478ED2AB4
:101E7000E8A2CC796960A8936BFABAAE2E876E4A55
:101E80002F61EA39175CA9513E6A08E6D99E42C122
:101E9000E5277A7143F9EB99B7822B4014E2D4D548
:101EA000D3FED652E0B91D371EC67250EF0BE4497F
:101EB000BEA7C74E3686D1CBC441D8B6910A77802B
:101EC0003FDE10837D75CFD719B1E74B8101548474
:101ED00092534CB300C81B489BF821623B02462C2E
:101EE000B8976832D28A11F63309ABB53A25F15763
:101EF000BF6D655516597B039D8CF33DCECABB263D
:101F0000A93E2A2C5FD8AD0C3DD79A468B66B735D3
:101F1000E249854FD5B05D34C63C087D7C4AE56F0B
:101F2000B495997647BCD0DA935EFBF4E926C537C1
:101F3000CEF95A3619649F23E3552B259DCC89B6DB
:101F4000A614C2FAC9C4B2CB96213F9C1BAFE4AC25
:101F500010CDB1984D016756A3090D941D111A05B6
:101F600013D4418D84E67461FC63F07EA545A162C3
:101F70007357BE179783C352AA91595040F59BD10E
:101F8000F87BA7E0DF3153076890652E00D3581621
:101F9000ECEDDB2D7912BB8EA0D2C07A48431EDC5B
:101FA00070DD32D6694BFF270E2480D96BEFC7EA6C
:101FB000B94E33A88FE178FDF2E8BF0F77FE9E8718
:101FC000BD6D38B872DE8820EEF64C44BA29E706BB
:101FD000157F3B025B18C1A27122F1398A756AAB89
:101FE0006EC81C038C92300ACF28B3EB0B51AE8124
:101FF0001F82F3F704CAB5A43A42602F6C5C548682
:102000005AEC2A24C392B986F6C139556B162C9026
:10201000519CFBF429E638CA9ABB7996B348D5DFC0
:1020200033C97207457360EA46ED408ABFDA3B5216
:10203000D832499569843AB831A62325D75003A2EE
:102040009EA55F56FA4FDE94587C18B18C985DCCF3
:102050006CF371FF4AAA6DAEDB1C824EE98B6E7B7E
:1020600006AC9B021E120A15C21F97BE0E4259688B
:102070002E999330A014A3EB1BA9F5CDCBC6C4BDFC
:10208000E7FD00B0F178889141B6A73CEE80F27789
:102090002B01D68FE064E5C8D27FD93D446628F095
:1020A000DDAF75CF4C47D311E2E322D41D7681B466
:1020B0009F67216ADC0F195774F7EFA83ED0085CC0
:1020C0004D35206F5363895B8D10F8FCC50BABBA9F
:1020D00027C0E4BC5E048EA1C7610C139D83053F3D
:1020E0002D7E36FE7A85A465701A0D341754ADCE58
:1020F000F9E14B4326B509E862B2B737D17D2F87A6
:102100006FD3E994AAC63E0979466D3CDBD513A589
:10211000202AB74C6986446535C719D60B0463AECF
:10212000ADC4254075BF12B9159F8CBAF88D36CC59
:102130005DFCAF28DADC59CE47C57B966AB6CD2761
:1021400033A267734EE783A76B21B005A9A05A613C
:1021500084917416B17DE324519255B5008E0C9391
:1021600097A6BDF14168E03DEAF5EDE1FD6453F964
:10217000423B3934320A56E4145CEB5FCF6C66D1D3
:10218000880D7F11C35849BE6E77870E4FFF021826
:102190000FD799BBC226802D371A9B1F7029FED4FA
:1021A0004B7E89E22BDD1C1DEE2CB8B3308A502209
:1021B000A3F72FC15710088BA8E6F02395DE98608F
:1021C0004554F43A0307EF72A4769CAC90DFCAB290
:1021D000C0FA7C62ECF39E385E71FBA1431B3FD8D2
:1021E0003152ABE8CBF2E58F9A5B7A8501C981D297
:1021F00078D0822EC8484D9D17F64AD9BCB41E0629
:102200000911BBB3D645F918924247C7218DDF7734
:10221000DD8EC60E8A75549580EAFDC4E7A45D3E46
:10222000D730144CAEF47E513791FCE36D73F5CF8B
:10223000BDC5D09FA39379AB7DE0080C35FB5B4A0D
:102240006F97D19A2CFFE9A784071F58CE20F8ACCE
:102250002D5F853FBCB723E11213D224ED86714474
:10226000DBF1267F10941538228F29CDB496D80043
:10227000170DF04001887861B14657CC1E70028777
:10228000DE6963C050E4531BEB59053D3B36344DCA
:10229000F65C6BF2EEE2FAE532EF674EFEB2A99819
:1022A0009C03810FBA5A9D5E2BEC72BE197B9E8BEC
:1022B0006E55AFA60ABF2E64A88CE8417C68AD3C81
:1022C00028C2B9659974CA48C156D3D527A0F3521C
:1022D000C33982F7B583901AB61DB07A4F2ACBA2C4
:1022E000A16C0B04D916C83A6A4B896643B8252FEE
:1022F000AA1CDAD4336249760631C9A59BE6DC60B4
:102300004EE6B418FE7E7BAB21C07CEF8A8228307B
:1023100007649DDEFDC4D3B9AC6D4CB337FFB7E4A1
:10232000F6CC4A54DAC5A80E6847CD97752D09EE4C
:102330007362C20C3531D9449240AA9AA6E9FC8452
:1023400095C119F761263EBD9ED0C615A3E8AE56CD
:102350007D48BFD41DEB2A2BD81A8E8506BC661487
:1023600039E1AF8DF410B61B012CAD29461FC8E230
:10237000BE3B4927F56E7F885841B13879C9342E64
:10238000740D0F02043C60D2226ADD69F95A50E7ED
:10239000A1908BC7775ED60BDCC3DBD7CB5265CF62
:1023A000B2A74220874BD51267A4638336B83AA5FB
:1023B0000594514578D1B5915D1786339F966C573A
:1023C0006BCA991EECEA6FF871F34DA05C80FB11AB
:1023D0009BF213764389248F23A9BA8CCEBB00FAD3
:1023E000161C817A5FB0725303F12FE03D3255988D
:1023F00059E5DFA29CF0083F4F705B0AEDE325939F
:102400004F9D95A5E6A98BF36D7C03CD3E3A4BD647
:10241000486798C2227AE106C3F95B45CAD501A78D
:1024200062A3BC43F038EBB86B08D192CBF2B6DCB8
:10243000CF2EE0738D853F27E94117BB71F1A4745E
:102440004E5737BEC676213B34B1284661FA8770B5
:10245000230E26A21049EDC7EE3682A01FFB14B949
:1024600015D78A81B3091B694772DBB0E4122425B2
:10247000DF911AC9E7AC59A1CE9AF816296EB2318C
:1024800018523C89999058639B0A4A5EDE779EBA3F
:10249000AB688C6CB739AA35A8BD2F4D44881DDABE
:1024A000CCD3D8D45DC4C06A9FAEC884517804D957
:1024B000652D66D255F6E85F027B0D00330BDD6FAC
:1024C0007F400554ECE29C2AEA56ADD0FF933007DA
:1024D000FE0CEF203D32975A1319758EBF505C7D6C
:1024E000A62C83B5B4C1F50FFD94791C864C802BC6
:1024F000FC7EAF428F531EF4C5641196E5E3F7608E
:10250000BC215054A769160799E1C38CCFFFF7256A
:10251000CD6BBFA02F3193A96C8B1048A8F20D2270
:10252000B6DC98A1F8BB6201D281529A29D6C908BB
:102530001ECE9B1BD17D2B834D55EFE7198A44A5F9
:102540001AED900B2C42DB5E514B1CACD45D3D244C
:10255000D37E9175CAE85C84AD87237AC84C644900
:102560004F4E788EDAB1182D037163D9EBE0BD7F41
:102570005BD804437C92F0A4CB33C68DA370FBB52B
:10258000D0F41DB4342060F10932FAF3E356387206
:10259000B077E22E2745D7C25FC053DD06E602C101
:1025A000B36E123BEEA2C4F500AAAE37BEB2B9A616
:1025B00005B761596A67116835829C3FB80C470FAF
:1025C0006D5AF995BAC73C8040F688863E6F2A1549
:1025D00017363AD5E41F737930FD58574A8566940B
:1025E00041EA26EC7613FE97659FABDEDFE946CC29
:1025F0000A9D898FFC7B0EAF9E7439E528C5149621
:102600006CD60C7EB270E4EF778140411722D5BEC4
:10261000C982C43CF4BAAC7F0B4C54D7FFAB739D5A
:1026200013A35E44322BDB529F0415E2D451234D99
:102630002C75A2886B46C7439E7ADC71538BC5E725
:102640005D95DD8EC60726D997AEB9D36D0EF7B46A
:10265000E0E8425A4BAA1685941411C1248CDE720C
:10266000CC8396EEF82AC0F05F5BB32E1908A866FB
:102670001F476384022DA7FDB0AFC2649CA6203E15
:10268000A4D16A9049C3D0E629E34EE5F198791CBC
:1026900036EA917B1B9927CA8680059201A0F374C4
:1026A00087894FF9251A3160F69A6255338FB5C87C
:1026B00057583FF2699B458A35DA18397C76EB101A
:1026C000A1380FA5B6A9B1BD1D34BC61CBFAE1ADEF
:1026D00093303A8D4800B7036E560AB81E67656896
:1026E000F5FC063D377DEC5912BBDFFB6FFE3B2F3F
:1026F0005CD250CF0DCE09E9ED21BF78D8CD284A64
:1027000087EC1B2E7879B84ED6DD498B4735EF55CF
:10271000A44A92C6EE6D7532469583CD05FDBBF099
:10272000741A68EDDB2C3DA66BE2120B7D679A2ACA
:10273000DEFCB26A48E543A77AFE7F52B19B4C1596
:102740008DCE3754EA8097AEE01F3EFFB7E4AC640D
:102750004BE7B51DF8282DADBC2F9372637BD1D903
:102760005F913120178A6266C9F913C1D7AFBAF5F4
:1027700007199FA55DFB9689C49E143BBD5A7E2612
:102780002540A1C8DC77DA10DFE9FA70A953E89D8B
:102790004DCA9938AB3CB9BFF31EA02242A8D30F53
:1027A000F18CB60A6C5BA3CF5908231CC076B0BE6F
:1027B00029D24F450021E30CB37CA250CB06616EB9
:1027C00094D8C3F258850D248488908F9C36019844
:1027D000515C5E2781336F573A8E3971B40309AA71
:1027E0001602C756C2E6822B60D5440E043FC5CC04
:1027F0007311F4E1418618D4D030F734F669EB65F3
:10280000F1755D7094BE1A43F3D165BDEA47A84CDB
:10281000ED64041D68722595157BE26723D4A93207
:102820009A49C28CF20AFFB445ABC99D62E13D7A78
:10283000D2D984463A485AE0E3882114767741B7E2
:1028400091CB341B55B229711608AA90F45286997F
:10285000F6C6CE1CA0D8FAB59E502F3E8518696DDD
:1028600020B37D9C746CD6DEE84412BA27F7A2220E
:1028700010EFF031EBB86BA3C1825B388FE5A19804
:1028800073BC5FAD09C4616EDD264A402E0F03ECB8
:102890000756132C79CFB1BF83FE05B95463C0AC82
:1028A00011FC2DAFA74D00DCC542379633A4B0B65E
:1028B000E6D07FF55CA692E74F2AC7AE78D31FD546
:1028C0003FDF3BF866F96AE41E7CEEFB894EDB17BE
:1028D000DA6F014B300BC3CA0D1959C8E9CD248DED
:1028E00081357E360CBBA506535E28513C8E586060
:1028F000878B809F3993970ED79BFDCC8A572B02ED
:10290000B357B815429A2E0CBCE5416B8FA28A0EC4
:10291000CD562BDC981D84EA6ADA8D97E2FB9B1278
:1029200085C21E9D623654BA4B00F50D733DB665E7
:1029300048BE8889EBDE771C1FA5B7C5B97B262D5D
:102940006679AD0B6F55F7E98ED64DAAE4CB346EA0
:102950009296E77AC1D0AF614A05275FE331390922
:10296000DD5D08D845EDBB172129938B63824CDFD1
:10297000675E1A70C7A47D3E5C944714CE0F10EFBB
:1029800013FCF0D1BFB5D922919E3BF652A0438CE7
:10299000533F9CAB46FA017C404E3086D3ECA9F8FD
:1029A000494F5BCC69C8BD3A23FFB25850D203EE01
:1029B0002AE02C875138D5B0186D59A30A802F19F9
:1029C000E824B176041183E11B95069907C420C061
:1029D00072DB321637A6E6F2353CF4CFB4FE902512
:1029E0009FA771C3AED7A1ACF95A44F3C981CA7E7F
:1029F000FDD4A87533026428F1686CC6607F7478D2
:102A000000000000000000000000000000000000C6
:102A100000000000000000000000000000000000B6
:102A2000030C353A505F66699699A0AFC5CAF3FCAE
:102A30000000000000000000000000000000000096
:102A40000000000000000000000000000000000086
:102A50000000000000000000000000000000000076
:102A60000000000000000000000000000000000066
:103000000E943C020E945E0181E0809301060E94C2
:10301000D3028AE290E20E94D50210E0C0E0D0E044
:10302000FF24F3940E949401883711F410E003C048
:103030008B3621F411E0C0E0D0E0F4CF803711F4FA
:1030400012E0F9CF1130B1F4FE01E65CFF4D8A3099
:1030500019F08D3009F047C010824AE250E2BE01FB
:103060008AE390E20E9407018AE290E20E94D50280
:1030700010E0D8CF1230B1F68A3011F08D3069F5FA
:10308000FE01E65CFF4D10824AE750E2BE018AE392
:1030900090E20E940701F09205068AE790E20E9402
:1030A000E802F09206064AE350E260E170E08AE747
:1030B00090E20E94320182E70E949B010AE310E243
:1030C000F80181918F010E949B01F0E20A351F07F0
:1030D000B9F78AE00E949B01CBCFC034D10544F6FA
:1030E000FE01E65CFF4D808321969CCF8F929F92DC
:1030F000AF92BF92CF92DF92EF92FF92CF93DF9386
:10310000EC01688179818A819B8161157105810556
:10311000910521F464E279ED8BE597E02DE133EF41
:1031200041E050E00E94701949015A019B01AC0135
:10313000A7EAB1E40E945D196B017C01ACEEB4EF2B
:10314000A50194010E946B19DC01CB018C0D9D1D22
:10315000AE1DBF1DB7FF03C00197A109B04888830A
:103160009983AA83BB839F77DF91CF91FF90EF90E4
:10317000DF90CF90BF90AF909F908F9008950C9468
:10318000761882E290E20C947618A0E0B0E080938A
:10319000222090932320A0932420B09325200895EB
:1031A0008F929F92AF92BF92CF92DF92EF92FF9257
:1031B000CF93DF93EC01688179818A819B816115CE
:1031C00071058105910521F464E279ED8BE597E0C5
:1031D0002DE133EF41E050E00E94701949015A019E
:1031E0009B01AC01A7EAB1E40E945D196B017C016F
:1031F000ACEEB4EFA50194010E946B19DC01CB0188
:103200008C0D9D1DAE1DBF1DB7FF03C00197A10909
:10321000B04888839983AA83BB83BC01CD019F7783
:10322000DF91CF91FF90EF90DF90CF90BF90AF9064
:103230009F908F9008950C94D01886E290E20C94A1
:10324000D018609326207093272080932820909395
:103250002920089503D0808199270895E0ECF1E0BA
:10326000378537FDFDCF348538603487FC01E05069
:10327000F04F0895262FE0ECF1E0378537FDFDCFC4
:103280003485377F3487378531FF09C036E332878D
:1032900038ED34BF31E03387378537FDFDCF33E379
:1032A0003287808391831282248325E3228728ED4D
:1032B00031E024BF3387019608950E948F19A59F9E
:1032C000900DB49F900DA49F800D911D1124089521
:1032D000B7FF0C945D190E945D19821B930B089532
:1032E000052E97FB1EF400940E94871957FD07D006
:1032F0000E949E1907FC03D04EF40C948719509538
:103300004095309521953F4F4F4F5F4F08959095D1
:103310008095709561957F4F8F4F9F4F0895A29F25
:10332000B001B39FC001A39F700D811D1124911D99
:10333000B29F700D811D1124911D0895A1E21A2ED6
:10334000AA1BBB1BFD010DC0AA1FBB1FEE1FFF1F49
:10335000A217B307E407F50720F0A21BB30BE40B99
:10336000F50B661F771F881F991F1A9469F76095E0
:103370007095809590959B01AC01BD01CF0108959A
:04338000F894FFCFEF
:103384003031323334353637383941424344454697
:103394001033003390323032803270326032503227
:0A33A40040320100000001000000AB
:00000001FF
