:100000000C94E4000C9405010C9405010C9405017A
:100010000C9405010C9405010C9405010C94050148
:100020000C9405010C9405010C9405010C94050138
:100030000C9405010C9405010C9405010C94050128
:100040000C9405010C9405010C9405010C94050118
:100050000C9405010C9405010C9405010C94050108
:100060000C9405010C9405010C9405010C940501F8
:100070000C9405010C9405010C9405010C940501E8
:100080000C9405010C9405010C9405010C940501D8
:100090000C9405010C9405010C9405010C940501C8
:1000A0000C9405010C9405010C9405010C940501B8
:1000B0000C9405010C9405010C9405010C940501A8
:1000C0000C9405010C9405010C9405010C94050198
:1000D0000C9405010C9405010C9405010C94050188
:1000E0000C9405010C9405010C9405010C94050178
:1000F0000C9405010C9405010C9405010C94050168
:100100000C9405010C9405010C9405010C94050157
:100110000C9405010C9405010C9405010C94050147
:100120000C9405010C9405010C9405010C94050137
:100130000C9405010C9405010C9405010C94050127
:100140000C9405010C9405010C9405010C94050117
:100150000C9405010C9405010C9405010C94050107
:100160000C9405010C9405010C9405010C940501F7
:100170000C9405010C9405010C9405010C940501E7
:100180000C9405010C9405010C9405010C940501D7
:100190000C9405010C9405010C9405010C940501C7
:1001A0000C9405010C9405010C9405010C940501B7
:1001B0000C9405010C9405010C9405010C940501A7
:1001C0000C9405010C94050111241FBECFEFDFE351
:1001D000DEBFCDBF00E00CBF13E2A0E0B0E2ECE375
:1001E000FDE000E00BBF02C007900D92A432B10702
:1001F000D9F714E2A4E2B3E201C01D92AA3BB10711
:10020000E1F70E94DC040C949C060C940000CF9350
:10021000DF93C42FD52FA0E0B0E0A617B707F0F406
:10022000FC01EA0FFB1F20812A3328F0206230E016
:100230002755310903C030E020533109E181EA3309
:1002400028F0E062F0E0E755F10902C0F0E0F09735
:100250002295207FE22BE9931296DFCFCA01DF912E
:10026000CF9108951F93CF93DF93DA0111969C01EC
:10027000260F371F82179307B9F0EC01FC0111918B
:10028000CF01E12FE295EF70F0E0E050F04E1081E9
:10029000FD0131971083E881EF70F0E0E050F04EFF
:1002A000E081EC931296E6CF660F771FFA01E60F16
:1002B000F71F1082DF91CF911F910895E0E4F6E0DF
:1002C00088E0818384E08283E0EAF8E083E085834C
:1002D0008BE0868317828481806184838481886037
:1002E00084830895CF93DF931F921F92CDB7DEB71B
:1002F00069837A8320E030E049815A8124173507E9
:1003000069F04091A10847FF06C02091A008FC01B8
:10031000208381E004C02F5F3F4FEECF80E00F903D
:100320000F90DF91CF9108958091A10887FFFCCFB6
:100330008091A00808959091A10895FFFCCF80932B
:10034000A0080895FC01608371834283148613869C
:10035000168615860895FC0162830895FC01958533
:1003600026859F5F937081E0921301C080E008951D
:100370000F931F93CF93DF931F92CDB7DEB78C01FE
:1003800069830E94AE0169818823A9F0D8011D9676
:100390009C911D97F801E90FF11D67839F5F937092
:1003A000F80195870190F081E02D93819C7F129652
:1003B0002C91922B93830F90DF91CF911F910F91EE
:1003C0000895FC012385948581E0291301C080E014
:1003D0000895FC018485DF01A80FB11D13968C914F
:1003E00094859F5F937094870895FC0183858F5F48
:1003F00083702485A081B1819C91821749F0238567
:10040000DF01A20FB11D13969C93838781E00895AD
:1004100080E00895CF93DF93FC0186859585A081C8
:10042000B181981307C013968C9113978C7F139604
:100430008C930AC08685EF01C80FD11D8F818C93E4
:1004400086858F5F83708687DF91CF910895FC0149
:10045000848170FF02C0816001C08E7F84836083CD
:100460000895FC01848180FF04C0808190E0916048
:100470000895808190E008951092520010925500E6
:10048000809150008860809350008091510083FFDC
:10049000FCCF88ED84BF83E08093400088E08093A8
:1004A000500080E6809301068093050608956091D0
:1004B000D72390E1899FA001112490E0292F2627BE
:1004C00030E0D901A953BC4D275F3B4DF901E40F42
:1004D000F51F30812C9123272C939F5F903171F76A
:1004E0002091D82380E0E82FE227F0E0E953FC4D8B
:1004F000A081B0E0AD5DBD4D9C9190838F5F803158
:1005000091F70895A9EAB4E2E7ECF3E290E19E0FD7
:100510008D912081822781939E13FACF08951F9396
:10052000CF93DF931091D9234091CA233091D623E2
:100530002091D2239091CE23E091D1237091C923B1
:100540006091D5235091CD23C091C823B091CC2385
:10055000A091D023F091D42380E0D82FD127D1309F
:1005600051F0D23071F0D33091F4D42F432F322F89
:10057000292F9D2F0CC0DC2FCB2FBA2FAF2FFD2F93
:1005800006C0D62F652F5D2FDE2FE72F7D2F8F5FC3
:10059000843019F7C093C823B093CC23A093D02301
:1005A000F093D423E093D1237093C9236093D52390
:1005B0005093CD234093CA233093D6232093D22344
:1005C0009093CE23DF91CF911F9108958F929F92A8
:1005D000AF92BF92CF92DF92EF92FF920F931F9351
:1005E000CF93DF9300D01F92CDB7DEB7198284E09E
:1005F0008A8388E08B838CE08C836091DB23F0908E
:10060000DA237091DC2340E0E42FEF25AE2EB12CED
:10061000202F912E8E2D30E001E010E00C0F1D1FD9
:100620000A0D1B1D36131DC0D8018C91A82FB0E0F8
:10063000A953BC4D1396EC90139712968C91129778
:10064000882E8E24CC90D12CF601ED5DFE4DE080FD
:10065000882D8E251196AC91B0E0AD5DBF4DAC916B
:100660008A27A32FA627A130D9F4F801A081B0E0F2
:10067000A953BC4D1396EC9013975C915E2511968F
:10068000CC901197D12CF601ED5DFE4DE0805E25FA
:100690001296AC91B0E0AD5DBF4DAC915A273AC017
:1006A000A230E1F4F801A081B0E0A953BC4D11964D
:1006B000EC9011979C919E251296CC901297D12C7C
:1006C000F601ED5DFE4DE0809E251396AC91B0E005
:1006D000AD5DBF4DAC91992E9A261CC0A330D1F4CC
:1006E000F801A081B0E0A953BC4D1296EC9012978E
:1006F00011962C9111972E25CC90D12CF601ED5D01
:10070000FF4DE0802E251396AC91B0E0AD5DBE4D5F
:10071000AC912A273F5F343009F084CF192D022F86
:10072000E82E30E0E1E0F0E0EC0FFD1FEA0DFB1DEC
:10073000371305C0A081B0E0A953BC4D8C93A32F03
:10074000A727A13039F4A081B0E0A953BC4D119680
:100750005C9311C0A23039F4A081B0E0A953BC4D24
:1007600012969C9208C0A33031F4A081B0E0A95346
:10077000BC4D13962C933F5F3430D1F64F5F44301D
:1007800009F042CF2496CDBFDEBFDF91CF911F91FC
:100790000F91FF90EF90DF90CF90BF90AF909F9020
:1007A0008F9008958F929F92AF92BF92CF92DF92D7
:1007B000EF92FF920F931F93CF93DF9370E09B0113
:1007C00044E0220F331F4A95E1F7A901435F5F4FD1
:1007D000480F591FE9012E96C80FD91FE881F0E094
:1007E000ED5DFD4DD080D9011F964D01880E991EFB
:1007F000D401EC91F0E0ED5DFD4DC0808901045F16
:100800001F4F080F191FF801A081EA2FF0E0ED5DDE
:10081000FD4DF0805C01A20EB31EF501605F7F4DBF
:10082000E080DB016C91E626DA016C9170E06D5D91
:100830007D4DDB017C917E25708B6181D626D18A2E
:100840006281C626C28A6381F626F38A648176278E
:10085000748BE580ED24E58A66816C25668BB78014
:10086000FB24F78AB084B726B08E7185E726E18E27
:1008700072856727628F93858F2D8927838FD80193
:100880007C917B25748FDA01DC90ED24E58E9881D4
:100890006927668FD4019C918927878FDF91CF913B
:1008A0001F910F91FF90EF90DF90CF90BF90AF908E
:1008B0009F908F900895CF93E7ECF3E2DC012D91A8
:1008C000CD012193B3E2E73DFB07C1F7C0E08C2FD8
:1008D0000E9457020E948F020E94E602CF5FC93039
:1008E000B1F789E00E9457020E948F020E948202A3
:1008F00087EC93E2CF91089580E090E00E94060695
:100900008093B92490E00E94A1056091B92480E011
:1009100090E00C941606CF93E9E0F4E220E12E0F6C
:10092000DC013D91CD0131932E13FACFC0E06C2F45
:1009300089E094E20E94D203CF5FCA30C1F70E94DF
:10094000F9056F706093D7230E94F9056F7060936B
:10095000D8230E94F90563706093D9230E94F9059A
:1009600063706093DA230E94F90563706093DB2360
:100970000E94F90563706093DC23CF910895CF93B3
:10098000DF93D82FC92F0E945B048093C4239093D8
:10099000C523ED2FFC2F80E090E0A091C423B091FF
:1009A000C523A80FB91F2C91219301968031910581
:1009B000A1F7DF91CF9108950E943C020E945E0151
:1009C00081E0809301060E947C0484E293E20E940D
:1009D0008B0410E0C0E0D0E0FF24F3940E94940167
:1009E000883711F410E003C08B3621F411E0C0E029
:1009F000D0E0F4CF803711F412E0F9CF1130B1F428
:100A0000FE01EC5CFC4D8A3019F08D3009F047C0D6
:100A1000108244E253E2BE0184E393E20E940701A4
:100A200084E293E20E948B0410E0D8CF1230B1F63A
:100A30008A3011F08D3069F5FE01EC5CFC4D1082BE
:100A400044E753E2BE0184E393E20E940701F0927F
:100A5000050684E793E20E94BF04F092060644E391
:100A600053E260E170E084E793E20E94320182E7A2
:100A70000E949B0104E313E2F80181918F010E941F
:100A80009B01F3E204351F07B9F78AE00E949B013E
:100A9000CBCFC034D10544F6FE01EC5CFC4D808325
:100AA00021969CCF8F929F92AF92BF92CF92DF926E
:100AB000EF92FF92CF93DF93EC01688179818A8175
:100AC0009B81611571058105910521F464E279ED41
:100AD0008BE597E02DE133EF41E050E00E944C06BA
:100AE00049015A019B01AC01A7EAB1E40E94390611
:100AF0006B017C01ACEEB4EFA50194010E944706A6
:100B0000DC01CB018C0D9D1DAE1DBF1DB7FF03C0C9
:100B10000197A109B04888839983AA83BB839F77F3
:100B2000DF91CF91FF90EF90DF90CF90BF90AF908B
:100B30009F908F9008950C9452058BE190E20C9455
:100B40005205A0E0B0E080931B2090931C20A0935E
:100B50001D20B0931E2008958F929F92AF92BF9256
:100B6000CF92DF92EF92FF92CF93DF93EC016881F7
:100B700079818A819B81611571058105910521F437
:100B800064E279ED8BE597E02DE133EF41E050E051
:100B90000E944C0649015A019B01AC01A7EAB1E44D
:100BA0000E9439066B017C01ACEEB4EFA501940103
:100BB0000E944706DC01CB018C0D9D1DAE1DBF1DA3
:100BC000B7FF03C00197A109B04888839983AA831E
:100BD000BB83BC01CD019F77DF91CF91FF90EF9058
:100BE000DF90CF90BF90AF909F908F9008950C941E
:100BF000AC058FE190E20C94AC0560931F207093DC
:100C000020208093212090932220089503D080817A
:100C100099270895E0ECF1E0378537FDFDCF348565
:100C200038603487FC01E050F04F0895262FE0EC47
:100C3000F1E0378537FDFDCF3485377F3487378541
:100C400031FF09C036E3328738ED34BF31E03387F6
:100C5000378537FDFDCF33E332878083918312825E
:100C6000248325E3228728ED31E024BF33870196D2
:100C700008950E946B06A59F900DB49F900DA49FB0
:100C8000800D911D11240895B7FF0C9439060E9420
:100C90003906821B930B0895052E97FB1EF40094D2
:100CA0000E94630657FD07D00E947A0607FC03D016
:100CB0004EF40C94630650954095309521953F4F26
:100CC0004F4F5F4F089590958095709561957F4F38
:100CD0008F4F9F4F0895A29FB001B39FC001A39F64
:100CE000700D811D1124911DB29F700D811D112465
:100CF000911D0895A1E21A2EAA1BBB1BFD010DC078
:100D0000AA1FBB1FEE1FFF1FA217B307E407F507BB
:100D100020F0A21BB30BE40BF50B661F771F881F97
:100D2000991F1A9469F760957095809590959B012D
:0C0D3000AC01BD01CF010895F894FFCF85
:100D3C003031323334353637383941424344454605
:100D4C0001020408102040801B366C0100000001D9
:100D5C00000000000306050C0F0A09181B1E1D14C9
:100D6C00171211303336353C3F3A39282B2E2D24AF
:100D7C00272221606366656C6F6A69787B7E7D745F
:100D8C00777271505356555C5F5A59484B4E4D44CF
:100D9C00474241C0C3C6C5CCCFCAC9D8DBDEDDD4FF
:100DAC00D7D2D1F0F3F6F5FCFFFAF9E8EBEEEDE46F
:100DBC00E7E2E1A0A3A6A5ACAFAAA9B8BBBEBDB49F
:100DCC00B7B2B1909396959C9F9A99888B8E8D848F
:100DDC008782819B989D9E97949192838085868F24
:100DEC008C898AABA8ADAEA7A4A1A2B3B0B5B6BF8F
:100DFC00BCB9BAFBF8FDFEF7F4F1F2E3E0E5E6EF7F
:100E0C00ECE9EACBC8CDCEC7C4C1C2D3D0D5D6DFAE
:100E1C00DCD9DA5B585D5E57545152434045464F1E
:100E2C004C494A6B686D6E67646162737075767F4E
:100E3C007C797A3B383D3E37343132232025262FBE
:100E4C002C292A0B080D0E07040102131015161F6E
:100E5C001C191A00020406080A0C0E10121416189B
:100E6C001A1C1E20222426282A2C2E3032343638E6
:100E7C003A3C3E40424446484A4C4E5052545658D6
:100E8C005A5C5E60626466686A6C6E7072747678C6
:100E9C007A7C7E80828486888A8C8E9092949698B6
:100EAC009A9C9EA0A2A4A6A8AAACAEB0B2B4B6B8A6
:100EBC00BABCBEC0C2C4C6C8CACCCED0D2D4D6D896
:100ECC00DADCDEE0E2E4E6E8EAECEEF0F2F4F6F886
:100EDC00FAFCFE1B191F1D131117150B090F0D031F
:100EEC000107053B393F3D333137352B292F2D2356
:100EFC002127255B595F5D535157554B494F4D4346
:100F0C004147457B797F7D737177756B696F6D6335
:100F1C006167659B999F9D939197958B898F8D8325
:100F2C00818785BBB9BFBDB3B1B7B5ABA9AFADA315
:100F3C00A1A7A5DBD9DFDDD3D1D7D5CBC9CFCDC305
:100F4C00C1C7C5FBF9FFFDF3F1F7F5EBE9EFEDE3F5
:100F5C00E1E7E5637C777BF26B6FC53001672BFEB5
:100F6C00D7AB76CA82C97DFA5947F0ADD4A2AF9CF3
:100F7C00A472C0B7FD9326363FF7CC34A5E5F171CA
:100F8C00D8311504C723C31896059A071280E2EBD3
:100F9C0027B27509832C1A1B6E5AA0523BD6B32963
:100FAC00E32F8453D100ED20FCB15B6ACBBE394AF0
:100FBC004C58CFD0EFAAFB434D338545F9027F50F7
:100FCC003C9FA851A3408F929D38F5BCB6DA2110F6
:100FDC00FFF3D2CD0C13EC5F974417C4A77E3D648E
:100FEC005D197360814FDC222A908846EEB814DEBE
:100FFC005E0BDBE0323A0A4906245CC2D3AC629148
:10100C0095E479E7C8376D8DD54EA96C56F4EA6531
:10101C007AAE08BA78252E1CA6B4C6E8DD741F4B30
:10102C00BD8B8A703EB5664803F60E613557B9869E
:10103C00C11D9EE1F8981169D98E949B1E87E9CE4B
:10104C005528DF8CA1890DBFE6426841992D0FB060
:04105C0054BB16006B
:00000001FF
