:100000000C946B010C948C010C948C010C948C015D
:100010000C948C010C948C010C948C010C948C012C
:100020000C948C010C948C010C948C010C948C011C
:100030000C948C010C948C010C948C010C948C010C
:100040000C948C010C948C010C948C010C948C01FC
:100050000C948C010C948C010C948C010C948C01EC
:100060000C948C010C948C010C948C010C948C01DC
:100070000C948C010C948C010C948C010C948C01CC
:100080000C948C010C948C010C948C010C948C01BC
:100090000C948C010C948C010C948C010C948C01AC
:1000A0000C948C010C948C010C948C010C948C019C
:1000B0000C948C010C948C010C948C010C948C018C
:1000C0000C948C010C948C010C948C010C948C017C
:1000D0000C948C010C948C010C948C010C948C016C
:1000E0000C948C010C948C010C948C010C948C015C
:1000F0000C948C010C948C010C948C010C948C014C
:100100000C948C010C948C010C948C010C948C013B
:100110000C948C010C948C010C948C010C948C012B
:100120000C948C010C948C010C948C010C948C011B
:100130000C948C010C948C010C948C010C948C010B
:100140000C948C010C948C010C948C010C948C01FB
:100150000C948C010C948C010C948C010C948C01EB
:100160000C948C010C948C010C948C010C948C01DB
:100170000C948C010C948C010C948C010C948C01CB
:100180000C948C010C948C010C948C010C948C01BB
:100190000C948C010C948C010C948C010C948C01AB
:1001A0000C948C010C948C010C948C010C948C019B
:1001B0000C948C010C948C010C948C010C948C018B
:1001C0000C948C010C948C015D0464046F047B041A
:1001D000870492049904A004A704B304BF04CB04C9
:1001E000DB04EC04FD04E5055F06DE065D07DC07C5
:1001F0005B08D5084F09C909480AC70A460BCA0B4C
:100200004E0CD20CEA0D420E9F0EFC0E590FB60F8B
:100210000E106610BE101B117811D51137129912ED
:10022000FB120C945D070C94FC0E0C94B3040C941C
:10023000E5050C94B60F0C94420E0C9487040C94B4
:10024000CB040C94FB120C94CA0B0C944E0C0C9423
:100250001B110C94D5080C9464040C946F040C943A
:100260005B080C94BE100C94BF040C9437120C94D1
:10027000460B0C94DC070C94D5110C94D20C0C9406
:1002800066100C947B040C94DB040C94480A0C94C8
:10029000C70A0C94590F0C944F090C940E100C942F
:1002A000DE060C94A7040C9492040C9499040C940C
:1002B000C9090C94FD040C949F0E0C9478110C94B5
:1002C000EC040C94A0040C9499120C945D040C940E
:1002D000EA0D0C945F0611241FBECFEFDFE3DEBFF3
:1002E000CDBF00E00CBF11E2A0E0B0E2ECE6FBE223
:1002F00000E00BBF02C007900D92A632B107D9F7FC
:1003000012E2A6E2B1E201C01D92A831B107E1F705
:100310000E94E2130C94B4150C940000CF93DF9369
:10032000C42FD52FA0E0B0E0A617B707F0F4FC016A
:10033000EA0FFB1F20812A3328F0206230E0275586
:10034000310903C030E020533109E181EA3328F05C
:10035000E062F0E0E755F10902C0F0E0F097229585
:10036000207FE22BE9931296DFCFCA01DF91CF9174
:1003700008951F93CF93DF93DA0111969C01260F06
:10038000371F82179307B9F0EC01FC011191CF01DF
:10039000E12FE295EF70F0E0E050F04E1081FD01AA
:1003A00031971083E881EF70F0E0E050F04EE0818B
:1003B000EC931296E6CF660F771FFA01E60FF71F50
:1003C0001082DF91CF911F910895E0E4F6E088E07C
:1003D000818384E08283E0EAF8E083E085838BE038
:1003E000868317828481806184838481886084838A
:1003F0000895CF93DF931F921F92CDB7DEB7698325
:100400007A8320E030E049815A812417350769F06A
:100410004091A10847FF06C02091A008FC0120835D
:1004200081E004C02F5F3F4FEECF80E00F900F9030
:10043000DF91CF9108958091A10887FFFCCF809133
:10044000A00808959091A10895FFFCCF8093A00883
:100450000895FC0160837183428314861386168697
:1004600015860895FC0162830895FC019585268513
:100470009F5F937081E0921301C080E008950F9315
:100480001F93CF93DF931F92CDB7DEB78C016983A3
:100490000E94350269818823A9F0D8011D969C919C
:1004A0001D97F801E90FF11D67839F5F9370F801B5
:1004B00095870190F081E02D93819C7F12962C917D
:1004C000922B93830F90DF91CF911F910F910895FD
:1004D000FC012385948581E0291301C080E0089503
:1004E000FC018485DF01A80FB11D13968C919485C2
:1004F0009F5F937094870895FC0183858F5F83705D
:100500002485A081B1819C91821749F02385DF0168
:10051000A20FB11D13969C93838781E0089580E01C
:100520000895CF93DF93FC0186859585A081B181E5
:10053000981307C013968C9113978C7F13968C9306
:100540000AC08685EF01C80FD11D8F818C938685E7
:100550008F5F83708687DF91CF910895FC0184813E
:1005600070FF02C0816001C08E7F84836083089524
:10057000FC01848180FF04C0808190E09160089537
:10058000808190E008951092520010925500809161
:1005900050008860809350008091510083FFFCCF11
:1005A00088ED84BF83E08093400088E08093500012
:1005B00080E680930106809305060895FC019C0166
:1005C000205F3F4FDB018D91BD0190818927819391
:1005D000E217F307B9F70895FC014096A081B0E057
:1005E000AB5DBF4D2C912193E817F907B9F708953A
:1005F000FC01818195819183918595839585918772
:100600008587828592819287828386859681968767
:100610008683838197859383938597879781938733
:1006200087830895982F880F97FF02C09BE1892741
:1006300008954F925F926F927F928F929F92AF92A6
:10064000BF92CF92DF92EF92FF920F931F93CF93BF
:10065000DF93EC015C018FEFA81AB80A6E01E2E0AB
:10066000CE0ED11C7E01F3E0EF0EF11C4E0180E1B5
:10067000880E911C0881F5015080F6014080F70139
:100680007080852D8027672C6424162D18270E94E2
:1006900012038127982F90279883842D85250E9407
:1006A0001203912F9827F501808198279083862D3A
:1006B0000E941203912F9827F6018081982790833A
:1006C000872D80270E9412038127F701108181273F
:1006D00080832496F4E0AF0EB11C84E0C80ED11CD8
:1006E000E4E0EE0EF11CC815D90521F6DF91CF919B
:1006F0001F910F91FF90EF90DF90CF90BF90AF9040
:100700009F908F907F906F905F904F900895CF93C0
:10071000DF93FB0165854685A42FB0E0AB5DBF4D3F
:100720007C919785A92FB0E0AB5DBF4D5C91A4850E
:10073000CA2FD0E0CB5DDF4DB88130818327C62F33
:10074000D0E0CB5DDF4D38818327808331817327F3
:10075000718332815327528323812B272383348152
:100760008327848335817327758336815327568386
:100770003781232727833085832780873185732717
:100780007187328553275287338523272387A827EC
:10079000A487672765874527468792279787DF9134
:1007A000CF9108952F923F924F925F926F927F92D6
:1007B0008F929F92AF92BF92CF92DF92EF92FF9271
:1007C0000F931F93CF93DF93CDB7DEB7CB54D109EF
:1007D000CDBFDEBF7B015A0169014E0121E3820ECC
:1007E000911C2E0131E2430E511C3E0141E1640E89
:1007F000711CBE016F5F7F4F1B019401205F3F4F53
:1008000027962EAF3FAF279725966EAF7FAF2597E0
:100810009301A201F401DC016D91CD016193DA0134
:100820006D93AD01D9016D939D012596AEADBFAD20
:1008300025976D932596AEAFBFAF259727966EADE2
:100840007FAD2797E617F70731F7D7019C912091E5
:10085000F82189A9822789278F70882319F0000041
:100860008150FBCF2091F9218AA9822798279F7078
:1008700024969FAF2497892F90E0FC013197EF30A9
:10088000F10530F48827EC51FF4F8F4F0C9458142A
:10089000B701C4010E94DE02B501C2010E94DE025E
:1008A000B601C3010E94DE02B801CE0101960E948A
:1008B000DE0224961FAE2497B1C0B801C1010E9488
:1008C000DE02B701C4017DC0B601C3010E94DE0291
:1008D000B801C1010E94DE02B701C40188C0B501A0
:1008E000C2010E94DE02B601C3010E94DE02B8010D
:1008F000CE0101965BC0B501C2010E94DE02B701C4
:10090000C4010E94DE02B601CE01419680C0B8014A
:10091000C1010E94DE02B501C2010E94DE02B701E0
:10092000C40154C0B601C3010E94DE02B801C10176
:1009300014C0B701C4010E94DE02B601C30152C057
:10094000B601C3010E94DE02B501C2015CC0B8015C
:10095000C1010E94DE02B601C3010E94DE02B501A0
:10096000CE01819623C0B701C4010E94DE02B80106
:10097000C1010E94DE02B601CE01419638C0B50128
:10098000C2010E94DE02B701C4010E94DE02B8016A
:10099000CE0101961BC0B801C1010E94DE02B50163
:1009A000C2010E94DE02B601CE0141960E94DE0223
:1009B000B701C40131C0B701C4010E94DE02B80111
:1009C000C1010E94DE02B501CE0181960E94DE02C5
:1009D000B601CE01419620C0B601C3010E94DE02DD
:1009E000B701C4010E94DE02B801CE0101960E9447
:1009F000DE02B501CE0181960FC0B501C2010E9491
:100A0000DE02B601C3010E94DE02B701C4010E94EA
:100A1000DE02B801CE0101960E94DE0224963FADAF
:100A20002497332349F0000024962FAD24972150BA
:100A300024962FAF2497F2CFAE014D5C5F4F2A96DC
:100A40004EAF5FAF2A972AEF31E22C962EAF3FAF21
:100A50002C9740E150E225964EAF5FAF25979E015F
:100A6000245C3F4F23962EAF3FAF23972A96AEAD1F
:100A7000BFAD2A979D912A96AEAFBFAF2A972C960D
:100A8000EEADFFAD2C9781912C96EEAFFFAF2C977A
:100A90008927D7019C9189278F7028968FAF289737
:100AA00090E0FC013197EF30F10530F48827ED50EC
:100AB000FF4F8F4F0C945814B701CE01C1960E947E
:100AC000EC02B501CE0181960E94EC02B601CE0186
:100AD00041960E94EC02B801CE0101960E94EC0200
:100AE000B701CE01C1960E94F802B501CE018196F0
:100AF0000E94F802B601CE0141960E94F802B801A8
:100B0000CE0101960E94F802B701CE01C1960E9463
:100B10001903B501CE0181960E941903B601CE01D9
:100B200041960E941903B801CE0101960E94190353
:100B3000B7012596EEADFFAD259780810E94870312
:100B4000B5012596AEADBFAD25978C910E94870368
:100B5000B6012596EEADFFAD259780810E948703F3
:100B6000B8012596AEADBFAD25978C910E94870345
:100B7000B101C3019201F4014191D9014D939D014D
:100B8000DC014D93CD01DB014D93BD0127964EADA8
:100B90005FAD2797E417F50779F7B701CE01C19646
:100BA0000E94DE02B501CE0181960E94DE02B601EE
:100BB000CE0141960E94DE02B801CE0101960E944C
:100BC000DE0228961FAE289772C7B801CE010196A3
:100BD0000E94EC02B701CE01C1960E94EC02B50161
:100BE000CE0181960E94EC02B601CE0141960E9490
:100BF000EC02B801CE0101960E94F802B701CE01C5
:100C0000C1960E94F802B501CE0181960E94F802B9
:100C1000B601CE0141960E94F802B801CE010196BC
:100C20000E941903B701CE01C1960E941903B501B4
:100C3000CE0181960E941903B601CE0141960E9411
:100C40001903B8012596AEADBFAD25978C910E94D2
:100C50008703B7012596EEADFFAD259780810E94F1
:100C60008703B5012596AEADBFAD25978C910E9447
:100C70008703B6012596EEADFFAD259780810E94D2
:100C80008703B101C3019201F4014191D9014D9350
:100C90009D01DC014D93CD01DB014D93BD012796F4
:100CA0004EAD5FAD2797E417F50779F7B801CE0190
:100CB00001960E94DE02B701CE01C196E4C5B601DD
:100CC000CE0141960E94EC02B801CE0101960E942D
:100CD000EC02B701CE01C1960E94EC02B501CE0133
:100CE00081960E94EC02B601CE0141960E94F80264
:100CF000B801CE0101960E94F802B701CE01C1965B
:100D00000E94F802B501CE0181960E94F802B60158
:100D1000CE0141960E941903B801CE0101960E94AE
:100D20001903B701CE01C1960E941903B501CE0186
:100D300081960E941903B6012596AEADBFAD2597E9
:100D40008C910E948703B8012596EEADFFAD2597E3
:100D500080810E948703B7012596AEADBFAD259770
:100D60008C910E948703B5012596EEADFFAD2597C6
:100D700080810E948703B101C3019201F401419176
:100D8000D9014D939D01DC014D93CD01DB014D93C4
:100D9000BD0127964EAD5FAD2797E417F50779F7AC
:100DA000B601CE0141960E94DE02B801CE01019645
:100DB0000E94DE02B701CE01C196EEC5B501CE019B
:100DC00081960E94EC02B601CE0141960E94EC028F
:100DD000B801CE0101960E94EC02B701CE01C19686
:100DE0000E94EC02B501CE0181960E94F802B60184
:100DF000CE0141960E94F802B801CE0101960E94F0
:100E0000F802B701CE01C1960E94F802B501CE01E9
:100E100081960E941903B601CE0141960E941903E2
:100E2000B801CE0101960E941903B701CE01C19607
:100E30000E941903B5012596AEADBFAD25978C91E3
:100E40000E948703B6012596EEADFFAD2597808100
:100E50000E948703B8012596AEADBFAD25978C9152
:100E60000E948703B7012596EEADFFAD25978081DF
:100E70000E948703B101C3019201F4014191D9019C
:100E80004D939D01DC014D93CD01DB014D93BD01DF
:100E900027964EAD5FAD2797E417F50779F7B501B3
:100EA000CE0181960E94DE02B601CE0141960E94DB
:100EB000DE02B801CE01019667C4B501CE0181966C
:100EC0000E94EC02B701CE01C1960E94EC02B6016D
:100ED000CE0141960E94EC02B801CE0101960E941B
:100EE000EC02B501CE0181960E94F802B701CE0155
:100EF000C1960E94F802B601CE0141960E94F80206
:100F0000B801CE0101960E94F802B501CE0181968A
:100F10000E941903B701CE01C1960E941903B601C0
:100F2000CE0141960E941903B801CE0101960E949C
:100F30001903B5012596AEADBFAD25978C910E94E2
:100F40008703B7012596EEADFFAD259780810E94FE
:100F50008703B6012596AEADBFAD25978C910E9453
:100F60008703B8012596EEADFFAD259780810E94DD
:100F70008703B101C3019201F4014191D9014D935D
:100F80009D01DC014D93CD01DB014D93BD01279601
:100F90004EAD5FAD2797E417F50779F7B501CE01A0
:100FA00081960E94DE02B701CE01C1960E94DE0248
:100FB000B601CE01419674C5B801CE0101960E94DA
:100FC000EC02B501CE0181960E94EC02B701CE0180
:100FD000C1960E94EC02B601CE0141960E94EC023D
:100FE000B801CE0101960E94F802B501CE018196AA
:100FF0000E94F802B701CE01C1960E94F802B60124
:10100000CE0141960E94F802B801CE0101960E94DD
:101010001903B501CE0181960E941903B701CE01D3
:10102000C1960E941903B601CE0141960E94190390
:10103000B8012596AEADBFAD25978C910E94870370
:10104000B5012596EEADFFAD259780810E948703FF
:10105000B7012596AEADBFAD25978C910E94870351
:10106000B6012596EEADFFAD259780810E948703DE
:10107000B101C3019201F4014191D9014D939D0148
:10108000DC014D93CD01DB014D93BD0127964EADA3
:101090005FAD2797E417F50779F7B801CE01019600
:1010A0000E94DE02B501CE0181960E94DE02B701E8
:1010B000CE01C196EDC3B601CE0141960E94EC026D
:1010C000B801CE0101960E94EC02B501CE018196D5
:1010D0000E94EC02B701CE01C1960E94EC02B6015B
:1010E000CE0141960E94F802B801CE0101960E94FD
:1010F000F802B501CE0181960E94F802B701CE0137
:10110000C1960E94F802B601CE0141960E941903D1
:10111000B801CE0101960E941903B501CE01819656
:101120000E941903B701CE01C1960E941903B601AE
:101130002596AEADBFAD25978C910E948703B8016F
:101140002596EEADFFAD259780810E948703B501FE
:101150002596AEADBFAD25978C910E948703B70150
:101160002596EEADFFAD259780810E948703B101E2
:10117000C3019201F4014191D9014D939D01DC011C
:101180004D93CD01DB014D93BD0127964EAD5FAD73
:101190002797E417F50779F7B601CE0141960E942B
:1011A000DE02B801CE0101966DC1B701CE01C19634
:1011B0000E94EC02B601CE0141960E94EC02B801F9
:1011C000CE0101960E94EC02B501CE0181960E94EB
:1011D000EC02B701CE01C1960E94F802B601CE0121
:1011E00041960E94F802B801CE0101960E94F802D1
:1011F000B501CE0181960E94F802B701CE01C196D9
:101200000E941903B601CE0141960E941903B8014C
:10121000CE0101960E941903B501CE0181960E946C
:101220001903B7012596AEADBFAD25978C910E94ED
:101230008703B6012596EEADFFAD259780810E940C
:101240008703B8012596AEADBFAD25978C910E945E
:101250008703B5012596EEADFFAD259780810E94ED
:101260008703B101C3019201F4014191D9014D936A
:101270009D01DC014D93CD01DB014D93BD0127960E
:101280004EAD5FAD2797E417F50779F7B701CE01AB
:10129000C1960E94DE02B601CE01419678C3B60126
:1012A000CE0141960E94EC02B501CE0181960E94CA
:1012B000EC02B701CE01C1960E94EC02B801CE014A
:1012C00001960E94EC02B601CE0141960E94F802FE
:1012D000B501CE0181960E94F802B701CE01C196F8
:1012E0000E94F802B801CE0101960E94F802B601F0
:1012F000CE0141960E941903B501CE0181960E944C
:101300001903B701CE01C1960E941903B801CE019D
:1013100001960E941903B6012596AEADBFAD259783
:101320008C910E948703B5012596EEADFFAD259700
:1013300080810E948703B7012596AEADBFAD25978A
:101340008C910E948703B8012596EEADFFAD2597DD
:1013500080810E948703B101C3019201F401419190
:10136000D9014D939D01DC014D93CD01DB014D93DE
:10137000BD0127964EAD5FAD2797E417F50779F7C6
:10138000B601CE0141960E94DE02B501CE018196E2
:1013900082C3B801CE0101960E94EC02B601CE01D3
:1013A00041960E94EC02B501CE0181960E94EC02AA
:1013B000B701CE01C1960E94EC02B801CE010196A0
:1013C0000E94F802B601CE0141960E94F802B501D2
:1013D000CE0181960E94F802B701CE01C1960E940B
:1013E000F802B801CE0101960E941903B601CE01A0
:1013F00041960E941903B501CE0181960E941903FE
:10140000B701CE01C1960E941903B8012596AEAD71
:10141000BFAD25978C910E948703B6012596EEAD4E
:10142000FFAD259780810E948703B5012596AEAD5B
:10143000BFAD25978C910E948703B7012596EEAD2D
:10144000FFAD259780810E948703B101C3019201FE
:10145000F4014191D9014D939D01DC014D93CD01E2
:10146000DB014D93BD0127964EAD5FAD2797E41785
:10147000F50779F7B801CE0101960E94DE02B601A8
:10148000CE0141960E94DE02B501CE0181967CC15B
:10149000B701CE01C1960E94EC02B801CE010196BF
:1014A0000E94EC02B601CE0141960E94EC02B50109
:1014B000CE0181960E94EC02B701CE01C1960E9436
:1014C000F802B801CE0101960E94F802B601CE01E1
:1014D00041960E94F802B501CE0181960E94F80261
:1014E000B701CE01C1960E941903B801CE01019641
:1014F0000E941903B601CE0141960E941903B5015D
:10150000CE0181960E941903B7012596AEADBFADFD
:1015100025978C910E948703B8012596EEADFFAD0B
:10152000259780810E948703B6012596AEADBFAD99
:1015300025978C910E948703B5012596EEADFFADEE
:10154000259780810E948703B101C3019201F401B4
:101550004191D9014D939D01DC014D93CD01DB01FA
:101560004D93BD0127964EAD5FAD2797E417F50764
:1015700079F7B701CE01C1960E94DE02B801CE0113
:1015800001960E94DE02B601CE01419605C2B50168
:10159000CE0181960E94EC02B701CE01C1960E9455
:1015A000EC02B801CE0101960E94EC02B601CE0118
:1015B00041960E94EC02B501CE0181960E94F8028C
:1015C000B701CE01C1960E94F802B801CE01019682
:1015D0000E94F802B601CE0141960E94F802B501C0
:1015E000CE0181960E941903B701CE01C1960E94D7
:1015F0001903B801CE0101960E941903B601CE016C
:1016000041960E941903B5012596AEADBFAD259751
:101610008C910E948703B7012596EEADFFAD25970B
:1016200080810E948703B8012596AEADBFAD259796
:101630008C910E948703B6012596EEADFFAD2597EC
:1016400080810E948703B101C3019201F40141919D
:10165000D9014D939D01DC014D93CD01DB014D93EB
:10166000BD0127964EAD5FAD2797E417F50779F7D3
:10167000B501CE0181960E94DE02B701CE01C1966E
:101680000E94DE02B801CE01019602C1B801CE016E
:1016900001960E94EC02B501CE0181960E94EC02F7
:1016A000B601CE0141960E94EC02B701CE01C1966F
:1016B0000E94EC02B801CE0101960E94F802B50129
:1016C000CE0181960E94F802B601CE0141960E9499
:1016D000F802B701CE01C1960E94F802B801CE010E
:1016E00001960E941903B501CE0181960E9419034B
:1016F000B601CE0141960E941903B701CE01C196F1
:101700000E941903B8012596AEADBFAD25978C9107
:101710000E948703B5012596EEADFFAD2597808128
:101720000E948703B6012596AEADBFAD25978C917B
:101730000E948703B7012596EEADFFAD2597808106
:101740000E948703B101C3019201F4014191D901C3
:101750004D939D01DC014D93CD01DB014D93BD0106
:1017600027964EAD5FAD2797E417F50779F7B801D7
:10177000CE0101960E94DE02B501CE0181960E9443
:10178000DE02B601CE0141960E94DE02B701CE0113
:10179000C1968BC1B701CE01C1960E94EC02B8017F
:1017A000CE0101960E94EC02B501CE0181960E9405
:1017B000EC02B601CE0141960E94EC02B701CE01C7
:1017C000C1960E94F802B801CE0101960E94F8026B
:1017D000B501CE0181960E94F802B601CE01419674
:1017E0000E94F802B701CE01C1960E941903B80108
:1017F000CE0101960E941903B501CE0181960E9487
:101800001903B601CE0141960E941903B70125962E
:10181000AEADBFAD25978C910E948703B801259688
:10182000EEADFFAD259780810E948703B501259617
:10183000AEADBFAD25978C910E948703B60125966A
:10184000EEADFFAD259780810E948703B101C301F2
:101850009201F4014191D9014D939D01DC014D9319
:10186000CD01DB014D93BD0127964EAD5FAD2797AE
:10187000E417F50779F7B701CE01C1960E94DE02A1
:10188000B801CE0101960E94DE02B501CE0181961B
:101890000E94DE02B601CE01419607C1B601CE011B
:1018A00041960E94EC02B701CE01C1960E94EC0263
:1018B000B801CE0101960E94EC02B501CE018196DD
:1018C0000E94EC02B601CE0141960E94F802B701D7
:1018D000CE01C1960E94F802B801CE0101960E9485
:1018E000F802B501CE0181960E94F802B601CE0140
:1018F00041960E941903B701CE01C1960E941903B7
:10190000B801CE0101960E941903B501CE0181965E
:101910000E941903B6012596AEADBFAD25978C91F7
:101920000E948703B7012596EEADFFAD2597808114
:101930000E948703B8012596AEADBFAD25978C9167
:101940000E948703B5012596EEADFFAD25978081F6
:101950000E948703B101C3019201F4014191D901B1
:101960004D939D01DC014D93CD01DB014D93BD01F4
:1019700027964EAD5FAD2797E417F50779F7B601C7
:10198000CE0141960E94DE02B701CE01C1960E94AF
:10199000DE02B801CE0101960E94DE02B501CE0141
:1019A000819683C0B501CE0181960E94EC02B601FA
:1019B000CE0141960E94EC02B701CE01C1960E9471
:1019C000EC02B801CE0101960E94EC02B501CE01F5
:1019D00081960E94F802B601CE0141960E94F8025B
:1019E000B701CE01C1960E94F802B801CE0101965E
:1019F0000E94F802B501CE0181960E941903B6013A
:101A0000CE0141960E941903B701CE01C1960E94F2
:101A10001903B801CE0101960E941903B50125965C
:101A2000AEADBFAD25978C910E948703B601259678
:101A3000EEADFFAD259780810E948703B701259603
:101A4000AEADBFAD25978C910E948703B801259656
:101A5000EEADFFAD259780810E948703B101C301E0
:101A60009201F4014191D9014D939D01DC014D9307
:101A7000CD01DB014D93BD0127964EAD5FAD27979C
:101A8000E417F50779F7B501CE0181960E94DE02D1
:101A9000B601CE0141960E94DE02B701CE01C19689
:101AA0000E94DE02B801CE0101960E94DE02289655
:101AB0002FAD2897222349F0000028965FAD289784
:101AC000515028965FAF2897F2CF25964EAD5FAD67
:101AD00025974F5F5F4F25964EAF5FAF25972A96AC
:101AE0002EAD3FAD2A9723964EAD5FAD23972417B9
:101AF000350711F00C943605E09104228DAD8E2748
:101B0000D7019C918927E82FEF708E2F90E0FC0180
:101B10003197EF30F10530F48827EE5FFE4F8F4F9D
:101B20000C945814B701CE01C1960E94EC02B50185
:101B3000CE0181960E94EC02B601CE0141960E9430
:101B4000EC02B801CE0101960E94EC02B701CE0171
:101B5000C1960E94F802B501CE0181960E94F8025A
:101B6000B601CE0141960E94F802B801CE0101965D
:101B70000E94F802B701809119200E948703B501E5
:101B8000809119200E948703B601809119200E943C
:101B90008703B801809119200E948703F401819185
:101BA0004F01D2018D932D01F30181933F01D101AA
:101BB0008D931D0127962EAD3FAD27978216930674
:101BC00069F7B701CE01C1960E94DE02B501CE01D0
:101BD000819669C1B801CE0101960E94EC02B7015D
:101BE000CE01C1960E94EC02B501CE0181960E9401
:101BF000EC02B601CE0141960E94EC02B801CE0182
:101C000001960E94F802B701CE01C1960E94F80227
:101C1000B501CE0181960E94F802B601CE0141962F
:101C20000E94F802B801809119200E948703B70131
:101C3000809119200E948703B501809119200E948C
:101C40008703B601809119200E948703D4018D91EA
:101C50004D01F20181932F01D3018D933D01F101DB
:101C600081931F0127962EAD3FAD279782169306CD
:101C700069F7B801CE0101960E94DE02B701CE01DC
:101C8000C1964CC4B601CE0141960E94EC02B80147
:101C9000CE0101960E94EC02B701CE01C1960E94CE
:101CA000EC02B501CE0181960E94EC02B601CE0194
:101CB00041960E94F802B801CE0101960E94F802F6
:101CC000B701CE01C1960E94F802B501CE018196FE
:101CD0000E94F802B601809119200E948703B80182
:101CE000809119200E948703B701809119200E94DA
:101CF0008703B501809119200E948703D4018D913B
:101D00004D01F20181932F01D3018D933D01F1012A
:101D100081931F0127962EAD3FAD2797821693061C
:101D200069F7B601CE0141960E94DE02B801CE01EC
:101D300001960E94DE02B701CE01C19656C4B501DC
:101D4000CE0181960E94EC02B601CE0141960E941E
:101D5000EC02B801CE0101960E94EC02B701CE015F
:101D6000C1960E94EC02B501CE0181960E94F80254
:101D7000B601CE0141960E94F802B801CE0101964B
:101D80000E94F802B701CE01C1960E94F802B50187
:101D9000809119200E948703B601809119200E942A
:101DA0008703B801809119200E948703B7018091B1
:101DB00019200E948703D4018D914D01F201819376
:101DC0002F01D3018D933D01F10181931F012796CE
:101DD0002EAD3FAD27978216930669F7B501CE0168
:101DE00081960E94DE02B601CE0141960E94DE027B
:101DF000B801CE01019635C3B501CE0181960E948E
:101E0000EC02B701CE01C1960E94EC02B601CE01F0
:101E100041960E94EC02B801CE0101960E94EC02AC
:101E2000B501CE0181960E94F802B701CE01C1969C
:101E30000E94F802B601CE0141960E94F802B80154
:101E4000CE0101960E94F802B501809119200E94EE
:101E50008703B701809119200E948703B601809102
:101E600019200E948703B801809119200E948703DE
:101E7000D4018D914D01F20181932F01D3018D93F6
:101E80003D01F10181931F0127962EAD3FAD2797AC
:101E90008216930669F7B501CE0181960E94DE0293
:101EA000B701CE01C1960E94DE02B601CE01419675
:101EB000FEC3B801CE0101960E94EC02B501CE012D
:101EC00081960E94EC02B701CE01C1960E94EC02FD
:101ED000B601CE0141960E94EC02B801CE010196F6
:101EE0000E94F802B501CE0181960E94F802B70166
:101EF000CE01C1960E94F802B601CE0141960E9421
:101F0000F802B801809119200E948703B5018091E1
:101F100019200E948703B701809119200E9487032E
:101F2000B601809119200E948703D4018D914D0143
:101F3000F20181932F01D3018D933D01F101819332
:101F40001F0127962EAD3FAD27978216930669F79E
:101F5000B801CE0101960E94DE02B501CE01819644
:101F60000E94DE02B701CE01C196DDC2B601CE01EC
:101F700041960E94EC02B801CE0101960E94EC024B
:101F8000B501CE0181960E94EC02B701CE01C19647
:101F90000E94EC02B601CE0141960E94F802B801FF
:101FA000CE0101960E94F802B501CE0181960E94F1
:101FB000F802B701CE01C1960E94F802B6018091E5
:101FC00019200E948703B801809119200E9487037D
:101FD000B501809119200E948703B70180911920D3
:101FE0000E948703D4018D914D01F20181932F014D
:101FF000D3018D933D01F10181931F0127962EADF1
:102000003FAD27978216930669F7B601CE01419638
:102010000E94DE02B801CE01019607C1B701CE01D0
:10202000C1960E94EC02B601CE0141960E94EC02DC
:10203000B801CE0101960E94EC02B501CE01819655
:102040000E94EC02B701CE01C1960E94F802B601CF
:10205000CE0141960E94F802B801CE0101960E947D
:10206000F802B501CE0181960E94F802B701809175
:1020700019200E948703B601809119200E948703CE
:10208000B801809119200E948703B5018091192021
:102090000E948703D4018D914D01F20181932F019C
:1020A000D3018D933D01F10181931F0127962EAD40
:1020B0003FAD27978216930669F7B701CE01C19607
:1020C0000E94DE02B601CE0141968AC2B601CE015F
:1020D00041960E94EC02B501CE0181960E94EC026D
:1020E000B701CE01C1960E94EC02B801CE01019663
:1020F0000E94EC02B601CE0141960E94F802B501A1
:10210000CE0181960E94F802B701CE01C1960E94CD
:10211000F802B801CE0101960E94F802B601809142
:1021200019200E948703B501809119200E9487031E
:10213000B701809119200E948703B801809119206E
:102140000E948703D4018D914D01F20181932F01EB
:10215000D3018D933D01F10181931F0127962EAD8F
:102160003FAD27978216930669F7B601CE014196D7
:102170000E94DE02B501CE01819694C2B801CE0163
:1021800001960E94EC02B601CE0141960E94EC023B
:10219000B501CE0181960E94EC02B701CE01C19635
:1021A0000E94EC02B801CE0101960E94F802B6012D
:1021B000CE0141960E94F802B501CE0181960E949F
:1021C000F802B701CE01C1960E94F802B8018091D1
:1021D00019200E948703B601809119200E9487036D
:1021E000B501809119200E948703B70180911920C1
:1021F0000E948703D4018D914D01F20181932F013B
:10220000D3018D933D01F10181931F0127962EADDE
:102210003FAD27978216930669F7B801CE01019664
:102220000E94DE02B601CE0141960E94DE02B50197
:10223000CE01819616C1B701CE01C1960E94EC0273
:10224000B801CE0101960E94EC02B601CE01419682
:102250000E94EC02B501CE0181960E94EC02B7010A
:10226000CE01C1960E94F802B801CE0101960E94EB
:10227000F802B601CE0141960E94F802B501CE01E6
:1022800081960E94F802B701809119200E9487036D
:10229000B801809119200E948703B601809119200E
:1022A0000E948703B501809119200E948703D40101
:1022B0008D914D01F20181932F01D3018D933D0149
:1022C000F10181931F0127962EAD3FAD279782160E
:1022D000930669F7B701CE01C1960E94DE02B801EC
:1022E000CE0101960E94DE02B601CE0141967DC16B
:1022F000B501CE0181960E94EC02B701CE01C196D4
:102300000E94EC02B801CE0101960E94EC02B601D7
:10231000CE0141960E94EC02B501CE0181960E9449
:10232000F802B701CE01C1960E94F802B801CE01B1
:1023300001960E94F802B601CE0141960E94F80271
:10234000B501809119200E948703B701809119205F
:102350000E948703B801809119200E948703B6016B
:10236000809119200E948703D4018D914D01F201C3
:1023700081932F01D3018D933D01F10181931F01C1
:1023800027962EAD3FAD27978216930669F7B501C4
:10239000CE0181960E94DE02B701CE01C1960E9455
:1023A000DE02B801CE010196BEC0B801CE01019691
:1023B0000E94EC02B501CE0181960E94EC02B601AA
:1023C000CE0141960E94EC02B701CE01C1960E9457
:1023D000EC02B801CE0101960E94F802B501CE01CF
:1023E00081960E94F802B601CE0141960E94F80241
:1023F000B701CE01C1960E94F802B8018091192060
:102400000E948703B501809119200E948703B601BD
:10241000809119200E948703B701809119200E94A2
:102420008703D4018D914D01F20181932F01D301D6
:102430008D933D01F10181931F0127962EAD3FAD94
:1024400027978216930669F7B801CE0101960E947C
:10245000DE02B501CE0181960E94DE02B601CE01F8
:1024600041960E94DE02B701CE01C19625C1B70197
:10247000CE01C1960E94EC02B801CE0101960E94E5
:10248000EC02B501CE0181960E94EC02B601CE01AC
:1024900041960E94EC02B701CE01C1960E94F8025B
:1024A000B801CE0101960E94F802B501CE018196D5
:1024B0000E94F802B601CE0141960E94F802B701CF
:1024C000809119200E948703B801809119200E94F1
:1024D0008703B501809119200E948703B60180917E
:1024E00019200E948703D4018D914D01F20181933F
:1024F0002F01D3018D933D01F10181931F01279697
:102500002EAD3FAD27978216930669F7B701CE012E
:10251000C1960E94DE02B801CE0101960E94DE0241
:10252000B501CE0181960E94DE02B601CE01419630
:10253000C3C0B601CE0141960E94EC02B701CE01A4
:10254000C1960E94EC02B801CE0101960E94EC02F5
:10255000B501CE0181960E94EC02B601CE014196F2
:102560000E94F802B701CE01C1960E94F802B8019C
:10257000CE0101960E94F802B501CE0181960E941B
:10258000F802B601809119200E948703B70180915B
:1025900019200E948703B801809119200E948703A7
:1025A000B501809119200E948703D4018D914D01BE
:1025B000F20181932F01D3018D933D01F1018193AC
:1025C0001F0127962EAD3FAD27978216930669F718
:1025D000B601CE0141960E94DE02B701CE01C1963E
:1025E0000E94DE02B801CE0101960E94DE02B50112
:1025F000CE01819661C0B501CE0181960E94EC02A8
:10260000B601CE0141960E94EC02B701CE01C196FF
:102610000E94EC02B801CE0101960E94EC02B501C5
:10262000CE0181960E94F802B601CE0141960E9429
:10263000F802B701CE01C1960E94F802B801CE019E
:1026400001960E94F802B501809119200E9487032B
:10265000B601809119200E948703B701809119204B
:102660000E948703B801809119200E948703D4013A
:102670008D914D01F20181932F01D3018D933D0185
:10268000F10181931F0127962EAD3FAD279782164A
:10269000930669F7B501CE0181960E94DE02B6016C
:1026A000CE0141960E94DE02B701CE01C1960E9482
:1026B000DE02B801CE0101960E94DE02CE01C19673
:1026C000C55BDF4FCDBFDEBFDF91CF911F910F9173
:1026D000FF90EF90DF90CF90BF90AF909F908F9042
:1026E0007F906F905F904F903F902F9008951F9331
:1026F000CF93DF9380E090E00E9414150E94AF1406
:10270000C8EFD1E21C2F105F0E94071569931C13BC
:10271000FBCFDF91CF911F9108950F931F93CF931C
:10272000DF9328E032E2FC01C8EED1E208ED11E2CD
:102730005AEA45E590E1900FBF018081D8018D9361
:102740008D0180818095D9018D939D01819185278F
:102750008883DB018C91842789939013EDCFDF91DF
:10276000CF911F910F9108950F931F93CF93DF93F4
:10277000D82FC92F08EC11E228EE31E248E052E2EE
:1027800068ED71E20E94D2038093C6219093C72125
:10279000ED2FFC2F80E090E0A091C621B091C721E1
:1027A000A80FB91F2C912193019680319105A1F7B3
:1027B0000E94071580E090E0DF91CF911F910F916B
:1027C0000C9419150E94C3020E94E50181E08093D8
:1027D00001060E94771386E291E20E948D1310E0B9
:1027E000C0E0D0E0FF24F3940E941B02883711F46C
:1027F00010E003C08B3621F411E0C0E0D0E0F4CF4C
:10280000803711F412E0F9CF1130B1F4FE01EA5C27
:10281000FE4D8A3019F08D3009F047C0108246E233
:1028200051E2BE0186E391E20E948E0186E291E2CE
:102830000E948D1310E0D8CF1230B1F68A3011F01B
:102840008D3069F5FE01EA5CFE4D108246E751E2EB
:10285000BE0186E391E20E948E01F092050686E7B2
:1028600091E20E94B413F092060646E351E260E161
:1028700070E086E791E20E94B90182E70E9422029D
:1028800006E311E2F80181918F010E942202F1E238
:1028900006351F07B9F78AE00E942202CBCFC03469
:1028A000D10544F6FE01EA5CFE4D808321969CCF63
:1028B000EE0FFF1F881F8BBF0790F691E02D199434
:1028C0008F929F92AF92BF92CF92DF92EF92FF9240
:1028D000CF93DF93EC01688179818A819B816115B7
:1028E00071058105910521F464E279ED8BE597E0AE
:1028F0002DE133EF41E050E00E94641549015A0197
:102900009B01AC01A7EAB1E40E9451156B017C0167
:10291000ACEEB4EFA50194010E945F15DC01CB0180
:102920008C0D9D1DAE1DBF1DB7FF03C00197A109F2
:10293000B04888839983AA83BB839F77DF91CF9127
:10294000FF90EF90DF90CF90BF90AF909F908F90CF
:1029500008950C9460148DE190E20C946014A0E052
:10296000B0E080931D2090931E20A0931F20B09371
:10297000202008958F929F92AF92BF92CF92DF92C4
:10298000EF92FF92CF93DF93EC01688179818A8186
:102990009B81611571058105910521F464E279ED52
:1029A0008BE597E02DE133EF41E050E00E946415A4
:1029B00049015A019B01AC01A7EAB1E40E945115FB
:1029C0006B017C01ACEEB4EFA50194010E945F1590
:1029D000DC01CB018C0D9D1DAE1DBF1DB7FF03C0DB
:1029E0000197A109B04888839983AA83BB83BC015E
:1029F000CD019F77DF91CF91FF90EF90DF90CF9047
:102A0000BF90AF909F908F9008950C94BA1481E27C
:102A100090E20C94BA14609321207093222080934A
:102A200023209093242008950E9422158081918173
:102A300008950E942E15272F0C942F1503D0808106
:102A400099270895E0ECF1E0378537FDFDCF348517
:102A500038603487FC01E050F04F0895262FE0ECF9
:102A6000F1E0378537FDFDCF3485377F34873785F3
:102A700031FF09C036E3328738ED34BF31E03387A8
:102A8000378537FDFDCF33E3328780839183128210
:102A9000248325E3228728ED31E024BF3387019684
:102AA00008950E948315A59F900DB49F900DA49F3B
:102AB000800D911D11240895B7FF0C9451150E94AB
:102AC0005115821B930B0895052E97FB1EF400945D
:102AD0000E947B1557FD07D00E94921507FC03D07A
:102AE0004EF40C947B1550954095309521953F4FB1
:102AF0004F4F5F4F089590958095709561957F4FEA
:102B00008F4F9F4F0895A29FB001B39FC001A39F15
:102B1000700D811D1124911DB29F700D811D112416
:102B2000911D0895A1E21A2EAA1BBB1BFD010DC029
:102B3000AA1FBB1FEE1FFF1FA217B307E407F5076D
:102B400020F0A21BB30BE40BF50B661F771F881F49
:102B5000991F1A9469F760957095809590959B01DF
:0C2B6000AC01BD01CF010895F894FFCF37
:102B6C0030313233343536373839414243444546B7
:102B7C0001020408102040801B366CD8AB01000009
:102B8C000001000000637C777BF26B6FC53001673E
:102B9C002BFED7AB76CA82C97DFA5947F0ADD4A2C9
:102BAC00AF9CA472C0B7FD9326363FF7CC34A5E595
:102BBC00F171D8311504C723C31896059A071280F2
:102BCC00E2EB27B27509832C1A1B6E5AA0523BD626
:102BDC00B329E32F8453D100ED20FCB15B6ACBBE4B
:102BEC00394A4C58CFD0EFAAFB434D338545F902F7
:102BFC007F503C9FA851A3408F929D38F5BCB6DA0C
:102C0C002110FFF3D2CD0C13EC5F974417C4A77EB1
:102C1C003D645D197360814FDC222A908846EEB8C2
:102C2C0014DE5E0BDBE0323A0A4906245CC2D3ACFC
:102C3C00629195E479E7C8376D8DD54EA96C56F441
:102C4C00EA657AAE08BA78252E1CA6B4C6E8DD74FF
:102C5C001F4BBD8B8A703EB5664803F60E61355727
:102C6C00B986C11D9EE1F8981169D98E949B1E8777
:102C7C00E9CE5528DF8CA1890DBFE6426841992D1C
:062C8C000FB054BB16005E
:00000001FF
