:100000000C9469010C948A010C948A010C948A0165
:100010000C948A010C948A010C948A010C948A0134
:100020000C948A010C948A010C948A010C948A0124
:100030000C948A010C948A010C948A010C948A0114
:100040000C948A010C948A010C948A010C948A0104
:100050000C948A010C948A010C948A010C948A01F4
:100060000C948A010C948A010C948A010C948A01E4
:100070000C948A010C948A010C948A010C948A01D4
:100080000C948A010C948A010C948A010C948A01C4
:100090000C948A010C948A010C948A010C948A01B4
:1000A0000C948A010C948A010C948A010C948A01A4
:1000B0000C948A010C948A010C948A010C948A0194
:1000C0000C948A010C948A010C948A010C948A0184
:1000D0000C948A010C948A010C948A010C948A0174
:1000E0000C948A010C948A010C948A010C948A0164
:1000F0000C948A010C948A010C948A010C948A0154
:100100000C948A010C948A010C948A010C948A0143
:100110000C948A010C948A010C948A010C948A0133
:100120000C948A010C948A010C948A010C948A0123
:100130000C948A010C948A010C948A010C948A0113
:100140000C948A010C948A010C948A010C948A0103
:100150000C948A010C948A010C948A010C948A01F3
:100160000C948A010C948A010C948A010C948A01E3
:100170000C948A010C948A010C948A010C948A01D3
:100180000C948A010C948A010C948A010C948A01C3
:100190000C948A010C948A010C948A010C948A01B3
:1001A0000C948A010C948A010C948A010C948A01A3
:1001B0000C948A010C948A010C948A010C948A0193
:1001C0000C948A010C948A010102040810204080DA
:1001D0001B36637C777BF26B6FC53001672BFED7D4
:1001E000AB76CA82C97DFA5947F0ADD4A2AF9CA4C0
:1001F00072C0B7FD9326363FF7CC34A5E5F171D830
:10020000311504C723C31896059A071280E2EB271D
:10021000B27509832C1A1B6E5AA0523BD6B329E340
:100220002F8453D100ED20FCB15B6ACBBE394A4C20
:1002300058CFD0EFAAFB434D338545F9027F503CA0
:100240009FA851A3408F929D38F5BCB6DA2110FFCC
:10025000F3D2CD0C13EC5F974417C4A77E3D645DC9
:10026000197360814FDC222A908846EEB814DE5E56
:100270000BDBE0323A0A4906245CC2D3AC629195AA
:10028000E479E7C8376D8DD54EA96C56F4EA657AE6
:10029000AE08BA78252E1CA6B4C6E8DD741F4BBD87
:1002A0008B8A703EB5664803F60E613557B986C134
:1002B0001D9EE1F8981169D98E949B1E87E9CE5551
:1002C00028DF8CA1890DBFE6426841992D0FB054FB
:1002D000BB1611241FBECFEFDFE3DEBFCDBF00E0B2
:1002E0000CBF10E2A0E0B0E2E8EDFCE000E00BBFE4
:1002F00002C007900D92A431B107D9F711E2A4E131
:10030000B0E201C01D92A436B107E1F70E942E05AC
:100310000C946A060C940000CF93DF93C42FD52F62
:10032000A0E0B0E0A617B707F0F4FC01EA0FFB1F4E
:1003300020812A3328F0206230E02755310903C09C
:1003400030E020533109E181EA3328F0E062F0E047
:10035000E755F10902C0F0E0F0972295207FE22BEB
:10036000E9931296DFCFCA01DF91CF9108951F93D1
:10037000CF93DF93DA0111969C01260F371F821766
:100380009307B9F0EC01FC011191CF01E12FE29547
:10039000EF70F0E0E050F04E1081FD0131971083D6
:1003A000E881EF70F0E0E050F04EE081EC931296BF
:1003B000E6CF660F771FFA01E60FF71F1082DF9175
:1003C000CF911F910895E0E4F6E088E0818384E016
:1003D0008283E0EAF8E083E085838BE086831782FE
:1003E0008481806184838481886084830895CF932D
:1003F000DF931F921F92CDB7DEB769837A8320E027
:1004000030E049815A812417350769F04091A108ED
:1004100047FF06C02091A008FC01208381E004C0B2
:100420002F5F3F4FEECF80E00F900F90DF91CF9185
:1004300008958091A10887FFFCCF8091A0080895BE
:100440009091A10895FFFCCF8093A0080895FC012E
:1004500060837183428314861386168615860895F9
:10046000FC0162830895FC01958526859F5F93704A
:1004700081E0921301C080E008950F931F93CF9302
:10048000DF931F92CDB7DEB78C0169830E943302E0
:1004900069818823A9F0D8011D969C911D97F801C8
:1004A000E90FF11D67839F5F9370F80195870190B5
:1004B000F081E02D93819C7F12962C91922B938357
:1004C0000F90DF91CF911F910F910895FC0123852B
:1004D000948581E0291301C080E00895FC018485A2
:1004E000DF01A80FB11D13968C9194859F5F9370C7
:1004F00094870895FC0183858F5F83702485A08194
:10050000B1819C91821749F02385DF01A20FB11DB3
:1005100013969C93838781E0089580E00895CF939C
:10052000DF93FC0186859585A081B181981307C072
:1005300013968C9113978C7F13968C930AC08685A3
:10054000EF01C80FD11D8F818C9386858F5F8370DB
:100550008687DF91CF910895FC01848170FF02C0EE
:10056000816001C08E7F848360830895FC01848153
:1005700080FF04C0808190E091600895808190E0C8
:10058000089510925200109255008091500088609A
:10059000809350008091510083FFFCCF88ED84BF91
:1005A00083E08093400088E08093500080E6809351
:1005B0000106809305060895CF93DF9300D01F9224
:1005C000CDB7DEB7DC018C91898314968C9114979A
:1005D0008A8318968C9118978B831C968C911C9704
:1005E0008C83862F8370E1E0F0E0EC0FFD1FE80FB5
:1005F000F11D80818C9370E0FB013196E370FF2741
:1006000081E090E08C0F9D1FE80FF91F8081149608
:100610008C931497FB013296E370FF2781E090E002
:100620008C0F9D1FE80FF91F808118968C931897E7
:10063000FB013396E370FF2781E090E08C0F9D1F54
:10064000E80FF91F80811C968C932496CDBFDEBFE6
:10065000DF91CF9108952F923F924F925F926F92C8
:100660007F928F929F92AF92BF92CF92DF92EF9242
:10067000FF920F931F93CF93DF93CDB7DEB76E97A3
:10068000CDBFDEBF2C013B01542FDB018D8B9E8B38
:1006900040968F8B988FF2018D919081892781935D
:1006A0008F89988DE817F907B9F79301205F3F4FBD
:1006B00022242394DE011196A98BBA8BA05FA98F07
:1006C000F2013396EA8FFB8FCE0141968B8B9C8B88
:1006D000523008F4A3C08E010F5F1F4FD801C20132
:1006E000FC014191CF01E42FF0E0EE52FE4FE49186
:1006F000ED93F98DFA13F4CF61E0CE0102962C8FC1
:100700003D8F5E8F0E94DC0262E0CE0103960E9464
:10071000DC0263E0CE0104960E94DC02CE01029668
:100720004C01DE0113965D01FE0134966F01EA8CE7
:10073000FB8C5E8D3D8D2C8DD4016C91F8018081F8
:100740006827D6013C90F5018081382636264BE19A
:1007500082E02C8F3D8F5E8F0E942105F701339739
:10076000D8019C91892783258083F5016081D4017C
:100770008C9168274BE182E00E942105F7013297B6
:10078000D4019C91892783258083F6016081D5015E
:100790008C9168274BE182E00E942105F701319797
:1007A000D5019C91892783258083F8016081D6013A
:1007B0008C9168274BE182E00E942105F60190812F
:1007C00089273826D7013C920C5F1F4FB4E08B0E6F
:1007D000911CE4E0AE0EB11CF4E0CF0ED11C44E05D
:1007E000E40EF11C2C8D3D8D5E8D8B899C89081744
:1007F000190709F0A1CFF20180E090E0D901A80F1C
:10080000B91F60814C914627419301968031910533
:10081000A9F723945150205F3F4F5ACFD201EC915A
:10082000F0E0EE52FE4FE491ED93EF89F88DAE17B4
:10083000BF07A9F761E0C20101960E94DC0262E0F5
:10084000C20102960E94DC0263E0C20103960E948C
:10085000DC02F0E12F9E1001112480E090E0FC0109
:10086000E20DF31DE60DF71DAD89BE893C91208197
:1008700023272D93AD8BBE8B01968031910579F79F
:100880006E96CDBFDEBFDF91CF911F910F91FF908C
:10089000EF90DF90CF90BF90AF909F908F907F9020
:1008A0006F905F904F903F902F9008958F929F92FE
:1008B000AF92BF92CF92DF92EF92FF920F931F936E
:1008C000CF93DF93EA018B01E5E016950795EA9552
:1008D000E1F7C02E7801FF249701295F3F4FD22E08
:1008E000DD0CDD0CAB01F3E056954795FA95E1F789
:1008F000BC01CE010E94FE05602F802F90E08D1577
:1009000008F06FC0482F50E0DA01A150B04CAA0F98
:10091000BB1FAA0FBB1FAC0FBD1F0D911D912D91C9
:100920003C911397861709F178E0C71241C0782FE0
:100930007770743009F03CC0E02FF0E0EE52FE4FCB
:10094000E4910E2FE12FF0E0EE52FE4FE4911E2FC6
:10095000E22FF0E0EE52FE4FE4912E2FE32FF0E075
:10096000EE52FE4FE4913E2F23C0682F6C0D702F86
:10097000A32EE12FF0E0EE52FE4FB490E22FF0E014
:10098000EE52FE4FE4911E2FEA2DF0E0EE52FE4FA4
:10099000E4912E2FE72FF0E0EE52FE4FE4913E2F30
:1009A000E92FF0E0E853FE4FE4910E2F0B259F5FF7
:1009B000FA01EE19FF09EE0FFF1FEE0FFF1FEC0FFC
:1009C000FD1F80809180A280B380082519252A25EB
:1009D0003B2514960D931D932D933C9317978F5F92
:1009E0008ECFDF91CF911F910F91FF90EF90DF900D
:1009F000CF90BF90AF909F908F900895AB0160E82B
:100A000070E00C945604AB0160EC70E00C9456045A
:100A1000AB0160E071E00C9456044AE00C942B03A7
:100A2000089564EB70E20C94FE04CF93DF93EC0125
:100A30000E94EF0564EB70E2CE01DF91CF910C9440
:100A40000D05782F8827769531F008F48627660FF4
:100A500008F46427F8CF08F4862708950E94C1029D
:100A60000E94E30181E0809301060E94100584E169
:100A700090E20E94110510E0C0E0D0E0FF24F39462
:100A80000E941902883711F410E003C08B3621F45C
:100A900011E0C0E0D0E0F4CF803711F412E0F9CFDC
:100AA0001130B1F4FE01EC5DFF4D8A3019F08D304C
:100AB00009F047C0108244E150E2BE0184E290E2B6
:100AC0000E948C0184E190E20E94110510E0D8CFD1
:100AD0001230B1F68A3011F08D3069F5FE01EC5D0F
:100AE000FF4D108244E650E2BE0184E290E20E9493
:100AF0008C01F092050684E690E20E941505F092C2
:100B0000060644E250E260E170E084E690E20E9472
:100B1000B70182E70E94200204E210E2F80181910D
:100B20008F010E942002F0E204341F07B9F78AE027
:100B30000E942002CBCFC034D10544F6FE01EC5D0B
:100B4000FF4D808321969CCF8F929F92AF92BF9250
:100B5000CF92DF92EF92FF92CF93DF93EC01688107
:100B600079818A819B81611571058105910521F447
:100B700064E279ED8BE597E02DE133EF41E050E061
:100B80000E941A0649015A019B01AC01A7EAB1E48F
:100B90000E9407066B017C01ACEEB4EFA501940145
:100BA0000E941506DC01CB018C0D9D1DAE1DBF1DE5
:100BB000B7FF03C00197A109B04888839983AA832E
:100BC000BB839F77DF91CF91FF90EF90DF90CF9025
:100BD000BF90AF909F908F9008950C94A40580E1F2
:100BE00090E20C94A405A0E0B0E0809310209093D4
:100BF0001120A0931220B09313200895FB01DC0173
:100C000002C001900D9241505040D8F708950E94C3
:100C10003906A59F900DB49F900DA49F800D911D46
:100C200011240895B7FF0C9407060E940706821B43
:100C3000930B0895052E97FB1EF400940E94310635
:100C400057FD07D00E94480607FC03D04EF40C94D1
:100C5000310650954095309521953F4F4F4F5F4F4E
:100C6000089590958095709561957F4F8F4F9F4F18
:100C70000895A29FB001B39FC001A39F700D811D75
:100C80001124911DB29F700D811D1124911D089595
:100C9000A1E21A2EAA1BBB1BFD010DC0AA1FBB1F80
:100CA000EE1FFF1FA217B307E407F50720F0A21BF2
:100CB000B30BE40BF50B661F771F881F991F1A945F
:100CC00069F760957095809590959B01AC01BD0189
:080CD000CF010895F894FFCF55
:100CD800303132333435363738394142434445466A
:040CE8000100000007
:00000001FF
