:100000000C94E4000C9405010C9405010C9405017A
:100010000C9405010C9405010C9405010C94050148
:100020000C9405010C9405010C9405010C94050138
:100030000C9405010C9405010C9405010C94050128
:100040000C9405010C9405010C9405010C94050118
:100050000C9405010C9405010C9405010C94050108
:100060000C9405010C9405010C9405010C940501F8
:100070000C9405010C9405010C9405010C940501E8
:100080000C9405010C9405010C9405010C940501D8
:100090000C9405010C9405010C9405010C940501C8
:1000A0000C9405010C9405010C9405010C940501B8
:1000B0000C9405010C9405010C9405010C940501A8
:1000C0000C9405010C9405010C9405010C94050198
:1000D0000C9405010C9405010C9405010C94050188
:1000E0000C9405010C9405010C9405010C94050178
:1000F0000C9405010C9405010C9405010C94050168
:100100000C9405010C9405010C9405010C94050157
:100110000C9405010C9405010C9405010C94050147
:100120000C9405010C9405010C9405010C94050137
:100130000C9405010C9405010C9405010C94050127
:100140000C9405010C9405010C9405010C94050117
:100150000C9405010C9405010C9405010C94050107
:100160000C9405010C9405010C9405010C940501F7
:100170000C9405010C9405010C9405010C940501E7
:100180000C9405010C9405010C9405010C940501D7
:100190000C9405010C9405010C9405010C940501C7
:1001A0000C9405010C9405010C9405010C940501B7
:1001B0000C9405010C9405010C9405010C940501A7
:1001C0000C9405010C94050111241FBECFEFDFE351
:1001D000DEBFCDBF00E00CBF13E2A0E0B0E2ECEE6A
:1001E000F8E800E00BBF02C007900D92A83FB107EE
:1001F000D9F71AE2A8EFB3E201C01D92A533B10707
:10020000E1F70E94FA420C9474440C940000CF93DE
:10021000DF93C42FD52FA0E0B0E0A617B707F0F406
:10022000FC01EA0FFB1F20812A3328F0206230E016
:100230002755310903C030E020533109E181EA3309
:1002400028F0E062F0E0E755F10902C0F0E0F09735
:100250002295207FE22BE9931296DFCFCA01DF912E
:10026000CF9108951F93CF93DF93DA0111969C01EC
:10027000260F371F82179307B9F0EC01FC0111918B
:10028000CF01E12FE295EF70F0E0E050F04E1081E9
:10029000FD0131971083E881EF70F0E0E050F04EFF
:1002A000E081EC931296E6CF660F771FFA01E60F16
:1002B000F71F1082DF91CF911F910895E0E4F6E0DF
:1002C00088E0818384E08283E0EAF8E083E085834C
:1002D0008BE0868317828481806184838481886037
:1002E00084830895CF93DF931F921F92CDB7DEB71B
:1002F00069837A8320E030E049815A8124173507E9
:1003000069F04091A10847FF06C02091A008FC01B8
:10031000208381E004C02F5F3F4FEECF80E00F903D
:100320000F90DF91CF9108958091A10887FFFCCFB6
:100330008091A00808959091A10895FFFCCF80932B
:10034000A0080895FC01608371834283148613869C
:10035000168615860895FC0162830895FC01958533
:1003600026859F5F937081E0921301C080E008951D
:100370000F931F93CF93DF931F92CDB7DEB78C01FE
:1003800069830E94AE0169818823A9F0D8011D9676
:100390009C911D97F801E90FF11D67839F5F937092
:1003A000F80195870190F081E02D93819C7F129652
:1003B0002C91922B93830F90DF91CF911F910F91EE
:1003C0000895FC012385948581E0291301C080E014
:1003D0000895FC018485DF01A80FB11D13968C914F
:1003E00094859F5F937094870895FC0183858F5F48
:1003F00083702485A081B1819C91821749F0238567
:10040000DF01A20FB11D13969C93838781E00895AD
:1004100080E00895CF93DF93FC0186859585A081C8
:10042000B181981307C013968C9113978C7F139604
:100430008C930AC08685EF01C80FD11D8F818C93E4
:1004400086858F5F83708687DF91CF910895FC0149
:10045000848170FF02C0816001C08E7F84836083CD
:100460000895FC01848180FF04C0808190E0916048
:100470000895808190E008951092520010925500E6
:10048000809150008860809350008091510083FFDC
:10049000FCCF88ED84BF83E08093400088E08093A8
:1004A000500080E6809301068093050608954F92E0
:1004B0005F926F927F928F929F92AF92BF92CF92F4
:1004C000DF92EF92FF920F931F93CF93DF93809170
:1004D000CF0187FDFCCF80E090E00E94CA4360938B
:1004E000312A7093322A8093332A9093342A0E94BF
:1004F000C143CBE9D4E20E94BD43699379938993C8
:10050000999324E2CB3DD207B1F78091F8239091E3
:10051000F923A0E1B5E2FC01EE0FFF1FEE0FFF1F74
:10052000E556FB4D0081118122813381EC012D962E
:10053000CF70DD27CC0FDD1FCC0FDD1FC556DB4D87
:1005400088809980AA80BB80B8015527442704275A
:10055000152726273727082519252A253B256FE04B
:10056000880C991CAA1CBB1C6A95D1F78026912681
:10057000A226B326EC012996CF70DD27CC0FDD1F14
:10058000CC0FDD1FC556DB4D488159816A817B81C7
:100590002A013B01CBE07694679457944794CA951F
:1005A000D1F7442655266626772673016201C824B2
:1005B000D924EA24FB24C082D182E282F3820F96FE
:1005C0008F709927FC01EE0FFF1FEE0FFF1FE556FE
:1005D000FB4D40815181628173818A019B01C2E0A0
:1005E000000F111F221F331FCA95D1F74027512733
:1005F00062277327482559256A257B254C255D25CB
:100600006E257F25D2E1880C991CAA1CBB1CDA95AB
:10061000D1F7482559256A257B251CE1440C551C3A
:10062000661C771C1A95D1F7442555256625772534
:1006300005E0CC0CDD1CEE1CFF1C0A95D1F724E272
:10064000C2222DE2D22224E4E2222AEDF2224C251B
:100650005D256E257F254083518362837383ED0181
:10066000279778832196688321965883219648831B
:10067000EC012D96CF70DD27CC0FDD1FCC0FDD1FD9
:10068000C556DB4DC880D980EA80FB809701860182
:10069000CFE0000F111F221F331FCA95D1F7C026CC
:1006A000D126E226F326C426D526E626F726BA0169
:1006B00055274427C426D526E626F726EC01299699
:1006C000CF70DD27CC0FDD1FCC0FDD1FC556DB4DF6
:1006D000488159816A817B818A019B01CBE03695F3
:1006E000279517950795CA95D1F70427152726272B
:1006F0003727B701A6014027512762277327408378
:100700005183628373830F968F709927FC01EE0FDC
:10071000FF1FEE0FFF1FE556FB4D80809180A280EA
:10072000B38024013501C2E0440C551C661C771CC3
:10073000CA95D1F784249524A624B724DCE1000FC0
:10074000111F221F331FDA95D1F780269126A2268A
:10075000B3268C249D24AE24BF2497018601C2E1D8
:10076000000F111F221F331FCA95D1F78026912633
:10077000A226B3268A019B01D5E0000F111F221F7C
:10078000331FDA95D1F704721D7224743A7D042761
:10079000152726273727082519252A253B250083D5
:1007A000118322833383ED01239738832196288395
:1007B000219618830C93589646E2A831B40709F0A5
:1007C000AACEDC011D96AF70BB27AA0FBB1FAA0FD4
:1007D000BB1FA556BB4D4D915D916D917C917801EC
:1007E000DD24CC240C251D252E253F250427152787
:1007F00026273727BFE0440F551F661F771FBA957E
:10080000D1F704271527262737270093DD241093D7
:10081000DE242093DF243093E024DC011996AF70AE
:10082000BB27AA0FBB1FAA0FBB1FA556BB4D4D91DF
:100830005D916D917C916A017B01DBE0F694E79418
:10084000D794C794DA95D1F7C426D526E626F7269D
:10085000C0920126D0920226E0920326F09204264E
:100860002601370140265126622673264082518296
:10087000628273825301420145E0880C991CAA1CD4
:10088000BB1C4A95D1F744E284224DE2942244E411
:10089000A4224AEDB42284249524A624B72480926D
:1008A000052690920626A0920726B09208260F965B
:1008B0008F7099278093F8239093F923880F991FBD
:1008C000880F991FFC01E556FB4D80819181A28123
:1008D000B38180932D2A90932E2AA0932F2AB09330
:1008E000302AAC01BD01C2E0440F551F661F771FBF
:1008F000CA95D1F784279527A627B7278027912760
:10090000A227B327D2E1000F111F221F331FDA9550
:10091000D1F7082719272A273B278CE1CC0CDD1CAF
:10092000EE1CFF1C8A95D1F70C251D252E253F2591
:10093000B901A801482559256A257B2540835183A3
:10094000628373834093312A5093322A6093332A0F
:100950007093342A8091CF0187FDFCCF80E090E036
:10096000DF91CF911F910F91FF90EF90DF90CF908B
:10097000BF90AF909F908F907F906F905F904F90BF
:100980000C94D1432F923F924F925F926F927F923D
:100990008F929F92AF92BF92CF92DF92EF92FF928F
:1009A0000F931F93CF93DF93CDB7DEB76797CDBF7C
:1009B000DEBF29EF34E22B873C87F901205F2F8BC4
:1009C000DC012D91CD0121934F884E12F9CF85E1A5
:1009D00095E208E310E22AE0200FD8014D918D0145
:1009E000BC0164507109FC017C97308134273D962D
:1009F000E081F0E0E950FF4D40813427FB01308376
:100A0000AC01435051093A97E081F0E0E950FF4DC5
:100A10006081FC017B9730813627DA013C934F5F80
:100A20005F4F3E96E081F0E0E950FF4D6081FC01B0
:100A30007A9730813627FA0130834F5F5F4F3E97B8
:100A4000E081F0E0E950FF4D6081FC017997308151
:100A50003627DA013C93FC0134E0AF0144505109E0
:100A6000BF0168517109DA015C91DB014C914527A6
:100A700041933F5F303189F748962013AECF2090E5
:100A8000F8233090F923F101EE0FFF1FEE0FFF1F47
:100A9000E556FB4D0081118122813381D1011D96E4
:100AA000AF70BB27AA0FBB1FAA0FBB1FA556BB4D1C
:100AB0004D915D916D917C91D801992788270827E8
:100AC00019272A273B270427152726273727AFE092
:100AD000440F551F661F771FAA95D1F7402751274E
:100AE00062277327D1011996AF70BB27AA0FBB1FCE
:100AF000AA0FBB1FA556BB4D8D919D910D90BC912A
:100B0000A02D8C019D010F2EFBE0369527951795A2
:100B10000795FA95D1F7F02D082719272A273B27A3
:100B2000D901C80184279527A627B72780839183F9
:100B3000A283B3834C015D01E5E0880C991CAA1CDB
:100B4000BB1CEA95D1F7E4E28E22EDE29E22E4E4BA
:100B5000AE22EAEDBE2288269926AA26BB26FFE011
:100B60002F0E311C8FE028223324F101EE0FFF1FDE
:100B7000EE0FFF1FE556FB4DC080D180E280F38071
:100B8000D701C601880F991FAA1FBB1F880F991F85
:100B9000AA1FBB1F8C259D25AE25BF258427952721
:100BA000A627B7272A013B01032E32E1440C551C2E
:100BB000661C771C3A95D1F7302D482659266A26AF
:100BC0007B26D901C801072E7CE1880F991FAA1F37
:100BD000BB1F7A95D1F7702D84259525A625B725BD
:100BE00088259925AA25BB2580839183A283B38379
:100BF0008F829886A986BA8646015701E4E1F0E221
:100C0000ED83FE83E12CF12C2C013D010F2C04C05F
:100C100076946794579447940A94D2F7F42DFF7111
:100C20004F2EE5E05E2EF50CED81FE81D080642C28
:100C3000712CF301EC5EFF4D3F01C080ED81FE8120
:100C4000C192ED83FE83F301D082FEE1FF12D5C095
:100C5000EE2DE370F0E0E05FFF4D20811EE1B695E0
:100C6000A795979587951A95D1F78370A82FB0E02F
:100C7000A05FBF4D8C9180832C93F101EE0FFF1F7D
:100C8000EE0FFF1FE556FB4D00811181228133815C
:100C9000D1011D96AF70BB27AA0FBB1FAA0FBB1FA8
:100CA000A556BB4D4D915D916D917C91D8019927D1
:100CB0008827082719272A273B27042715272627AF
:100CC0003727AFE0440F551F661F771FAA95D1F74E
:100CD0004027512762277327D1011996AF70BB2790
:100CE000AA0FBB1FAA0FBB1FA556BB4D8D919D918F
:100CF0000D90BC91A02D8C019D010F2EFBE036952F
:100D0000279517950795FA95D1F7F02D08271927FC
:100D10002A273B27D901C80184279527A627B7276B
:100D200080839183A283B3834C015D01E5E0880C4D
:100D3000991CAA1CBB1CEA95D1F7E4E28E22EDE2D5
:100D40009E22E4E4AE22EAEDBE22240135014826CB
:100D500059266A267B264F82588669867A868FE0D6
:100D6000280E311C9FE029223324F101EE0FFF1FD2
:100D7000EE0FFF1FE556FB4D80809180A280B3806F
:100D8000D501C401880F991FAA1FBB1F880F991F87
:100D9000AA1FBB1F88259925AA25BB25842795272F
:100DA000A627B7272A013B01032E32E1440C551C2C
:100DB000661C771C3A95D1F7302D84259525A625FC
:100DC000B72528013901032E3CE1440C551C661C53
:100DD000771C3A95D1F7302D84259525A625B72582
:100DE0004F80588469847A8484259525A625B72563
:100DF00080839183A283B383F12CE394E0E25E2E9F
:100E0000E51002CF2092F8233092F9234093DD249D
:100E10005093DE246093DF247093E0240093012636
:100E20001093022620930326309304262F813885C1
:100E300049855A8520930526309306264093072638
:100E40005093082680922D2A90922E2AA0922F2A23
:100E5000B092302A8093312A9093322AA093332A79
:100E6000B093342A0E94BD430BE914E26B017C016C
:100E7000DD24EE24FF24D801CD92DD92ED92FC9288
:100E800013976B017C01CC24EE24FF24F801C4826B
:100E9000D582E682F7826B017C01CC24DD24FF241D
:100EA0001896CD92DD92ED92FC921B97DC01CB015E
:100EB00088279927AA2784879587A687B7870E94BE
:100EC000BD43005F1F4FF4E20B3D1F0779F6492E2B
:100ED0005524662477244F82588669867A86209026
:100EE000F8233090F923F101EE0FFF1FEE0FFF1FE3
:100EF0009F0125563B4D7901D9014D915D916D9131
:100F00007C91D1011D96AF70BB27AA0FBB1FAA0F02
:100F1000BB1FA556BB4D0D911D912D913C91DA0142
:100F200099278827482759276A277B274027512751
:100F300062277327D901C8011FE0880F991FAA1FD4
:100F4000BB1F1A95D1F784279527A627B7279101AC
:100F5000275F3F4F2F703327220F331F220F331F7E
:100F600025563B4DF90140815181628173818A018F
:100F70009B01EBE03695279517950795EA95D1F7F4
:100F800040275127622773278A019B0108271927C9
:100F90002A273B27F7010083118322833383FFE055
:100FA0002F0E311CEFE02E223324F101EE0FFF1F34
:100FB000EE0FFF1FE556FB4DC080D180E280F3802D
:100FC00046015701880C991CAA1CBB1C880C991C53
:100FD000AA1CBB1CC824D924EA24FB24C826D92671
:100FE000EA26FB26C026D126E226F326072E72E14A
:100FF000880F991FAA1FBB1F7A95D1F7702D8C25DA
:101000009D25AE25BF25032E3CE1440F551F661FCD
:10101000771F3A95D1F7302D84279527A627B72734
:1010200045E0000F111F221F331F4A95D1F70472AC
:101030001D7224743A7D2C013D0140265126622602
:1010400073264E865F86688A798A408251826282E0
:1010500073825E845C8A9E012F5F3F4F2D833E83A7
:101060004D814C5F4D87F101EE0FFF1FEE0FFF1F0B
:101070008F0105561B4DD8014D915D916D917C916D
:10108000D1011D96AF70BB27AA0FBB1FAA0FBB1FB4
:10109000A556BB4DCD90DD90ED90FC90DA019927DF
:1010A000882784279527A627B727AC01BD014C25A3
:1010B0005D256E257F25D701C601EFE0880F991FBA
:1010C000AA1FBB1FEA95D1F784279527A627B72724
:1010D000A101475F5F4F4F705527440F551F440FC5
:1010E000551F45565B4DFA014081518162817381E4
:1010F0006A017B01EBE0F694E794D794C794EA95F4
:10110000D1F74C255D256E257F256A017B01C82618
:10111000D926EA26FB26F801C082D182E282F38238
:10112000FFE02F0E311CEFE02E223324F101EE0FF1
:10113000FF1FEE0FFF1FE556FB4D80809180A280C0
:10114000B3802401350102E0440C551C661C771C59
:101150000A95D1F784249524A624B72488269926B5
:10116000AA26BB2612E1880F991FAA1FBB1F1A953A
:10117000D1F788259925AA25BB250CE1440F551FD9
:10118000661F771F0A95D1F784279527A627B727CB
:101190004601570145E0880C991CAA1CBB1C4A95C6
:1011A000D1F744E284224DE2942244E4A4224AEDA1
:1011B000B422C824D924EA24FB24C826D926EA2646
:1011C000FB26C082D182E282F382D901CD929D01B9
:1011D000BD85B21348CF2092F8233092F9238F8136
:1011E0008370FE01E80FF11D41804D8A2D813E8103
:1011F000F101EE0FFF1FEE0FFF1F8F0105561B4D74
:10120000D8014D915D916D917C91D1011D96AF708A
:10121000BB27AA0FBB1FAA0FBB1FA556BB4DCD9066
:10122000DD90ED90FC90DA01992788278427952797
:10123000A627B727AC01BD014C255D256E257F256E
:10124000D701C601FFE0880F991FAA1FBB1FFA959F
:10125000D1F784279527A627B727A101475F5F4FBE
:101260004F705527440F551F440F551F45565B4D72
:10127000FA0140815181628173816A017B01EBE057
:10128000F694E794D794C794EA95D1F74C255D2559
:101290006E257F256A017B01C826D926EA26FB2612
:1012A000F801C082D182E282F382FFE02F0E311C6E
:1012B000EFE02E223324F101EE0FFF1FEE0FFF1F90
:1012C000E556FB4D80809180A280B38024013501DA
:1012D00002E0440C551C661C771C0A95D1F7842447
:1012E0009524A624B72488269926AA26BB2612E18F
:1012F000880F991FAA1FBB1F1A95D1F7882599251A
:10130000AA25BB250CE1440F551F661F771F0A95C0
:10131000D1F784279527A627B7274601570145E02F
:10132000880C991CAA1CBB1C4A95D1F744E2842264
:101330004DE2942244E4A4224AEDB422C824D924E4
:10134000EA24FB24C826D926EA26FB26C082D182BD
:10135000E282F382D901CD929D01BD85B21348CFBF
:101360002092F8233092F9238F8186958695837099
:10137000FE01E80FF11D41804E8A6D807E806A8AF1
:101380007B8AF101EE0FFF1FEE0FFF1F9F01255615
:101390003B4D5901D9014D915D916D917C91D101E8
:1013A0001D96AF70BB27AA0FBB1FAA0FBB1FA55668
:1013B000BB4D0D911D912D913C91DA019927882704
:1013C00084279527A627B727AC01BD0140275127C1
:1013D00062277327D901C8011FE0880F991FAA1F30
:1013E000BB1F1A95D1F784279527A627B727910108
:1013F000275F3F4F2F703327220F331F220F331FDA
:1014000025563B4DF90140815181628173816A010A
:101410007B012BE0F694E794D794C7942A95D1F7F3
:10142000C426D526E626F726B701A6014827592760
:101430006A277B27F50140835183628373838A0186
:101440009B01E5E0000F111F221F331FEA95D1F722
:1014500004721D7224743A7D042715272627372726
:10146000FFE02F0E311C4FE024223324F101EE0F58
:10147000FF1FEE0FFF1FE556FB4D80809180A2807D
:10148000B380B501A401440F551F661F771F440F99
:10149000551F661F771F482559256A257B25482734
:1014A00059276A277B272C013D01032E32E1440C8A
:1014B000551C661C771C3A95D1F7302D44265526CD
:1014C00066267726B701A601032E3CE1440F551F7F
:1014D000661F771F3A95D1F7302D4425552566258F
:1014E00077254027512762277327408351836283E2
:1014F0007383EA89FB894193EA8BFB8BFD85FE139D
:1015000040CF2092F8233092F9238093DD249093EA
:10151000DE24A093DF24B093E024C0920126D09271
:101520000226E0920326F0920426009305261093EB
:101530000626209307263093082680922D2A909223
:101540002E2AA0922F2AB092302A4093312A50930B
:10155000322A6093332A7093342A8F818295837064
:10156000FE01E80FF11DB180F101EE0FFF1FEE0F3C
:10157000FF1FE556FB4D0081118122813381D1018E
:101580001D96AF70BB27AA0FBB1FAA0FBB1FA55686
:10159000BB4DCD90DD90ED90FC90B80155274427D0
:1015A00040275127622773278A019B010C251D259F
:1015B0002E253F25B701A601AFE0440F551F661F3A
:1015C000771FAA95D1F74027512762277327D101AA
:1015D0001996AF70BB27AA0FBB1FAA0FBB1FA5563A
:1015E000BB4D8D919D910D90BC91A02D8C019D01C5
:1015F0000F2EFBE03695279517950795FA95D1F7AD
:10160000F02D082719272A273B27D901C80184274D
:101610009527A627B72780839183A283B383EFE022
:101620002E0E311CFFE02F2233244101880C991C1F
:10163000880C991CF401E556FB4DC080D180E280F6
:10164000F38026013701440C551C661C771C440CA2
:10165000551C661C771CC424D524E624F724C42614
:10166000D526E626F726032E32E1440F551F661FC6
:10167000771F3A95D1F7302D4C255D256E257F25B6
:10168000280139012CE1440C551C661C771C2A9555
:10169000D1F744255525662577252C013D0135E0F8
:1016A000440C551C661C771C3A95D1F724E2422263
:1016B0002DE2522224E462222AED72224826592683
:1016C0006A267B2644265526662677264082518246
:1016D00062827382AD81BE814D92AD83BE83BD8532
:1016E000BA1342CF6F816295669566956370FE016D
:1016F000E60FF11D41812D892427EE852E27FE89D5
:101700002F272B25AB85BC858C9184278D93AB87A8
:10171000BC873F893A13F6CF80E090E04896FC0101
:10172000E750FB4D30E15081522751933150D9F7AA
:10173000883D910599F7E9EEF5E280815C8985277E
:10174000819365E2E93FF607C1F7A7EFB0E220E039
:1017500030E0E42FE227F0E05D918F01035F194D47
:101760008C898527F8018083C8019395FD895F27BF
:10177000FC015083B8017E5F7D01FFEFEF0EF11C8D
:10178000F7018081FE898F27FB0180831D5FCD01DA
:1017900081509E4FFC0180818B25F80180832F5F53
:1017A0003F4F2115F1E03F07A1F6F1013D96EF70A3
:1017B000FF27EE0FFF1FEE0FFF1FE556FB4D808149
:1017C0009181A281B38192011127002740265126E1
:1017D00062267326482659266A267B26EFE0880F64
:1017E000991FAA1FBB1FEA95D1F784259525A62529
:1017F000B725F1013996EF70FF27EE0FFF1FEE0FAF
:10180000FF1FE556FB4D40815181628173816A0162
:101810007B010BE0F694E794D794C7940A95D1F72F
:10182000C426D526E626F726B701A601482759275C
:101830006A277B27F401E556FB4D40835183628381
:1018400073832A013B0125E0440C551C661C771C60
:101850002A95D1F724E242222DE2522224E4622288
:101860002AED72225301420184269526A626B72628
:101870003FE0230E311C4FE0242233249101220F3C
:10188000331F220F331FF901E556FB4D4080518075
:1018900062807380B301A20112E0440F551F661FDE
:1018A000771F1A95D1F74426552666267726B30169
:1018B000A201482759276A277B272C013D0102E115
:1018C000440C551C661C771C0A95D1F7DB01CA0134
:1018D00084259525A625B725260137014CE1440C22
:1018E000551C661C771C4A95D1F7482659266A264E
:1018F0007B26482459246A247B24408251826282B8
:101900007382EDE0FAE2D301C20140E14E0F582F9D
:101910005370519352E0B695A795979587955A9530
:10192000D1F74E13F4CFF1013D96EF70FF27EE0F84
:10193000FF1FEE0FFF1FE556FB4D80819181A281B5
:10194000B381AC01BD01EFE0440F551F661F771F47
:10195000EA95D1F784279527A627B72784259525CB
:10196000A625B725320155244424482659266A263F
:101970007B26F1013996EF70FF27EE0FFF1FEE0F68
:10198000FF1FE556FB4D80819181A281B381AC019F
:10199000BD011BE076956795579547951A95D1F748
:1019A000482759276A277B2773016201C426D52659
:1019B000E626F726F901E556FB4DC082D182E28288
:1019C000F3828FE0280E311C9FE029223324F1019D
:1019D000EE0FFF1FEE0FFF1FDF01A556BB4D0D9150
:1019E0001D912D913C9113974801590182E0880C7B
:1019F000991CAA1CBB1C8A95D1F7082519252A25F4
:101A00003B259CE1440F551F661F771F9A95D1F720
:101A100040275127622773274425552566257725BA
:101A200022E1440C551C661C771C2A95D1F74425ED
:101A30005525662577252601370135E0440C551CD0
:101A4000661C771C3A95D1F724E242222DE25222FD
:101A500024E462222AED72224C245D246E247F2429
:101A600044265526662677264D925D926D927C928D
:101A70001397ADE1BAE2B301A20180E18A0F942F7E
:101A800093709D9392E076956795579547959A95B3
:101A9000D1F78A13F4CFD1011D96AF70BB27AA0FDF
:101AA000BB1FAA0FBB1FA556BB4D0D911D912D91BC
:101AB0003C91D901C8014FE0880F991FAA1FBB1F95
:101AC0004A95D1F7082719272A273B2704251525EA
:101AD000262537253201552444240425152526259D
:101AE0003725D1011996AF70BB27AA0FBB1FAA0FCC
:101AF000BB1FA556BB4D8D919D910D90BC91A02D06
:101B00006C017D017BE0F694E794D794C7947A95B5
:101B1000D1F7C826D926EA26FB26B901A8014C250B
:101B20005D256E257F25E556FB4D408351836283FD
:101B300073838FE0280E311C9FE029223324F101AA
:101B4000EE0FFF1FEE0FFF1FDF01A556BB4D3D013E
:101B50008D919D910D90BC91A02D4C015D01E2E015
:101B6000880C991CAA1CBB1CEA95D1F788259925DD
:101B7000AA25BB25FCE1CC0CDD1CEE1CFF1CFA9554
:101B8000D1F7C826D926EA26FB26C026D126E2268A
:101B9000F326C426D526E626F726D901C80112E188
:101BA000880F991FAA1FBB1F1A95D1F78C259D2559
:101BB000AE25BF2505E0440F551F661F771F0A9508
:101BC000D1F744725D7264747A7D84279527A627C5
:101BD000B727F30180839183A283B383809309267F
:101BE00090930A26A0930B26B0930C269101235FB5
:101BF0003F4F2F703327220F331F220F331F2556DD
:101C00003B4DF90140815181628173818A019B01C1
:101C1000EFE0000F111F221F331FEA95D1F7402775
:101C2000512762277327482759276A277B27DC011A
:101C30009927882784279527A627B7278093DD240F
:101C40009093DE24A093DF24B093E0249101275FDA
:101C50003F4F2F703327220F331F220F331F25567C
:101C60003B4DF90140815181628173818A019B0161
:101C7000EBE03695279517950795EA95D1F740271C
:101C800051276227732740930126509302266093C1
:101C90000326709304266C017D01C426D526E62612
:101CA000F726F301C082D182E282F3829701860196
:101CB000F5E0000F111F221F331FFA95D1F70472B0
:101CC0001D7224743A7D0C251D252E253F25009379
:101CD0000526109306262093072630930826FFE05A
:101CE0002F0E311CEFE02E2233242092F823309265
:101CF000F923F101EE0FFF1FEE0FFF1FE556FB4D1D
:101D0000C080D180E280F380C0922D2AD0922E2A0A
:101D1000E0922F2AF092302A46015701880C991C34
:101D2000AA1CBB1C880C991CAA1CBB1CC824D92447
:101D3000EA24FB24032E3CE1440F551F661F771F46
:101D40003A95D1F7302D4C255D256E257F25482706
:101D500059276A277B27072E72E1880F991FAA1F30
:101D6000BB1F7A95D1F7702D482759276A277B2703
:101D700040275127622773274083518362837383EF
:101D80004093312A5093322A6093332A7093342A35
:101D90006796CDBFDEBFDF91CF911F910F91FF906E
:101DA000EF90DF90CF90BF90AF909F908F907F90FB
:101DB0006F905F904F903F902F9008952F923F9299
:101DC0004F925F926F927F928F929F92AF92BF924B
:101DD000CF92DF92EF92FF920F931F93CF93DF93F7
:101DE000CDB7DEB7C15DD109CDBFDEBFCF56DF4F66
:101DF00088839983C159D0402091312A2F71409016
:101E00001420C956DF4F4882C759D040E42DE2273D
:101E1000F0E0ED5BFF4D3081832F90E0FC01EF514E
:101E2000FB4D3F70CF56DF4FA881B981C159D040DB
:101E3000A30FB11D87509B4D3C91DC018C918327F2
:101E40008083B0911520C856DF4FB883C859D04061
:101E5000EB2FE227F0E0ED5BFF4D3081832F90E028
:101E6000FC01EF51FB4D3F70CF56DF4FA881B98188
:101E7000C159D040A30FB11D87509B4D3C91DC014F
:101E80008C9183278083B0911620C756DF4FB8838B
:101E9000C959D040EB2FE227F0E0ED5BFF4D3081D8
:101EA000832F90E0FC01EF51FB4D3F70CF56DF4F89
:101EB000A881B981C159D040A30FB11D87509B4D56
:101EC0003C91DC018C9183278083B0911720C6560A
:101ED000DF4FB883CA59D040EB2FE227F0E0ED5B2B
:101EE000FF4D3081832F90E0FC01EF51FB4D3F709F
:101EF000CF56DF4FA881B981C159D040A30FB11D82
:101F000087509B4D3C91DC018C9183278083B0915D
:101F10001820C556DF4FB883CB59D040EB2FE227AE
:101F2000F0E0ED5BFF4D3081832F90E0FC01EF513D
:101F3000FB4D3F70CF56DF4FA881B981C159D040CA
:101F4000A30FB11D87509B4D3C91DC018C918327E1
:101F50008083B0911920C456DF4FB883CC59D0404C
:101F6000EB2FE227F0E0ED5BFF4D3081832F90E017
:101F7000FC01EF51FB4D3F70CF56DF4FA881B98177
:101F8000C159D040A30FB11D87509B4D3C91DC013E
:101F90008C9183278083B0911A20C356DF4FB8837A
:101FA000CD59D040EB2FE227F0E0ED5BFF4D3081C3
:101FB000832F90E0FC01EF51FB4D3F70CF56DF4F78
:101FC000A881B981C159D040A30FB11D87509B4D45
:101FD0003C91DC018C9183278083B0911B20C256F9
:101FE000DF4FB883CE59D040EB2FE227F0E0ED5B16
:101FF000FF4D3081832F90E0FC01EF51FB4D3F708E
:10200000CF56DF4FA881B981C159D040A30FB11D70
:1020100087509B4D3C91DC018C9183278083B0914C
:102020001C20C156DF4FB883CF59D040EB2FE22799
:10203000F0E0ED5BFF4D3081832F90E0FC01EF512C
:10204000FB4D3F70CF56DF4FA881B981C159D040B9
:10205000A30FB11D87509B4D3C91DC018C918327D0
:102060008083B0911D20C056DF4FB883C05AD04046
:10207000EB2FE227F0E0ED5BFF4D3081832F90E006
:10208000FC01EF51FB4D3F70CF56DF4FA881B98166
:10209000C159D040A30FB11D87509B4D3C91DC012D
:1020A0008C9183278083B0911E20CF55DF4FB8835A
:1020B000C15AD040EB2FE227F0E0ED5BFF4D3081BD
:1020C000832F90E0FC01EF51FB4D3F70CF56DF4F67
:1020D000A881B981C159D040A30FB11D87509B4D34
:1020E0003C91DC018C9183278083B0911F20CE55D9
:1020F000DF4FB883C25AD040EB2FE227F0E0ED5B10
:10210000FF4D3081832F90E0FC01EF51FB4D3F707C
:10211000CF56DF4FA881B981C159D040A30FB11D5F
:1021200087509B4D3C91DC018C9183278083B0913B
:102130002020CD55DF4FB883C35AD040EB2FE22784
:10214000F0E0ED5BFF4D3081832F90E0FC01EF511B
:10215000FB4D3F70CF56DF4FA881B981C159D040A8
:10216000A30FB11D87509B4D3C91DC018C918327BF
:102170008083B0912120CC55DF4FB883C45AD04022
:10218000EB2FE227F0E0ED5BFF4D3081832F90E0F5
:10219000FC01EF51FB4D3F70CF56DF4FA881B98155
:1021A000C159D040A30FB11D87509B4D3C91DC011C
:1021B0008C9183278083B0912220CB55DF4FB88349
:1021C000C55AD040EB2FE227F0E0ED5BFF4D3081A8
:1021D000832F90E0FC01EF51FB4D3F70CF56DF4F56
:1021E000A881B981C159D040A30FB11D87509B4D23
:1021F0003C91DC018C9183278083B0912320CA55C8
:10220000DF4FB883C65AD040EB2FE227F0E0ED5BFA
:10221000FF4D3081832F90E0FC01EF51FB4D3F706B
:10222000CF56DF4FA881B981C159D040A30FB11D4E
:1022300087509B4D3C91DC018C9183278083B0912A
:102240002420C955DF4FB883C75AD040EB2FE2276F
:10225000F0E0ED5BFF4D3081832F90E0FC01EF510A
:10226000FB4D3F70CF56DF4FA881B981C159D04097
:10227000A30FB11D87509B4D3C91DC018C918327AE
:102280008083B0912520C855DF4FB883C85AD0400D
:10229000EB2FE227F0E0ED5BFF4D3081832F90E0E4
:1022A000FC01EF51FB4D3F70CF56DF4FA881B98144
:1022B000C159D040A30FB11D87509B4D3C91DC010B
:1022C0008C9183278083B0912620C755DF4FB88338
:1022D000C95AD040EB2FE227F0E0ED5BFF4D308193
:1022E000832F90E0FC01EF51FB4D3F70CF56DF4F45
:1022F000A881B981C159D040A30FB11D87509B4D12
:102300003C91DC018C9183278083B0912720C655B6
:10231000DF4FB883CA5AD040EB2FE227F0E0ED5BE5
:10232000FF4D3081832F90E0FC01EF51FB4D3F705A
:10233000CF56DF4FA881B981C159D040A30FB11D3D
:1023400087509B4D3C91DC018C9183278083B09119
:102350002820C555DF4FB883CB5AD040EB2FE2275A
:10236000F0E0ED5BFF4D3081832F90E0FC01EF51F9
:10237000FB4D3F70CF56DF4FA881B981C159D04086
:10238000A30FB11D87509B4D3C91DC018C913827E8
:102390003083B0912920C455DF4FB883CC5AD04048
:1023A000EB2FE227F0E0ED5BFF4D3081832F90E0D3
:1023B000FC01EF51FB4D3F70CF56DF4FA881B98133
:1023C000C159D040A30FB11D87509B4D3C91DC01FA
:1023D0008C9138273083B0912A20C355DF4FB883C2
:1023E000CD5AD040EB2FE227F0E0ED5BFF4D30817E
:1023F000832F90E0FC01EF51FB4D3F70CF56DF4F34
:10240000A881B981C159D040A30FB11D87509B4D00
:102410003C91DC018C9138273083B0912B20C25540
:10242000DF4FB883CE5AD040EB2FE227F0E0ED5BD0
:10243000FF4D3081832F90E0FC01EF51FB4D3F7049
:10244000CF56DF4FA881B981C159D040A30FB11D2C
:1024500087509B4D3C91DC018C9138273083B091A3
:102460002C20C155DF4FB883CF5AD040EB2FE22745
:10247000F0E0ED5BFF4D3081832F90E0FC01EF51E8
:10248000FB4D3F70CF56DF4FA881B981C159D04075
:10249000A30FB11D87509B4D3C91DC018C913827D7
:1024A0003083B0912D20C055DF4FB883C05BD04042
:1024B000EB2FE227F0E0ED5BFF4D3081832F90E0C2
:1024C000FC01EF51FB4D3F70CF56DF4FA881B98122
:1024D000C159D040A30FB11D87509B4D3C91DC01E9
:1024E0008C9138273083B0912E20CF54DF4FB883A2
:1024F000C15BD040EB2FE227F0E0ED5BFF4D308178
:10250000832F90E0FC01EF51FB4D3F70CF56DF4F22
:10251000A881B981C159D040A30FB11D87509B4DEF
:102520003C91DC018C9138273083B0912F20CE5420
:10253000DF4FB883C25BD040EB2FE227F0E0ED5BCA
:10254000FF4D3081832F90E0FC01EF51FB4D3F7038
:10255000CF56DF4FA881B981C159D040A30FB11D1B
:1025600087509B4D3C91DC018C9138273083B09192
:102570003020CD54DF4FB883C35BD040EB2FE22730
:10258000F0E0ED5BFF4D3081832F90E0FC01EF51D7
:10259000FB4D3F70CF56DF4FA881B981C159D04064
:1025A000A30FB11D87509B4D3C91DC018C913827C6
:1025B0003083B0913120CC54DF4FB883C45BD0401E
:1025C000EB2FE227F0E0ED5BFF4D3081832F90E0B1
:1025D000FC01EF51FB4D3F70CF56DF4FA881B98111
:1025E000C159D040A30FB11D87509B4D3C91DC01D8
:1025F0008C9138273083B0913220CB54DF4FB88391
:10260000C55BD040EB2FE227F0E0ED5BFF4D308162
:10261000832F90E0FC01EF51FB4D3F70CF56DF4F11
:10262000A881B981C159D040A30FB11D87509B4DDE
:102630003C91DC018C9138273083B0913320CA540F
:10264000DF4FB883C65BD0402B27E22FF0E0ED5B75
:10265000FF4D2081822F90E0FC01EF51FB4D2F7048
:10266000CF56DF4FA881B981C159D040A20FB11D0B
:1026700087509B4D2C91DC018C9128272083B091B1
:10268000FA23C754DF4FB883C95BD040E0910926D5
:10269000C453DF4FE883CC5CD040F0910A26C3538B
:1026A000DF4FF883CD5CD04040900B26C253DF4F04
:1026B0004882CE5CD04050900C26C153DF4F5882E8
:1026C000CF5CD0406090F8237090F923CD56DF4F57
:1026D00068827982C359D04070900D2AC354DF4F6D
:1026E0007882CD5BD04080900E2AC254DF4F888222
:1026F000CE5BD04090900F2AC154DF4F9882CF5BC1
:10270000D040A090102AC054DF4FA882C05CD040B7
:10271000B090112ACF53DF4FB882C15CD040D09027
:10272000122ACE53DF4FD882C25CD040E090132AE9
:10273000CD53DF4FE882C35CD040F090142ACC53D5
:10274000DF4FF882C45CD04000911020CB53DF4FA4
:102750000883C55CD04010911120CA53DF4F188305
:10276000C65CD04020911220C953DF4F2883C75C3C
:10277000D04030911320C853DF4F3883C85CD0401D
:1027800048E150E0C954DF4F48835983C75BD040CC
:1027900084E190E2C553DF4F8883CB5CD04050E2A8
:1027A000580FC454DF4F5883CC5BD040C754DF4F21
:1027B000A881C95BD040AF5FA370C754DF4FA88327
:1027C000C95BD040C954DF4F68817981C75BD04075
:1027D0006831710509F4CCC0CD56DF4FE881F9812D
:1027E000C359D040EE0FFF1FEE0FFF1FE556FB4D04
:1027F000C080D180E280F380CD56DF4FA881B981BF
:10280000C359D0401D96AF70BB27AA0FBB1FAA0F9C
:10281000BB1FA556BB4D8D919D910D90BC91A02DD8
:102820009601112700270C251D252E253F2568011F
:102830007901C826D926EA26FB268C019D01AFE046
:10284000000F111F221F331FAA95D1F70C251D253C
:102850002E253F25CD56DF4FA881B981C359D040E1
:102860001996AF70BB27AA0FBB1FAA0FBB1FA55697
:10287000BB4D8D919D910D90BC91A02D6C017D0162
:102880004BE0F694E794D794C7944A95D1F7C826BD
:10289000D926EA26FB26B701A60140275127622741
:1028A00073274083518362837383CD56DF4F8881C2
:1028B0009981C359D0400F96DC01AF70BB27CD562C
:1028C000DF4FA883B983C359D040FD01EE0FFF1F2E
:1028D000EE0FFF1FE556FB4D80819181A281B381F0
:1028E0004C015D01880C991CAA1CBB1C880C991C0E
:1028F000AA1CBB1C88259925AA25BB2580279127C2
:10290000A227B32784279527A627B7270F2EF2E102
:10291000000F111F221F331FFA95D1F7F02D082742
:1029200019272A273B278CE1CC0CDD1CEE1CFF1C51
:102930008A95D1F70C251D252E253F252A013B011F
:1029400095E0440C551C661C771C9A95D1F7B4E2AF
:102950004B22BDE25B22B4E46B22BAED7B2240261F
:10296000512662267326408251826282738214C08D
:10297000C453DF4F4880CC5CD040C353DF4F5880F6
:10298000CD5CD040C253DF4F6880CE5CD040C15395
:10299000DF4F7880CF5CD040642DFF24E72CD62C0D
:1029A000C52CC301AA27BB27872C9924AA24BB24A2
:1029B000C354DF4F3881CD5BD04050E0315030F010
:1029C000C254DF4F5881CE5BD040F8CF242D2F71F9
:1029D0002527C154DF4F3881CF5BD04040E03150D4
:1029E00030F0C054DF4F4881C05CD040F8CFFC2DA0
:1029F000FF71F427CF53DF4F3881C15CD04040E0F6
:102A0000315030F0CE53DF4F4881C25CD040F8CF18
:102A1000E82FEF71E427CD53DF4F3881C35CD040FE
:102A200040E0315030F0CC53DF4F4881C45CD0409F
:102A3000F8CF582D5F715427462E42944694469401
:102A4000B3E04B22CB56DF4F4882C559D040382FD8
:102A5000331F3327331F607270E075956795632BC2
:102A60003C2D307EE32EE2940FE0E0223E2D362B0B
:102A70008076869586958294869497E08922482F61
:102A80004829642DCB53DF4F5880C55CD040652565
:102A900070E0C754DF4F7880C95BD040672C712C41
:102AA000C654DF4F68827982CA5BD040C956DF4F77
:102AB000A881C759D040A227B0E0AD5BBF4DAC9113
:102AC000B0E018E1812E869E2001879E500C1124D3
:102AD00082010A0F1B1FAA24A394B12CAC0EBD1EA9
:102AE0000A0D1B1D98E1B92EB69CC001B79C900D34
:102AF0001124A80FB91FA956BF4DAC91B0E0AF513A
:102B0000BB4DAC91762F66277B01EA0EF11CD701F5
:102B1000A35FB94DFC90D801FC92CB56DF4FC88023
:102B2000C559D040CA53DF4FB881C65CD040CB26D0
:102B3000D12CC956DF4FA881C759D040AF27B0E08C
:102B4000AD5BBF4DAC91B0E0BC9C1001BD9C300CA6
:102B5000112481010A0F1B1F66246394712C6C0ED3
:102B60007D1E060D171DA80FB91FA956BF4DAC91AC
:102B7000B0E0AF51BB4DAC91DC2CCC2446018A0EA9
:102B8000911CD401A35FB94DFC90D801FC92CB56A7
:102B9000DF4F0881C559D040C953DF4FB881C75CAA
:102BA000D0400B2710E0C956DF4FA881C759D0404D
:102BB000AE27B0E0AD5BBF4DAC91B0E0B09E300150
:102BC000B19E700C11247301EA0EFB1E88248394BD
:102BD000912C8C0E9D1EE80CF91CA80FB91FA9564C
:102BE000BF4DAC91B0E0AF51BB4DAC91B02EAA241B
:102BF00085010A0F111DD801A35FB94D1C91D701A2
:102C00001C93CB56DF4F0881C559D040C853DF4FC6
:102C1000B881C85CD0400B27802E912CC053DF4F69
:102C200088829982C05DD040C956DF4FA881C759BC
:102C3000D040A527B0E0AD5BBF4DAC91B0E008E15E
:102C4000089D7001099DF00C112447018A0E9B1EFE
:102C500001E010E00C0F1D1F080D191DC753DF4FB9
:102C600008831983C95CD040A80FB91FA956BF4D6E
:102C7000AC91B0E0AF51BB4DAC91C053DF4F088178
:102C80001981C05DD040902E882484010A0F111D47
:102C9000D801A35FB94D1C91C753DF4FA881B981FB
:102CA000C95CD0401C93C856DF4FA881C859D0409A
:102CB000A227B0E0AD5BBF4DAC910A2F10E0C0532E
:102CC000DF4F08831983C05DD040040D151DA1E0BE
:102CD000B0E0AC0FBD1FA00FB11FC753DF4FA883DB
:102CE000B983C95CD040C053DF4FA881B981C05DB2
:102CF000D040A80FB91FA956BF4DAC91B0E0AF515D
:102D0000BB4DAC918B010A0F111DD801A35FB94DCA
:102D10001C91C753DF4FA881B981C95CD0401C9377
:102D2000C856DF4FA881C859D040AF27B0E0AD5B8F
:102D3000BF4DAC910A2F10E0C053DF4F08831983B9
:102D4000C05DD040020D131DA1E0B0E0AC0FBD1F6F
:102D5000A00FB11FC753DF4FA883B983C95CD04010
:102D6000C053DF4FA881B981C05DD040A80FB91F03
:102D7000A956BF4DAC91B0E0AF51BB4DAC918601AF
:102D80000A0F111DD801A35FB94D1C91C753DF4F26
:102D9000A881B981C95CD0401C93C856DF4FA88177
:102DA000C859D040AE27B0E0AD5BBF4DAC910A2F03
:102DB00010E0C053DF4F08831983C05DD040060D7B
:102DC000171DA1E0B0E0AC0FBD1FA00FB11FC7538E
:102DD000DF4FA883B983C95CD040C053DF4FA881BF
:102DE000B981C05DD040A80FB91FA956BF4DAC91A5
:102DF000B0E0AF51BB4DAC9185010A0F111DD80158
:102E0000A35FB94D1C91C753DF4FA881B981C95C3D
:102E1000D0401C93C856DF4FA881C859D040A52781
:102E2000B0E0AD5BBF4DAC910A2F10E0C053DF4F57
:102E300008831983C05DD0400E0D1F1DA1E0B0E0D6
:102E4000AC0FBD1FA00FB11FC753DF4FA883B983BD
:102E5000C95CD040C053DF4FA881B981C05DD0406C
:102E6000A80FB91FA956BF4DAC91B0E0AF51BB4DF3
:102E7000AC9184010A0F111DD801A35FB94D1C91BB
:102E8000C753DF4FA881B981C95CD0401C93C75696
:102E9000DF4FA881C959D040A227B0E0AD5BBF4D3C
:102EA000AC910A2F10E0C053DF4F08831983C05D37
:102EB000D040040D151DA1E0B0E0AC0FBD1FA00F68
:102EC000B11FC753DF4FA883B983C95CD040C0533B
:102ED000DF4FA881B981C05DD040A80FB91FA956A6
:102EE000BF4DAC91B0E0AF51BB4DAC918B010A0F1F
:102EF000111DD801A35FB94D1C91C753DF4FA881A5
:102F0000B981C95CD0401C93C756DF4FA881C9590D
:102F1000D040AF27B0E0AD5BBF4DAC910A2F10E0C1
:102F2000C053DF4F08831983C05DD040020D131DCD
:102F3000A1E0B0E0AC0FBD1FA00FB11FC753DF4F22
:102F4000A883B983C95CD040C053DF4FA881B98141
:102F5000C05DD040A80FB91FA956BF4DAC91B0E0DD
:102F6000AF51BB4DAC9186010A0F111DD801A35F73
:102F7000B94D1C91C753DF4FA881B981C95CD040BE
:102F80001C93C756DF4FA881C959D040AE27B0E087
:102F9000AD5BBF4DAC910A2F10E0C053DF4F0883EB
:102FA0001983C05DD040060D171DA1E0B0E0AC0F45
:102FB000BD1FA00FB11FC753DF4FA883B983C95CE2
:102FC000D040C053DF4FA881B981C05DD040A80F69
:102FD000B91FA956BF4DAC91B0E0AF51BB4DAC91FC
:102FE00085010A0F111DD801A35FB94D1C91C7536C
:102FF000DF4FA881B981C95CD0401C93C756DF4F11
:10300000A881C959D040A527B0E0AD5BBF4DAC91B8
:103010000A2F10E0C053DF4F08831983C05DD040F2
:103020000E0D1F1DA1E0B0E0AC0FBD1FA00FB11F22
:10303000C753DF4FA883B983C95CD040C053DF4F6B
:10304000A881B981C05DD040A80FB91FA956BF4D56
:10305000AC91B0E0AF51BB4DAC9184010A0F111D92
:10306000D801A35FB94D1C91C753DF4FA881B98127
:10307000C95CD0401C93C656DF4FA881CA59D040C6
:10308000A227B0E0AD5BBF4DAC910A2F10E0C0535A
:10309000DF4F08831983C05DD040040D151DA1E0EA
:1030A000B0E0AC0FBD1FA00FB11FC753DF4FA88307
:1030B000B983C95CD040C053DF4FA881B981C05DDE
:1030C000D040A80FB91FA956BF4DAC91B0E0AF5189
:1030D000BB4DAC918B010A0F111DD801A35FB94DF7
:1030E0001C91C753DF4FA881B981C95CD0401C93A4
:1030F000C656DF4FA881CA59D040AF27B0E0AD5BBC
:10310000BF4DAC910A2F10E0C053DF4F08831983E5
:10311000C05DD040020D131DA1E0B0E0AC0FBD1F9B
:10312000A00FB11FC753DF4FA883B983C95CD0403C
:10313000C053DF4FA881B981C05DD040A80FB91F2F
:10314000A956BF4DAC91B0E0AF51BB4DAC918601DB
:103150000A0F111DD801A35FB94D1C91C753DF4F52
:10316000A881B981C95CD0401C93C656DF4FA881A5
:10317000CA59D040AE27B0E0AD5BBF4DAC910A2F2D
:1031800010E0C053DF4F08831983C05DD040060DA7
:10319000171DA1E0B0E0AC0FBD1FA00FB11FC753BA
:1031A000DF4FA883B983C95CD040C053DF4FA881EB
:1031B000B981C05DD040A80FB91FA956BF4DAC91D1
:1031C000B0E0AF51BB4DAC9185010A0F111DD80184
:1031D000A35FB94D1C91C753DF4FA881B981C95C6A
:1031E000D0401C93C656DF4FA881CA59D040A527AE
:1031F000B0E0AD5BBF4DAC910A2F10E0C053DF4F84
:1032000008831983C05DD0400E0D1F1DA1E0B0E002
:10321000AC0FBD1FA00FB11FC753DF4FA883B983E9
:10322000C95CD040C053DF4FA881B981C05DD04098
:10323000A80FB91FA956BF4DAC91B0E0AF51BB4D1F
:10324000AC9184010A0F111DD801A35FB94D1C91E7
:10325000C753DF4FA881B981C95CD0401C93C556C4
:10326000DF4FA881CB59D040A227B0E0AD5BBF4D66
:10327000AC910A2F10E0C053DF4F08831983C05D63
:10328000D040040D151DA1E0B0E0AC0FBD1FA00F94
:10329000B11FC753DF4FA883B983C95CD040C05367
:1032A000DF4FA881B981C05DD040A80FB91FA956D2
:1032B000BF4DAC91B0E0AF51BB4DAC918B010A0F4B
:1032C000111DD801A35FB94D1C91C753DF4FA881D1
:1032D000B981C95CD0401C93C556DF4FA881CB593A
:1032E000D040AF27B0E0AD5BBF4DAC910A2F10E0EE
:1032F000C053DF4F08831983C05DD040020D131DFA
:10330000A1E0B0E0AC0FBD1FA00FB11FC753DF4F4E
:10331000A883B983C95CD040C053DF4FA881B9816D
:10332000C05DD040A80FB91FA956BF4DAC91B0E009
:10333000AF51BB4DAC9186010A0F111DD801A35F9F
:10334000B94D1C91C753DF4FA881B981C95CD040EA
:103350001C93C556DF4FA881CB59D040AE27B0E0B3
:10336000AD5BBF4DAC910A2F10E0C053DF4F088317
:103370001983C05DD040060D171DA1E0B0E0AC0F71
:10338000BD1FA00FB11FC753DF4FA883B983C95C0E
:10339000D040C053DF4FA881B981C05DD040A80F95
:1033A000B91FA956BF4DAC91B0E0AF51BB4DAC9128
:1033B00085010A0F111DD801A35FB94D1C91C75398
:1033C000DF4FA881B981C95CD0401C93C556DF4F3F
:1033D000A881CB59D040A527B0E0AD5BBF4DAC91E3
:1033E0000A2F10E0C053DF4F08831983C05DD0401F
:1033F0000E0D1F1DA1E0B0E0AC0FBD1FA00FB11F4F
:10340000C753DF4FA883B983C95CD040C053DF4F97
:10341000A881B981C05DD040A80FB91FA956BF4D82
:10342000AC91B0E0AF51BB4DAC9184010A0F111DBE
:10343000D801A35FB94D1C91C753DF4FA881B98153
:10344000C95CD0401C93C456DF4FA881CC59D040F2
:10345000A227B0E0AD5BBF4DAC910A2F10E0C05386
:10346000DF4F08831983C05DD040040D151DA1E016
:10347000B0E0AC0FBD1FA00FB11FC753DF4FA88333
:10348000B983C95CD040C053DF4FA881B981C05D0A
:10349000D040A80FB91FA956BF4DAC91B0E0AF51B5
:1034A000BB4DAC918B010A0F111DD801A35FB94D23
:1034B0001C91C753DF4FA881B981C95CD0401C93D0
:1034C000C456DF4FA881CC59D040AF27B0E0AD5BE8
:1034D000BF4DAC910A2F10E0C053DF4F0883198312
:1034E000C05DD040020D131DA1E0B0E0AC0FBD1FC8
:1034F000A00FB11FC753DF4FA883B983C95CD04069
:10350000C053DF4FA881B981C05DD040A80FB91F5B
:10351000A956BF4DAC91B0E0AF51BB4DAC91860107
:103520000A0F111DD801A35FB94D1C91C753DF4F7E
:10353000A881B981C95CD0401C93C456DF4FA881D3
:10354000CC59D040AE27B0E0AD5BBF4DAC910A2F57
:1035500010E0C053DF4F08831983C05DD040060DD3
:10356000171DA1E0B0E0AC0FBD1FA00FB11FC753E6
:10357000DF4FA883B983C95CD040C053DF4FA88117
:10358000B981C05DD040A80FB91FA956BF4DAC91FD
:10359000B0E0AF51BB4DAC9185010A0F111DD801B0
:1035A000A35FB94D1C91C753DF4FA881B981C95C96
:1035B000D0401C93C456DF4FA881CC59D040A527DA
:1035C000B0E0AD5BBF4DAC910A2F10E0C053DF4FB0
:1035D00008831983C05DD0400E0D1F1DA1E0B0E02F
:1035E000AC0FBD1FA00FB11FC753DF4FA883B98316
:1035F000C95CD040C053DF4FA881B981C05DD040C5
:10360000A80FB91FA956BF4DAC91B0E0AF51BB4D4B
:10361000AC9184010A0F111DD801A35FB94D1C9113
:10362000C753DF4FA881B981C95CD0401C93C356F2
:10363000DF4FA881CD59D040A227B0E0AD5BBF4D90
:10364000AC910A2F10E0C053DF4F08831983C05D8F
:10365000D040040D151DA1E0B0E0AC0FBD1FA00FC0
:10366000B11FC753DF4FA883B983C95CD040C05393
:10367000DF4FA881B981C05DD040A80FB91FA956FE
:10368000BF4DAC91B0E0AF51BB4DAC918B010A0F77
:10369000111DD801A35FB94D1C91C753DF4FA881FD
:1036A000B981C95CD0401C93C356DF4FA881CD5966
:1036B000D040AF27B0E0AD5BBF4DAC910A2F10E01A
:1036C000C053DF4F08831983C05DD040020D131D26
:1036D000A1E0B0E0AC0FBD1FA00FB11FC753DF4F7B
:1036E000A883B983C95CD040C053DF4FA881B9819A
:1036F000C05DD040A80FB91FA956BF4DAC91B0E036
:10370000AF51BB4DAC9186010A0F111DD801A35FCB
:10371000B94D1C91C753DF4FA881B981C95CD04016
:103720001C93C356DF4FA881CD59D040AE27B0E0DF
:10373000AD5BBF4DAC910A2F10E0C053DF4F088343
:103740001983C05DD040060D171DA1E0B0E0AC0F9D
:10375000BD1FA00FB11FC753DF4FA883B983C95C3A
:10376000D040C053DF4FA881B981C05DD040A80FC1
:10377000B91FA956BF4DAC91B0E0AF51BB4DAC9154
:1037800085010A0F111DD801A35FB94D1C91C753C4
:10379000DF4FA881B981C95CD0401C93C356DF4F6D
:1037A000A881CD59D040A527B0E0AD5BBF4DAC910D
:1037B0000A2F10E0C053DF4F08831983C05DD0404B
:1037C0000E0D1F1DA1E0B0E0AC0FBD1FA00FB11F7B
:1037D000C753DF4FA883B983C95CD040C053DF4FC4
:1037E000A881B981C05DD040A80FB91FA956BF4DAF
:1037F000AC91B0E0AF51BB4DAC9184010A0F111DEB
:10380000D801A35FB94D1C91C753DF4FA881B9817F
:10381000C95CD0401C93C256DF4FA881CE59D0401E
:10382000A227B0E0AD5BBF4DAC910A2F10E0C053B2
:10383000DF4F08831983C05DD040040D151DA1E042
:10384000B0E0AC0FBD1FA00FB11FC753DF4FA8835F
:10385000B983C95CD040C053DF4FA881B981C05D36
:10386000D040A80FB91FA956BF4DAC91B0E0AF51E1
:10387000BB4DAC918B010A0F111DD801A35FB94D4F
:103880001C91C753DF4FA881B981C95CD0401C93FC
:10389000C256DF4FA881CE59D040AF27B0E0AD5B14
:1038A000BF4DAC910A2F10E0C053DF4F088319833E
:1038B000C05DD040020D131DA1E0B0E0AC0FBD1FF4
:1038C000A00FB11FC753DF4FA883B983C95CD04095
:1038D000C053DF4FA881B981C05DD040A80FB91F88
:1038E000A956BF4DAC91B0E0AF51BB4DAC91860134
:1038F0000A0F111DD801A35FB94D1C91C753DF4FAB
:10390000A881B981C95CD0401C93C256DF4FA88101
:10391000CE59D040AE27B0E0AD5BBF4DAC910A2F81
:1039200010E0C053DF4F08831983C05DD040060DFF
:10393000171DA1E0B0E0AC0FBD1FA00FB11FC75312
:10394000DF4FA883B983C95CD040C053DF4FA88143
:10395000B981C05DD040A80FB91FA956BF4DAC9129
:10396000B0E0AF51BB4DAC9185010A0F111DD801DC
:10397000A35FB94D1C91C753DF4FA881B981C95CC2
:10398000D0401C93C256DF4FA881CE59D040A52706
:10399000B0E0AD5BBF4DAC910A2F10E0C053DF4FDC
:1039A00008831983C05DD0400E0D1F1DA1E0B0E05B
:1039B000AC0FBD1FA00FB11FC753DF4FA883B98342
:1039C000C95CD040C053DF4FA881B981C05DD040F1
:1039D000A80FB91FA956BF4DAC91B0E0AF51BB4D78
:1039E000AC9184010A0F111DD801A35FB94D1C9140
:1039F000C753DF4FA881B981C95CD0401C93C15621
:103A0000DF4FA881CF59D040A227B0E0AD5BBF4DBA
:103A1000AC910A2F10E0C053DF4F08831983C05DBB
:103A2000D040040D151DA1E0B0E0AC0FBD1FA00FEC
:103A3000B11FC753DF4FA883B983C95CD040C053BF
:103A4000DF4FA881B981C05DD040A80FB91FA9562A
:103A5000BF4DAC91B0E0AF51BB4DAC918B010A0FA3
:103A6000111DD801A35FB94D1C91C753DF4FA88129
:103A7000B981C95CD0401C93C156DF4FA881CF5992
:103A8000D040AF27B0E0AD5BBF4DAC910A2F10E046
:103A9000C053DF4F08831983C05DD040020D131D52
:103AA000A1E0B0E0AC0FBD1FA00FB11FC753DF4FA7
:103AB000A883B983C95CD040C053DF4FA881B981C6
:103AC000C05DD040A80FB91FA956BF4DAC91B0E062
:103AD000AF51BB4DAC9186010A0F111DD801A35FF8
:103AE000B94D1C91C753DF4FA881B981C95CD04043
:103AF0001C93C156DF4FA881CF59D040AE27B0E00C
:103B0000AD5BBF4DAC910A2F10E0C053DF4F08836F
:103B10001983C05DD040060D171DA1E0B0E0AC0FC9
:103B2000BD1FA00FB11FC753DF4FA883B983C95C66
:103B3000D040C053DF4FA881B981C05DD040A80FED
:103B4000B91FA956BF4DAC91B0E0AF51BB4DAC9180
:103B500085010A0F111DD801A35FB94D1C91C753F0
:103B6000DF4FA881B981C95CD0401C93C156DF4F9B
:103B7000A881CF59D040A527B0E0AD5BBF4DAC9137
:103B80000A2F10E0C053DF4F08831983C05DD04077
:103B90000E0D1F1DA1E0B0E0AC0FBD1FA00FB11FA7
:103BA000C753DF4FA883B983C95CD040C053DF4FF0
:103BB000A881B981C05DD040A80FB91FA956BF4DDB
:103BC000AC91B0E0AF51BB4DAC9184010A0F111D17
:103BD000D801A35FB94D1C91C753DF4FA881B981AC
:103BE000C95CD0401C93C056DF4FA881C05AD0405A
:103BF000A227B0E0AD5BBF4DAC910A2F10E0C053DF
:103C0000DF4F08831983C05DD040040D151DA1E06E
:103C1000B0E0AC0FBD1FA00FB11FC753DF4FA8838B
:103C2000B983C95CD040C053DF4FA881B981C05D62
:103C3000D040A80FB91FA956BF4DAC91B0E0AF510D
:103C4000BB4DAC918B010A0F111DD801A35FB94D7B
:103C50001C91C753DF4FA881B981C95CD0401C9328
:103C6000C056DF4FA881C05AD040AF27B0E0AD5B4F
:103C7000BF4DAC910A2F10E0C053DF4F088319836A
:103C8000C05DD040020D131DA1E0B0E0AC0FBD1F20
:103C9000A00FB11FC753DF4FA883B983C95CD040C1
:103CA000C053DF4FA881B981C05DD040A80FB91FB4
:103CB000A956BF4DAC91B0E0AF51BB4DAC91860160
:103CC0000A0F111DD801A35FB94D1C91C753DF4FD7
:103CD000A881B981C95CD0401C93C056DF4FA88130
:103CE000C05AD040AE27B0E0AD5BBF4DAC910A2FBB
:103CF00010E0C053DF4F08831983C05DD040060D2C
:103D0000171DA1E0B0E0AC0FBD1FA00FB11FC7533E
:103D1000DF4FA883B983C95CD040C053DF4FA8816F
:103D2000B981C05DD040A80FB91FA956BF4DAC9155
:103D3000B0E0AF51BB4DAC9185010A0F111DD80108
:103D4000A35FB94D1C91C753DF4FA881B981C95CEE
:103D5000D0401C93C056DF4FA881C05AD040A52741
:103D6000B0E0AD5BBF4DAC910A2F10E0C053DF4F08
:103D700008831983C05DD0400E0D1F1DA1E0B0E087
:103D8000AC0FBD1FA00FB11FC753DF4FA883B9836E
:103D9000C95CD040C053DF4FA881B981C05DD0401D
:103DA000A80FB91FA956BF4DAC91B0E0AF51BB4DA4
:103DB000AC9184010A0F111DD801A35FB94D1C916C
:103DC000C753DF4FA881B981C95CD0401C93CF5540
:103DD000DF4FA881C15AD040A227B0E0AD5BBF4DF4
:103DE000AC910A2F10E0C053DF4F08831983C05DE8
:103DF000D040040D151DA1E0B0E0AC0FBD1FA00F19
:103E0000B11FC753DF4FA883B983C95CD040C053EB
:103E1000DF4FA881B981C05DD040A80FB91FA95656
:103E2000BF4DAC91B0E0AF51BB4DAC918B010A0FCF
:103E3000111DD801A35FB94D1C91C753DF4FA88155
:103E4000B981C95CD0401C93CF55DF4FA881C15ABE
:103E5000D040AF27B0E0AD5BBF4DAC910A2F10E072
:103E6000C053DF4F08831983C05DD040020D131D7E
:103E7000A1E0B0E0AC0FBD1FA00FB11FC753DF4FD3
:103E8000A883B983C95CD040C053DF4FA881B981F2
:103E9000C05DD040A80FB91FA956BF4DAC91B0E08E
:103EA000AF51BB4DAC9186010A0F111DD801A35F24
:103EB000B94D1C91C753DF4FA881B981C95CD0406F
:103EC0001C93CF55DF4FA881C15AD040AE27B0E038
:103ED000AD5BBF4DAC910A2F10E0C053DF4F08839C
:103EE0001983C05DD040060D171DA1E0B0E0AC0FF6
:103EF000BD1FA00FB11FC753DF4FA883B983C95C93
:103F0000D040C053DF4FA881B981C05DD040A80F19
:103F1000B91FA956BF4DAC91B0E0AF51BB4DAC91AC
:103F200085010A0F111DD801A35FB94D1C91C7531C
:103F3000DF4FA881B981C95CD0401C93CF55DF4FBA
:103F4000A881C15AD040A527B0E0AD5BBF4DAC9170
:103F50000A2F10E0C053DF4F08831983C05DD040A3
:103F60000E0D1F1DA1E0B0E0AC0FBD1FA00FB11FD3
:103F7000C753DF4FA883B983C95CD040C053DF4F1C
:103F8000A881B981C05DD040A80FB91FA956BF4D07
:103F9000AC91B0E0AF51BB4DAC9184010A0F111D43
:103FA000D801A35FB94D1C91C753DF4FA881B981D8
:103FB000C95CD0401C93CE55DF4FA881C25AD04077
:103FC000A227B0E0AD5BBF4DAC910A2F10E0C0530B
:103FD000DF4F08831983C05DD040040D151DA1E09B
:103FE000B0E0AC0FBD1FA00FB11FC753DF4FA883B8
:103FF000B983C95CD040C053DF4FA881B981C05D8F
:10400000D040A80FB91FA956BF4DAC91B0E0AF5139
:10401000BB4DAC918B010A0F111DD801A35FB94DA7
:104020001C91C753DF4FA881B981C95CD0401C9354
:10403000CE55DF4FA881C25AD040AF27B0E0AD5B6C
:10404000BF4DAC910A2F10E0C053DF4F0883198396
:10405000C05DD040020D131DA1E0B0E0AC0FBD1F4C
:10406000A00FB11FC753DF4FA883B983C95CD040ED
:10407000C053DF4FA881B981C05DD040A80FB91FE0
:10408000A956BF4DAC91B0E0AF51BB4DAC9186018C
:104090000A0F111DD801A35FB94D1C91C753DF4F03
:1040A000A881B981C95CD0401C93CE55DF4FA8814F
:1040B000C25AD040AE27B0E0AD5BBF4DAC910A2FE5
:1040C00010E0C053DF4F08831983C05DD040060D58
:1040D000171DA1E0B0E0AC0FBD1FA00FB11FC7536B
:1040E000DF4FA883B983C95CD040C053DF4FA8819C
:1040F000B981C05DD040A80FB91FA956BF4DAC9182
:10410000B0E0AF51BB4DAC9185010A0F111DD80134
:10411000A35FB94D1C91C753DF4FA881B981C95C1A
:10412000D0401C93CE55DF4FA881C25AD040A5275E
:10413000B0E0AD5BBF4DAC910A2F10E0C053DF4F34
:1041400008831983C05DD0400E0D1F1DA1E0B0E0B3
:10415000AC0FBD1FA00FB11FC753DF4FA883B9839A
:10416000C95CD040C053DF4FA881B981C05DD04049
:10417000A80FB91FA956BF4DAC91B0E0AF51BB4DD0
:10418000AC9184010A0F111DD801A35FB94D1C9198
:10419000C753DF4FA881B981C95CD0401C93CD556E
:1041A000DF4FA881C35AD040A227B0E0AD5BBF4D1E
:1041B000AC910A2F10E0C053DF4F08831983C05D14
:1041C000D040040D151DA1E0B0E0AC0FBD1FA00F45
:1041D000B11FC753DF4FA883B983C95CD040C05318
:1041E000DF4FA881B981C05DD040A80FB91FA95683
:1041F000BF4DAC91B0E0AF51BB4DAC918B010A0FFC
:10420000111DD801A35FB94D1C91C753DF4FA88181
:10421000B981C95CD0401C93CD55DF4FA881C35AEA
:10422000D040AF27B0E0AD5BBF4DAC910A2F10E09E
:10423000C053DF4F08831983C05DD040020D131DAA
:10424000A1E0B0E0AC0FBD1FA00FB11FC753DF4FFF
:10425000A883B983C95CD040C053DF4FA881B9811E
:10426000C05DD040A80FB91FA956BF4DAC91B0E0BA
:10427000AF51BB4DAC9186010A0F111DD801A35F50
:10428000B94D1C91C753DF4FA881B981C95CD0409B
:104290001C93CD55DF4FA881C35AD040AE27B0E064
:1042A000AD5BBF4DAC910A2F10E0C053DF4F0883C8
:1042B0001983C05DD040060D171DA1E0B0E0AC0F22
:1042C000BD1FA00FB11FC753DF4FA883B983C95CBF
:1042D000D040C053DF4FA881B981C05DD040A80F46
:1042E000B91FA956BF4DAC91B0E0AF51BB4DAC91D9
:1042F00085010A0F111DD801A35FB94D1C91C75349
:10430000DF4FA881B981C95CD0401C93CD55DF4FE8
:10431000A881C35AD040A527B0E0AD5BBF4DAC919A
:104320000A2F10E0C053DF4F08831983C05DD040CF
:104330000E0D1F1DA1E0B0E0AC0FBD1FA00FB11FFF
:10434000C753DF4FA883B983C95CD040C053DF4F48
:10435000A881B981C05DD040A80FB91FA956BF4D33
:10436000AC91B0E0AF51BB4DAC9184010A0F111D6F
:10437000D801A35FB94D1C91C753DF4FA881B98104
:10438000C95CD0401C93CC55DF4FA881C45AD040A3
:10439000A227B0E0AD5BBF4DAC910A2F10E0C05337
:1043A000DF4F08831983C05DD040040D151DA1E0C7
:1043B000B0E0AC0FBD1FA00FB11FC753DF4FA883E4
:1043C000B983C95CD040C053DF4FA881B981C05DBB
:1043D000D040A80FB91FA956BF4DAC91B0E0AF5166
:1043E000BB4DAC918B010A0F111DD801A35FB94DD4
:1043F0001C91C753DF4FA881B981C95CD0401C9381
:10440000CC55DF4FA881C45AD040AF27B0E0AD5B98
:10441000BF4DAC910A2F10E0C053DF4F08831983C2
:10442000C05DD040020D131DA1E0B0E0AC0FBD1F78
:10443000A00FB11FC753DF4FA883B983C95CD04019
:10444000C053DF4FA881B981C05DD040A80FB91F0C
:10445000A956BF4DAC91B0E0AF51BB4DAC918601B8
:104460000A0F111DD801A35FB94D1C91C753DF4F2F
:10447000A881B981C95CD0401C93CC55DF4FA8817D
:10448000C45AD040AE27B0E0AD5BBF4DAC910A2F0F
:1044900010E0C053DF4F08831983C05DD040060D84
:1044A000171DA1E0B0E0AC0FBD1FA00FB11FC75397
:1044B000DF4FA883B983C95CD040C053DF4FA881C8
:1044C000B981C05DD040A80FB91FA956BF4DAC91AE
:1044D000B0E0AF51BB4DAC9185010A0F111DD80161
:1044E000A35FB94D1C91C753DF4FA881B981C95C47
:1044F000D0401C93CC55DF4FA881C45AD040A5278B
:10450000B0E0AD5BBF4DAC910A2F10E0C053DF4F60
:1045100008831983C05DD0400E0D1F1DA1E0B0E0DF
:10452000AC0FBD1FA00FB11FC753DF4FA883B983C6
:10453000C95CD040C053DF4FA881B981C05DD04075
:10454000A80FB91FA956BF4DAC91B0E0AF51BB4DFC
:10455000AC9184010A0F111DD801A35FB94D1C91C4
:10456000C753DF4FA881B981C95CD0401C93CB559C
:10457000DF4FA881C55AD040A227B0E0AD5BBF4D48
:10458000AC910A2F10E0C053DF4F08831983C05D40
:10459000D040040D151DA1E0B0E0AC0FBD1FA00F71
:1045A000B11FC753DF4FA883B983C95CD040C05344
:1045B000DF4FA881B981C05DD040A80FB91FA956AF
:1045C000BF4DAC91B0E0AF51BB4DAC918B010A0F28
:1045D000111DD801A35FB94D1C91C753DF4FA881AE
:1045E000B981C95CD0401C93CB55DF4FA881C55A17
:1045F000D040AF27B0E0AD5BBF4DAC910A2F10E0CB
:10460000C053DF4F08831983C05DD040020D131DD6
:10461000A1E0B0E0AC0FBD1FA00FB11FC753DF4F2B
:10462000A883B983C95CD040C053DF4FA881B9814A
:10463000C05DD040A80FB91FA956BF4DAC91B0E0E6
:10464000AF51BB4DAC9186010A0F111DD801A35F7C
:10465000B94D1C91C753DF4FA881B981C95CD040C7
:104660001C93CB55DF4FA881C55AD040AE27B0E090
:10467000AD5BBF4DAC910A2F10E0C053DF4F0883F4
:104680001983C05DD040060D171DA1E0B0E0AC0F4E
:10469000BD1FA00FB11FC753DF4FA883B983C95CEB
:1046A000D040C053DF4FA881B981C05DD040A80F72
:1046B000B91FA956BF4DAC91B0E0AF51BB4DAC9105
:1046C00085010A0F111DD801A35FB94D1C91C75375
:1046D000DF4FA881B981C95CD0401C93CB55DF4F17
:1046E000A881C55AD040A527B0E0AD5BBF4DAC91C5
:1046F0000A2F10E0C053DF4F08831983C05DD040FC
:104700000E0D1F1DA1E0B0E0AC0FBD1FA00FB11F2B
:10471000C753DF4FA883B983C95CD040C053DF4F74
:10472000A881B981C05DD040A80FB91FA956BF4D5F
:10473000AC91B0E0AF51BB4DAC9184010A0F111D9B
:10474000D801A35FB94D1C91C753DF4FA881B98130
:10475000C95CD0401C93CA55DF4FA881C65AD040CF
:10476000A227B0E0AD5BBF4DAC910A2F10E0C05363
:10477000DF4F08831983C05DD040040D151DA1E0F3
:10478000B0E0AC0FBD1FA00FB11FC753DF4FA88310
:10479000B983C95CD040C053DF4FA881B981C05DE7
:1047A000D040A80FB91FA956BF4DAC91B0E0AF5192
:1047B000BB4DAC918B010A0F111DD801A35FB94D00
:1047C0001C91C753DF4FA881B981C95CD0401C93AD
:1047D000CA55DF4FA881C65AD040AF27B0E0AD5BC5
:1047E000BF4DAC910A2F10E0C053DF4F08831983EF
:1047F000C05DD040020D131DA1E0B0E0AC0FBD1FA5
:10480000A00FB11FC753DF4FA883B983C95CD04045
:10481000C053DF4FA881B981C05DD040A80FB91F38
:10482000A956BF4DAC91B0E0AF51BB4DAC918601E4
:104830000A0F111DD801A35FB94D1C91C753DF4F5B
:10484000A881B981C95CD0401C93CA55DF4FA881AB
:10485000C65AD040AE27B0E0AD5BBF4DAC910A2F39
:1048600010E0C053DF4F08831983C05DD040060DB0
:10487000171DA1E0B0E0AC0FBD1FA00FB11FC753C3
:10488000DF4FA883B983C95CD040C053DF4FA881F4
:10489000B981C05DD040A80FB91FA956BF4DAC91DA
:1048A000B0E0AF51BB4DAC9185010A0F111DD8018D
:1048B000A35FB94D1C91C753DF4FA881B981C95C73
:1048C000D0401C93CA55DF4FA881C65AD040A527B7
:1048D000B0E0AD5BBF4DAC910A2F10E0C053DF4F8D
:1048E00008831983C05DD0400E0D1F1DA1E0B0E00C
:1048F000AC0FBD1FA00FB11FC753DF4FA883B983F3
:10490000C95CD040C053DF4FA881B981C05DD040A1
:10491000A80FB91FA956BF4DAC91B0E0AF51BB4D28
:10492000AC9184010A0F111DD801A35FB94D1C91F0
:10493000C753DF4FA881B981C95CD0401C93C955CA
:10494000DF4FA881C75AD040A227B0E0AD5BBF4D72
:10495000AC910A2F10E0C053DF4F08831983C05D6C
:10496000D040040D151DA1E0B0E0AC0FBD1FA00F9D
:10497000B11FC753DF4FA883B983C95CD040C05370
:10498000DF4FA881B981C05DD040A80FB91FA956DB
:10499000BF4DAC91B0E0AF51BB4DAC918B010A0F54
:1049A000111DD801A35FB94D1C91C753DF4FA881DA
:1049B000B981C95CD0401C93C955DF4FA881C75A43
:1049C000D040AF27B0E0AD5BBF4DAC910A2F10E0F7
:1049D000C053DF4F08831983C05DD040020D131D03
:1049E000A1E0B0E0AC0FBD1FA00FB11FC753DF4F58
:1049F000A883B983C95CD040C053DF4FA881B98177
:104A0000C05DD040A80FB91FA956BF4DAC91B0E012
:104A1000AF51BB4DAC9186010A0F111DD801A35FA8
:104A2000B94D1C91C753DF4FA881B981C95CD040F3
:104A30001C93C955DF4FA881C75AD040AE27B0E0BC
:104A4000AD5BBF4DAC910A2F10E0C053DF4F088320
:104A50001983C05DD040060D171DA1E0B0E0AC0F7A
:104A6000BD1FA00FB11FC753DF4FA883B983C95C17
:104A7000D040C053DF4FA881B981C05DD040A80F9E
:104A8000B91FA956BF4DAC91B0E0AF51BB4DAC9131
:104A900085010A0F111DD801A35FB94D1C91C753A1
:104AA000DF4FA881B981C95CD0401C93C955DF4F45
:104AB000A881C75AD040A527B0E0AD5BBF4DAC91EF
:104AC0000A2F10E0C053DF4F08831983C05DD04028
:104AD0000E0D1F1DA1E0B0E0AC0FBD1FA00FB11F58
:104AE000C753DF4FA883B983C95CD040C053DF4FA1
:104AF000A881B981C05DD040A80FB91FA956BF4D8C
:104B0000AC91B0E0AF51BB4DAC9184010A0F111DC7
:104B1000D801A35FB94D1C91C753DF4FA881B9815C
:104B2000C95CD0401C93C855DF4FA881C85AD040FB
:104B3000A227B0E0AD5BBF4DAC910A2F10E0C0538F
:104B4000DF4F08831983C05DD040040D151DA1E01F
:104B5000B0E0AC0FBD1FA00FB11FC753DF4FA8833C
:104B6000B983C95CD040C053DF4FA881B981C05D13
:104B7000D040A80FB91FA956BF4DAC91B0E0AF51BE
:104B8000BB4DAC918B010A0F111DD801A35FB94D2C
:104B90001C91C753DF4FA881B981C95CD0401C93D9
:104BA000C855DF4FA881C85AD040AF27B0E0AD5BF1
:104BB000BF4DAC910A2F10E0C053DF4F088319831B
:104BC000C05DD040020D131DA1E0B0E0AC0FBD1FD1
:104BD000A00FB11FC753DF4FA883B983C95CD04072
:104BE000C053DF4FA881B981C05DD040A80FB91F65
:104BF000A956BF4DAC91B0E0AF51BB4DAC91860111
:104C00000A0F111DD801A35FB94D1C91C753DF4F87
:104C1000A881B981C95CD0401C93C855DF4FA881D9
:104C2000C85AD040AE27B0E0AD5BBF4DAC910A2F63
:104C300010E0C053DF4F08831983C05DD040060DDC
:104C4000171DA1E0B0E0AC0FBD1FA00FB11FC753EF
:104C5000DF4FA883B983C95CD040C053DF4FA88120
:104C6000B981C05DD040A80FB91FA956BF4DAC9106
:104C7000B0E0AF51BB4DAC9185010A0F111DD801B9
:104C8000A35FB94D1C91C753DF4FA881B981C95C9F
:104C9000D0401C93C855DF4FA881C85AD040A527E3
:104CA000B0E0AD5BBF4DAC910A2F10E0C053DF4FB9
:104CB00008831983C05DD0400E0D1F1DA1E0B0E038
:104CC000AC0FBD1FA00FB11FC753DF4FA883B9831F
:104CD000C95CD040C053DF4FA881B981C05DD040CE
:104CE000A80FB91FA956BF4DAC91B0E0AF51BB4D55
:104CF000AC9184010A0F111DD801A35FB94D1C911D
:104D0000C753DF4FA881B981C95CD0401C93C755F8
:104D1000DF4FA881C95AD040A227B0E0AD5BBF4D9C
:104D2000AC910A2F10E0C053DF4F08831983C05D98
:104D3000D040040D151DA1E0B0E0AC0FBD1FA00FC9
:104D4000B11FC753DF4FA883B983C95CD040C0539C
:104D5000DF4FA881B981C05DD040A80FB91FA95607
:104D6000BF4DAC91B0E0AF51BB4DAC918B010A0F80
:104D7000111DD801A35FB94D1C91C753DF4FA88106
:104D8000B981C95CD0401C93C755DF4FA881C95A6F
:104D9000D040AF27B0E0AD5BBF4DAC910A2F10E023
:104DA000C053DF4F08831983C05DD040020D131D2F
:104DB000A1E0B0E0AC0FBD1FA00FB11FC753DF4F84
:104DC000A883B983C95CD040C053DF4FA881B981A3
:104DD000C05DD040A80FB91FA956BF4DAC91B0E03F
:104DE000AF51BB4DAC9186010A0F111DD801A35FD5
:104DF000B94D1C91C753DF4FA881B981C95CD04020
:104E00001C93C755DF4FA881C95AD040AE27B0E0E8
:104E1000AD5BBF4DAC910A2F10E0C053DF4F08834C
:104E20001983C05DD040060D171DA1E0B0E0AC0FA6
:104E3000BD1FA00FB11FC753DF4FA883B983C95C43
:104E4000D040C053DF4FA881B981C05DD040A80FCA
:104E5000B91FA956BF4DAC91B0E0AF51BB4DAC915D
:104E600085010A0F111DD801A35FB94D1C91C753CD
:104E7000DF4FA881B981C95CD0401C93C755DF4F73
:104E8000A881C95AD040A527B0E0AD5BBF4DAC9119
:104E90000A2F10E0C053DF4F08831983C05DD04054
:104EA0000E0D1F1DA1E0B0E0AC0FBD1FA00FB11F84
:104EB000C753DF4FA883B983C95CD040C053DF4FCD
:104EC000A881B981C05DD040A80FB91FA956BF4DB8
:104ED000AC91B0E0AF51BB4DAC9184010A0F111DF4
:104EE000D801A35FB94D1C91C753DF4FA881B98189
:104EF000C95CD0401C93C655DF4FA881CA5AD04028
:104F0000A227B0E0AD5BBF4DAC910A2F10E0C053BB
:104F1000DF4F08831983C05DD040040D151DA1E04B
:104F2000B0E0AC0FBD1FA00FB11FC753DF4FA88368
:104F3000B983C95CD040C053DF4FA881B981C05D3F
:104F4000D040A80FB91FA956BF4DAC91B0E0AF51EA
:104F5000BB4DAC918B010A0F111DD801A35FB94D58
:104F60001C91C753DF4FA881B981C95CD0401C9305
:104F7000C655DF4FA881CA5AD040AF27B0E0AD5B1D
:104F8000BF4DAC910A2F10E0C053DF4F0883198347
:104F9000C05DD040020D131DA1E0B0E0AC0FBD1FFD
:104FA000A00FB11FC753DF4FA883B983C95CD0409E
:104FB000C053DF4FA881B981C05DD040A80FB91F91
:104FC000A956BF4DAC91B0E0AF51BB4DAC9186013D
:104FD0000A0F111DD801A35FB94D1C91C753DF4FB4
:104FE000A881B981C95CD0401C93C655DF4FA88108
:104FF000CA5AD040AE27B0E0AD5BBF4DAC910A2F8E
:1050000010E0C053DF4F08831983C05DD040060D08
:10501000171DA1E0B0E0AC0FBD1FA00FB11FC7531B
:10502000DF4FA883B983C95CD040C053DF4FA8814C
:10503000B981C05DD040A80FB91FA956BF4DAC9132
:10504000B0E0AF51BB4DAC9185010A0F111DD801E5
:10505000A35FB94D1C91C753DF4FA881B981C95CCB
:10506000D0401C93C655DF4FA881CA5AD040A5270F
:10507000B0E0AD5BBF4DAC910A2F10E0C053DF4FE5
:1050800008831983C05DD0400E0D1F1DA1E0B0E064
:10509000AC0FBD1FA00FB11FC753DF4FA883B9834B
:1050A000C95CD040C053DF4FA881B981C05DD040FA
:1050B000A80FB91FA956BF4DAC91B0E0AF51BB4D81
:1050C000AC9184010A0F111DD801A35FB94D1C9149
:1050D000C753DF4FA881B981C95CD0401C93C55527
:1050E000DF4FA881CB5AD040A227B0E0AD5BBF4DC7
:1050F000AC910A2F10E0C053DF4F08831983C05DC5
:10510000D040040D151DA1E0B0E0AC0FBD1FA00FF5
:10511000B11FC753DF4FA883B983C95CD040C053C8
:10512000DF4FA881B981C05DD040A80FB91FA95633
:10513000BF4DAC91B0E0AF51BB4DAC918B010A0FAC
:10514000111DD801A35FB94D1C91C753DF4FA88132
:10515000B981C95CD0401C93C555DF4FA881CB5A9B
:10516000D040AF27B0E0AD5BBF4DAC910A2F10E04F
:10517000C053DF4F08831983C05DD040020D131D5B
:10518000A1E0B0E0AC0FBD1FA00FB11FC753DF4FB0
:10519000A883B983C95CD040C053DF4FA881B981CF
:1051A000C05DD040A80FB91FA956BF4DAC91B0E06B
:1051B000AF51BB4DAC9186010A0F111DD801A35F01
:1051C000B94D1C91C753DF4FA881B981C95CD0404C
:1051D0001C93C555DF4FA881CB5AD040AE27B0E015
:1051E000AD5BBF4DAC910A2F10E0C053DF4F088379
:1051F0001983C05DD040060D171DA1E0B0E0AC0FD3
:10520000BD1FA00FB11FC753DF4FA883B983C95C6F
:10521000D040C053DF4FA881B981C05DD040A80FF6
:10522000B91FA956BF4DAC91B0E0AF51BB4DAC9189
:1052300085010A0F111DD801A35FB94D1C91C753F9
:10524000DF4FA881B981C95CD0401C93C555DF4FA1
:10525000A881CB5AD040A527B0E0AD5BBF4DAC9143
:105260000A2F10E0C053DF4F08831983C05DD04080
:105270000E0D1F1DA1E0B0E0AC0FBD1FA00FB11FB0
:10528000C753DF4FA883B983C95CD040C053DF4FF9
:10529000A881B981C05DD040A80FB91FA956BF4DE4
:1052A000AC91B0E0AF51BB4DAC9184010A0F111D20
:1052B000D801A35FB94D1C91C753DF4FA881B981B5
:1052C000C95CD0401C93C455DF4FA881CC5AD04054
:1052D000A227B0E0AD5BBF4DAC910A2F10E0C053E8
:1052E000DF4F08831983C05DD040040D151DA1E078
:1052F000B0E0AC0FBD1FA00FB11FC753DF4FA88395
:10530000B983C95CD040C053DF4FA881B981C05D6B
:10531000D040A80FB91FA956BF4DAC91B0E0AF5116
:10532000BB4DAC918B010A0F111DD801A35FB94D84
:105330001C91C753DF4FA881B981C95CD0401C9331
:10534000C455DF4FA881CC5AD040AF27B0E0AD5B49
:10535000BF4DAC910A2F10E0C053DF4F0883198373
:10536000C05DD040020D131DA1E0B0E0AC0FBD1F29
:10537000A00FB11FC753DF4FA883B983C95CD040CA
:10538000C053DF4FA881B981C05DD040A80FB91FBD
:10539000A956BF4DAC91B0E0AF51BB4DAC91860169
:1053A0000A0F111DD801A35FB94D1C91C753DF4FE0
:1053B000A881B981C95CD0401C93C455DF4FA88136
:1053C000CC5AD040AE27B0E0AD5BBF4DAC910A2FB8
:1053D00010E0C053DF4F08831983C05DD040060D35
:1053E000171DA1E0B0E0AC0FBD1FA00FB11FC75348
:1053F000DF4FA883B983C95CD040C053DF4FA88179
:10540000B981C05DD040A80FB91FA956BF4DAC915E
:10541000B0E0AF51BB4DAC9185010A0F111DD80111
:10542000A35FB94D1C91C753DF4FA881B981C95CF7
:10543000D0401C93C455DF4FA881CC5AD040A5273B
:10544000B0E0AD5BBF4DAC910A2F10E0C053DF4F11
:1054500008831983C05DD0400E0D1F1DA1E0B0E090
:10546000AC0FBD1FA00FB11FC753DF4FA883B98377
:10547000C95CD040C053DF4FA881B981C05DD04026
:10548000A80FB91FA956BF4DAC91B0E0AF51BB4DAD
:10549000AC9184010A0F111DD801A35FB94D1C9175
:1054A000C753DF4FA881B981C95CD0401C93C35555
:1054B000DF4FA881CD5AD040A227B0E0AD5BBF4DF1
:1054C000AC910A2F10E0C053DF4F08831983C05DF1
:1054D000D040040D151DA1E0B0E0AC0FBD1FA00F22
:1054E000B11FC753DF4FA883B983C95CD040C053F5
:1054F000DF4FA881B981C05DD040A80FB91FA95660
:10550000BF4DAC91B0E0AF51BB4DAC918B010A0FD8
:10551000111DD801A35FB94D1C91C753DF4FA8815E
:10552000B981C95CD0401C93C355DF4FA881CD5AC7
:10553000D040AF27B0E0AD5BBF4DAC910A2F10E07B
:10554000C053DF4F08831983C05DD040020D131D87
:10555000A1E0B0E0AC0FBD1FA00FB11FC753DF4FDC
:10556000A883B983C95CD040C053DF4FA881B981FB
:10557000C05DD040A80FB91FA956BF4DAC91B0E097
:10558000AF51BB4DAC9186010A0F111DD801A35F2D
:10559000B94D1C91C753DF4FA881B981C95CD04078
:1055A0001C93C355DF4FA881CD5AD040AE27B0E041
:1055B000AD5BBF4DAC910A2F10E0C053DF4F0883A5
:1055C0001983C05DD040060D171DA1E0B0E0AC0FFF
:1055D000BD1FA00FB11FC753DF4FA883B983C95C9C
:1055E000D040C053DF4FA881B981C05DD040A80F23
:1055F000B91FA956BF4DAC91B0E0AF51BB4DAC91B6
:1056000085010A0F111DD801A35FB94D1C91C75325
:10561000DF4FA881B981C95CD0401C93C355DF4FCF
:10562000A881CD5AD040A527B0E0AD5BBF4DAC916D
:105630000A2F10E0C053DF4F08831983C05DD040AC
:105640000E0D1F1DA1E0B0E0AC0FBD1FA00FB11FDC
:10565000C753DF4FA883B983C95CD040C053DF4F25
:10566000A881B981C05DD040A80FB91FA956BF4D10
:10567000AC91B0E0AF51BB4DAC9184010A0F111D4C
:10568000D801A35FB94D1C91C753DF4FA881B981E1
:10569000C95CD0401C93C255DF4FA881CE5AD04080
:1056A000A227B0E0AD5BBF4DAC910A2F10E0C05314
:1056B000DF4F08831983C05DD040040D151DA1E0A4
:1056C000B0E0AC0FBD1FA00FB11FC753DF4FA883C1
:1056D000B983C95CD040C053DF4FA881B981C05D98
:1056E000D040A80FB91FA956BF4DAC91B0E0AF5143
:1056F000BB4DAC918B010A0F111DD801A35FB94DB1
:105700001C91C753DF4FA881B981C95CD0401C935D
:10571000C255DF4FA881CE5AD040AF27B0E0AD5B75
:10572000BF4DAC910A2F10E0C053DF4F088319839F
:10573000C05DD040020D131DA1E0B0E0AC0FBD1F55
:10574000A00FB11FC753DF4FA883B983C95CD040F6
:10575000C053DF4FA881B981C05DD040A80FB91FE9
:10576000A956BF4DAC91B0E0AF51BB4DAC91860195
:105770000A0F111DD801A35FB94D1C91C753DF4F0C
:10578000A881B981C95CD0401C93C255DF4FA88164
:10579000CE5AD040AE27B0E0AD5BBF4DAC910A2FE2
:1057A00010E0C053DF4F08831983C05DD040060D61
:1057B000171DA1E0B0E0AC0FBD1FA00FB11FC75374
:1057C000DF4FA883B983C95CD040C053DF4FA881A5
:1057D000B981C05DD040A80FB91FA956BF4DAC918B
:1057E000B0E0AF51BB4DAC9185010A0F111DD8013E
:1057F000A35FB94D1C91C753DF4FA881B981C95C24
:10580000D0401C93C255DF4FA881CE5AD040A52767
:10581000B0E0AD5BBF4DAC910A2F10E0C053DF4F3D
:1058200008831983C05DD0400E0D1F1DA1E0B0E0BC
:10583000AC0FBD1FA00FB11FC753DF4FA883B983A3
:10584000C95CD040C053DF4FA881B981C05DD04052
:10585000A80FB91FA956BF4DAC91B0E0AF51BB4DD9
:10586000AC9184010A0F111DD801A35FB94D1C91A1
:10587000C753DF4FA881B981C95CD0401C93C15583
:10588000DF4FA881CF5AD040A227B0E0AD5BBF4D1B
:10589000AC910A2F10E0C053DF4F08831983C05D1D
:1058A000D040040D151DA1E0B0E0AC0FBD1FA00F4E
:1058B000B11FC753DF4FA883B983C95CD040C05321
:1058C000DF4FA881B981C05DD040A80FB91FA9568C
:1058D000BF4DAC91B0E0AF51BB4DAC918B010A0F05
:1058E000111DD801A35FB94D1C91C753DF4FA8818B
:1058F000B981C95CD0401C93C155DF4FA881CF5AF4
:10590000D040AF27B0E0AD5BBF4DAC910A2F10E0A7
:10591000C053DF4F08831983C05DD040020D131DB3
:10592000A1E0B0E0AC0FBD1FA00FB11FC753DF4F08
:10593000A883B983C95CD040C053DF4FA881B98127
:10594000C05DD040A80FB91FA956BF4DAC91B0E0C3
:10595000AF51BB4DAC9186010A0F111DD801A35F59
:10596000B94D1C91C753DF4FA881B981C95CD040A4
:105970001C93C155DF4FA881CF5AD040AE27B0E06D
:10598000AD5BBF4DAC910A2F10E0C053DF4F0883D1
:105990001983C05DD040060D171DA1E0B0E0AC0F2B
:1059A000BD1FA00FB11FC753DF4FA883B983C95CC8
:1059B000D040C053DF4FA881B981C05DD040A80F4F
:1059C000B91FA956BF4DAC91B0E0AF51BB4DAC91E2
:1059D00085010A0F111DD801A35FB94D1C91C75352
:1059E000DF4FA881B981C95CD0401C93C155DF4FFE
:1059F000A881CF5AD040A527B0E0AD5BBF4DAC9198
:105A00000A2F10E0C053DF4F08831983C05DD040D8
:105A10000E0D1F1DA1E0B0E0AC0FBD1FA00FB11F08
:105A2000C753DF4FA883B983C95CD040C053DF4F51
:105A3000A881B981C05DD040A80FB91FA956BF4D3C
:105A4000AC91B0E0AF51BB4DAC9184010A0F111D78
:105A5000D801A35FB94D1C91C753DF4FA881B9810D
:105A6000C95CD0401C93C055DF4FA881C05BD040BB
:105A7000A227B0E0AD5BBF4DAC910A2F10E0C05340
:105A8000DF4F08831983C05DD040040D151DA1E0D0
:105A9000B0E0AC0FBD1FA00FB11FC753DF4FA883ED
:105AA000B983C95CD040C053DF4FA881B981C05DC4
:105AB000D040A80FB91FA956BF4DAC91B0E0AF516F
:105AC000BB4DAC918B010A0F111DD801A35FB94DDD
:105AD0001C91C753DF4FA881B981C95CD0401C938A
