:100000000C94F9000C941A010C941A010C941A0126
:100010000C941A010C941A010C941A010C941A01F4
:100020000C941A010C941A010C941A010C941A01E4
:100030000C941A010C941A010C941A010C941A01D4
:100040000C941A010C941A010C941A010C941A01C4
:100050000C941A010C941A010C941A010C941A01B4
:100060000C941A010C941A010C941A010C941A01A4
:100070000C941A010C941A010C941A010C941A0194
:100080000C941A010C941A010C941A010C941A0184
:100090000C941A010C941A010C941A010C941A0174
:1000A0000C941A010C941A010C941A010C941A0164
:1000B0000C941A010C941A010C941A010C941A0154
:1000C0000C941A010C941A010C941A010C941A0144
:1000D0000C941A010C941A010C941A010C941A0134
:1000E0000C941A010C941A010C941A010C941A0124
:1000F0000C941A010C941A010C941A010C941A0114
:100100000C941A010C941A010C941A010C941A0103
:100110000C941A010C941A010C941A010C941A01F3
:100120000C941A010C941A010C941A010C941A01E3
:100130000C941A010C941A010C941A010C941A01D3
:100140000C941A010C941A010C941A010C941A01C3
:100150000C941A010C941A010C941A010C941A01B3
:100160000C941A010C941A010C941A010C941A01A3
:100170000C941A010C941A010C941A010C941A0193
:100180000C941A010C941A010C941A010C941A0183
:100190000C941A010C941A010C941A010C941A0173
:1001A0000C941A010C941A010C941A010C941A0163
:1001B0000C941A010C941A010C941A010C941A0153
:1001C0000C941A010C941A01DA44DE44E244E64429
:1001D000EA44EE44F2440C94F2440C94EA440C9445
:1001E000E6440C94E2440C94EE440C94DA440C94EF
:1001F000DE4411241FBECFEFDFE3DEBFCDBF00E042
:100200000CBF14E2A0E0B0E2EEEFFFE800E00BBFAD
:1002100002C007900D92A232B107D9F719E2A2E20B
:10022000B4E201C01D92A83CB107E1F70E94354637
:100230000C94FD470C940000CF93DF93C42FD52F6F
:10024000A0E0B0E0A617B707F0F4FC01EA0FFB1F2F
:1002500020812A3328F0206230E02755310903C07D
:1002600030E020533109E181EA3328F0E062F0E028
:10027000E755F10902C0F0E0F0972295207FE22BCC
:10028000E9931296DFCFCA01DF91CF9108951F93B2
:10029000CF93DF93DA0111969C01260F371F821747
:1002A0009307B9F0EC01FC011191CF01E12FE29528
:1002B000EF70F0E0E050F04E1081FD0131971083B7
:1002C000E881EF70F0E0E050F04EE081EC931296A0
:1002D000E6CF660F771FFA01E60FF71F1082DF9156
:1002E000CF911F910895E0E4F6E088E0818384E0F7
:1002F0008283E0EAF8E083E085838BE086831782DF
:100300008481806184838481886084830895CF930D
:10031000DF931F921F92CDB7DEB769837A8320E007
:1003200030E049815A812417350769F04091A108CE
:1003300047FF06C02091A008FC01208381E004C093
:100340002F5F3F4FEECF80E00F900F90DF91CF9166
:1003500008958091A10887FFFCCF8091A00808959F
:100360009091A10895FFFCCF8093A0080895FC010F
:1003700060837183428314861386168615860895DA
:10038000FC0162830895FC01958526859F5F93702B
:1003900081E0921301C080E008950F931F93CF93E3
:1003A000DF931F92CDB7DEB78C0169830E94C30132
:1003B00069818823A9F0D8011D969C911D97F801A9
:1003C000E90FF11D67839F5F9370F8019587019096
:1003D000F081E02D93819C7F12962C91922B938338
:1003E0000F90DF91CF911F910F910895FC0123850C
:1003F000948581E0291301C080E00895FC01848583
:10040000DF01A80FB11D13968C9194859F5F9370A7
:1004100094870895FC0183858F5F83702485A08174
:10042000B1819C91821749F02385DF01A20FB11D94
:1004300013969C93838781E0089580E00895CF937D
:10044000DF93FC0186859585A081B181981307C053
:1004500013968C9113978C7F13968C930AC0868584
:10046000EF01C80FD11D8F818C9386858F5F8370BC
:100470008687DF91CF910895FC01848170FF02C0CF
:10048000816001C08E7F848360830895FC01848134
:1004900080FF04C0808190E091600895808190E0A9
:1004A000089510925200109255008091500088607B
:1004B000809350008091510083FFFCCF88ED84BF72
:1004C00083E08093400088E08093500080E6809332
:1004D0000106809305060895DF92EF92FF920F9335
:1004E0001F93CF93DF93FC019B01205F3F4FDC0103
:1004F000EB014991BE014D93C217D307C9F7BC0167
:10050000635F7F4F08E110E2AC01425F5F4F9C01E7
:10051000215F3F4FDC011C9681E0E801E9908E01EC
:100520009081E926EB019881C92FD0E0CE5DDC4DAA
:100530009881E926E08AEA019881C92FD0E0CE5D52
:10054000DC4DF8809181F926F18AE9019881C92F63
:10055000D0E0CE5DDC4DD8819281DD2ED926D28AC5
:10056000CC91D0E0CE5DDC4DC88193819C27938BEC
:10057000C481EC26E48AC581FC26F58AC681DD2D7E
:10058000DC27D68BC7819C27978BC085EC26E08E15
:10059000C185FC26F18EC285DD2EDC26D28EC38578
:1005A0009C27938FCC91EC26E48EEB01E880FE240F
:1005B000F58EEA01F880DD2DDF25D68FE901F88080
:1005C0009F25978F8F5F605F7F4F7096405F5F4F73
:1005D000205F3F4F50968B3009F09FCFDF91CF9136
:1005E0001F910F91FF90EF90DF9008953091C629F1
:1005F00035FB222720F9432F4295469546954270B8
:10060000422734FB222720F92427E4E03E9FA00163
:100610001124422B4093C62950E04E70242F30E025
:1006200041E0450FE52FF0E0E217F30714F4542FF3
:10063000F7CF5093A429DB01FC01AC01405F5F4F71
:100640008D919081892781939091C62995FB882768
:1006500080F9292F2295269526952270282794FB2C
:10066000882780F9822764E0969F90011124282B27
:100670002093C62930E02E70822F90E021E0230FD6
:10068000632F70E06817790714F4322FF7CF309397
:10069000A429E417F507A1F608953091C62935FB82
:1006A000222720F9432F42954695469542704227CE
:1006B00034FB222720F92427E4E03E9FA0011124E7
:1006C000422B4093C62950E04E70242F30E041E089
:1006D000450FE52FF0E0E217F30714F4542FF7CF9E
:1006E0005093A4296130710599F5FC01AC01405F7C
:1006F0005F4FA081B0E0AE5DB84D8C918193909139
:10070000C62995FB882780F9292F229526952695BD
:100710002270282794FB882780F9822764E0969F1F
:1007200090011124282B2093C62930E02E70822FAF
:1007300090E021E0230F632F70E06817790714F42D
:10074000322FF7CF3093A429E417F50791F60895D7
:1007500062307105D9F5DC01AC01405F5F4FEC916F
:100760008E2F8F70E295EF7090E1E99FF0011124D8
:10077000E80FF11DEE5DF94D80818D939091C629B2
:1007800095FB882780F9292F22952695269522709A
:10079000282794FB882780F98227E4E09E9F900118
:1007A0001124282B2093C62930E02E70822F90E050
:1007B00021E0230F632F70E06817790714F4322FBC
:1007C000F7CF3093A429A417B50749F60895FC0183
:1007D0009091C62995FB662760F9292F22952695C9
:1007E00026952270262794FB662760F9622784E00D
:1007F000989F90011124262B30E0822F8E7090E07C
:10080000432F50E03F5F48175907D4F3818195810A
:1008100091839185958395859187858725FB4427CD
:1008200040F9622F6295669566956270642724FB95
:10083000442740F9462784E0289FB0011124642B07
:1008400020E0862F8E7090E0422F50E02F5F4817F7
:100850005907D4F382819285928382878681968517
:100860009683868765FB222720F9462F4295469579
:1008700046954270422764FB222720F9242784E012
:10088000689FA0011124422B4093C62980E04E703E
:10089000242F30E091E0980F482F50E04217530783
:1008A00014F4892FF7CF8093A429838197859383AC
:1008B000938597879781938787830895FC0190910B
:1008C000C62995FB662760F9292F2295269526953E
:1008D0002270262794FB662760F9622784E0989FA0
:1008E00090011124262B30E0822F8E7090E0432F50
:1008F00050E03F5F48175907D4F384819581948372
:100900009681958397819683878325FB442740F9B9
:10091000622F6295669566956270642724FB442772
:1009200040F9462784E0289FB0011124642B20E081
:10093000862F8E7090E0422F50E02F5F48175907A6
:10094000D4F380859285908782878185938591876E
:10095000838765FB222720F9462F429546954695C9
:100960004270422764FB222720F9242784E0689FF5
:10097000A0011124422B4093C62980E04E70242F01
:1009800030E091E0980F482F50E04217530714F4DD
:10099000892FF7CF8093A42984859785948796859E
:1009A0009787958596878587089587FF04C0880F68
:1009B0009BE189270895880F08958F929F92AF92A7
:1009C000BF92CF92DF92EF92FF920F931F93CF933C
:1009D000DF93CDB7DEB7A197CDBFDEBF7C018C0121
:1009E0005E0181E1A80EB11CDE0111966D01470187
:1009F00090E0F40121914F01A92FA370B0E0AA5D0E
:100A0000B74D8C918227D5018D935D0199A30E94EA
:100A1000D504F60181936F0199A19F5F903149F749
:100A2000DE015496BE016C5F7F4F4701F3E08F0EED
:100A3000911C7E0184E2E80EF11C9091C62995FB81
:100A4000222720F9492F4295469546954270422724
:100A500094FB222720F92427E4E09E9FA001112483
:100A6000422B4093C62980E04E70242F30E091E065
:100A7000980F482F50E04217530714F4892FF7CFEF
:100A80008093A429CB010397FC01C0800196FC014F
:100A900080819D0122503109F901D0802F5F3F4FA5
:100AA000F90150819C919401235031094C2D482724
:100AB00049274D254527F90140839D0123503109E0
:100AC000F90140819B0121503109F901B080940165
:100AD000225031098527892784278B25F9018083B6
:100AE000FB0180812F5F3F4F98279D2594279B25F1
:100AF000F9019083DC24D8265D254527F401408345
:100B000014966C5F7F4FF4E08F0E911CAE15BF05FD
:100B100009F093CF80E0E82FE370F0E0EE5DF74D51
:100B2000D8012C9190819227F80191938F018F5FCA
:100B3000803189F7A196CDBFDEBFDF91CF911F91A4
:100B40000F91FF90EF90DF90CF90BF90AF909F906C
:100B50008F9008952F923F924F925F926F927F9263
:100B60008F929F92AF92BF92CF92DF92EF92FF92BD
:100B70000F931F93CF93DF93CDB7DEB72A97CDBFE7
:100B8000DEBF89879A873C01DC0180E0E82FE6958B
:100B9000E695F0E0EA5DF74D2C91908192279D93C8
:100BA0008F5F803199F7A985BA851496AC90149718
:100BB00018962C9018971C96BC901C971596FC9034
:100BC000159719963C9019971D96CC901D971696DF
:100BD0000C9116971A964C901A971E96DC901E97B9
:100BE00017961C9117971B965C901B971F96EC907D
:100BF0001F976C9111965C91119712964C911297D8
:100C000013963C91262F2A25952F9F25B42FB02788
:100C1000B983E32FE127EA8389849A84F0E18F0E78
:100C2000911CD3018C912F833E834D835C836B8316
:100C300098870E94D504F30181933F012F813E8163
:100C40004D815C816B819885E815F90551F7A9857F
:100C5000BA856C9011968C91119712969C90129770
:100C600013968C90F091C629F5FBAA27A0F97F2F47
:100C700072957695769572707A27F4FBAA27A0F97B
:100C80007A27E4E0FE9FD0011124A72BA093C62968
:100C900070E0AE70EA2FF0E077247394770EA72F00
:100CA000B0E0AE17BF0714F4772DF6CF7093A429E8
:100CB000A985BA8514967C911497A224AB24EC9153
:100CC000AE26A726AC921596AC901597F324FC247B
:100CD000F826FA241196FC9211971696FC90169716
:100CE00004250D2509250F2512960C9312971796AA
:100CF0000C91179715251E251825102713961C9360
:100D0000F091C629F5FBEE27E0F91F2F12951695F5
:100D1000169512701E27F4FBEE27E0F91E27B4E0AB
:100D2000FB9FF00111241E2B712CE12FEE70F0E0DF
:100D3000A72DB0E07394AE17BF07D4F3E985FA8509
:100D4000A085EB2DE2256E2776277A27E985FA859F
:100D50007483B1856C2D63255627A526AB26A58205
:100D6000A2845D2D54254527F426FA24F682F384C7
:100D70004E2D4525342703270F25078315FB4427D0
:100D800040F9E12FE295E695E695E270E42714FB41
:100D9000442740F94E2734E0139FF00111240E2F11
:100DA000042B30E0402F4E7050E0632F70E03F5F27
:100DB00064177507D4F3E985FA853485BA26B32616
:100DC000B226B086A585CB26CA26C926C186B68599
:100DD000DA24DB264981D426D2861785EF24E12642
:100DE0005A81E526E38605FB552750F9402F4295A9
:100DF000469546954270452704FB552750F94527EF
:100E000054E0059FF0011124E42BE093C629F0E0A3
:100E1000EE704E2F50E0E1E0EF0F6F2F70E064179F
:100E2000750714F4FE2FF7CFF093A4292624232668
:100E30002225E985FA85248738263A269325958741
:100E400049244B26398143264686582451264A8117
:100E5000542657862A96CDBFDEBFDF91CF911F91D2
:100E60000F91FF90EF90DF90CF90BF90AF909F9049
:100E70008F907F906F905F904F903F902F9008954C
:100E8000FC01818194819183848382819085928306
:100E900080878381948593838487868191859683D7
:100EA00081878781958597838587838596859387B5
:100EB00086870895CF93DF93DC01FB019091C629CB
:100EC00095FB882780F9292F229526952695227053
:100ED000282794FB882780F9822744E0949F90017B
:100EE0001124282B2093C62930E02E70822F90E009
:100EF00021E0230F432F50E04817590714F4322FF5
:100F0000F7CF3093A429858190E08E5D9B4DC08101
:100F1000D0E09E012E5D3A4DEC019881E901888177
:100F20008927C285D0E0CE5DD84D98818927C785B5
:100F3000D0E0CE5DD84D988189278C93858190E053
:100F40008E5D9A4DC081D0E09E012E5D384DEC0142
:100F50009881E90188818927C285D0E0CE5DDB4D8B
:100F600098818927C785D0E0CE5DD84D98818927A3
:100F700011968C931197858190E08E5D984DC0817C
:100F8000D0E09E012E5D384DEC019881E901888109
:100F90008927C285D0E0CE5DDA4D98818927C78543
:100FA000D0E0CE5DDB4D9881892712968C93129705
:100FB000858190E08E5D984DC081D0E09E012E5DD0
:100FC0003B4DEC019881E90188818927C285D0E0F9
:100FD000CE5DD84D98818927C785D0E0CE5DDA4DAA
:100FE0009881892713968C9313979091C62995FB26
:100FF000882780F9292F2295269526952270282763
:1010000094FB882780F98227D4E09D9F90011124CA
:10101000282B30E0822F8E7090E0432F50E03F5F0E
:1010200048175907D4F3818590E08E5D9B4DC481AC
:10103000D0E0AE014E5D5A4DEC019881EA01888105
:101040008927C685D0E0CE5DD84D98818927C38198
:10105000D0E0CE5DD84D9881892714968C93149753
:10106000818590E08E5D9A4DC481D0E0AE014E5DE9
:10107000584DEC019881EA0188818927C685D0E026
:10108000CE5DDB4D98818927C381D0E0CE5DD84D00
:101090009881892715968C931597818590E08E5DB0
:1010A000984DC481D0E0AE014E5D584DEC01988161
:1010B000EA0188818927C685D0E0CE5DDA4D988126
:1010C0008927C381D0E0CE5DDB4D988189271696B4
:1010D0008C931697818590E08E5D984DC481D0E009
:1010E000AE014E5D5B4DEC019881EA018881892754
:1010F000C685D0E0CE5DD84D98818927C381D0E0E8
:10110000CE5DDA4D9881892717968C93179725FB2A
:10111000442740F9822F8295869586958270842790
:1011200024FB442740F94827D4E02D9FC001112417
:10113000842B90E0282F2E7030E0492F50E09F5FE5
:1011400042175307D4F3258530E02E5D3B4DC08513
:10115000D0E0AE014E5D5A4DE9012881EA01988147
:101160009227C281D0E0CE5DD84D28819227C781D9
:10117000D0E0CE5DD84D2881922718969C93189781
:10118000258530E02E5D3A4DC085D0E0AE014E5D44
:10119000584DE9012881EA0198819227C281D0E067
:1011A000CE5DDB4D28819227C781D0E0CE5DD84D42
:1011B0002881922719969C931997258530E02E5DFA
:1011C000384DC085D0E0AE014E5D584DE901288113
:1011D000EA0198819227C281D0E0CE5DDA4D288164
:1011E0009227C781D0E0CE5DDB4D288192271A96E9
:1011F0009C931A97258530E02E5D384DC085D0E050
:10120000AE014E5D5B4DE9012881EA01988192278C
:10121000C281D0E0CE5DD84D28819227C781D0E031
:10122000CE5DDA4D288192271B969C931B9785FBF8
:10123000222720F9482F429546954695427042272D
:1012400084FB222720F92427D4E08D9FA0011124BC
:10125000422B4093C62980E04E70242F30E091E06D
:10126000980F482F50E04217530714F4892FF7CFF7
:101270008093A429818190E08E5D9B4DC485D0E050
:101280009E012E5D3A4DEC019881E9018881892704
:10129000C681D0E0CE5DD84D98818927C385D0E046
:1012A000CE5DD84D988189271C968C931C9781819F
:1012B00090E08E5D9A4DC485D0E09E012E5D384D44
:1012C000EC019881E90188818927C681D0E0CE5D53
:1012D000DB4D98818927C385D0E0CE5DD84D9881BC
:1012E00089271D968C931D97818190E08E5D984D86
:1012F000C485D0E09E012E5D384DEC019881E90156
:1013000088818927C681D0E0CE5DDA4D9881892712
:10131000C385D0E0CE5DDB4D988189271E968C93E6
:101320001E97818190E08E5D984DC485D0E09E012E
:101330002E5D3B4DEC019881E90188818927C681AA
:10134000D0E0CE5DD84D98818927E385F0E0EE5D51
:10135000FA4D908189271F968C93DF91CF91089544
:10136000FF920F931F93CF93DF93442321F1F42E29
:101370008B01EC018AE048130CC061E070E0CE0103
:101380000E944D03CE010E94E703B80160567F4FD3
:1013900011C061E070E0CE010E944D03CE010E94B9
:1013A000E703CE010E94DD04B80180E1F89E600DE4
:1013B000711D1124CE01DF91CF911F910F91FF90EC
:1013C0000C94F6022F923F924F925F926F927F920F
:1013D0008F929F92AF92BF92CF92DF92EF92FF9245
:1013E0000F931F93CF93DF93CDB7DEB76897CDBF31
:1013F000DEBFFC016F8B788F9091C6294423E1F00A
:101400004A3009F06CC795FB882780F9292F22956F
:10141000269526952270282794FB882780F9822715
:1014200014E0919F90011124282B2093C62930E0CD
:101430002E70822F90E05BC295FB882780F9292FC0
:101440002295269526952270282794FB882780F9D7
:10145000822714E0919F90011124282B2093C62904
:1014600030E02E70822F90E021E0230F432F50E0D8
:101470004817590714F4322FF7CF3093A4299081DD
:10148000AF89B88D8C91892780839091C62995FB6F
:10149000882780F9292F22952695269522702827BE
:1014A00094FB882780F98227B4E09B9F9001112448
:1014B000282B30E0822F8E7090E0432F50E03F5F6A
:1014C00048175907D4F39181AF89B88D11968C9143
:1014D0008927818325FB442740F9822F82958695B1
:1014E00086958270842724FB442740F94827B4E07E
:1014F0002B9FC0011124842B90E0282F2E7030E008
:10150000492F50E09F5F42175307D4F32281AF89E0
:10151000B88D12969C919227928385FB222720F901
:10152000482F4295469546954270422784FB2227D4
:1015300020F92427B4E08B9FA0011124422B20E046
:10154000842F8E7090E0622F70E02F5F681779070C
:10155000D4F39381AF89B88D13968C9189278383B7
:1015600045FB882780F9242F229526952695227001
:10157000282744FB882780F98227B4E04B9F9001FD
:101580001124282B30E0822F8E7090E0432F50E002
:101590003F5F48175907D4F39481AF89B88D1496EB
:1015A0008C918927848325FB442740F9822F8295DB
:1015B000869586958270842724FB442740F9482726
:1015C000B4E02B9FC0011124842B90E0282F2E70B3
:1015D00030E0492F50E09F5F42175307D4F3258135
:1015E000AF89B88D15969C919227958385FB22270C
:1015F00020F9482F4295469546954270422784FB34
:10160000222720F92427B4E08B9FA0011124422B2C
:1016100020E0842F8E7090E0622F70E02F5F6817BB
:101620007907D4F39681AF89B88D16968C91892766
:10163000868345FB882780F9242F229526952695B9
:101640002270282744FB882780F98227B4E04B9F2B
:1016500090011124282B30E0822F8E7090E0432FD0
:1016600050E03F5F48175907D4F39781AF89B88D91
:1016700017968C918927878325FB442740F9822F71
:101680008295869586958270842724FB442740F9AD
:101690004827B4E02B9FC0011124842B90E0282F11
:1016A0002E7030E0492F50E09F5F42175307D4F36C
:1016B0002085AF89B88D18969C919227908785FBDD
:1016C000222720F9482F4295469546954270422799
:1016D00084FB222720F92427B4E08B9FA00111244A
:1016E000422B20E0842F8E7090E0622F70E02F5FFD
:1016F00068177907D4F39185AF89B88D19968C91C5
:101700008927818745FB882780F9242F22952695F4
:1017100026952270282744FB882780F98227B4E089
:101720004B9F90011124282B30E0822F8E7090E087
:10173000432F50E03F5F48175907D4F39285AF8994
:10174000B88D1A968C918927828725FB442740F90A
:10175000822F8295869586958270842724FB442764
:1017600040F94827B4E02B9FC0011124842B90E05E
:10177000282F2E7030E0492F50E09F5F421753070B
:10178000D4F32385AF89B88D1B969C9192279387BC
:1017900085FB222720F9482F4295469546954270B1
:1017A000422784FB222720F92427B4E08B9FA00145
:1017B0001124422B20E0842F8E7090E0622F70E085
:1017C0002F5F68177907D4F39485AF89B88D1C967D
:1017D0008C918927848745FB882780F9242F2295BF
:1017E000269526952270282744FB882780F9822792
:1017F000B4E04B9F90011124282B30E0822F8E7093
:1018000090E0432F50E03F5F48175907D4F3958588
:10181000AF89B88D1D968C918927858725FB442734
:1018200040F9822F8295869586958270842724FBC5
:10183000442740F94827B4E02B9FC0011124842B92
:1018400090E0282F2E7030E0492F50E09F5F421724
:101850005307D4F32685AF89B88D1E969C919227A5
:10186000968785FB222720F9482F42954695469575
:101870004270422784FB222720F92427B4E08B9F63
:10188000A0011124422B20E0842F8E7090E0622F63
:1018900070E02F5F68177907D4F39785AF89B88D0B
:1018A0001F968C918927878745FB882780F9242FED
:1018B0002295269526952270282744FB882780F9B3
:1018C0008227B4E04B9F90011124282B2093C62936
:1018D00030E02E70822F90E021E0230F432F50E064
:1018E0004817590714F00C942818322FF5CF21E02F
:1018F000230F432F50E04817590714F4322FF7CF26
:101900003093A429808190E08E5D984DDC018C910C
:1019100080839091C62995FB332730F9292F229592
:10192000269526952270232794FB442740F94227C9
:10193000B4E09B9F90011124342F322B20E0832FA1
:101940008E7090E0422F50E02F5F48175907D4F374
:10195000818190E08E5D984DDC012C91218335FBD7
:10196000992790F9432F429546954695427049270D
:1019700034FB882780F98427B4E03B9FA001112421
:10198000982F942B80E0492F4E7050E0682F70E024
:101990008F5F64177507D4F3428150E04E5D584D58
:1019A000DA014C91428395FB002700F9892F82953B
:1019B000869586958270802794FB002700F908277A
:1019C000B4E09B9FC0011124802B90E0682F6E70C3
:1019D00070E0A92FB0E09F5FA617B707D4F363812B
:1019E00070E06E5D784DDB016C91638385FB992718
:1019F00090F9082F0295069506950270092784FB39
:101A0000992790F9392F3027B4E08B9F800111245A
:101A1000032B30E0802F8E7090E0A32FB0E03F5F6B
:101A2000A817B907D4F3848190E08E5D984DDC014E
:101A30007C90748205FB882780F9902F929596956B
:101A400096959270982704FB882780F98927B4E03F
:101A50000B9F80011124502F582B30E0852F8E7062
:101A600090E0032F10E03F5F08171907D4F385813A
:101A700090E08E5D984DDC011C91158355FBEE24A2
:101A8000E0F8852F82958695869582708E2554FB89
:101A9000EE24E0F8E826B4E05B9FC00111248E2913
:101AA00090E0382F3E70A32FB0E0E92EF12C9F5F1D
:101AB000EA16FB06D4F3A681B0E0AE5DB84D0C91FA
:101AC000068385FBEE24E0F8982F929596959695DF
:101AD0009270E92684FB992790F9592F5E2534E00E
:101AE000839F700111245E2930E0852F8E7090E075
:101AF000A32FB0E03F5FA817B907D4F3878190E028
:101B00008E5D984DDC013C91378355FB882780F929
:101B1000952F9295969596959270982754FB8827C5
:101B200080F9892774E0579FD0011124DA2ED82A32
:101B300050E08D2D8E7090E0E52EF12C5F5FE81661
:101B4000F906D4F3808590E08E5D984DDC016C90B1
:101B50006086D5FA552750F98D2D82958695869504
:101B600082708527D4FA552750F95827B4E0DB9EB8
:101B7000C0011124582B70E0852F8E7090E0A72FA4
:101B8000B0E07F5FA817B907D4F3818590E08E5D40
:101B9000984DDC014C90418655FB992790F9852F93
:101BA0008295869586958270892754FBEE24E0F80D
:101BB000E826B4E05B9FC00111249E2D982B80E0A5
:101BC000592F5E70A52EB12C882E912C8F5F8A1410
:101BD0009B04D4F3E284F12CD701AE5DB84D3C9068
:101BE000328695FBEE24E0F8792F729576957695FE
:101BF0007270E72694FB882780F98E25B4E09B9FBE
:101C000070011124782F7E2950E0872F8E7090E08C
:101C1000E52EF12C5F5FE816F906D4F3838590E09A
:101C20008E5D984DDC01BC90B38675FB552750F94D
:101C3000872F8295869586958270852774FBCC24A4
:101C4000C0F8C826B4E07B9FC00111245C2D582B3E
:101C500070E0852F8E7090E0E72EF12C7F5FE81604
:101C6000F906D4F38484882D90E08E5D984DDC01D4
:101C70005C90548655FBEE24E0F8852F829586957E
:101C800086958270E82654FB772770F9E726B4E042
:101C90005B9F600111247E2D7C2980E0972F9E7030
:101CA000E92EF12C882E912C8F5F8E149F04D4F393
:101CB000858590E08E5D984DDC015C91558775FBC4
:101CC000882780F9972F92959695969592709827E8
:101CD00074FB882780F98927B4E07B9F7001112469
:101CE000A82EAE2870E08A2D8E7090E0E72EF12CA1
:101CF0007F5FE816F906D4F3868590E08E5D984DF7
:101D0000DC017C917687A5FADD24D0F89A2D929596
:101D1000969596959270D926A4FA882780F9D826A8
:101D2000B4E0AB9EC0011124D82AC12C8D2D8E7039
:101D300090E0EC2CF12CC394E816F906D4F38784D8
:101D4000882D90E08E5D984DDC01AC90D5FACC24C6
:101D5000C0F88D2D8295869586958270C826D4FA16
:101D6000EE24E0F8EC24B4E0DB9E60011124CE28E0
:101D7000D12C8C2D8E7090E0ED2CF12CD394E816A4
:101D8000F906D4F3C5FAEE24E0F88C2D82958695F9
:101D900086958270E826C4FA882780F98E2594E01B
:101DA000C99E70011124982E9E28D12C892D8E70E9
:101DB00090E0ED2CF12CD394E816F906D4F31183BE
:101DC00045825187258795FADD24D0F8892D8295A3
:101DD0008695869582708D2594FACC24C0F8C82605
:101DE000A4E09A9EC0011124DC2CD82AC12C8D2D90
:101DF0008E7090E0EC2CF12CC394E816F906D4F325
:101E00003282428776830687D5FACC24C0F89D2D8E
:101E10009295969596959270C926D4FAEE24E0F89C
:101E2000EC24B4E0DB9E600111249E2D9C2980E00F
:101E3000A92FAE70EA2EF12CC82ED12C8F5FCE14B4
:101E4000DF04D4F3A382B7863387678395FBEE2440
:101E5000E0F8892F8295869586958270E82694FB16
:101E6000882780F98E25B4E09B9F700111248E296C
:101E70008093C629D12C8E7090E0CC24C394CD0CD5
:101E8000ED2CF12CE816F90614F4DC2CF6CFD092E8
:101E9000A429AF89B88DA056BF4F90818C91892716
:101EA0008083F090C629F5FA882780F99F2D9295B6
:101EB0009695969592709827F4FACC24C0F8C92686
:101EC00084E0F89E70011124CE28D12C8C2D8E70C8
:101ED00090E0ED2CF12CD394E816F906D4F311968A
:101EE0008C91119718271183C5FA882780F99C2DAA
:101EF00092959695969592709827C4FADD24D0F81D
:101F0000D92614E0C19EC0011124D82A10E08D2DDD
:101F10008E7090E0E12EF12C1F5FE816F906D4F3E5
:101F200012968C91129783258283D5FA882780F99F
:101F30009D2D92959695969592708927D4FA1127A2
:101F400010F9982E912614E0D19EC0011124982AF0
:101F500080E0992D9E70E92EF12CC82ED12C8F5F38
:101F6000CE14DF04D4F313968C911397A826A38282
:101F700095FA992790F9892D829586958695827094
:101F8000892794FA992790F9E82EE92614E0919E82
:101F9000C00111249E2D982B80E0192F1E70E12E78
:101FA000F12CC82ED12C8F5FCE14DF04D4F31496FD
:101FB0008C9114977826748295FBEE24E0F8892F93
:101FC00082958695869582708E2594FBEE24E0F8A6
:101FD000E82614E0919FC00111248E2990E0182F6B
:101FE0001E70E12EF12CC92ED12C9F5FCE14DF0480
:101FF000D4F315969C9115979425958385FB992785
:1020000090F9182F1295169516951270912784FB4A
:10201000EE24E0F8E92694E0899F600111249C2DCC
:102020009E2980E0192F1E70C12ED12CE82EF12C94
:102030008F5FEC14FD04D4F316968C9116977827D5
:10204000768395FBEE24E0F8892F82958695869518
:102050008270E82694FB882780F98E2514E0919FF2
:1020600070011124782F7E2980E0972F9E70C92E51
:10207000D12C882E912C8F5F8C149D04D4F317964D
:102080008C9117976827678375FB992790F9872F9D
:102090008295869586958270892774FB992790F999
:1020A000192F182764E0769FC0011124812B90E03E
:1020B000682F6E7070E0E92EF12C9F5FE616F70630
:1020C000D4F318969C9118976926608685FB66273D
:1020D00060F9982F9295969596959270962784FB25
:1020E000662760F9692774E0879F700111247E2DAF
:1020F000762B60E0872F8E7090E0E62EF12C6F5FDC
:10210000E816F906D4F319968C9119975827518738
:1021100075FB882780F9672F6295669566956270D2
:10212000682774FB882780F9862794E0799FB0019F
:102130001124682B50E0862F8E7090E0E52EF12C54
:102140005F5FE816F906D4F31A968C911A97482720
:10215000428765FB442740F9862F829586958695B0
:102160008270842764FB442740F9482714E0619F6C
:10217000C0011124842B90E0482F4E7050E0692F4D
:1021800070E09F5F64177507D4F31B969C911B97B3
:102190003927338785FB662760F9482F4295469596
:1021A00046954270462784FB662760F9642734E031
:1021B000839FA0011124462B30E0842F8E7090E085
:1021C000632F70E03F5F68177907D4F31C968C91FA
:1021D0001C975826548645FB882780F9642F629502
:1021E000669566956270682744FB882780F9862784
:1021F00054E0459FB0011124682B30E0862F8E708B
:1022000090E0432F50E03F5F48175907D4F31D96E5
:102210008C911D972827258765FB442740F9862F39
:102220008295869586958270842764FB442740F9C1
:10223000482774E0679FC0011124842B90E0282F69
:102240002E7030E0492F50E09F5F42175307D4F3C0
:102250001E969C911E970927068785FB222720F949
:10226000482F4295469546954270422784FB222787
:1022700020F9242794E0899FA0011124422B20E01B
:10228000842F8E7090E0622F70E02F5F68177907BF
:10229000D4F31F968C91B826B78645FB882780F922
:1022A000242F2295269526952270282744FB8827DF
:1022B00080F98227A4E04A9F90011124282B2093C3
:1022C000C62930E02E70822F90E021E0230F432FAB
:1022D00050E0481759070CF0BBC6322FF6CF95FBDC
:1022E000882780F9292F2295269526952270282760
:1022F00094FB882780F98227B4E09B9F90011124EA
:10230000282B2093C62930E02E70822F90E021E008
:10231000230F632F70E06817790714F4322FF7CF7B
:102320003093A429808190E08E5D984DDC018C91E2
:1023300080839091C62995FB882780F9292F2295C3
:10234000269526952270282794FB882780F98227D6
:10235000B4E09B9F90011124282B30E0822F8E70D7
:1023600090E0632F70E03F5F68177907D4F38181B5
:1023700090E08E5D984DDC015C90518225FB6627D4
:1023800060F9822F8295869586958270862724FB38
:10239000662760F96827B4E02B9FC0011124862BC3
:1023A00090E0282F2E7030E0692F70E09F5F621759
:1023B0007307D4F3228130E02E5D384DD901AC9003
:1023C000A28285FB222720F9682F62956695669583
:1023D0006270622784FB222720F92627B4E08B9FB6
:1023E000B0011124622B20E0862F8E7090E0A22F86
:1023F000B0E02F5FA817B907D4F3838190E08E5D1A
:10240000984DDC01EC90E38265FB882780F9262F4C
:102410002295269526952270282764FB882780F927
:102420008227B4E06B9F90011124282B30E0822F8B
:102430008E7090E0632F70E03F5F68177907D4F3E8
:10244000848190E08E5D984DDC01BC90B48225FBC8
:10245000662760F9822F82958695869582708627F9
:1024600024FB662760F96827B4E02B9FC001112484
:10247000862B90E0282F2E7030E0692F70E09F5F50
:1024800062177307D4F3258130E02E5D384DD901F2
:102490001C91158385FB222720F9682F629566958C
:1024A00066956270622784FB222720F92627B4E014
:1024B0008B9FB0011124622B20E0862F8E7090E05C
:1024C000A22FB0E02F5FA817B907D4F3868190E060
:1024D0008E5D984DDC015C91568365FB882780F901
:1024E000262F2295269526952270282764FB88277B
:1024F00080F98227B4E06B9F90011124282B30E0F3
:10250000822F8E7090E0632F70E03F5F681779072D
:10251000D4F3878190E08E5D984DDC017C907782CA
:1025200025FB992790F9822F829586958695827052
:10253000892724FB992790F9382F3927B4E02B9F5E
:10254000C0011124932F982B80E0292F2E7030E0AA
:10255000682F70E08F5F62177307D4F3208530E037
:102560002E5D384DD901FC90F08695FB222720F98D
:10257000892F8295869586958270822794FB2227E3
:1025800020F92827B4E09B9FC0011124822B90E002
:10259000682F6E7070E0292F30E09F5F2617370795
:1025A000D4F3218530E02E5D384DD901BC91B9833B
:1025B000B18785FB222720F9782F7295769576953D
:1025C0007270722784FB222720F9722724E0829FF1
:1025D000C0011124782B60E0872F8E7090E0262FA9
:1025E00030E06F5F28173907D4F3828590E08E5D65
:1025F000984DDC01CC90C28675FB992790F9872F06
:102600008295869586958270892774FB222720F90A
:102610002827B4E07B9FC0011124022F082B60E023
:10262000802F8E7090E0262F30E06F5F28173907DB
:10263000D4F3638570E06E5D784DDB01BC91BC83A3
:10264000B38705FB882780F9202F229526952695AC
:102650002270282704FB882780F9822764E0069FE0
:1026600090011124282B30E0822F8E7090E0832E71
:10267000912C3F5F88169906D4F3648570E06E5DF7
:10268000784DDB016C90648625FB662760F9822F0C
:102690008295869586958270862724FB662760F949
:1026A0006827B4E02B9FC0011124862B90E0682F8F
:1026B0006E7070E0892E912C9F5F86169706D4F37A
:1026C000258530E02E5D384DD9010C91058785FBBD
:1026D000222720F9682F62956695669562706227B9
:1026E00084FB222720F92627B4E08B9FB001112418
:1026F000622B80E0262F2E7030E0882E912C8F5F89
:1027000082169306D4F3868590E08E5D984DDC01A9
:10271000DC90D68665FB882480F8262F22952695A6
:1027200026952270282564FB882780F98227B4E04B
:102730006B9F90011124882E822A60E0882D8E7074
:1027400090E0262F30E06F5F28173907D4F36785B4
:1027500070E06E5D784DDB01BC91BA8385FA9924F7
:1027600090F8882D8295869586958270892584FAC1
:10277000662760F9682724E0829EC0011124A62FF5
:10278000A82B60E08A2F8E7090E0262F30E06F5FDC
:1027900028173907D4F3A5FB772770F96A2F6295BC
:1027A0006695669562706727A4FB222720F9262785
:1027B00034E0A39FB0011124722F762B60E0872FA5
:1027C0008E7090E0262F30E06F5F28173907D4F322
:1027D000118375FB662760F9272F2295269526958C
:1027E0002270262774FB882780F9822764E0769F71
:1027F00090011124682F622B70E0862F8E7090E07C
:10280000272F30E07F5F28173907D4F3C28265FB9A
:10281000442440F8862F829586958695827084257B
:1028200064FB442440F8482674E0679FC0011124EB
:10283000482A4092C62960E0842D8E7090E071E0B5
:10284000760F262F30E02817390714F4672FF7CFBB
:102850004F878F88988CEF8BF88F6093A4299A818B
:1028600093832090262890819225892F5B8B9E8BC5
:102870000E94D5048D8330902728312F3325832F54
:102880003D8B0E94D5048E83109128287C2D7127C2
:10289000872F7C8B0E94D504482FC09029282A813D
:1028A0002C25822F2A8B498B0E94D504682FB224B5
:1028B000BA828B2D688B0E94D5048F83A981A325B2
:1028C000A9838A2F0E94D5048887D1268D2D0E9446
:1028D000D5048987EC248E2D0E94D5048A87F224A2
:1028E0008F2D0E94D5048B87B02EB3248B2D0E9490
:1028F000D504082FA1268A2D0E94D5048C877C241C
:10290000872D0E94D5048D876224862D0E94D504D0
:102910008E8753245B82852D0E94D504382E5B89D7
:102920001527812F0E94D504282E5C81C5268C2D69
:102930000E94D50445FAEE27E0F9542D529556959C
:10294000569552705E2744FAEE27E0F95E27A4E020
:102950004A9E2001112454295093C629E0E05E705C
:10296000452E512C2A893D89498968897C899E890F
:1029700051E05E0FF0E0E415F50514F4E52FF8CF13
:10298000572F5327E52FE227BD81EB27FE81EF2745
:10299000AF89B88DEC93722779277F27742711961A
:1029A0007C931197232729274227462712964C9379
:1029B000129795272D819227692713966C93409142
:1029C000C62945FB992790F9242F2295269526950F
:1029D0002270292744FB992790F9922734E0439FDE
:1029E000A0011124942B60E0292F2E7030E0462F97
:1029F00050E06F5F42175307D4F329812D252E2510
:102A00004F81242758852527AF89B88D14962C939C
:102A100014972A812D252E252527398523271596BC
:102A20002C93159729814A812427322F3E255985D9
:102A300035276A85362716963C9316972D257F8174
:102A40002727D62ED2261796DC9295FB332730F90E
:102A5000292F2295269526952270232794FB33272C
:102A600030F92327A4E09A9FA0011124922F942BE0
:102A700060E0292F2E7030E0462F50E06F5F421744
:102A80005307D4F33A2D3B2537252B8532273027A2
:102A9000AF89B88D18963C9318972A2D2F25272596
:102AA00002272C85022719960C9319970B2D0F25B9
:102AB0007026F22EF7243D85F3261A96FC921A977B
:102AC000A0264B85A426B32EBA241B96BC9295FB58
:102AD000332730F9292F2295269526952270232712
:102AE00094FB442740F9422754E0959F900111241C
:102AF000242B2093C62990E02E7030E061E0690F0E
:102B0000492F50E04217530714F4962FF7CF9093B4
:102B1000A4299B8191279C256E8596279325AF89B3
:102B2000B88D1C969C931C97912F96259C25392631
:102B300032241D963C921D97EB80E6249E2D9C2509
:102B4000292628261E962C921E971E251627812799
:102B50001F968C931F9780E0E82FE370F0E0EE5D06
:102B6000F74D2C91908192279D938F5F8031A1F733
:102B70009091C62995FB882780F9292F22952695C3
:102B800026952270282794FB882780F98227B4E0B5
:102B90009B9F90011124282B2093C62930E02E7092
:102BA000822F90E021E0230F432F50E04817590770
:102BB00014F4322FF7CF3093A429D4011F85E0E11C
:102BC0001E9FA00DB11D1124EF89F88D90818C916D
:102BD000892780839091C62995FB882780F9292F22
:102BE0002295269526952270282794FB882780F920
:102BF0008227F4E09F9F90011124282B30E0822F40
:102C00008E7090E0432F50E03F5F48175907D4F390
:102C1000EF89F88D918111968C9111978927818385
:102C200025FB442740F9822F8295869586958270F0
:102C3000842724FB442740F94827F4E02F9FC00154
:102C40001124842B90E0282F2E7030E0492F50E083
:102C50009F5F42175307D4F3EF89F88D22811296B4
:102C60009C9112979227928385FB222720F9482F67
:102C70004295469546954270422784FB222720F9CB
:102C80002427F4E08F9FA0011124422B20E0842F01
:102C90008E7090E0622F70E02F5F68177907D4F391
:102CA000EF89F88D938113968C91139789278383ED
:102CB00045FB882780F9242F22952695269522709A
:102CC000282744FB882780F98227F4E04F9F900152
:102CD0001124282B30E0822F8E7090E0432F50E09B
:102CE0003F5F48175907D4F3EF89F88D9481149604
:102CF0008C9114978927848325FB442740F9822FE0
:102D00008295869586958270842724FB442740F916
:102D10004827F4E02F9FC0011124842B90E0282F36
:102D20002E7030E0492F50E09F5F42175307D4F3D5
:102D3000EF89F88D258115969C911597922795839B
:102D400085FB222720F9482F4295469546954270EB
:102D5000422784FB222720F92427F4E08F9FA0013B
:102D60001124422B20E0842F8E7090E0622F70E0BF
:102D70002F5F68177907D4F3EF89F88D968116963F
:102D80008C9116978927868345FB882780F9242F05
:102D90002295269526952270282744FB882780F9BE
:102DA0008227F4E04F9F90011124282B30E0822FDE
:102DB0008E7090E0432F50E03F5F48175907D4F3DF
:102DC000EF89F88D978117968C91179789278783BC
:102DD00025FB442740F9822F82958695869582703F
:102DE000842724FB442740F94827F4E02F9FC001A3
:102DF0001124842B90E0282F2E7030E0492F50E0D2
:102E00009F5F42175307D4F3EF89F88D20851896FA
:102E10009C9118979227908785FB222720F9482FAD
:102E20004295469546954270422784FB222720F919
:102E30002427F4E08F9FA0011124422B20E0842F4F
:102E40008E7090E0622F70E02F5F68177907D4F3DF
:102E5000EF89F88D918519968C911997892781872B
:102E600045FB882780F9242F2295269526952270E8
:102E7000282744FB882780F98227F4E04F9F9001A0
:102E80001124282B30E0822F8E7090E0432F50E0E9
:102E90003F5F48175907D4F3EF89F88D92851A964A
:102EA0008C911A978927828725FB442740F9822F26
:102EB0008295869586958270842724FB442740F965
:102EC0004827F4E02F9FC0011124842B90E0282F85
:102ED0002E7030E0492F50E09F5F42175307D4F324
:102EE000EF89F88D23851B969C911B9792279387DA
:102EF00085FB222720F9482F42954695469542703A
:102F0000422784FB222720F92427F4E08F9FA00189
:102F10001124422B20E0842F8E7090E0622F70E00D
:102F20002F5F68177907D4F3EF89F88D94851C9685
:102F30008C911C978927848745FB882780F9242F4B
:102F40002295269526952270282744FB882780F90C
:102F50008227F4E04F9F90011124282B30E0822F2C
:102F60008E7090E0432F50E03F5F48175907D4F32D
:102F7000EF89F88D95851D968C911D9789278587FA
:102F800025FB442740F9822F82958695869582708D
:102F9000842724FB442740F94827F4E02F9FC001F1
:102FA0001124842B90E0282F2E7030E0492F50E020
:102FB0009F5F42175307D4F3EF89F88D26851E963D
:102FC0009C911E979227968785FB222720F9482FF0
:102FD0004295469546954270422784FB222720F968
:102FE0002427F4E08F9FA0011124422B20E0842F9E
:102FF0008E7090E0622F70E02F5F68177907D4F32E
:10300000EF89F88D97851F968C918927878745FBD7
:10301000882780F9242F2295269526952270282727
:1030200044FB882780F98227F4E04F9F9001112408
:10303000282B2093C62930E02E70822F90E021E0CB
:10304000230F432F50E04817590714F4322FF7CFBE
:103050003093A4296896CDBFDEBFDF91CF911F9139
:103060000F91FF90EF90DF90CF90BF90AF909F9027
:103070008F907F906F905F904F903F902F9008952A
:10308000FF920F931F93CF93DF93442321F1F42EEC
:103090008B01EC018AE048130CC062E070E0CE01C5
:1030A0000E944D03CE010E94E703B80160567F4F96
:1030B00011C062E070E0CE010E944D03CE010E947B
:1030C000E703CE010E94DD04B80180E1F89E600DA7
:1030D000711D1124CE01DF91CF911F910F91FF90AF
:1030E0000C94F6022F923F924F925F926F927F92D2
:1030F0008F929F92AF92BF92CF92DF92EF92FF9208
:103100000F931F93CF93DF93CDB7DEB76897CDBFF3
:10311000DEBFFC016F8B788F9091C6294423E9F0C4
:103120004A3011F00C949A2095FB882780F9292FBA
:103130002295269526952270282794FB882780F9CA
:10314000822714E0919F90011124282B2093C629F7
:1031500030E02E70822F90E05BC295FB882780F9CB
:10316000292F2295269526952270282794FB8827BB
:1031700080F9822714E0919F90011124282B20933D
:10318000C62930E02E70822F90E021E0230F432FDC
:1031900050E04817590714F4322FF7CF3093A42981
:1031A0009081AF89B88D8C91892780839091C629B1
:1031B00095FB882780F9292F229526952695227040
:1031C000282794FB882780F98227B4E09B9F9001F1
:1031D0001124282B30E0822F8E7090E0432F50E096
:1031E0003F5F48175907D4F39181AF89B88D119685
:1031F0008C918927818325FB442740F9822F829572
:10320000869586958270842724FB442740F94827B9
:10321000B4E02B9FC0011124842B90E0282F2E7046
:1032200030E0492F50E09F5F42175307D4F32281CB
:10323000AF89B88D12969C919227928385FB2227A5
:1032400020F9482F4295469546954270422784FBC7
:10325000222720F92427B4E08B9FA0011124422BC0
:1032600020E0842F8E7090E0622F70E02F5F68174F
:103270007907D4F39381AF89B88D13968C91892700
:10328000838345FB882780F9242F22952695269550
:103290002270282744FB882780F98227B4E04B9FBF
:1032A00090011124282B30E0822F8E7090E0432F64
:1032B00050E03F5F48175907D4F39481AF89B88D28
:1032C00014968C918927848325FB442740F9822F0B
:1032D0008295869586958270842724FB442740F941
:1032E0004827B4E02B9FC0011124842B90E0282FA5
:1032F0002E7030E0492F50E09F5F42175307D4F300
:103300002581AF89B88D15969C919227958385FB71
:10331000222720F9482F429546954695427042272C
:1033200084FB222720F92427B4E08B9FA0011124DD
:10333000422B20E0842F8E7090E0622F70E02F5F90
:1033400068177907D4F39681AF89B88D16968C915A
:103350008927868345FB882780F9242F2295269587
:1033600026952270282744FB882780F98227B4E01D
:103370004B9F90011124282B30E0822F8E7090E01B
:10338000432F50E03F5F48175907D4F39781AF8927
:10339000B88D17968C918927878325FB442740F9A0
:1033A000822F8295869586958270842724FB4427F8
:1033B00040F94827B4E02B9FC0011124842B90E0F2
:1033C000282F2E7030E0492F50E09F5F421753079F
:1033D000D4F32085AF89B88D18969C919227908759
:1033E00085FB222720F9482F429546954695427045
:1033F000422784FB222720F92427B4E08B9FA001D9
:103400001124422B20E0842F8E7090E0622F70E018
:103410002F5F68177907D4F39185AF89B88D199616
:103420008C918927818745FB882780F9242F229555
:10343000269526952270282744FB882780F9822725
:10344000B4E04B9F90011124282B30E0822F8E7026
:1034500090E0432F50E03F5F48175907D4F392851F
:10346000AF89B88D1A968C918927828725FB4427CE
:1034700040F9822F8295869586958270842724FB59
:10348000442740F94827B4E02B9FC0011124842B26
:1034900090E0282F2E7030E0492F50E09F5F4217B8
:1034A0005307D4F32385AF89B88D1B969C9192273F
:1034B000938785FB222720F9482F4295469546950C
:1034C0004270422784FB222720F92427B4E08B9FF7
:1034D000A0011124422B20E0842F8E7090E0622FF7
:1034E00070E02F5F68177907D4F39485AF89B88DA2
:1034F0001C968C918927848745FB882780F9242F87
:103500002295269526952270282744FB882780F946
:103510008227B4E04B9F90011124282B30E0822FAA
:103520008E7090E0432F50E03F5F48175907D4F367
:103530009585AF89B88D1D968C918927858725FB48
:10354000442740F9822F829586958695827084273C
:1035500024FB442740F94827B4E02B9FC0011124E5
:10356000842B90E0282F2E7030E0492F50E09F5F91
:1035700042175307D4F32685AF89B88D1E969C91C8
:103580009227968785FB222720F9482F429546955A
:1035900046954270422784FB222720F92427B4E075
:1035A0008B9FA0011124422B20E0842F8E7090E08D
:1035B000622F70E02F5F68177907D4F39785AF8982
:1035C000B88D1F968C918927878745FB882780F9BE
:1035D000242F2295269526952270282744FB88279C
:1035E00080F98227B4E04B9F90011124282B20936F
:1035F000C62930E02E70822F90E021E0230F432F68
:1036000050E04817590714F00C94ED27322FF5CFEE
:1036100021E0230F432F50E04817590714F4322FAD
:10362000F7CF3093A4299081892F8F70292F22956D
:103630002F7040E1249F90011124280F311D2E5D31
:10364000394DD9018C9180833091C62935FB99275A
:1036500090F9232F2295269526952270292734FB51
:10366000882780F98227B4E03B9F90011124982F8E
:10367000922B80E0292F2E7030E0482F50E08F5F92
:1036800042175307D4F32181822F8F70322F329546
:103690003F7010E1319FA0011124480F511D4E5D74
:1036A000594DDA012C91218395FB662760F9892F0A
:1036B0008295869586958270862794FB662760F9A9
:1036C0006827B4E09B9FC0011124862B90E0482F0F
:1036D0004E7050E0692F70E09F5F64177507D4F358
:1036E0003281932F9F70432F42954F7010E1419F7D
:1036F000A0011124490F511D4E5D594DDA014C9125
:10370000428385FB992790F9682F629566956695A7
:103710006270692784FB992790F9392F3627B4E026
:103720008B9FB0011124932F962B80E0692F6E7030
:1037300070E0A82FB0E08F5FA617B707D4F33381EE
:10374000832F8F70532F52955F7010E1519FB001FE
:103750001124680F711D6E5D794DDB016C916383DF
:1037600095FB882780F9392F32953695369532703A
:10377000382794FB882780F9832714E0919FD00194
:1037800011247A2F782B30E0872F8E7090E0032F52
:1037900010E03F5F08171907D4F38481382F3F707A
:1037A00082958F7050E1859FC0011124830F911D78
:1037B0008E5D994DDC017C90748275FB992790F9A0
:1037C000872F8295869586958270892774FB992725
:1037D00090F9E82EE926B4E07B9FC00111249E2DCC
:1037E000982B80E0392F3E70A32FB0E0082F10E017
:1037F0008F5F0A171B07D4F33581832F8F70532FE8
:1038000052955F7010E1519FD0011124A80FB11D96
:10381000AE5DB94D1C91158395FB332730F9892F87
:103820008295869586958270832794FBEE24E0F836
:10383000E82634E0939FC00111243E2D382B50E040
:10384000832F8E7090E0A52FB0E05F5FA817B907B7
:10385000D4F39681892F8F70592F52955F7070E144
:10386000579FD0011124A80FB11DAE5DB94D0C9129
:10387000068335FBEE24E0F8932F92959695969566
:103880009270E92634FB882780F98E2594E0399FD1
:1038900070011124982F9E2980E0392F3E70A32FAC
:1038A000B0E0E82EF12C8F5FEA16FB06D4F33781E7
:1038B000832F8F70532F52955F7030E1539FD0014B
:1038C0001124A80FB11DAE5DB94D3C91378395FB16
:1038D000552750F9892F8295869586958270852780
:1038E00094FB552750F9752F782754E0959FC00118
:1038F0001124872B90E0582F5E70A52FB0E0E92EA1
:10390000F12C9F5FEA16FB06D4F35085952F9F702C
:10391000752F72957F7050E1759FD0011124A90F0A
:10392000B11DAE5DB94D6C90608685FB992790F90D
:10393000582F5295569556955270952784FBEE2434
:10394000E0F8E92674E0879FD00111249A2F9E2980
:1039500080E0592F5E70A52FB0E0E82EF12C8F5F2C
:10396000EA16FB06D4F35185852F8F70752F72955B
:103970007F7050E1759FD0011124A80FB11DAE5D7D
:10398000B94D4C90418695FBEE24E0F8892F829545
:10399000869586958270E82694FB882780F98E2587
:1039A00074E0979F70011124E82A80E09E2D9E709C
:1039B000A92EB12C882E912C8F5F8A149B04D4F3EE
:1039C0008285582F5F7082958F70A0E18A9FC00119
:1039D0001124850F911D8E5D994DDC013C9032863E
:1039E000E5FA882780F97E2D729576957695727026
:1039F0007827E4FA882780F97827B4E0EB9EC001A5
:103A00001124782B50E0872F8E7090E0E52EF12C5A
:103A10005F5FE816F906D4F38385582F5F708295AF
:103A20008F70A0E18A9FC0011124850F911D8E5DCA
:103A3000994DDC01BC90B38675FBCC24C0F8572FA0
:103A400052955695569552705C2574FBCC24C0F85F
:103A50005C25B4E07B9FC0011124582B70E0852FBA
:103A60008E7090E0E72EF12C7F5FE816F906D4F314
:103A70008485782F7F7082958F70A0E18A9FC00126
:103A80001124870F911D8E5D994DDC015C90548649
:103A900055FBCC24C0F8752F72957695769572708B
:103AA000C72654FBEE24E0F8EC24B4E05B9F6001F1
:103AB00011247E2D7C2980E0972F9E70E92EF12C19
:103AC000882E912C8F5F8E149F04D4F38585582FF8
:103AD0005F7082958F70A0E18A9FC0011124850FCD
:103AE000911D8E5D994DDC015C91558775FBEE242F
:103AF000E0F8872F8295869586958270E82674FB7C
:103B0000882780F98E25B4E07B9F70011124A82EB0
:103B1000AE2870E08A2D8E7090E0E72EF12C7F5F4A
:103B2000E816F906D4F38685782F7F7082958F701A
:103B3000A0E18A9FC0011124870F911D8E5D994DD0
:103B4000DC017C917687A5FADD24D0F88A2D829558
:103B50008695869582708D25A4FACC24C0F8C82657
:103B6000B4E0AB9EC0011124DC2CD82AC12C8D2DD1
:103B70008E7090E0EC2CF12CC394E816F906D4F387
:103B80008785982F9F7082958F70A0E18A9F400152
:103B90001124D401A90FB11DCD018E5D994DDC0119
:103BA000AC90D5FAEE24E0F88D2D82958695869519
:103BB0008270E826D4FACC24C0F8EC24B4E0DB9E72
:103BC00060011124CE28D12C8C2D8E7090E0ED2C2C
:103BD000F12CD394E816F906D4F3C5FA882780F9B6
:103BE0009C2D92959695969592709827C4FA882761
:103BF00080F9892794E0C99E70011124982E9E288F
:103C0000D12C892D8E7090E0ED2CF12CD394E816F8
:103C1000F906D4F3118345825187258795FACC2480
:103C2000C0F8992D92959695969592709C2594FA48
:103C3000CC24C0F8C926A4E09A9EC0011124DC2C33
:103C4000D82AC12C8D2D8E7090E0EC2CF12CC394D1
:103C5000E816F906D4F33282428776830687D5FACE
:103C6000EE24E0F89D2D92959695969592709E255E
:103C7000D4FAEE24E0F89E25B4E0DB9E6001112426
:103C80009C2980E0A92FAE70EA2EF12CC82ED12CF1
:103C90008F5FCE14DF04D4F3A382B78633876783A4
:103CA00095FBEE24E0F8892F8295869586958270A3
:103CB0008E2594FBEE24E0F88E25B4E09B9F7001E6
:103CC00011248E298093C629D12C8E7090E0CC24AB
:103CD000C394CD0CED2CF12CE816F90614F4DC2C71
:103CE000F6CFD092A429AF89B88DA056BF4F90814E
:103CF0008C9189278083F090C629F5FA882780F96E
:103D00009F2D92959695969592709827F4FACC24CB
:103D1000C0F8C92684E0F89E70011124CE28D12C69
:103D20008C2D8E7090E0ED2CF12CD394E816F906D2
:103D3000D4F311968C91119718271183C5FA88270F
:103D400080F99C2D92959695969592709827C4FA35
:103D5000DD24D0F8D92614E0C19EC0011124D82A50
:103D600010E08D2D8E7090E0E12EF12C1F5FE81693
:103D7000F906D4F312968C91129783258283D5FA93
:103D8000882780F99D2D9295969596959270982703
:103D9000D4FA112710F9F12EF92614E0D19EC001B2
:103DA00011241F2D182B80E0912F9E70E92EF12CED
:103DB000C82ED12C8F5FCE14DF04D4F313968C91D0
:103DC0001397A826A38215FB882780F9912F929537
:103DD000969596959270982714FB882780F99827D6
:103DE00084E0189F70011124A92EAE2880E09A2D3E
:103DF0009E70E92EF12CC82ED12C8F5FCE14DF04DB
:103E0000D4F314968C91149778267482A5FA882797
:103E100080F99A2D92959695969592709827A4FA86
:103E2000882780F9E92EE82614E0A19EC00111241C
:103E30008E2990E0182F1E70E12EF12CC92ED12C66
:103E40009F5FCE14DF04D4F315969C9115979425AB
:103E5000958385FB992790F9182F1295169516953D
:103E60001270912784FBEE24E0F8E92694E0899F04
:103E7000600111249C2D9E2980E0192F1E70C12EF7
:103E8000D12CE82EF12C8F5FEC14FD04D4F31696A0
:103E90008C9116977827768395FBEE24E0F8892F8E
:103EA0008295869586958270E82694FB882780F90E
:103EB0008E2514E0919F70011124782F7E2980E0D7
:103EC000972F9E70C92ED12C882E912C8F5F8C1429
:103ED0009D04D4F317968C9117976827678375FB19
:103EE000992790F9872F82958695869582708927E4
:103EF00074FB992790F9192F182764E0769FC00169
:103F00001124812B90E0682F6E7070E0E92EF12C67
:103F10009F5FE616F706D4F318969C9118976926CA
:103F2000608685FB662760F9982F92959695969501
:103F30009270962784FB662760F9692774E0879F53
:103F4000700111247E2D762B60E0872F8E7090E01B
:103F5000E62EF12C6F5FE816F906D4F319968C91D2
:103F600019975827518775FB882780F9672F629525
:103F7000669566956270682774FB882780F98627A6
:103F800094E0799FB0011124682B50E0862F8E7049
:103F900090E0E52EF12C5F5FE816F906D4F31A964F
:103FA0008C911A974827428765FB442740F9862F52
:103FB0008295869586958270842764FB442740F914
:103FC000482714E0619FC0011124842B90E0482F02
:103FD0004E7050E0692F70E09F5F64177507D4F34F
:103FE0001B969C911B973927338785FB662760F9C1
:103FF000482F4295469546954270462784FB662792
:1040000060F9642734E0839FA0011124462B30E03F
:10401000842F8E7090E0632F70E03F5F6817790700
:10402000D4F31C968C911C975826548645FB882700
:1040300080F9642F6295669566956270682744FBE7
:10404000882780F9862754E0459FB0011124682B0A
:1040500030E0862F8E7090E0432F50E03F5F48178E
:104060005907D4F31D968C911D972827258765FB4A
:10407000442740F9862F82958695869582708427FD
:1040800064FB442740F9482774E0679FC00111246E
:10409000842B90E0282F2E7030E0492F50E09F5F56
:1040A00042175307D4F31E969C911E970927068743
:1040B00085FB222720F9482F429546954695427068
:1040C000422784FB222720F9242794E0899FA0011E
:1040D0001124422B20E0842F8E7090E0622F70E03C
:1040E0002F5F68177907D4F31F968C91B826B7868F
:1040F00045FB882780F9242F229526952695227046
:10410000282744FB882780F98227A4E04A9F900152
:104110001124282B2093C62930E02E70822F90E0A6
:1041200021E0230F432F50E0481759070CF055C7E3
:10413000322FF6CF95FB882780F9292F22952695D7
:1041400026952270282794FB882780F98227B4E0DF
:104150009B9F90011124282B2093C62930E02E70BC
:10416000822F90E021E0230F632F70E0681779071A
:1041700014F4322FF7CF3093A4299081892F8F70B8
:10418000292F22952F7010E1219F90011124280FD3
:10419000311D2E5D394DD9018C9180839091C629B6
:1041A00095FB662760F9892F8295869586958270A2
:1041B000862794FB662760F96827B4E09B9FC001BF
:1041C0001124862B90E0282F2E7030E0692F70E0AC
:1041D0009F5F62177307D4F32181922F9F70322F54
:1041E00032953F7010E1319FB0011124690F711DAC
:1041F0006E5D794DDB015C90518285FB222720F9B1
:10420000682F6295669566956270622784FB222707
:1042100020F92627B4E08B9FB0011124622B20E007
:10422000862F8E7090E0A22FB0E02F5FA817B907FD
:10423000D4F39281892F8F70292F22952F7010E14E
:10424000219F90011124280F311D2E5D394DD90178
:10425000AC90A28265FB882780F9262F22952695AF
:1042600026952270282764FB882780F98227B4E0EE
:104270006B9F90011124282B30E0822F8E7090E0EC
:10428000632F70E03F5F68177907D4F39381892F1C
:104290008F70392F32953F7010E1319FB00111249A
:1042A000680F711D6E5D794DDB01EC90E38225FB9B
:1042B000332730F9822F82958695869582708327E1
:1042C00024FB332730F93827B4E02B9FC001112499
:1042D000382B20E0832F8E7090E0622F70E02F5FEC
:1042E00068177907D4F39481892F8F70292F22952D
:1042F0002F7010E1219FB0011124680F711D6E5DB8
:10430000794DDB01BC90B48235FB992790F9832F5E
:104310008295869586958270892734FB222720F91D
:104320002827B4E03B9FC0011124922F982B80E0F6
:10433000292F2E7030E0682F70E08F5F62177307AF
:10434000D4F32581822F8F70322F32953F7010E188
:10435000319FB0011124680F711D6E5D794DDB0135
:104360001C91158395FB882780F9292F2295269586
:1043700026952270282794FB882780F98227B4E0AD
:104380009B9F90011124282B30E0822F8E7090E0AB
:10439000632F70E03F5F68177907D4F39681892F08
:1043A0008F70392F32953F7050E1359FB001112445
:1043B000680F711D6E5D794DDB015C91568325FBA5
:1043C000662760F9822F829586958695827086276A
:1043D00024FB662760F96827B4E02B9FC0011124F5
:1043E000862B90E0282F2E7030E0692F70E09F5FC1
:1043F00062177307D4F32781922F9F70322F329563
:104400003F7020E1329FB0011124690F711D6E5D74
:10441000794DDB017C90778285FB662760F9282F38
:104420002295269526952270262784FB662760F91B
:104430002627B4E08B9FB0011124622B70E0862FF9
:104440008E7090E0272F30E07F5F28173907D4F374
:104450009085892F8F70292F22952F7070E1279FCB
:1044600090011124280F311D2E5D394DD901FC908A
:10447000F08665FB882780F9962F929596959695FC
:104480009270982764FB222720F9892F8227B4E0B5
:104490006B9F90011124282B80E0622F6E7070E0DA
:1044A000A82FB0E08F5FA617B707D4F39185892FA7
:1044B0008F70392F32953F7090E1399FB0011124F0
:1044C000680F711D6E5D794DDB01BC91B983B187B9
:1044D00025FB882780F9722F7295769576957270F4
:1044E000782724FB882780F9782734E0239FC001B0
:1044F0001124782B60E0872F8E7090E0262F30E01B
:104500006F5F28173907D4F39285892F8F70292F71
:1045100022952F7060E1269F90011124280F311DF4
:104520002E5D394DD901CC90C28675FB222720F92A
:10453000872F8295869586958270822774FB222725
:1045400020F9082F0227B4E07B9FC0011124082B1B
:1045500060E0802F8E7090E0262F30E06F5F28178C
:104560003907D4F36385862F8F7062956F7020E1D1
:10457000629FB0011124680F711D6E5D794DDB01E2
:10458000BC91BC83B38705FB882780F9202F229537
:10459000269526952270282704FB882780F98227F4
:1045A00064E0069F90011124282B30E0822F8E704A
:1045B00090E0832E912C3F5F88169906D4F3648592
:1045C000862F8F7062956F7090E1699FB001112402
:1045D000680F711D6E5D794DDB016C90648625FB63
:1045E000662760F9822F8295869586958270862748
:1045F00024FB662760F96827B4E02B9FC0011124D3
:10460000862B90E0682F6E7070E0892E912C9F5F52
:1046100086169706D4F32585922F9F7022952F70CA
:1046200060E1269F90011124290F311D2E5D394D27
:10463000D9010C91058785FB222720F9682F629507
:10464000669566956270622784FB222720F92627EB
:10465000B4E08B9FB0011124622B80E0262F2E70D6
:1046600030E0882E912C8F5F82169306D4F38685D6
:10467000282F2F7082958F7030E1839FC001112405
:10468000820F911D8E5D994DDC01DC90D68665FB15
:10469000992490F8262F2295269526952270292573
:1046A00064FB882780F98227B4E06B9F9001112476
:1046B000982E922A60E0892D8E7090E0262F30E0AF
:1046C0006F5F28173907D4F36785862F8F7062953F
:1046D0006F7020E1629FB0011124680F711D6E5D43
:1046E000794DDB01BC91BA8395FA882780F9692D51
:1046F0006295669566956270682794FA882780F9B6
:10470000682724E0929EC0011124682B70E0862F58
:104710008E7090E0272F30E07F5F28173907D4F3A1
:1047200065FB222720F9962F929596959695927083
:10473000922764FB222720F9292734E0639FB001E8
:104740001124722F762B60E0872F8E7090E0262F39
:1047500030E06F5F28173907D4F3118375FB882782
:1047600080F9972F9295969596959270982774FB5D
:10477000882780F9892764E0769F90011124682FAB
:10478000622B70E0862F8E7090E0272F30E07F5FE5
:1047900028173907D4F3C28265FB442440F8962FCA
:1047A0009295969596959270492664FB882780F994
:1047B000482674E0679FC0011124482A4092C62908
:1047C00060E0842D8E7090E071E0760F262F30E04F
:1047D0002817390714F4672FF7CF4F878F88988CE5
:1047E000EF8BF88F6093A4299A81938320902628D9
:1047F00090819225892F5B8B9E8B0E94D5048D839F
:1048000030902728312F3325832F3D8B0E94D504EC
:104810008E83109128287C2D7127872F7C8B0E94F6
:10482000D504482FC09029282A812C25822F2A8B35
:10483000498B0E94D504682FB224BA828B2D688BD5
:104840000E94D5048F83A981A325A9838A2F0E9462
:10485000D5048887D1268D2D0E94D5048987EC2424
:104860008E2D0E94D5048A87F2248F2D0E94D504B4
:104870008B87B02EB3248B2D0E94D504082FA12640
:104880008A2D0E94D5048C877C24872D0E94D50414
:104890008D876224862D0E94D5048E8753245B82E7
:1048A000852D0E94D504382E5B891527812F0E9403
:1048B000D504282E5C81C5268C2D0E94D50445FA8E
:1048C000EE27E0F9542D52955695569552705E2775
:1048D00044FAEE27E0F95E27A4E04A9E2001112465
:1048E00054295093C629E0E05E70452E512C2A8948
:1048F0003D89498968897C899E8951E05E0FF0E095
:10490000E415F50514F4E52FF8CF572F5327E52FBD
:10491000E227BD81EB27FE81EF27AF89B88DEC93AD
:10492000722779277F27742711967C931197232765
:1049300029274227462712964C93129795272D81B7
:104940009227692713966C934091C62945FB9927B6
:1049500090F9242F2295269526952270292744FB2D
:10496000992790F9922734E0439FA0011124942BBA
:1049700060E0292F2E7030E0462F50E06F5F421725
:104980005307D4F329812D252E254F8124275885BF
:104990002527AF89B88D14962C9314972A812D253D
:1049A0002E2525273985232715962C9315972981A0
:1049B0004A812427322F3E25598535276A85362797
:1049C00016963C9316972D257F812727D62ED22623
:1049D0001796DC9295FB332730F9292F22952695DF
:1049E00026952270232794FB332730F92327A4E050
:1049F0009A9FA0011124922F942B60E0292F2E70F2
:104A000030E0462F50E06F5F42175307D4F33A2D42
:104A10003B2537252B8532273027AF89B88D18964F
:104A20003C9318972A2D2F25272502272C8502270E
:104A300019960C9319970B2D0F257026F22EF7243B
:104A40003D85F3261A96FC921A97A0264B85A4263C
:104A5000B32EBA241B96BC9295FB332730F9292F2D
:104A60002295269526952270232794FB442740F90A
:104A7000422754E0959F90011124242B2093C629AE
:104A800090E02E7030E061E0690F492F50E042174E
:104A9000530714F4962FF7CF9093A4299B81912765
:104AA0009C256E8596279325AF89B88D1C969C937F
:104AB0001C97912F96259C25392632241D963C92D1
:104AC0001D97EB80E6249E2D9C25292628261E96E0
:104AD0002C921E971E25162781271F968C931F97B1
:104AE00080E0E82FE370F0E0EE5DF74D2C919081CF
:104AF00092279D938F5F8031A1F79091C62995FBF6
:104B0000882780F9292F2295269526952270282717
:104B100094FB882780F98227B4E09B9F90011124A1
:104B2000282B2093C62930E02E70822F90E021E0C0
:104B3000230F432F50E04817590714F4322FF7CFB3
:104B40003093A429D4011F85E0E11E9FA00DB11D63
:104B50001124EF89F88D90818C9189278083909121
:104B6000C62995FB882780F9292F22952695269519
:104B70002270282794FB882780F98227F4E09F9FE2
:104B800090011124282B30E0822F8E7090E0432F6B
:104B900050E03F5F48175907D4F3EF89F88D9181B2
:104BA00011968C9111978927818325FB442740F921
:104BB000822F8295869586958270842724FB4427D0
:104BC00040F94827F4E02F9FC0011124842B90E086
:104BD000282F2E7030E0492F50E09F5F4217530777
:104BE000D4F3EF89F88D228112969C911297922727
:104BF000928385FB222720F9482F429546954695BA
:104C00004270422784FB222720F92427F4E08F9F5B
:104C1000A0011124422B20E0842F8E7090E0622F9F
:104C200070E02F5F68177907D4F3EF89F88D9381CF
:104C300013968C9113978927838345FB882780F9E6
:104C4000242F2295269526952270282744FB882715
:104C500080F98227F4E04F9F90011124282B30E047
:104C6000822F8E7090E0432F50E03F5F4817590726
:104C7000D4F3EF89F88D948114968C911497892739
:104C8000848325FB442740F9822F8295869586955B
:104C90008270842724FB442740F94827F4E02F9FA3
:104CA000C0011124842B90E0282F2E7030E0492F72
:104CB00050E09F5F42175307D4F3EF89F88D2581A9
:104CC00015969C9115979227958385FB222720F9AD
:104CD000482F4295469546954270422784FB2227ED
:104CE00020F92427F4E08F9FA0011124422B20E01B
:104CF000842F8E7090E0622F70E02F5F6817790725
:104D0000D4F3EF89F88D968116968C9116978927A2
:104D1000868345FB882780F9242F229526952695A2
:104D20002270282744FB882780F98227F4E04F9FD0
:104D300090011124282B30E0822F8E7090E0432FB9
:104D400050E03F5F48175907D4F3EF89F88D9781FA
:104D500017968C9117978927878325FB442740F95D
:104D6000822F8295869586958270842724FB44271E
:104D700040F94827F4E02F9FC0011124842B90E0D4
:104D8000282F2E7030E0492F50E09F5F42175307C5
:104D9000D4F3EF89F88D208518969C911897922767
:104DA000908785FB222720F9482F42954695469506
:104DB0004270422784FB222720F92427F4E08F9FAA
:104DC000A0011124422B20E0842F8E7090E0622FEE
:104DD00070E02F5F68177907D4F3EF89F88D91851C
:104DE00019968C9119978927818745FB882780F927
:104DF000242F2295269526952270282744FB882764
:104E000080F98227F4E04F9F90011124282B30E095
:104E1000822F8E7090E0432F50E03F5F4817590774
:104E2000D4F3EF89F88D92851A968C911A97892779
:104E3000828725FB442740F9822F829586958695A7
:104E40008270842724FB442740F94827F4E02F9FF1
:104E5000C0011124842B90E0282F2E7030E0492FC0
:104E600050E09F5F42175307D4F3EF89F88D2385F5
:104E70001B969C911B979227938785FB222720F9ED
:104E8000482F4295469546954270422784FB22273B
:104E900020F92427F4E08F9FA0011124422B20E069
:104EA000842F8E7090E0622F70E02F5F6817790773
:104EB000D4F3EF89F88D94851C968C911C978927E3
:104EC000848745FB882780F9242F229526952695EF
:104ED0002270282744FB882780F98227F4E04F9F1F
:104EE00090011124282B30E0822F8E7090E0432F08
:104EF00050E03F5F48175907D4F3EF89F88D958547
:104F00001D968C911D978927858725FB442740F99D
:104F1000822F8295869586958270842724FB44276C
:104F200040F94827F4E02F9FC0011124842B90E022
:104F3000282F2E7030E0492F50E09F5F4217530713
:104F4000D4F3EF89F88D26851E969C911E979227A3
:104F5000968785FB222720F9482F4295469546954E
:104F60004270422784FB222720F92427F4E08F9FF8
:104F7000A0011124422B20E0842F8E7090E0622F3C
:104F800070E02F5F68177907D4F3EF89F88D978564
:104F90001F968C918927878745FB882780F9242FC6
:104FA0002295269526952270282744FB882780F98C
:104FB0008227F4E04F9F90011124282B2093C629CB
:104FC00030E02E70822F90E021E0230F432F50E03D
:104FD0004817590714F4322FF7CF3093A429689655
:104FE000CDBFDEBFDF91CF911F910F91FF90EF906A
:104FF000DF90CF90BF90AF909F908F907F906F90F9
:105000005F904F903F902F900895CF92DF92EF9254
:10501000FF920F931F93CF93DF93CDB7DEB76197C6
:10502000CDBFDEBF7C016B018E010F5F1F4F80E1A2
:10503000F80111928A95E9F7442329F14A3061F485
:1050400061E070E0C7010E944D03C7010E94E703C1
:10505000B60160567F4F17C0B701C801498B0E9447
:105060005A07D701F80190E1900F49892191809169
:105070002A2882278D939E13F9CFB601F0E14F9F26
:10508000600D711D1124C7010E94F6026196CDBF0B
:10509000DEBFDF91CF911F910F91FF90EF90DF90D6
:1050A000CF9008952F923F924F925F926F927F928E
:1050B0008F929F92AF92BF92CF92DF92EF92FF9228
:1050C0000F931F93CF93DF93CDB7DEB76097CDBF1C
:1050D000DEBFFC011B01942F9E012F5F3F4F80E13B
:1050E000D9011D928A95E9F74091C6299923D9F0F3
:1050F0009A3009F051C745FB992790F9842F829582
:10510000869586958270892744FB222720F92827D7
:1051100004E0409FC0011124822B8093C62920E027
:105120008E7090E04AC245FB992790F9842F8295B2
:10513000869586958270892744FB222720F92827A7
:10514000B4E04B9FC0011124822B8093C62920E03C
:105150008E7090E031E0320F422F50E0481759072F
:1051600014F4232FF7CF2093A4299081D1018C919F
:10517000892780839091C62995FB882780F9292F5C
:105180002295269526952270282794FB882780F95A
:105190008227B4E09B9F90011124282B30E0822FBE
:1051A0008E7090E0432F50E03F5F48175907D4F3CB
:1051B0009181D10111968C918927818325FB442708
:1051C00040F9822F8295869586958270842724FBEC
:1051D000442740F94827B4E02B9FC0011124842BB9
:1051E00090E0282F2E7030E0492F50E09F5F42174B
:1051F0005307D4F32281D10112969C919227928376
:1052000085FB222720F9482F429546954695427006
:10521000422784FB222720F92427B4E08B9FA0019A
:105220001124422B20E0842F8E7090E0622F70E0DA
:105230002F5F68177907D4F39381D10113968C916E
:105240008927838345FB882780F9242F229526957B
:1052500026952270282744FB882780F98227B4E00E
:105260004B9F90011124282B30E0822F8E7090E00C
:10527000432F50E03F5F48175907D4F39481D10181
:1052800014968C918927848325FB442740F9822F2B
:105290008295869586958270842724FB442740F961
:1052A0004827B4E02B9FC0011124842B90E0282FC5
:1052B0002E7030E0492F50E09F5F42175307D4F320
:1052C0002581D10115969C919227958385FB2227F4
:1052D00020F9482F4295469546954270422784FB17
:1052E000222720F92427B4E08B9FA0011124422B10
:1052F00020E0842F8E7090E0622F70E02F5F68179F
:105300007907D4F39681D10116968C9189278683EB
:1053100045FB882780F9242F229526952695227013
:10532000282744FB882780F98227B4E04B9F90010F
:105330001124282B30E0822F8E7090E0432F50E014
:105340003F5F48175907D4F39781D10117968C9185
:105350008927878325FB442740F9822F82958695EC
:1053600086958270842724FB442740F94827B4E0BF
:105370002B9FC0011124842B90E0282F2E7030E049
:10538000492F50E09F5F42175307D4F32085D10186
:1053900018969C919227908785FB222720F9482F09
:1053A0004295469546954270422784FB222720F974
:1053B0002427B4E08B9FA0011124422B20E0842FEE
:1053C0008E7090E0622F70E02F5F68177907D4F33A
:1053D0009185D10119968C918927818745FB882772
:1053E00080F9242F2295269526952270282744FBA4
:1053F000882780F98227B4E04B9F90011124282B45
:1054000030E0822F8E7090E0432F50E03F5F4817CE
:105410005907D4F39285D1011A968C9189278287F6
:1054200025FB442740F9822F8295869586958270C8
:10543000842724FB442740F94827B4E02B9FC00170
:105440001124842B90E0282F2E7030E0492F50E05B
:105450009F5F42175307D4F32385D1011B969C917C
:105460009227938785FB222720F9482F429546955E
:1054700046954270422784FB222720F92427B4E076
:105480008B9FA0011124422B20E0842F8E7090E08E
:10549000622F70E02F5F68177907D4F39485D101EC
:1054A0001C968C918927848745FB882780F9242FB7
:1054B0002295269526952270282744FB882780F977
:1054C0008227B4E04B9F90011124282B30E0822FDB
:1054D0008E7090E0432F50E03F5F48175907D4F398
:1054E0009585D1011D968C918927858725FB4427B9
:1054F00040F9822F8295869586958270842724FBB9
:10550000442740F94827B4E02B9FC0011124842B85
:1055100090E0282F2E7030E0492F50E09F5F421717
:105520005307D4F32685D1011E969C919227968726
:1055300085FB222720F9482F4295469546954270D3
:10554000422784FB222720F92427B4E08B9FA00167
:105550001124422B20E0842F8E7090E0622F70E0A7
:105560002F5F68177907D4F39785D1011F968C9127
:105570008927878745FB882780F9242F2295269540
:1055800026952270282744FB882780F98227B4E0DB
:105590004B9F90011124282B2093C62930E02E70B8
:1055A000822F90E021E0230F432F50E04817590746
:1055B00014F00C94E333322FF5CF31E0320F422F49
:1055C00050E04817590714F4232FF7CF2093A4294C
:1055D000808190E08E5D984DDC018C91808390916C
:1055E000C62995FB222720F9892F829586958695D5
:1055F0008270822794FB222720F92827B4E09B9F02
:10560000C0011124822B90E0282F2E7030E0492F0A
:1056100050E09F5F42175307D4F3218130E02E5DA5
:10562000384DD901BC90B18285FB442740F9282F21
:105630002295269526952270242784FB442740F93D
:105640004227B4E08B9F90011124242B30E0822F5D
:105650008E7090E0432F50E03F5F48175907D4F316
:10566000828190E08E5D984DDC013C91328325FB78
:10567000882780F9422F42954695469542704827E3
:1056800024FB882780F98427B4E02B9FA0011124F4
:10569000482B20E0842F8E7090E0622F70E02F5F07
:1056A00068177907D4F3838190E08E5D984DDC0113
:1056B0005C91538345FB002700F9842F82958695E2
:1056C00086958270802744FB002700F90827B4E004
:1056D0004B9FC0011124802B90E0682F6E7070E00A
:1056E000092F10E09F5F06171707D4F3648170E05D
:1056F0006E5D784DDB016C90648285FB992790F993
:10570000082F0295069506950270092784FB6627E7
:1057100060F96027B4E08B9F80011124962F902BB5
:1057200080E0692F6E7070E0082F10E08F5F061721
:105730001707D4F3658170E06E5D784DDB010C9145
:10574000058395FB882780F9692F62956695669594
:105750006270682794FB882780F98627B4E09B9FB6
:10576000B0011124682B20E0862F8E7090E0E22E8D
:10577000F12C2F5FE816F906D4F3868190E08E5D58
:10578000984DDC01AC90A68265FB992790F9862F95
:105790008295869586958270892764FB992790F972
:1057A000282F2927B4E06B9FC0011124922F982B3A
:1057B00080E0692F6E7070E0E82EF12C8F5FE616A6
:1057C000F706D4F3678170E06E5D784DDB012C91B4
:1057D000278395FB662760F9892F829586958695A4
:1057E0008270862794FB662760F96827B4E09B9F48
:1057F000C0011124862B90E0682F6E7070E0E92EB6
:10580000F12C9F5FE616F706D4F3608570E06E5DBD
:10581000784DDB015C90508685FB992790F9682FC5
:105820006295669566956270692784FB992790F961
:105830009627B4E08B9FB0011124692B80E0962F4E
:105840009E70E92EF12CC82ED12C8F5FCE14DF0470
:10585000D4F39185892F90E08E5D984DDC017C9189
:10586000718765FB882780F9962F92959695969576
:105870009270982764FBEE24E0F8E926B4E06B9F71
:10588000C00111246E2D682B80E0962F9E70E92EAA
:10589000F12CC82ED12C8F5FCE14DF04D4F3E28418
:1058A0008E2D90E08E5D984DDC011C91128765FB7A
:1058B000882780F9962F92959695969592709827BD
:1058C00064FB882780F98927B4E06B9F700111245D
:1058D000482F4E2960E0842F8E7090E0E62EF12C48
:1058E0006F5FE816F906D4F3838590E08E5D984DDE
:1058F000DC017C90738645FB882780F9942F929574
:10590000969596959270982744FBEE24E0F8E92648
:10591000B4E04B9FC00111244E2D482B60E0842F32
:105920008E7090E0E62EF12C6F5FE816F906D4F346
:10593000C4848C2D90E08E5D984DDC014C904486A3
:1059400045FB882780F9942F9295969596959270AD
:10595000982744FBEE24E0F8E926B4E04B9FC00111
:1059600011249E2D982B80E0492F4E70E42EF12CAF
:10597000882E912C8F5F8E149F04D4F38584912CF4
:10598000D401AE5DB84D4C91458795FBEE24E0F80F
:10599000892F8295869586958270E82694FB8827C4
:1059A00080F98E25B4E09B9F70011124982E9E28CB
:1059B00060E0892D8E7090E0E62EF12C6F5FE81686
:1059C000F906D4F3868590E08E5D984DDC016C91EC
:1059D000668795FADD24D0F8892D8295869586957F
:1059E00082708D2594FACC24C0F8C826B4E09B9E22
:1059F000C0011124DC2CD82AC12C8D2D8E7090E092
:105A0000EC2CF12CC394E816F906D4F38784882D86
:105A100090E08E5D984DDC019C90D5FAEE24E0F884
:105A20008D2D8295869586958270E826D4FACC24B1
:105A3000C0F8EC24B4E0DB9E60011124CE28D12C08
:105A40008C2D8E7090E0ED2CF12CD394E816F90695
:105A5000D4F3C5FA882780F99C2D92959695969552
:105A600092709827C4FA882780F9892794E0C99E04
:105A700070011124882E8E28D12C882D8E7090E0F4
:105A8000ED2CF12CD394E816F906D4F30183758339
:105A90004187B58685FACC24C0F8982D92959695C5
:105AA000969592709C2584FACC24C0F8C926A4E06F
:105AB0008A9EC0011124DC2CD82AC12C8D2D8E7019
:105AC00090E0EC2CF12CC394E816F906D4F3128381
:105AD00032876683A686D5FAEE24E0F89D2D92954E
