:100000000C94F9000C941A010C941A010C941A0126
:100010000C941A010C941A010C941A010C941A01F4
:100020000C941A010C941A010C941A010C941A01E4
:100030000C941A010C941A010C941A010C941A01D4
:100040000C941A010C941A010C941A010C941A01C4
:100050000C941A010C941A010C941A010C941A01B4
:100060000C941A010C941A010C941A010C941A01A4
:100070000C941A010C941A010C941A010C941A0194
:100080000C941A010C941A010C941A010C941A0184
:100090000C941A010C941A010C941A010C941A0174
:1000A0000C941A010C941A010C941A010C941A0164
:1000B0000C941A010C941A010C941A010C941A0154
:1000C0000C941A010C941A010C941A010C941A0144
:1000D0000C941A010C941A010C941A010C941A0134
:1000E0000C941A010C941A010C941A010C941A0124
:1000F0000C941A010C941A010C941A010C941A0114
:100100000C941A010C941A010C941A010C941A0103
:100110000C941A010C941A010C941A010C941A01F3
:100120000C941A010C941A010C941A010C941A01E3
:100130000C941A010C941A010C941A010C941A01D3
:100140000C941A010C941A010C941A010C941A01C3
:100150000C941A010C941A010C941A010C941A01B3
:100160000C941A010C941A010C941A010C941A01A3
:100170000C941A010C941A010C941A010C941A0193
:100180000C941A010C941A010C941A010C941A0183
:100190000C941A010C941A010C941A010C941A0173
:1001A0000C941A010C941A010C941A010C941A0163
:1001B0000C941A010C941A010C941A010C941A0153
:1001C0000C941A010C941A0117151C1521152615EB
:1001D0002B15301535150C9426150C9435150C94EB
:1001E00021150C9417150C942B150C9430150C94A8
:1001F0001C1511241FBECFEFDFE3DEBFCDBF00E033
:100200000CBF14E2A0E0B0E2ECECFDE200E00BBFBA
:1002100002C007900D92AE31B107D9F715E2AEE1F9
:10022000B4E201C01D92AE38B107E1F70E9471152A
:100230000C94E4160C940000CF93DF93C42FD52FB9
:10024000A0E0B0E0A617B707F0F4FC01EA0FFB1F2F
:1002500020812A3328F0206230E02755310903C07D
:1002600030E020533109E181EA3328F0E062F0E028
:10027000E755F10902C0F0E0F0972295207FE22BCC
:10028000E9931296DFCFCA01DF91CF9108951F93B2
:10029000CF93DF93DA0111969C01260F371F821747
:1002A0009307B9F0EC01FC011191CF01E12FE29528
:1002B000EF70F0E0E050F04E1081FD0131971083B7
:1002C000E881EF70F0E0E050F04EE081EC931296A0
:1002D000E6CF660F771FFA01E60FF71F1082DF9156
:1002E000CF911F910895E0E4F6E088E0818384E0F7
:1002F0008283E0EAF8E083E085838BE086831782DF
:100300008481806184838481886084830895CF930D
:10031000DF931F921F92CDB7DEB769837A8320E007
:1003200030E049815A812417350769F04091A108CE
:1003300047FF06C02091A008FC01208381E004C093
:100340002F5F3F4FEECF80E00F900F90DF91CF9166
:1003500008958091A10887FFFCCF8091A00808959F
:100360009091A10895FFFCCF8093A0080895FC010F
:1003700060837183428314861386168615860895DA
:10038000FC0162830895FC01958526859F5F93702B
:1003900081E0921301C080E008950F931F93CF93E3
:1003A000DF931F92CDB7DEB78C0169830E94C30132
:1003B00069818823A9F0D8011D969C911D97F801A9
:1003C000E90FF11D67839F5F9370F8019587019096
:1003D000F081E02D93819C7F12962C91922B938338
:1003E0000F90DF91CF911F910F910895FC0123850C
:1003F000948581E0291301C080E00895FC01848583
:10040000DF01A80FB11D13968C9194859F5F9370A7
:1004100094870895FC0183858F5F83702485A08174
:10042000B1819C91821749F02385DF01A20FB11D94
:1004300013969C93838781E0089580E00895CF937D
:10044000DF93FC0186859585A081B181981307C053
:1004500013968C9113978C7F13968C930AC0868584
:10046000EF01C80FD11D8F818C9386858F5F8370BC
:100470008687DF91CF910895FC01848170FF02C0CF
:10048000816001C08E7F848360830895FC01848134
:1004900080FF04C0808190E091600895808190E0A9
:1004A000089510925200109255008091500088607B
:1004B000809350008091510083FFFCCF88ED84BF72
:1004C00083E08093400088E08093500080E6809332
:1004D0000106809305060895DC014096EC912E2FCD
:1004E0002F70E295EF7030E1E39FF0011124E20FED
:1004F000F11DE25EFD4D20812D93A817B90771F71C
:100500000895DF92EF92FF920F931F93CF93DF93A3
:10051000FC019B01205F3F4FDC01EB014991BE01D3
:100520004D93C217D307C9F7BC01635F7F4F04E146
:1005300010E2AC01425F5F4F9C01215F3F4FDC0145
:100540001C9681E0E801E9908E019081E926EB019B
:100550009881C92FD0E0C25EDC4D9881E926E08AFF
:10056000EA019881C92FD0E0C25EDC4DF88091810C
:10057000F926F18AE9019881C92FD0E0C25EDC4DED
:10058000D8819281DD2ED926D28ACC91D0E0C25E6C
:10059000DC4DC88193819C27938BC481EC26E48A2F
:1005A000C581FC26F58AC681DD2DDC27D68BC78167
:1005B0009C27978BC085EC26E08EC185FC26F18EAA
:1005C000C285DD2EDC26D28EC3859C27938FCC91ED
:1005D000EC26E48EEB01E880FE24F58EEA01F8803B
:1005E000DD2DDF25D68FE901F8809F25978F8F5F5E
:1005F000605F7F4F7096405F5F4F205F3F4F509628
:100600008B3009F09FCFDF91CF911F910F91FF9019
:10061000EF90DF900895FC019C01205F3F4FDB01CC
:100620008D91BD01908189278193E217F307B9F776
:1006300008956130710561F4FC014096A081B0E03D
:10064000A25EBC4D2C912193E817F907B9F70895E4
:100650006230710511F40C946C020895FC018181E3
:1006600095819183918595839585918785878281F1
:1006700092859283828786819685968386878381F9
:100680009785938393859787978193878783089529
:10069000FC018481958194839681958397819683CB
:1006A00087838085928590878287818593859187CE
:1006B0008387848597859487968597879585968780
:1006C0008587089587FF04C0880F9BE189270895D7
:1006D000880F08959F92AF92BF92CF92DF92EF92D0
:1006E000FF920F931F93CF93DF93CDB7DEB7A09701
:1006F000CDBFDEBF7C015C01CE0101966C018E0195
:100700000F5E1F4F80E1982E900EF50181915F01E1
:10071000F80181938F010E946203F60181936F01BA
:100720009012F3CFDE0154969E012C5F3F4F57018C
:10073000F3E0AF0EB11CAE014C5D5F4FC9010397F2
:10074000FC01E0800196FC019081BD0162507109BD
:10075000FB01F0806F5F7F4FFB0170818C91850101
:10076000035011096E2D692768276F256727F80147
:1007700060838D0103501109F801608189010150E6
:100780001109F801D0808501025011099727982797
:1007900096279D25F8019083F90190810F5F1F4FE7
:1007A00089278F2586278D25F8018083FE24F92649
:1007B0007F256727F501608314962C5F3F4FF4E097
:1007C000AF0EB11CA417B50709F0B8CFA096CDBFE6
:1007D000DEBFDF91CF911F910F91FF90EF90DF90DF
:1007E000CF90BF90AF909F9008952F923F924F92DD
:1007F0005F926F927F928F929F92AF92BF92CF92B1
:10080000DF92EF92FF920F931F93CF93DF93CDB7B9
:10081000DEB72A97CDBFDEBF89879A87FC01E480C7
:100820002084A484F5803184B58406814284C68402
:1008300017815384D7847081618152814381372F1E
:100840003E25262F2F25952F9027F42FF127F9836A
:1008500069847A84430180E1880E911CF3018081D0
:100860002F833E834D835C836B837A8398870E94BA
:100870006203F30181933F012F813E814D815C81B1
:100880006B817A819885E815F90541F7E985FA8544
:10089000B081A181828073808481E224EA24EB26E6
:1008A000E826E082E580F324FB24FA26FE24F18288
:1008B000F68004250C2508250F25028307811525C0
:1008C0001D2517251027138310859A2C922479252E
:1008D00087278127848371858B2D83256827E626CA
:1008E000E726E58262858C2D84255827F526F62695
:1008F000F68253858D2D85254827042705270783F4
:100900004485A126A426A326A0868585B726B826D9
:10091000B226B1867685C626C726C926C2866785D1
:10092000D526D6265981D526D3862B2624263225B0
:1009300034873A26382623252587482447269425B8
:10094000968757245626552657862A96CDBFDEBF52
:10095000DF91CF911F910F91FF90EF90DF90CF909B
:10096000BF90AF909F908F907F906F905F904F90CF
:100970003F902F900895FC0181819481918384831D
:1009800082819085928380878381948593838487F5
:1009900086819185968381878781958597838587D1
:1009A00083859685938786870895CF93DF93DC01AF
:1009B000FB01858190E0825E9F4DC081D0E09E0169
:1009C000225E3E4DEC019881E90188818927C2852C
:1009D000D0E0C25EDC4D98818927C785D0E0C25E39
:1009E000DC4D988189278C93858190E0825E9E4DB5
:1009F000C081D0E09E01225E3C4DEC019881E9016E
:100A000088818927C285D0E0C25EDF4D9881892721
:100A1000C785D0E0C25EDC4D9881892711968C9302
:100A20001197858190E0825E9C4DC081D0E09E014F
:100A3000225E3C4DEC019881E90188818927C285BD
:100A4000D0E0C25EDE4D98818927C785D0E0C25EC6
:100A5000DF4D9881892712968C931297858190E0BB
:100A6000825E9C4DC081D0E09E01225E3F4DEC0134
:100A70009881E90188818927C285D0E0C25EDC4D7A
:100A800098818927C785D0E0C25EDE4D988189278D
:100A900013968C931397818590E0825E9F4DC4815D
:100AA000D0E09E01225E3E4DEC019881E9018881F3
:100AB0008927C685D0E0C25EDC4D98818927C38135
:100AC000D0E0C25EDC4D9881892714968C931497F0
:100AD000818590E0825E9E4DC481D0E09E01225EC1
:100AE0003C4DEC019881E90188818927C685D0E0D9
:100AF000C25EDF4D98818927C381D0E0C25EDC4DA4
:100B00009881892715968C931597818590E0825E50
:100B10009C4DC481D0E09E01225E3C4DEC01988149
:100B2000E90188818927C685D0E0C25EDE4D9881C3
:100B30008927C381D0E0C25EDF4D98818927169650
:100B40008C931697818590E0825E9C4DC481D0E0A5
:100B50009E01225E3F4DEC019881E9018881892741
:100B6000C685D0E0C25EDC4D98818927C381D0E084
:100B7000C25EDE4D9881892717968C9317978585DD
:100B800090E0825E9F4DC085D0E09E01225E3E4D8A
:100B9000EC019881E90188818927C281D0E0C25E99
:100BA000DC4D98818927C781D0E0C25EDC4D9881F9
:100BB000892718968C931897858590E0825E9E4DC4
:100BC000C085D0E09E01225E3C4DEC019881E90198
:100BD00088818927C281D0E0C25EDF4D9881892754
:100BE000C781D0E0C25EDC4D9881892719968C932D
:100BF0001997858590E0825E9C4DC085D0E09E016E
:100C0000225E3C4DEC019881E90188818927C281EF
:100C1000D0E0C25EDE4D98818927C781D0E0C25EF8
:100C2000DF4D988189271A968C931A97858590E0D5
:100C3000825E9C4DC085D0E09E01225E3F4DEC015E
:100C40009881E90188818927C281D0E0C25EDC4DAC
:100C500098818927C781D0E0C25EDE4D98818927BF
:100C60001B968C931B97818190E0825E9F4DC4857B
:100C7000D0E09E01225E3E4DEC019881E901888121
:100C80008927C681D0E0C25EDC4D98818927C38563
:100C9000D0E0C25EDC4D988189271C968C931C970E
:100CA000818190E0825E9E4DC485D0E09E01225EEF
:100CB0003C4DEC019881E90188818927C681D0E00B
:100CC000C25EDF4D98818927C385D0E0C25EDC4DCE
:100CD000988189271D968C931D97818190E0825E73
:100CE0009C4DC485D0E09E01225E3C4DEC01988174
:100CF000E90188818927C681D0E0C25EDE4D9881F6
:100D00008927C385D0E0C25EDF4D988189271E9672
:100D10008C931E97818190E0825E9C4DC485D0E0CB
:100D20009E01225E3F4DEC019881E901888189276F
:100D3000C681D0E0C25EDC4D98818927E385F0E072
:100D4000E25EFE4D908189271F968C93DF91CF91B3
:100D50000895FF920F931F93CF93DF93442311F1D4
:100D6000F42E8B01EC018AE061E070E048130AC0C8
:100D7000CE010E941903CE010E942E03B8016056D5
:100D80007F4F0FC0CE010E941903CE010E942E0397
:100D9000CE010E946A03B80180E1F89E600D711DCA
:100DA0001124CE01DF91CF911F910F91FF900C94F0
:100DB0000B032F923F924F925F926F927F928F928E
:100DC0009F92AF92BF92CF92DF92EF92FF920F93DA
:100DD0001F93CF93DF93CDB7DEB76597CDBFDEBF4F
:100DE000FC013B0190811181328153817481058125
:100DF000A68027816085411157C0D3014C9194276B
:100E0000908311969C9111971927118312969C91AA
:100E100012973927328313969C911397592753833E
:100E200014969C9114977927748315969C91159725
:100E30000927058316969C9116978A2D8927868304
:100E400017968C9117972827278318968C911897B7
:100E500068276087918519968C91199789278187D2
:100E600092851A968C911A978927828793851B966B
:100E70008C911B978927838794851C968C911C974E
:100E80008927848795851D968C911D97892785874D
:100E900096851E968C911E978927868797851F9623
:100EA0008C91892787875AC24A3009F0C2C0E92E3F
:100EB000F12CC701825E9C4DDC01FC90F082C12EBA
:100EC000D12CC601825E9C4DDC019C91C32ED12C9D
:100ED000D601A25EBC4D3C91452F50E0425E5C4D78
:100EE000DA015C91C72ED12CD601A25EBC4D7C915B
:100EF000748310E0025E1C4DD8010C91CA2CD12CD9
:100F0000D601A25EBC4D8C91C22ED12CD601A25E20
:100F1000BC4D2C91C62ED12CD601A25EBC4D4C915D
:100F20004087C184D12CD601A25EBC4D6C91C28495
:100F3000D12CD601A25EBC4D1C91C384D12CD6010C
:100F4000A25EBC4DDC90A484B12CD501A25EBC4D48
:100F5000EC90E486A584B12CD501A25EBC4DCC906A
:100F6000A684B12CD501A25EBC4DBC908784912C87
:100F7000D401A25EBC4DAC9001836583C186958788
:100F800012833287B6828687A382D78623875783C8
:100F9000D301A056BF4F9C90F924F0821196FC908B
:100FA00011970F25018312960C9112971027128327
:100FB00013961C911397A126A38214961C91149743
:100FC0007127748315967C9115976727658316960C
:100FD0006C9116976B25668317966C911797562719
:100FE000578318965C9118974527408719964C911E
:100FF00019974C2541871A964C911A9734273287B6
:101000001B963C911B97232723871C962C911C979A
:10101000E226E4861D962C911D97922795871E96B1
:101020009C911E97892786871F968C91D826D786F4
:1010300095C14C876A867B86EC8BFD8BE92FF0E0AF
:10104000E25EFC4D4081E12FF0E0E25EFC4DF0807D
:10105000E32FF0E0E25EFC4DB080E52FF0E0E25ED1
:10106000FC4D1081E72FF0E0E25EFC4D30813983CA
:10107000E02FF0E0E25EFC4D3080EA2DF0E0E25E31
:10108000FC4DE080E22FF0E0E25EFC4DD080E62FE8
:10109000F0E0E25EFC4DA080AC89BD891996EC9130
:1010A0001997F0E0E25EFC4D30811A96EC911A97A8
:1010B000F0E0E25EFC4D40801B96EC911B97F0E067
:1010C000E25EFC4DC0801C96EC911C97F0E0E25E65
:1010D000FC4D00811D96EC911D97F0E0E25EFC4D09
:1010E00050801E96EC911E97F0E0E25EFC4D8080F1
:1010F0001F96EC91F0E0E25EFC4D2080842F3B8B4C
:101100004A8B0E9462038A83832D0E946203682EA9
:10111000842D0E946203782E822D0E946203782F14
:101120008981798B0E9462038B833B89832F0E9484
:101130006203982E882D0E946203282F812F288B0E
:101140000E946203682F8A2D6F870E9462038C833E
:10115000852D0E946203982F8B2D9E870E9462032B
:101160008D838D2D0E946203582F802F5D870E94F2
:1011700062038E838F2D0E9462038F838E2D0E94C7
:10118000620388878C2D0E946203F42DF325F225DB
:10119000BA81FB27F625F987AF2FEC89FD89A0835B
:1011A0004A89E42DE427E2256E266724EC89FD892F
:1011B000618234262324722479897726728243241B
:1011C0004B26742573833B89E32FE127E8254B8168
:1011D000E4274E2E4924AC89BD8914964C9214976D
:1011E00049811427412F482594262889922615964F
:1011F0009C921597132712276F85162716961C9316
:10120000169729813227232F28253B812327622700
:1012100017966C932D2D2B25B22FB5254C81B42715
:101220009E853B2E3926AC89BD8918963C9218972D
:101230002A2529273D81232719962C9319973A2D82
:101240003D253525DD80D3265D85D5261A96DC9291
:101250001A979A2D9B255926542655251B965C9343
:101260003E2D3F25A32FAC254E81A4275F805A2613
:10127000AC89BD891C965C921C979C2D9E2590275D
:10128000EF80E9264885E4261D96EC921D979C2D5B
:101290009F259027F42EF926F8261E96FC921E977D
:1012A00030279E81392783271F968C93EA85FB85FB
:1012B0003C85A0E13A9FE00DF11D11249081498504
:1012C0009427AC89BD899C939181692611966C9273
:1012D00011972280722412967C921297838078252F
:1012E00013967C9313979481942514969C9314974A
:1012F0004581942615969C921597A6801A251696D8
:101300001C931697B7806B2517966C93179790854B
:10131000932518969C931897C1842C2519962C9385
:1013200019979285D9261A96DC921A979385592790
:101330001B965C931B97948595251C969C931C97F4
:101340009585E9261D96EC921D979685F9261E96A1
:10135000FC921E97078580271F968C936596CDBFBC
:10136000DEBFDF91CF911F910F91FF90EF90DF9043
:10137000CF90BF90AF909F908F907F906F905F9035
:101380004F903F902F900895FF920F931F93CF930C
:10139000DF93442301F1F42E8B01EC018AE0481322
:1013A0000AC0CE010E946C02CE010E942E03B80139
:1013B00060567F4F0FC0CE010E946C02CE010E948A
:1013C0002E03CE010E946A03B80180E1F89E600DF1
:1013D000711D1124CE01DF91CF911F910F91FF90CC
:1013E0000C940B032F923F924F925F926F927F92D9
:1013F0008F929F92AF92BF92CF92DF92EF92FF9225
:101400000F931F93CF93DF93CDB7DEB76597CDBF13
:10141000DEBFFC012B0170818181328153816481A7
:1014200025819681411158C0D2014C917427708357
:1014300011964C9111978427818312968C91129763
:101440003827328313968C91139758275383149619
:101450008C9114976827648315968C91159728278B
:10146000258316968C9116979827968397811796C1
:101470008C91179789278783908518968C91189758
:1014800089278087918519968C911997892781875B
:1014900092851A968C911A978927828793851B9635
:1014A0008C911B978927838794851C968C911C9718
:1014B0008927848795851D968C911D978927858717
:1014C00096851E968C911E978927868797851F96ED
:1014D0008C918927878789C34A3009F05AC1472FE1
:1014E0004F7072957F70B0E17B9F7001112487016E
:1014F000040F111D025E1D4DD801FC90F082482F93
:101500004F7082958F70B0E18B9F80011124040F82
:10151000111D025E1D4DD8019C90432F4F703295D6
:101520003F70B0E13B9F80011124040F111D025E4A
:101530001D4DD8013C91452F4F7052955F70B0E121
:101540005B9F80011124040F111D025E1D4DD80107
:101550005C91462F4F7062956F70B0E16B9F800178
:101560001124040F111D025E1D4DD8017C9174835E
:10157000422F4F7022952F70B0E12B9F80011124D4
:10158000040F111D025E1D4DD8010C91292F2F70E3
:1015900092959F70B0E19B9FC0011124820F911D15
:1015A000825E9D4DDC01DC908781982F9F70829533
:1015B0008F70B0E18B9F50011124D501A90FB11D8F
:1015C000CD01825E9D4DDC012C918085982F9F700E
:1015D00082958F70B0E18B9F50011124D501A90F26
:1015E000B11DCD01825E9D4DDC014C91408781850E
:1015F000982F9F7082958F70B0E18B9F50011124BE
:10160000D501A90FB11DCD01825E9D4DDC016C910C
:101610008285982F9F7082958F70B0E18B9F5001CB
:101620001124D501A90FB11DCD01825E9D4DDC01B4
:101630001C918385B82FBF7082958F7090E1899F30
:1016400050011124C5018B0F911D825E9D4DDC015F
:10165000CC908485B82FBF7082958F7090E1899F60
:1016600050011124C5018B0F911D825E9D4DDC013F
:101670009C919487B584BB2DBF70B2948FE0B82243
:1016800080E1B89E50011124AB0EB11CD501A25EC1
:10169000BD4DEC90A684BA2DBF70A294AFE0AA22F3
:1016A00080E1A89E300111246B0E711CD301A25E53
:1016B000BD4DBC908784B82DBF70AB2E8294BFE027
:1016C0008B2280E1889E300111246A0C711CD301A9
:1016D000A25EBD4DAC9001836583E1869586128341
:1016E0003287B682D686A382C78623875783D201E4
:1016F000A056BF4F8C91F826F08211968C911197CD
:101700000827018312968C9112971827128313963B
:101710008C911397A826A38214968C9114977827FE
:10172000748315967C9115976727658316966C913F
:1017300016976B25668317966C91179756275783D4
:1017400018965C9118974527408719964C911997E0
:10175000E426E1861A964C911A97342732871B9615
:101760003C911B97232723871C962C911C9792272B
:1017700094871D969C911D97892D892785871E9694
:101780008C911E97D826D6861F968C91C826C78620
:101790002CC24C874A865B86EC8BFD8B472F4F70A3
:1017A00072957F70B0E17B9FF0011124E40FF11D71
:1017B000E25EFD4D4081782F7F7082958F7010E141
:1017C000819FF0011124E70FF11DE25EFD4DF080D5
:1017D000832F8F7032953F7070E1379FF001112495
:1017E000E80FF11DE25EFD4DB080852F8F705295A0
:1017F0005F70A0E15A9FF0011124E80FF11DE25E35
:10180000FD4D1081862F8F7062956F70B0E16B9FD8
:10181000F0011124E80FF11DE25EFD4D30813983A6
:10182000822F8F7022952F7060E1269FF001112486
:10183000E80FF11DE25EFD4D3080892F8F7092958B
:101840009F7070E1979FF0011124E80FF11DE25E97
:10185000FD4DE080AC89BD891796EC918E2F8F707D
:10186000E295EF70B0E1EB9FF0011124E80FF11D5C
:10187000E25EFD4DD080AC89BD891896EC918E2F2B
:101880008F70E295EF70B0E1EB9FF0011124E80F4B
:10189000F11DE25EFD4DA080AC89BD891996EC91E9
:1018A0008E2F8F70E295EF70B0E1EB9FF001112465
:1018B000E80FF11DE25EFD4D3081AC89BD891A96BD
:1018C000EC918E2F8F70E295EF70B0E1EB9FF001FD
:1018D0001124E80FF11DE25EFD4D4080AC89BD8909
:1018E0001B96EC918E2F8F70E295EF70B0E1EB9F1D
:1018F000F0011124E80FF11DE25EFD4DC080AC89BE
:10190000BD891C96EC918E2F8F70E295EF70B0E13F
:10191000EB9FF0011124E80FF11DE25EFD4D008107
:10192000AC89BD891D96EC918E2F8F70E295EF707A
:10193000B0E1EB9FF0011124E80FF11DE25EFD4DD7
:101940005080AC89BD891E96EC918E2F8F70E295E8
:10195000EF70B0E1EB9FF0011124E80FF11DE25EA2
:10196000FD4D8080AC89BD891F96EC918E2F8F70C4
:10197000E295EF70B0E1EB9FF0011124E80FF11D4B
:10198000E25EFD4D2080842F3B8B4A8B0E946203D8
:101990008A83832D0E946203682E842D0E94620335
:1019A000782E822D0E946203782F8981798B0E9484
:1019B00062038B833B89832F0E946203982E882DBC
:1019C0000E946203282F812F288B0E946203682FB8
:1019D0008A2D6F870E9462038C83852D0E9462038B
:1019E000982F8B2D9E870E9462038D838D2D0E94E0
:1019F0006203582F802F5D870E9462038E838F2D94
:101A00000E9462038F838E2D0E94620388878C2D33
:101A10000E946203F42DF325F225EA81FE27F625C4
:101A2000F987AC89BD89FC934A89E42DE427E22536
:101A30006E26672411966C92119734262324722403
:101A40007989772612967C92129743244A814426FC
:101A5000742513967C9313973B89E32FE127E825A0
:101A60004B81E4274E2E492414964C9214974981B9
:101A70001427412F482594262889922615969C9252
:101A80001597132712276F85162716961C931697FE
:101A900029813227232F28253B8123276227179668
:101AA0006C932D2D2B25B22FB5254C81B4279E8507
:101AB0003B2E3926AC89BD8918963C9218972A2569
:101AC00029273D81232719962C9319973A2D3D25D7
:101AD0003525DD80D3265D85D5261A96DC921A97AA
:101AE0009A2D9B255926542655251B965C933E2DF1
:101AF0003F25A32FAC254E81A4275F805A26AC89B1
:101B0000BD891C965C921C979C2D9E259027EF808A
:101B1000E9264885E4261D96EC921D979C2D9F256D
:101B20009027F42EF926F8261E96FC921E97302751
:101B30009E81392738271F963C93EA85FB854C8583
:101B4000A0E14A9FE00DF11D11248081998589272C
:101B5000AC89BD898C938181682611966C9211970E
:101B60002280722412967C92129783807825139695
:101B70007C9313978481842514968C9314974581C4
:101B8000942615969C921597A6801A2516961C9356
:101B90001697B7806B2517966C93179780858325CA
:101BA00018968C931897C1842C2519962C93199705
:101BB0008285D8261A96DC921A97938559271B9608
:101BC0005C931B97848585251C968C931C97858533
:101BD000E8261D96EC921D979685F9261E96FC9296
:101BE0001E97878538271F963C936596CDBFDEBF2D
:101BF000DF91CF911F910F91FF90EF90DF90CF90E9
:101C0000BF90AF909F908F907F906F905F904F901C
:101C10003F902F900895CF92DF92EF92FF920F9313
:101C20001F93CF93DF93CDB7DEB76197CDBFDEBFF4
:101C30007C016B018E010F5F1F4F80E1F801119253
:101C40008A95E9F7442311F14A3061F461E070E0CC
:101C5000C7010E941903C7010E942E03B6016056F6
:101C60007F4F14C0B701C801498B0E94D504D7012A
:101C7000F80180E1800F498991919D938E13FCCFEB
:101C8000B601F0E14F9F600D711D1124C7010E9444
:101C90000B036196CDBFDEBFDF91CF911F910F91F6
:101CA000FF90EF90DF90CF9008952F923F924F9248
:101CB0005F926F927F928F929F92AF92BF92CF92DC
:101CC000DF92EF92FF920F931F93CF93DF93CDB7E5
:101CD000DEB76297CDBFDEBFFC01698B7A8B942F94
:101CE0008E010F5F1F4F80E1D8011D928A95E9F7A1
:101CF00020815180728093808481658146806780D5
:101D0000808441112EC0A989BA899C9129272083FA
:101D100011969C9111975926518212969C91129777
:101D20007926728213969C91139799269382149622
:101D30009C9114978927848315968C911597682711
:101D4000658316968C9116974826468217968C9135
:101D500017976826678218968C9118978826808630
:101D60003FC230E04A3009F0BFC0225E3C4DD9018D
:101D70000C910083252D30E0225E3C4DD9017C91F1
:101D8000272D30E0225E3C4DD9011C91292D30E0F9
:101D9000225E3C4DD901FC9090E0825E9C4DDC01BE
:101DA000EC90E482862F90E0825E9C4DDC01DC901A
:101DB000842D90E0825E9C4DDC016C91862D90E03C
:101DC000825E9C4DDC019C91282D30E0225E3C4DD2
:101DD000D9012C912087418550E0425E5C4DDA01AB
:101DE0003C91428550E0425E5C4DDA01CC904385E7
:101DF00050E0425E5C4DDA01BC90448550E0425EAA
:101E00005C4DDA018C918487458550E0425E5C4DE3
:101E1000DA01AC90468550E0425E5C4DDA019C9060
:101E2000478550E0425E5C4DDA018C90D18235836B
:101E3000A1867587C2821287968266878382B7865B
:101E40009387F782A989BA89A056BF4F4C9104277E
:101E5000008311965C911197D526D18212965C91E0
:101E60001297C526C28213964C9113974825438337
:101E700014964C911497E426E48215964C9115978C
:101E80003427358316963C91169739253683179655
:101E90003C911797F326F78218963C9118972327C1
:101EA000208719962C9119972A2521871A962C910B
:101EB0001A97122712871B962C911B9792279387AC
:101EC0001C969C911C97892784871D968C911D9741
:101ED000782775871E968C911E97682766871F96B0
:101EE0008C91B826B786A5C170E0E284F12CA701D9
:101EF000425E5C4DDA012C90478550E0DA01A25E2B
:101F0000BC4D3C90DB01A25EBF4D5D01D901A25EDC
:101F1000BE4D6D01D501BC90D601DC90DB24D224EE
:101F2000D324D982D901A25EBC4DBC903B24DB01F5
:101F3000A25EBE4DDC903D24D701A25EBF4DDC9079
:101F40003D243A82625E7C4DDB01DC90BD24B7010A
:101F5000625E7E4DDB016C91B626BA01625E7F4DFA
:101F6000DB016C91B626BB822D24225E3F4DD90148
:101F70002C912226425E5E4DDA012C9122262C8283
:101F8000E82EF12C618570E0468550E09A01225ED2
:101F90003C4DD9013C90292D30E0D901A25EBC4DC9
:101FA0009C90DB01A25EBF4D5D01D701A25EBE4DDC
:101FB0006D01D501BC90D6018C918B258325892597
:101FC0008D83D701A25EBC4D8C919826DB01A25E69
:101FD000BE4DDC909D24DA01A25EBF4DDC909D24B5
:101FE0009E82625E7C4DDB016C918627425E5E4D77
:101FF000DA014C918427A901425E5F4DDA014C91D0
:1020000084278F833626A701425E5F4DDA018C91CB
:102010003826225E3E4DD9018C9138263886682DAF
:1020200070E0458550E0E72CF12C9701225E3C4D95
:10203000D9018C91262D30E0D901A25EBC4D9C9037
:10204000DA01A25EBF4D5D01DB01A25EBE4D6D01F6
:10205000D501BC90D601DC90DB24D826D924D986C2
:10206000DB01A25EBC4DBC909B24DA01A25EBE4D9A
:10207000DC909D24D701A25EBF4DDC909D249A8602
:10208000425E5C4DDA01DC90BD24A701425E5E4DEC
:10209000DA014C91B426A901425E5F4DDA014C9100
:1020A000B426BB868D25625E7F4DDB014C91842773
:1020B000225E3E4DD9012C9182278C87448550E0C9
:1020C000652D70E0512C9201225E3C4DD901BC90EF
:1020D000238530E0D901A25EBC4DAC90DB01A25E4D
:1020E000BF4D6D01DA01A25EBE4D7D01D601DC90CF
:1020F000D7018C918D258B258A258D87DA01A25EEB
:10210000BC4D8C91A826DB01A25EBE4DFC90AF2495
:10211000D201A25EBF4DFC90AF24AE86625E7C4DC4
:10212000DB017C918727D201A25EBE4D6C91862790
:10213000D901A25EBF4D6C9186278F87B726425E7C
:102140005F4DDA018C91B826225E3E4DD9018C910B
:10215000B826B88A9F0180E1800FD8014D918D018A
:10216000D9014D939D018013F8CFA989BA8980E1E7
:10217000989FA00DB11D112490818C918927808397
:10218000918111968C911197892781839281129662
:102190008C91129789278283938113968C91139740
:1021A00089278383948114968C911497892784833B
:1021B000958115968C91159789278583968116961A
:1021C0008C91169789278683978117968C911797FC
:1021D00089278783908518968C91189789278087FF
:1021E000918519968C9119978927818792851A96DE
:1021F0008C911A978927828793851B968C911B97C0
:102200008927838794851C968C911C9789278487BE
:1022100095851D968C911D978927858796851E9695
:102220008C911E978927868797851F968C91892781
:1022300087876296CDBFDEBFDF91CF911F910F914F
:10224000FF90EF90DF90CF90BF90AF909F908F90D6
:102250007F906F905F904F903F902F900895EF92F6
:10226000FF920F931F93CF93DF931F92CDB7DEB7EB
:102270007C018B01411103C00E94BB0423C04A3082
:1022800069F40E94BB0461E070E0C7010E94190379
:10229000C7010E94480300561F4F14C049830E9483
:1022A000BB0461E070E0C7010E941903C7010E94EE
:1022B0004803C7010E94F503498180E1489F000D52
:1022C000111D1124C8010E94BB04B801C7010E945E
:1022D0000B03C7010F90DF91CF911F910F91FF90DA
:1022E000EF900C94BB042F923F924F925F926F92AB
:1022F0007F928F929F92AF92BF92CF92DF92EF9296
:10230000FF920F931F93CF93DF93CDB7DEB72F9735
:10231000CDBFDEBFFC016D877E8781810481728124
:10232000E0845381348566812185C7809585D38477
:1023300016854111B3C001838483E28270873383A1
:102340005487268361879783C5861387D686AD8594
:10235000BE8511968C91119714969C9114971196A5
:102360009C93119714968C93149712968C911297B4
:1023700018969C91189712969C93129718968C9386
:10238000189713968C9113971C969C911C971396F3
:102390009C9313971C968C931C9716968C9116976A
:1023A00019969C91199716969C93169719968C934B
:1023B000199717968C9117971D969C911D971796B4
:1023C0009C9317971D968C931D971B968C911B972A
:1023D0001E969C911E971B969C931B971E968C9302
:1023E0001E9790818C9189278083118111968C9101
:1023F000119718271183E28012968C911297E82684
:10240000E282638113968C9113976827638304811A
:1024100014968C91149708270483958115968C91B6
:10242000159789278583468116968C91169748279C
:102430004683278117968C91179728272783D08466
:1024400018968C911897D826D086518519968C911C
:1024500019975827518792851A968C911A97892730
:10246000828793851B968C911B9789278387748518
:102470001C969C911C977927748735851D969C9195
:102480001D9739273587F6841E969C911E979F25A8
:102490009687F7841F96CC90AC2D71C2A081B0E0D6
:1024A000A25EBC4D4A3009F062C04C914083A02F1F
:1024B000B0E0A25EBC4D4C914183AE2DB0E0A25E77
:1024C000BC4D4C914283A32FB0E0A25EBC4D3C9129
:1024D0003383A82FB0E0A25EBC4D8C9130E0225E29
:1024E0003C4DD9012C91A92FB0E0A25EBC4D9C912E
:1024F000A72FB0E0A25EBC4D3C9170E0625E7C4DC7
:10250000DB014C91628570E0625E7C4DDB016C9179
:10251000A12FB0E0A25EBC4D7C91A52FB0E0A25EE1
:10252000BC4D5C91AC2DB0E0A25EBC4D1C91AD2DBC
:10253000B0E0A25EBC4D0C91A785B0E0A25EBC4DA0
:10254000FC90A581B0E0A25EBC4DAC91A483258334
:10255000968387836087328771874387F4860787EE
:1025600016875587AD85BE85A056BF4F65C1FC90C7
:10257000A02FB0E0A25EBC4D0C91AE2DB0E0A25EEB
:10258000BC4DBC90A32FB0E0A25EBC4DAC90A82F78
:10259000B0E0A25EBC4D8C91A581B0E0A25EBC4DC6
:1025A0003C91A22FB0E0A25EBC4D2C91A92FB0E0CF
:1025B000A25EBC4D9C91A72FB0E0A25EBC4D7C9169
:1025C000A62FB0E0A25EBC4D6C91A285B0E0A25EE9
:1025D000BC4DEC90A12FB0E0A25EBC4D1C91A52F8C
:1025E000B0E0A25EBC4D5C91AC2DB0E0A25EBC4DF3
:1025F000CC90AD2DB0E0A25EBC4D7C90A785B0E044
:10260000A25EBC4D3C90B32FBF25B983A22FA0275B
:10261000AA83B92FBB25BB83A82FAA25AC83BF2DC6
:10262000BB1FBB27BB1FABE1BA9FB02D11244F2CA2
:10263000440C4B264D82B02FBB1FBB27BB1FBA9F3C
:10264000B02D1124502E550C5B265E82BB2DBB1F76
:10265000BB27BB1FBA9FB02D11246B2C660C6B26B9
:102660006F82BA2DBB1FBB27BB1FBA9FB02D112491
:102670002A2C220C2B262886B32FBB1FBB27BB1F5F
:10268000BA9FB02D1124D32EDD0CDB26D986B22FB4
:10269000BB1FBB27BB1FBA9FB02D1124D22EDD0C50
:1026A000DB26DA86B92FBB1FBB27BB1FBA9FB02D15
:1026B0001124D92EDD0CDB26DB86B82FBB1FBB27F0
:1026C000BB1FBA9FB02D1124D82EDD0CDB26DC8673
:1026D0008E2C881C8824881C8A9EB02D11248E2C58
:1026E000880C8B26912E991C9924991C9A9EB02DAA
:1026F0001124912E990C9B26D72EDD1CDD24DD1C88
:10270000DA9EB02D1124D72EDD0CDB26B62FBB1F91
:10271000BB27BB1FBA9FB02D1124662E660CB625B1
:10272000BF87432C441C4424441C4A9E602C112423
:10273000432C440C4624552E551C5524551C5A9E9A
:10274000602C1124552E550C56246C2C661C6624C6
:10275000661C6A9E602C11242C2C220C6224272CCF
:10276000221C2224221CBBE12B9EA02D1124272CED
:10277000220C2A263E253325AD813A27B9853B27F1
:102780003083212725273E812327AA852A272183D5
:1027900097279C25BF819B272B859227928386278D
:1027A0008725388583279C8589278383FE24F32406
:1027B000A985FA26F824F48201270527BA850B2774
:1027C00009250583B726BC24B226BD24B682A626D9
:1027D000A724A9262F85A226A7823981332638244B
:1027E000342430868A8158275925552551879B8165
:1027F000C926CD24C624C286AC817A2672267224CC
:102800007386E326BD81EB264E24448618272E814D
:1028100012275126558679273F81732767266686BA
:102820006A278885682762256787AD85BE8590E120
:10283000499FA00DB11D112411968C9111971496EA
:102840009C91149711969C93119714968C931497BE
:1028500012968C91129718969C91189712969C93A9
:10286000129718968C93189713968C9113971C9621
:102870009C911C9713969C9313971C968C931C9772
:1028800016968C91169719969C91199716969C936B
:10289000169719968C93199717968C9117971D96E2
:1028A0009C911D9717969C9317971D968C931D9737
:1028B0001B968C911B971E969C911E971B969C9322
:1028C0001B971E968C931E9790818C9189278083ED
:1028D000118111968C91119718271183E28012961D
:1028E0008C911297E826E282638113968C9113975C
:1028F00068276383048114968C91149708270483B6
:10290000958115968C911597892785834681169612
:102910008C91169748274683278117968C91179795
:1029200028272783D08418968C911897D826D0868C
:10293000518519968C9119975827518792851A9627
:102940008C911A978927828793851B968C911B9768
:102950008927838774851C969C911C977927748797
:1029600035851D969C911D9739273587F6841E96CF
:102970009C911E979F259687F7841F96AC91AF2553
:10298000A78701831483D282E0867383648756838A
:10299000418737832587938786872F96CDBFDEBFF4
:1029A000DF91CF911F910F91FF90EF90DF90CF902B
:1029B000BF90AF909F908F907F906F905F904F905F
:1029C0003F902F900895CF92DF92EF92FF921F9346
:1029D000CF93DF93D82EC92F7B01D42F152F80E002
:1029E00090E00E94711690E00E946616ED2DFC2F7B
:1029F000AD2FB12FCF01409621912D93E817F90704
:102A0000D9F7C0E088E0C82ED12C0E946216B6012A
:102A10000E94E715FC01FF274C2FB701E730F105B5
:102A200048F58827EC51FF4F8F4F0C94FB158D2FE5
:102A3000912F0E94A90622C08D2F912F0E94C409B8
:102A40001DC08D2F912F0E940B0E18C08D2F912F1E
:102A50000E942F1113C08D2F912F0E94D9060EC0F6
:102A60008D2F912F0E94F20909C08D2F912F0E9466
:102A7000550E04C08D2F912F0E947311CF5FCB3064
:102A800021F6DF91CF911F91FF90EF90DF90CF90D3
:102A900008950895EEE7F5E220E12E0FDC013D9167
:102AA000CD0131932E13FACF6EE775E28EE194E2F9
:102AB0000C948102CF93DF93D82FC92F4EE655E2B5
:102AC0006EE174E20E94E314AD2FBC2FEEE6F5E256
:102AD00080E18E0F91919D938E13FCCFDF91CF916A
:102AE00008950E9451020E94730181E080930106C3
:102AF0000E9449158EEC94E20E944A1510E0C0E055
:102B0000D0E0FF24F3940E94A901883711F410E06B
:102B100003C08B3621F411E0C0E0D0E0F4CF803761
:102B200011F412E0F9CF1130B1F4FE01E252FB4D85
:102B30008A3019F08D3009F047C010824EEC54E213
:102B4000BE018EED94E20E941C018EEC94E20E9484
:102B50004A1510E0D8CF1230B1F68A3011F08D301E
:102B600069F5FE01E252FB4D10824EE155E2BE01D5
:102B70008EED94E20E941C01F09205068EE195E232
:102B80000E945A15F09206064EED54E260E170E0A4
:102B90008EE195E20E94470182E70E94B0010EEDAE
:102BA00014E2F80181918F010E94B001F4E20E3F1E
:102BB0001F07B9F78AE00E94B001CBCFC034D1051E
:102BC00044F6FE01E252FB4D808321969CCF97FB99
:102BD000072E16F4009407D077FD09D00E94031643
:102BE00007FC05D03EF4909581959F4F0895709510
:102BF00061957F4F0895EE0FFF1F881F8BBF0790D1
:102C0000F691E02D1994AA1BBB1B51E107C0AA1F26
:102C1000BB1FA617B70710F0A61BB70B881F991F7D
:102C20005A95A9F780959095BC01CD0108958F9292
:102C30009F92AF92BF92CF92DF92EF92FF92CF938B
:102C4000DF93EC01688179818A819B81611571052F
:102C50008105910521F464E279ED8BE597E02DE1A2
:102C600033EF41E050E00E94941649015A019B0164
:102C7000AC01A7EAB1E40E9481166B017C01ACEEC5
:102C8000B4EFA50194010E948F16DC01CB018C0DDD
:102C90009D1DAE1DBF1DB7FF03C00197A109B04820
:102CA00088839983AA83BB839F77DF91CF91FF901D
:102CB000EF90DF90CF90BF90AF909F908F9008954E
:102CC0000C94171680E190E20C941716A0E0B0E087
:102CD0008093102090931120A0931220B093132082
:102CE000089503D0808199270895E0ECF1E03785BD
:102CF00037FDFDCF348538603487FC01E050F04F5C
:102D000008950E94B316A59F900DB49F900DA49FA7
:102D1000800D911D11240895B7FF0C9481160E9417
:102D20008116821B930B0895052E97FB1EF40094C9
:102D30000E94AB1657FD07D00E94C21607FC03D0B5
:102D40004EF40C94AB1650954095309521953F4F1D
:102D50004F4F5F4F089590958095709561957F4F87
:102D60008F4F9F4F0895A29FB001B39FC001A39FB3
:102D7000700D811D1124911DB29F700D811D1124B4
:102D8000911D0895A1E21A2EAA1BBB1BFD010DC0C7
:102D9000AA1FBB1FEE1FFF1FA217B307E407F5070B
:102DA00020F0A21BB30BE40BF50B661F771F881FE7
:102DB000991F1A9469F760957095809590959B017D
:0C2DC000AC01BD01CF010895F894FFCFD5
:102DCC003031323334353637383941424344454655
:102DDC000100000001020408102040801B36A5846D
:102DEC00998D0DBDB1545003A97D1962E69A459D8C
:102DFC00408715EBC90BEC67FDEABFF7965BC21C6D
:102E0C00AE6A5A41024F5CF434089373533F0C5230
:102E1C00655E28A10FB509369B3D2669CD9F1B9E8B
:102E2C00742E2DB2EEFBF64D61CE7B3E7197F5689C
:102E3C00002C601FC8EDBE46D94BDED4E84A6B2A85
:102E4C00E516C5D75594CF100681F044BAE3F3FECE
:102E5C00C08AADBC4804DFC17563301A0E6D4C14CA
:102E6C00352FE1A2CC3957F28247ACE72B95A098CD
:102E7C00D17F667EAB83CA29D33C79E21D763B5663
:102E8C004E1EDB0A6CE45D6EEFA6A8A4378B3243B2
:102E9C0059B78C64D2E0B4FA0725AF8EE918D588FF
:102EAC006F7224F1C751237C9C21DDDC8685904216
:102EBC00C4AAD8050112A35FF9D0915827B93813C9
:102ECC00B333BB7089A7B622922049FF787A8FF86A
:102EDC008017DA31C6B8C3B07711CBFCD63AC6F836
:102EEC00EEF6FFD6DE916002CE56E7B54DEC8F1FA5
:102EFC0089FAEFB28EFB41B35F452353E49B75E136
:102F0C003D4C6C7EF5836851D1F9E2AB622A089591
:102F1C00469D30370A2F0E241BDFCD4E7FEA121D43
:102F2C00583436DCB45BA476B77D52DD5E13A6B99B
:102F3C0000C140E379B6D48D67729498B085BBC557
:102F4C004FED869A66118AE904FEA078254BA25DA6
:102F5C0080053F2170F16377AF4220E5FDBF8118FA
:102F6C0026C3BE35882E9355FC7AC8BA32E6C019F2
:102F7C009EA344543B0B8CC76B28A7BC16ADDB64DB
:102F8C007414920C48B89FBD43C43931D3F2D58B1D
:102F9C006EDA01B19C49D8ACF3CFCAF447106FF08C
:102FAC004A5C38577397CBA1E83E96610D0FE07CD5
:102FBC0071CC9006F71CC26AAE6917993A27D9EB07
:102FCC002B22D2A907332D3C15C987AA50A503592A
:102FDC00091A65D784D082295A1E7BA86D2C637C74
:102FEC00777BF26B6FC53001672BFED7AB76CA824D
:102FFC00C97DFA5947F0ADD4A2AF9CA472C0B7FDFD
:10300C009326363FF7CC34A5E5F171D8311504C7BA
:10301C0023C31896059A071280E2EB27B275098331
:10302C002C1A1B6E5AA0523BD6B329E32F8453D1D2
:10303C0000ED20FCB15B6ACBBE394A4C58CFD0EFC7
:10304C00AAFB434D338545F9027F503C9FA851A301
:10305C00408F929D38F5BCB6DA2110FFF3D2CD0C1F
:10306C0013EC5F974417C4A77E3D645D19736081B0
:10307C004FDC222A908846EEB814DE5E0BDBE03281
:10308C003A0A4906245CC2D3AC629195E479E7C84C
:10309C00376D8DD54EA96C56F4EA657AAE08BA78C0
:1030AC00252E1CA6B4C6E8DD741F4BBD8B8A703E62
:1030BC00B5664803F60E613557B986C11D9EE1F819
:1030CC00981169D98E949B1E87E9CE5528DF8CA167
:1030DC00890DBFE6426841992D0FB054BB16637C35
:1030EC00777BF26B6FC53001672BFED7AB76CA824C
:1030FC00C97DFA5947F0ADD4A2AF9CA472C0B7FDFC
:10310C009326363FF7CC34A5E5F171D8311504C7B9
:10311C0023C31896059A071280E2EB27B275098330
:10312C002C1A1B6E5AA0523BD6B329E32F8453D1D1
:10313C0000ED20FCB15B6ACBBE394A4C58CFD0EFC6
:10314C00AAFB434D338545F9027F503C9FA851A300
:10315C00408F929D38F5BCB6DA2110FFF3D2CD0C1E
:10316C0013EC5F974417C4A77E3D645D19736081AF
:10317C004FDC222A908846EEB814DE5E0BDBE03280
:10318C003A0A4906245CC2D3AC629195E479E7C84B
:10319C00376D8DD54EA96C56F4EA657AAE08BA78BF
:1031AC00252E1CA6B4C6E8DD741F4BBD8B8A703E61
:1031BC00B5664803F60E613557B986C11D9EE1F818
:1031CC00981169D98E949B1E87E9CE5528DF8CA166
:0E31DC00890DBFE6426841992D0FB054BB1615
:00000001FF
