:100000000C94F9000C941A010C941A010C941A0126
:100010000C941A010C941A010C941A010C941A01F4
:100020000C941A010C941A010C941A010C941A01E4
:100030000C941A010C941A010C941A010C941A01D4
:100040000C941A010C941A010C941A010C941A01C4
:100050000C941A010C941A010C941A010C941A01B4
:100060000C941A010C941A010C941A010C941A01A4
:100070000C941A010C941A010C941A010C941A0194
:100080000C941A010C941A010C941A010C941A0184
:100090000C941A010C941A010C941A010C941A0174
:1000A0000C941A010C941A010C941A010C941A0164
:1000B0000C941A010C941A010C941A010C941A0154
:1000C0000C941A010C941A010C941A010C941A0144
:1000D0000C941A010C941A010C941A010C941A0134
:1000E0000C941A010C941A010C941A010C941A0124
:1000F0000C941A010C941A010C941A010C941A0114
:100100000C941A010C941A010C941A010C941A0103
:100110000C941A010C941A010C941A010C941A01F3
:100120000C941A010C941A010C941A010C941A01E3
:100130000C941A010C941A010C941A010C941A01D3
:100140000C941A010C941A010C941A010C941A01C3
:100150000C941A010C941A010C941A010C941A01B3
:100160000C941A010C941A010C941A010C941A01A3
:100170000C941A010C941A010C941A010C941A0193
:100180000C941A010C941A010C941A010C941A0183
:100190000C941A010C941A010C941A010C941A0173
:1001A0000C941A010C941A010C941A010C941A0163
:1001B0000C941A010C941A010C941A010C941A0153
:1001C0000C941A010C941A0145574A574F5754572B
:1001D00059575E5763570C9454570C9459570C94C5
:1001E0005E570C9463570C9445570C944F570C94DE
:1001F0004A5711241FBECFEFDFE3DEBFCDBF00E0C3
:100200000CBF14E2A0E0B0E2EEE4F4EB00E00BBFC0
:1002100002C007900D92A233B107D9F716E2A2E30C
:10022000B4E201C01D92A73DB107E1F70E945D58FD
:100230000C94255A0C940000CF93DF93C42FD52F34
:10024000A0E0B0E0A617B707F0F4FC01EA0FFB1F2F
:1002500020812A3328F0206230E02755310903C07D
:1002600030E020533109E181EA3328F0E062F0E028
:10027000E755F10902C0F0E0F0972295207FE22BCC
:10028000E9931296DFCFCA01DF91CF9108951F93B2
:10029000CF93DF93DA0111969C01260F371F821747
:1002A0009307B9F0EC01FC011191CF01E12FE29528
:1002B000EF70F0E0E050F04E1081FD0131971083B7
:1002C000E881EF70F0E0E050F04EE081EC931296A0
:1002D000E6CF660F771FFA01E60FF71F1082DF9156
:1002E000CF911F910895E0E4F6E088E0818384E0F7
:1002F0008283E0EAF8E083E085838BE086831782DF
:100300008481806184838481886084830895CF930D
:10031000DF931F921F92CDB7DEB769837A8320E007
:1003200030E049815A812417350769F04091A108CE
:1003300047FF06C02091A008FC01208381E004C093
:100340002F5F3F4FEECF80E00F900F90DF91CF9166
:1003500008958091A10887FFFCCF8091A00808959F
:100360009091A10895FFFCCF8093A0080895FC010F
:1003700060837183428314861386168615860895DA
:10038000FC0162830895FC01958526859F5F93702B
:1003900081E0921301C080E008950F931F93CF93E3
:1003A000DF931F92CDB7DEB78C0169830E94C30132
:1003B00069818823A9F0D8011D969C911D97F801A9
:1003C000E90FF11D67839F5F9370F8019587019096
:1003D000F081E02D93819C7F12962C91922B938338
:1003E0000F90DF91CF911F910F910895FC0123850C
:1003F000948581E0291301C080E00895FC01848583
:10040000DF01A80FB11D13968C9194859F5F9370A7
:1004100094870895FC0183858F5F83702485A08174
:10042000B1819C91821749F02385DF01A20FB11D94
:1004300013969C93838781E0089580E00895CF937D
:10044000DF93FC0186859585A081B181981307C053
:1004500013968C9113978C7F13968C930AC0868584
:10046000EF01C80FD11D8F818C9386858F5F8370BC
:100470008687DF91CF910895FC01848170FF02C0CF
:10048000816001C08E7F848360830895FC01848134
:1004900080FF04C0808190E091600895808190E0A9
:1004A000089510925200109255008091500088607B
:1004B000809350008091510083FFFCCF88ED84BF72
:1004C00083E08093400088E08093500080E6809332
:1004D0000106809305060895DF92EF92FF920F9335
:1004E0001F93CF93DF93FC019B01205F3F4FDC0103
:1004F000EB014991BE014D93C217D307C9F7BC0167
:10050000635F7F4F08E210E2AC01425F5F4F9C01E6
:10051000215F3F4FDC011C9681E0E801E9908E01EC
:100520009081E926EB019881C92FD0E0CE5CDC4DAB
:100530009881E926E08AEA019881C92FD0E0CE5C53
:10054000DC4DF8809181F926F18AE9019881C92F63
:10055000D0E0CE5CDC4DD8819281DD2ED926D28AC6
:10056000CC91D0E0CE5CDC4DC88193819C27938BED
:10057000C481EC26E48AC581FC26F58AC681DD2D7E
:10058000DC27D68BC7819C27978BC085EC26E08E15
:10059000C185FC26F18EC285DD2EDC26D28EC38578
:1005A0009C27938FCC91EC26E48EEB01E880FE240F
:1005B000F58EEA01F880DD2DDF25D68FE901F88080
:1005C0009F25978F8F5F605F7F4F7096405F5F4F73
:1005D000205F3F4F50968B3009F09FCFDF91CF9136
:1005E0001F910F91FF90EF90DF9008953091D626E4
:1005F00035FB222720F9432F4295469546954270B8
:10060000422734FB222720F92427E4E03E9FA00163
:100610001124422B4093D62650E04770242F30E01F
:1006200041E0450FE52FF0E0E217F30714F4542FF3
:10063000F7CF5093B426DB01FC01AC01405F5F4F64
:100640008D919081892781939091D62695FB88275B
:1006500080F9292F2295269526952270282794FB2C
:10066000882780F9822764E0969F90011124282B27
:100670002093D62630E02770822F90E021E0230FD0
:10068000632F70E06817790714F4322FF7CF309397
:10069000B426E417F507A1F608955091D62653FB2A
:1006A000332730F9252F221F2227221F2327352FFA
:1006B00032953F70452F42954695477043274170CC
:1006C000322F3427252F220F232B2093D62640E0CC
:1006D0002E7030E051E0540FE42FF0E0E217F30702
:1006E00014F4452FF7CF4093B4266130710509F01B
:1006F00050C0FC01AC01405F5F4FA081B0E0AE5C38
:10070000BC4D8C9181939091D62695FB882780F9DA
:10071000292F2295269526952270282794FB882735
:1007200080F9822764E0969F90011124282B209362
:10073000D62630E02770822F90E021E0230F632F30
:1007400070E06817790714F4322FF7CF3093B4268E
:10075000E417F50791F63091D62633FB992790F9E7
:10076000832F881F8827881F8927932F92959F7032
:10077000232F22952695277029272170982F9227BD
:10078000832F880F892B8093D62620E08E7090E0EF
:100790003FC062307105F9F6DC01AC01405F5F4F8C
:1007A000EC918E2F8F70E295EF7090E1E99FF00150
:1007B0001124E80FF11DEE5CFD4D80818D93909129
:1007C000D62695FB882780F9292F229526952695F0
:1007D0002270282794FB882780F9822764E0969F5F
:1007E00090011124282B2093D62630E02770822FE9
:1007F00090E021E0230F632F70E06817790714F46D
:10080000322FF7CF3093B426A417B50749F6A3CFFC
:1008100031E0320F422F50E04817590714F4232FCC
:10082000F7CF2093B42608955091D62653FB332753
:1008300030F9252F221F2227221F2327352F3295FB
:100840003F70452F42954695477043274170322FA0
:100850003427252F220F232B2093D62640E02E70FD
:1008600030E051E0540FE42FF0E0E217F30714F406
:10087000452FF7CF4093B42661307105F1F03091E8
:10088000D62633FB992790F9832F881F8827881F46
:100890008927932F92959F70232F22952695277055
:1008A00029272170982F9227832F880F892B8093D7
:1008B000D62620E08E7090E033C0FC01AC01405F92
:1008C0005F4FA081B0E0AC5CBB4D8C918193909167
:1008D000D62695FB882780F9292F229526952695DF
:1008E0002270282794FB882780F9822764E0969F4E
:1008F00090011124282B2093D62630E02770822FD8
:1009000090E021E0230F632F70E06817790714F45B
:10091000322FF7CF3093B426E417F50791F6AFCF17
:1009200031E0320F422F50E04817590714F4232FBB
:10093000F7CF2093B4260895FC018091D62683FB3F
:10094000332730F9982F991F9927991F9327382F0C
:1009500032953F70582F52955695577053275170C6
:10096000392F3527482F440F942F932B80E0292FC0
:100970002E7030E0482F50E08F5F42175307D4F3BA
:10098000818125812183218525832585218785876F
:1009900095FB222720F9492F4295469546954270AE
:1009A000422794FB222720F9242784E0989FA00166
:1009B0001124422B20E0842F877090E0622F70E09A
:1009C0002F5F68177907D4F382819285928382879B
:1009D000868196859683868745FB882780F9242F14
:1009E0002295269526952270282744FB882780F992
:1009F000822794E0499F90011124282B30E0822F18
:100A0000877090E0432F50E03F5F48175907D4F3B9
:100A1000838197859383938597879781938787832E
:100A200023FB992790F9822F881F8827881F892701
:100A3000322F32953F70922F92959695977093270B
:100A400091708927220F282B2093D62680E02E70C4
:100A500030E091E0980F482F50E04217530714F40C
:100A6000892FF7CF8093B4260895FC019091D62664
:100A700095FB442740F9292F22952695269522702B
:100A8000242794FB442740F9422784E0989F900153
:100A90001124422B20E0842F877090E0622F70E0B9
:100AA0002F5F68177907D4F38481958194839681A9
:100AB000958397819683878343FB332730F9842F6F
:100AC000881F8827881F3827942F92959F70242F7E
:100AD00022952695277029272170932F9227342F4E
:100AE000330F392B20E0832F8E7090E0422F50E09F
:100AF0002F5F48175907D4F38085928590878287A6
:100B0000818593859187838733FB992790F9832F7C
:100B1000881F8827881F8927932F92959F70232FDE
:100B200022952695277029272170982F9227832FA9
:100B3000880F892B90E0282F2E7030E0492F50E04D
:100B40009F5F42175307D4F3948527852487268512
:100B5000278725852687958783FB222720F9982FCD
:100B6000991F9927991F9227382F32953F70282F68
:100B7000229526952770232721709227880F892B8D
:100B80008093D62620E08E7090E031E0320F422F25
:100B900050E04817590714F4232FF7CF2093B426B9
:100BA000089587FF04C0880F9BE189270895880F67
:100BB00008958F929F92AF92BF92CF92DF92EF9261
:100BC000FF920F931F93CF93DF93CDB7DEB7A0971C
:100BD000CDBFDEBF8C014C01CE0101965C01FE0150
:100BE00071966F0180E1E82EEE0E9091D62695FB6E
:100BF000FF24F0F8892F82958695869582708F253F
:100C000094FB222720F92827F4E09F9FC00111249C
:100C1000F22EF82AF092D62680E02F2D277030E0B1
:100C200091E0980F482F50E04217530714F4892F92
:100C3000F7CF8093B426F40181914F01F60181939F
:100C40006F010E94D105F50181935F01EC10CDCFBA
:100C5000F3FA222720F98F2D881F8827881F28273D
:100C60009F2D92959F703F2D32953695377039277D
:100C70003170922F93272F2D220F292B2093D626C8
:100C800080E02E7030E0482F50E08F5F421753070E
:100C9000D4F3DE015496AE014C5F5F4F5801F3E090
:100CA000AF0EB11CBE016C5D7F4F8091D62683FBD9
:100CB000222720F9982F991F9927991F2927982FC4
:100CC00092959F70382F329536953770392731704D
:100CD000922F9327282F220F292B2093D62680E0AE
:100CE0002E7030E091E0980F082F10E002171307E4
:100CF00014F4892FF7CF8093B426CA010397FC011F
:100D0000E0800196FC0190819D0122503109F9019A
:100D1000F0802F5F3F4FF90130818C9185010350A6
:100D200011092E2D292728272F252327F801208375
:100D30008D0103501109F80120818A010150110928
:100D4000F801D08085010250110993279827922736
:100D50009D25F8019083FA0190810F5F1F4F89272D
:100D60008F2582278D25F8018083FE24F9263F25D3
:100D70002327F501208314964C5F5F4FF4E0AF0EFC
:100D8000B11CA617B70709F090CFA096CDBFDEBF64
:100D9000DF91CF911F910F91FF90EF90DF90CF9057
:100DA000BF90AF909F908F9008956F927F928F9297
:100DB0009F92AF92BF92CF92DF92EF92FF920F93EA
:100DC0001F93CF93DF93CDB7DEB7A197CDBFDEBF23
:100DD0007C018C014E0141E1840E911CCE010196F3
:100DE0005C01370130E09091D62695FBDD24D0F8E8
:100DF000892F82958695869582708D2594FB222772
:100E000020F92827A4E09A9FC0011124D22ED82AC5
:100E1000D092D62680E04D2D477050E091E0980F9B
:100E2000682F70E06417750714F4892FF7CF80934B
:100E3000B426F30191913F01E32FE370F0E0E85C09
:100E4000FA4D80818927D4018D934D0139A30E94E9
:100E5000D105F50181935F0139A13F5F303119F66A
:100E6000D3FA222720F98D2D881F8827881F28274D
:100E70003D2D32953F708D2D829586958770382750
:100E80003170922F93272D2D220F292B2093D626B8
:100E900080E02E7030E0482F50E08F5F42175307FC
:100EA000D4F3DE015496AE014C5F5F4F4701F3E08F
:100EB0008F0E911CBE016C5D7F4FF090D626F3FA29
:100EC000222720F98F2D881F8827881F28273F2D4C
:100ED00032953F708F2D82958695877038273170B7
:100EE000922F93272F2D220F292B2093D62680E097
:100EF0002E7030E091E0980FE82EF12CE216F30608
:100F000014F4892FF7CF8093B426CA010397FC010C
:100F1000D0800196FC0180819D0122503109F901A8
:100F2000E0802F5F3F4FF901F080CC909401235077
:100F300031099D2D98279C259E259F25F901908399
:100F40009D0123503109F90190819A012150310905
:100F5000F901B0809401225031098F258C25892711
:100F60008B25F9018083FA01A0802F5F3F4F8A2DE6
:100F70008C258E2589278B25F9018083ED24EA2491
:100F8000FE249F25F401908314964C5F5F4FF4E09C
:100F90008F0E911CA617B70709F08FCF80E0E82FBE
:100FA000E370F0E0EC5CFA4DD8012C91908192272F
:100FB000F80191938F018F5F803189F7A196CDBFA2
:100FC000DEBFDF91CF911F910F91FF90EF90DF90E7
:100FD000CF90BF90AF909F908F907F906F9008952B
:100FE0002F923F924F925F926F927F928F929F9239
:100FF000AF92BF92CF92DF92EF92FF920F931F9327
:10100000CF93DF93CDB7DEB72E97CDBFDEBF8A87F4
:101010009B87DC0114963C90149718964C91189776
:101020001C965C911C971596FC90159719965C90F0
:1010300019971D96CC901D9716960C9116971A9697
:10104000AC901A971E96DC901E9717961C911797D6
:101050001B96BC901B971F96EC903091D62633FBC5
:10106000992790F9832F881F8827881F8927932F16
:1010700092959F70232F22952695277029272170FE
:10108000982F9227832F880F892B8093D62690E064
:10109000282F2E7030E0E1E0E90F692F70E0621731
:1010A000730714F49E2FF7CF9093B426EA85FB853F
:1010B000F081FB83AA85BB8511963C91119712960E
:1010C0002C91129713962C9085FB992790F9E82F75
:1010D000E295E695E695E270E92784FB992790F979
:1010E000E927B4E08B9FC0011124E82BE093D626BA
:1010F000F0E08E2F877090E0A1E0AF0F6F2F70E0CF
:101100006817790714F4FA2FF7CFF093B426AA855D
:10111000BB85BC91BC83432E4F24622F602769831B
:10112000922D91279A83E3FB992790F98E2F881FA0
:101130008827881F89276E2F62956F709E2F929542
:1011400096959770962791708927EE0FE82BE0937C
:10115000D62660E0EE70F0E071E0760F862F90E02A
:101160008E179F0714F4672FF7CF6093B426AA85D4
:10117000BB85BC91BD836A847B844301E0E18E0E14
:10118000911CD3018C91298738874E835F830E94FD
:10119000D105F30181933F01298538854E815F8117
:1011A000E815F90571F76091D62663FB992790F948
:1011B000862F881F8827881F9827762F72957F7023
:1011C000E62FE295E695E770E727E170792F7E2715
:1011D000660F962F972B9093D62680E0E92FEE701E
:1011E000F0E061E0680FA82FB0E0AE17BF0714F47D
:1011F000862FF7CF8093B426AA85BB856C90119675
:10120000BC91BD87EA85FB85F281FE87AA85BB85F7
:1012100013968C9095FB662760F9892F82958695A9
:1012200086958270862794FB662760F98627B4E04E
:101230009B9FB0011124862B8093D626F0E0877007
:1012400090E0B1E0BF0F6F2F70E06817790714F4DA
:10125000FB2FF7CFF093B426EA85FB859480F42F1B
:10126000F325FC87AA85BB858C91852789258F2747
:101270008C93FD01B581F524FC24FD85FF26FB261A
:10128000EA85FB85F182F6800A250D25FE850F276C
:101290000F25EA85FB85028307811B251E2518255E
:1012A000102713839091D62695FB882780F9192F54
:1012B0001295169516951270182794FB882780F9B9
:1012C0001827F4E09F9FC0011124182B712C812F47
:1012D000877090E0672D70E0739468177907D4F3F6
:1012E000EA85FB85908545276B81462794269926BC
:1012F000948241858C2D85253827B327B427B58363
:10130000B2858D2D8A252827F226FB26F682F384C6
:101310008E2D8B25282602250F25078313FB2227D8
:1013200020F9812F881F8827881F8227212F229547
:101330002F70312F32953695377032273170282F24
:101340002327812F880F182F122B80E0212F2E703A
:1013500030E0682F70E08F5F62177307D4F3EA857F
:10136000FB85648535263C81332693259627908717
:101370005585C426C526C424C1864685DB26D426C9
:101380009981D926D2867785EF24E7263A81E3260C
:10139000E38615FB992790F9812F8295869586958E
:1013A0008270892714FB222720F92827A4E01A9F9E
:1013B000C0011124822B8093D626B0E0877090E084
:1013C00011E01B0F2B2F30E02817390714F4B12F31
:1013D000F7CFB093B4263D8163266625FC85F627BA
:1013E000AA85BB851C96FC93BD855B2655264524A6
:1013F000EA85FB854586FE85AF26A4263981A3268E
:10140000AA85BB851E96AC921E97B824B7263A8152
:10141000B3261F96BC922E96CDBFDEBFDF91CF9133
:101420001F910F91FF90EF90DF90CF90BF90AF9002
:101430009F908F907F906F905F904F903F902F90F4
:1014400008952F923F924F925F926F927F928F9268
:101450009F92AF92BF92CF92DF92EF92FF920F9343
:101460001F93CF93DF93CDB7DEB7A597CDBFDEBF78
:101470008C014C015E0141E1A40EB11CCE0101962C
:101480006C01E12C9091D62695FBFF24F0F8292FD2
:1014900022952695269522702F2594FB882780F982
:1014A0008227A4E09A9F90011124F82EF22AF0924C
:1014B000D62680E02F2D277030E091E0980F482F3E
:1014C00050E04217530714F4892FF7CF8093B426C6
:1014D000F40191914F01EE2DE695E695F0E0E85C80
:1014E000FA4D80818927D5018D935D010E94D10538
:1014F000F60181936F01E394F0E1EF12C3CFF3FAA9
:10150000992790F98F2D881F8827881F89279F2D5D
:1015100092959F702F2D229526952770292721704F
:10152000982F92278F2D880F892B8093D62620E025
:101530008E7090E041E0420F30E02817390714F434
:10154000242FF8CFA9804D808D88B98C7D8C842D77
:101550008A2588258B258725D8018C934A8D7A8109
:1015600074272E80BE896E8D8B2F82258627872734
:10157000F8018183FB8DF9A32F8DF227FBA38B81CB
:101580008AA3CF806F888C2586258F27F8018283D8
:10159000D884A88D9C8C58A1FC81FCA38A2F8D2512
:1015A000892585278F27F80183838091D62683FBA1
:1015B000332730F9982F991F9927991F9327382F90
:1015C00032953F70E82FE295E695E770E327E170EA
:1015D000392F3E27880F982F932B80E0E92FEE704C
:1015E000F0E0E82EF12C8F5FEE16FF06D4F339857C
:1015F00059884B24472443264524F80144824A88CD
:101600003A84422546274425432545834B892B842C
:10161000C426C224FBA1CF26F801C682FC89FBA305
:101620008C858DA3D924D526DF26D826F801D7822C
:1016300095FBFF24F0F8892F829586958695827018
:101640008F2594FBFF24F0F8F826F4E09F9FC0015B
:1016500011248F2990E0E82FE770EE2EF12CC92E8F
:10166000D12C9F5FCE14DF04D4F3FD84782437257A
:1016700035253F25F8013087EE846B276425362613
:101680003E24318646256F8522252627242722875A
:10169000D8885A27FBA15F27EDA1E5279E2F9D251E
:1016A000F801938783FB222720F9982F991F992708
:1016B000991F9227382F32953F70282F2295269513
:1016C0002770232721709227880F892B8093D62695
:1016D00050E08E7090E0E1E0E50F252F30E0281714
:1016E000390714F45E2FF7CF5093B426A824BA24F8
:1016F0005B245F24F8015486B425BE257B277587BB
:101700006AA0F9A16F2666254627F8014687A92514
:10171000FCA1AF27FBA1FA27FD25D8011F96FC935A
:10172000A596CDBFDEBFDF91CF911F910F91FF90A6
:10173000EF90DF90CF90BF90AF909F908F907F9071
:101740006F905F904F903F902F900895FC018181A2
:101750009481918384838281908592838087838121
:1017600094859383848786819185968381878781F9
:101770009585978385878385968593878687089542
:10178000CF93DF93DC01FB019091D62695FB2227B6
:1017900020F9492F4295469546954270422794FB81
:1017A000222720F9242784E0989FA0011124422BAE
:1017B0004093D62680E04770242F30E091E0980FC8
:1017C000482F50E04217530714F4892FF7CF809326
:1017D000B426858190E08E5C9F4DC081D0E09E0153
:1017E0002E5C3E4DEC019881E90188818927C285F4
:1017F000D0E0CE5CDC4D98818927C785D0E0CE5CF7
:10180000DC4D988189278C93858190E08E5C9E4D7C
:10181000C081D0E09E012E5C3C4DEC019881E90135
:1018200088818927C285D0E0CE5CDF4D98818927E9
:10183000C785D0E0CE5CDC4D9881892711968C93CA
:101840001197858190E08E5C9C4DC081D0E09E0117
:101850002E5C3C4DEC019881E90188818927C28585
:10186000D0E0CE5CDE4D98818927C785D0E0CE5C84
:10187000DF4D9881892712968C931297858190E08D
:101880008E5C9C4DC081D0E09E012E5C3F4DEC01F2
:101890009881E90188818927C285D0E0CE5CDC4D42
:1018A00098818927C785D0E0CE5CDE4D9881892755
:1018B00013968C9313978091D62683FB332730F9A8
:1018C000982F991F9927991F9327382F32953F708A
:1018D000582F52955695577053275170392F3527E9
:1018E000482F440F942F932B80E0292F2E7030E047
:1018F000482F50E08F5F42175307D4F3218530E023
:101900002E5C3F4DC481D0E0AE014E5C5E4DE901DE
:101910002881EA0188818227C685D0E0CE5CDC4D33
:1019200028818227C381D0E0CE5CDC4D28818227CC
:1019300014968C931497218530E02E5C3E4DC48123
:10194000D0E0AE014E5C5C4DE9012881EA0188815E
:101950008227C685D0E0CE5CDF4D28818227C381F7
:10196000D0E0CE5CDC4D2881822715968C931597AC
:10197000218530E02E5C3C4DC481D0E0AE014E5C50
:101980005C4DE9012881EA0188818227C685D0E083
:10199000CE5CDE4D28818227C381D0E0CE5CDF4D56
:1019A0002881822716968C931697218530E02E5C2D
:1019B0003C4DC481D0E0AE014E5C5F4DE901288111
:1019C000EA0188818227C685D0E0CE5CDC4D288183
:1019D0008227C381D0E0CE5CDE4D28818227179616
:1019E0008C93179795FB222720F9492F429546950E
:1019F00046954270422794FB222720F92427D4E001
:101A00009D9FA0011124422B20E0842F877090E03D
:101A1000622F70E02F5F68177907D4F3858590E017
:101A20008E5C9F4DC085D0E09E012E5C3E4DEC014A
:101A30009881E90188818927C281D0E0CE5CDC4DA4
:101A400098818927C781D0E0CE5CDC4D98818927B9
:101A500018968C931897858590E08E5C9E4DC08576
:101A6000D0E09E012E5C3C4DEC019881E90188811B
:101A70008927C281D0E0CE5CDF4D98818927C7815C
:101A8000D0E0CE5CDC4D9881892719968C9319970C
:101A9000858590E08E5C9C4DC085D0E09E012E5CDB
:101AA0003C4DEC019881E90188818927C281D0E011
:101AB000CE5CDE4D98818927C781D0E0CE5CDF4DBA
:101AC000988189271A968C931A97858590E08E5C69
:101AD0009C4DC085D0E09E012E5C3F4DEC0198816D
:101AE000E90188818927C281D0E0CE5CDC4D9881F4
:101AF0008927C781D0E0CE5CDE4D988189271B966F
:101B00008C931B9745FB332730F9242F229526957C
:101B100026952270232744FB882780F98227D4E06A
:101B20004D9F90011124382F322B20E0832F877096
:101B300090E0422F50E02F5F48175907D4F381817E
:101B400090E08E5C9F4DC485D0E0AE014E5C5E4D52
:101B5000EC019881EA0188818927C681D0E0CE5CBA
:101B6000DC4D98818927C385D0E0CE5CDC4D98811F
:101B700089271C968C931C97818190E08E5C9E4DEA
:101B8000C485D0E0AE014E5C5C4DEC019881EA0169
:101B900088818927C681D0E0CE5CDF4D9881892776
:101BA000C385D0E0CE5CDC4D988189271D968C934F
:101BB0001D97818190E08E5C9C4DC485D0E0AE0184
:101BC0004E5C5C4DEC019881EA0188818927C681D1
:101BD000D0E0CE5CDE4D98818927C385D0E0CE5C15
:101BE000DF4D988189271E968C931E97818190E006
:101BF0008E5C9C4DC485D0E0AE014E5C5F4DEC0127
:101C00009881EA0188818927C681D0E0CE5CDC4DCD
:101C100098818927E385F0E0EE5CFE4D908189276D
:101C20001F968C9333FB992790F9832F881F882761
:101C3000881F8927932F92959F70232F2295269591
:101C4000277029272170982F9227832F880F892B9F
:101C50008093D62620E08E7090E031E0320F422F44
:101C600050E04817590714F4232FF7CF2093B426D8
:101C7000DF91CF910895AF92BF92CF92DF92EF9212
:101C8000FF920F931F93CF93DF931F92CDB7DEB7D1
:101C90005C018B0140967C01442329F04A30E9F530
:101CA0006501F50119C06501F50190818091B526A6
:101CB00089278193EE15FF05C1F7B801C5010E9480
:101CC000F602F60190818091B526892781936F01F4
:101CD000EE15FF05B1F74BC090818091B52689279D
:101CE0008193EE15FF05C1F761E070E0C5010E9428
:101CF0001404C5010E949C04B80160567F4FC501C1
:101D00000E94F602F60190818091A3268927819393
:101D10006F01EE15FF05B1F72AC06501F50190814D
:101D20008091B52689278193EE15FF05C1F761E003
:101D300070E0C50149830E941404C5010E949C04FF
:101D4000C5010E94D5064981B801F0E14F9F600DA1
:101D5000711D1124C5010E94F602F6019081809147
:101D6000B526892781936F01EE15FF05B1F70F9016
:101D7000DF91CF911F910F91FF90EF90DF90CF9067
:101D8000BF90AF9008952F923F924F925F926F92C3
:101D90007F928F929F92AF92BF92CF92DF92EF92FB
:101DA000FF920F931F93CF93DF93CDB7DEB76C975E
:101DB000CDBFDEBFFC016F8B788F8C01005F1F4FA2
:101DC00009831A83442329F04A3009F0C0C71C0153
:101DD00082C28C01DC013C912091B52623272D93F2
:101DE000CD0129813A81A217B307A1F79091D62698
:101DF00095FB882780F9292F229526952695227014
:101E0000282794FB882780F9822744E0949F90013B
:101E10001124282B2093D62630E02770822F90E0C3
:101E200021E0230F432F50E04817590714F4322FB5
:101E3000F7CF3093B4269081AF89B88D8C918927E4
:101E400080833091D62635FB992790F9832F829590
:101E5000869586958270892734FB442740F9482768
:101E6000B4E03B9FC0011124842B90E0282F277001
:101E700030E0492F50E09F5F42175307D4F3218190
:101E8000AF89B88D11969C919227918383FB33275C
:101E900030F9982F991F9927991F9327382F32953A
:101EA0003F70582F52955695577053275170392FC0
:101EB0003527880F982F932B80E0292F2E7030E044
:101EC000482F50E08F5F42175307D4F32281AF8928
:101ED000B88D12968C918227828395FB222720F958
:101EE000492F4295469546954270422794FB2227FA
:101EF00020F92427B4E09B9FA0011124422B20E06D
:101F0000842F877090E0622F70E02F5F6817790749
:101F1000D4F39381AF89B88D13968C9189278383ED
:101F200045FB882780F9242F229526952695227037
:101F3000282744FB882780F98227B4E04B9F900133
:101F40001124282B30E0822F877090E0432F50E03F
:101F50003F5F48175907D4F39481AF89B88D149621
:101F60008C918927848325FB992790F9822F82956C
:101F7000869586958270892724FB442740F9482757
:101F8000B4E02B9FC0011124842B90E0282F2770F0
:101F900030E0492F50E09F5F42175307D4F325816B
:101FA000AF89B88D15969C919227958383FB332733
:101FB00030F9982F991F9927991F9327382F329519
:101FC0003F70582F52955695577053275170392F9F
:101FD0003527880F982F932B80E0292F2E7030E023
:101FE000482F50E08F5F42175307D4F32681AF8903
:101FF000B88D16968C918227868395FB222720F92F
:10200000492F4295469546954270422794FB2227D8
:1020100020F92427B4E09B9FA0011124422B20E04B
:10202000842F877090E0622F70E02F5F6817790728
:10203000D4F39781AF89B88D17968C9189278783C0
:1020400045FB882780F9242F229526952695227016
:10205000282744FB882780F98227B4E04B9F900112
:102060001124282B30E0822F877090E0432F50E01E
:102070003F5F48175907D4F39085AF89B88D1896FC
:102080008C918927808725FB442740F9822F8295F0
:10209000869586958270842724FB442740F948273B
:1020A000B4E02B9FC0011124842B90E0282F2770CF
:1020B00030E0492F50E09F5F42175307D4F321854A
:1020C000AF89B88D19969C919227918785FB22271D
:1020D00020F9482F4295469546954270422784FB49
:1020E000222720F92427B4E08B9FA0011124422B42
:1020F00020E0842F877090E0622F70E02F5F6817D8
:102100007907D4F39285AF89B88D1A968C91892777
:10211000828745FB882780F9242F229526952695CE
:102120002270282744FB882780F98227B4E04B9F40
:1021300090011124282B30E0822F877090E0432FEC
:1021400050E03F5F48175907D4F39385AF89B88DA6
:102150001B968C918927838725FB442740F9822F82
:102160008295869586958270842724FB442740F9C2
:102170004827B4E02B9FC0011124842B90E0282F26
:10218000277030E0492F50E09F5F42175307D4F388
:102190002485AF89B88D1C969C919227948785FBE6
:1021A000222720F9482F42954695469542704227AE
:1021B00084FB222720F92427B4E08B9FA00111245F
:1021C000422B20E0842F877090E0622F70E02F5F19
:1021D00068177907D4F39585AF89B88D1D968C91D2
:1021E0008927858745FB882780F9242F2295269506
:1021F00026952270282744FB882780F98227B4E09F
:102200004B9F90011124282B30E0822F877090E0A3
:10221000432F50E03F5F48175907D4F39685AF89A5
:10222000B88D1E968C918927868725FB992790F972
:10223000822F8295869586958270892724FB332785
:1022400030F93827B4E02B9FC0011124832B90E094
:10225000282F277030E0492F50E09F5F4217530727
:10226000D4F32785AF89B88D1F969C9192279787C5
:1022700083FB222720F9982F991F9927991F9227CE
:10228000382F32953F70282F2295269527702327C7
:1022900021709227880F892B8093D62620E08E709C
:1022A00090E031E0320F422F50E04817590714F404
:1022B000232FF7CF2093B426F80190818091B52683
:1022C0008927D8018D938D0129813A81A217B307FF
:1022D00099F70C945D1FDC013C912091B5262327D2
:1022E0002D93CD0109811A81A017B107A1F7309173
:1022F000D62633FB992790F9832F881F8827881FBC
:102300008927932F92959F70232F229526952770CA
:1023100029272170982F9227832F880F892B80934C
:10232000D62620E08E7090E031E0320F422F50E050
:102330004817590714F4232FF7CF2093B426808130
:1023400090E08C5C9B4DDC018C9180839091D62633
:1023500095FB882780F9292F2295269526952270AE
:10236000282794FB882780F98227B4E09B9F90015F
:102370001124282B30E0822F877090E0432F50E00B
:102380003F5F48175907D4F3818190E08C5C9B4DE7
:10239000DC01BC90B18225FB442740F9822F829555
:1023A000869586958270842724FB442740F9482728
:1023B000B4E02B9FC0011124842B90E0282F2770BC
:1023C00030E0492F50E09F5F42175307D4F322813A
:1023D00030E02C5C3B4DD9013C91328385FB662774
:1023E00060F9482F4295469546954270462784FBF2
:1023F000662760F96427B4E08B9FA0011124462B67
:1024000020E0842F877090E0622F70E02F5F6817C4
:102410007907D4F3838190E08C5C9B4DDC015C9167
:10242000538345FB882780F9642F629566956695EE
:102430006270682744FB882780F98627B4E04B9FA9
:10244000B0011124682B20E0862F877090E0022FC6
:1024500010E02F5F08171907D4F3848190E08C5C9B
:102460009B4DDC017C90748265FB992790F9862F47
:102470008295869586958270892764FB992790F9C5
:10248000E82EE926B4E06B9FC00111249E2D982B05
:1024900080E0692F677070E0082F10E08F5F0617EB
:1024A0001707D4F3658170E06C5C7B4DDB010C9108
:1024B000058395FBEE24E0F8892F82958695869515
:1024C00082708E2594FBEE24E0F8E826B4E09B9F12
:1024D000C00111248E2990E0682F677070E0E92E0A
:1024E000F12C9F5FE616F706D4F3668170E06C5C12
:1024F0007B4DDB01AC90A68285FBEE24E0F8682FD3
:1025000062956695669562706E2584FBEE24E0F810
:102510006E25B4E08B9F70011124462F4E2980E078
:10252000942F9770C92ED12C882E912C8F5F8C14EC
:102530009D04D4F3878190E08C5C9B4DDC012C9151
:10254000278345FB882780F9942F92959695969539
:102550009270982744FB882780F98927B4E04B9F25
:10256000B0011124482F462B10E0842F877090E093
:10257000612F70E01F5F68177907D4F39085892F6A
:1025800090E08C5C9B4DDC016C90608645FB88275D
:1025900080F9942F9295969596959270982744FB82
:1025A000882780F9C92EC826B4E04B9FC0011124AA
:1025B0008C2990E0682F677070E0892E912C9F5FC6
:1025C00086169706D4F3618570E06C5C7B4DDB0169
:1025D0007C91718783FBCC24C0F8982F991F992791
:1025E000991FC926482F42954F70982F929596951E
:1025F000977094279170C926880F482F4C2980E046
:10260000942F9E70892E912CE82EF12C8F5FE81468
:10261000F904D4F3828590E08C5C9B4DDC011C9125
:10262000128745FB882780F9642F62956695669529
:102630006270682744FB882780F96827B4E04B9FC5
:10264000C0011124682B40E0862F8770882E912CC2
:10265000842F90E04F5F88159905D4F38384882DEB
:1026600090E08C5C9B4DDC019C90938665FBCC24B8
:10267000C0F8462F4295469546954270C42664FBA5
:10268000EE24E0F8EC24B4E06B9F600111244E2DA1
:102690004C2980E0942F9770E92EF12CC82ED12C74
:1026A0008F5FCE14DF04D4F3848590E08C5C9B4D67
:1026B000DC015C90548645FBEE24E0F8642F6295C3
:1026C000669566956270E62644FB882780F98E251C
:1026D000B4E04B9F70011124682F6E2980E0962F83
:1026E0009770E92EF12CC82ED12C8F5FCE14DF0409
:1026F000D4F3858590E08C5C9B4DDC014C91458743
:1027000065FB882780F9962F9295969596959270FD
:10271000982764FBDD24D0F8D926B4E06B9FC00174
:1027200011249D2D982B80E0692F6770E62EF12CE7
:10273000C82ED12C8F5FCE14DF04D4F3E684F12CA5
:10274000D701AC5CBB4D6C91668793FBDD24D0F860
:10275000892F881F8827881FD826892F82958F70F8
:10276000F92EF294F694B7E0FB228F258170D826DB
:10277000892F880FD82AC12C8D2D8E7090E0EC2CDB
:10278000F12CC394E816F906D4F3878590E08C5CAD
:102790009B4DDC018C90D5FACC24C0F88D2D829510
:1027A0008695869582708C25D4FACC24C0F8C826EC
:1027B000B4E0DB9EC0011124C82AD12C8C2D877077
:1027C00090E0ED2CF12CD394E816F906D4F3C5FA79
:1027D000DD24D0F88C2D82958695869582708D2586
:1027E000C4FADD24D0F8D826A4E0CA9EC001112482
:1027F000D82AC12C8D2D877090E0EC2CF12CC3943D
:10280000E816F906D4F3018375834187B586D5FAB6
:10281000EE24E0F88D2D82958695869582708E2522
:10282000D4FAEE24E0F8E826B4E0DB9EC0011124DF
:102830008E2990E0A82FA770EA2EF12CC92ED12C5A
:102840009F5FCE14DF04D4F3128332876683A6869B
:1028500083FBEE24E0F8982F991F9927991FE9260A
:10286000982F92959F70F82EF294F694A7E0FA2292
:102870009F2591709E25880F892B90E0B82FBE7000
:10288000EB2EF12CC92ED12C9F5FCE14DF04D4F394
:10289000838297862387578385FBEE24E0F8982F61
:1028A0009295969596959270E92684FB992790F9D2
:1028B0009E25A4E08A9F70011124892F8E29809380
:1028C000D626D12C877090E0CC24C394CD0CED2C6F
:1028D000F12CE816F90614F4DC2CF6CFD092B426CD
:1028E000AF89B88DA056BF4F90818C918927808386
:1028F000F090D626F5FADD24D0F89F2D9295969586
:1029000096959270D926F4FA882780F9D82684E023
:10291000F89E70011124DE28C12C8D2D877090E067
:10292000EC2CF12CC394E816F906D4F311968C9193
:10293000119708270183D3FA992790F98D2D881FC5
:102940008827881F89279D2D92959F700D2D0295B0
:102950000695077009270170982F90278D2D880FF5
:10296000892B90E0082F0E70E02EF12CC92ED12C6F
:102970009F5FCE14DF04D4F312969C91129719270F
:10298000128385FB992790F9182F129516951695A5
:102990001270192784FBDD24D0F81D2504E0809FE8
:1029A000C0011124D12ED82A80E00D2D077010E02F
:1029B000E82EF12C8F5FE016F106D4F313968C917C
:1029C000139788268382D5FA882780F99D2D9295C2
:1029D0009695969592709827D4FAEE24E0F8E92619
:1029E00014E0D19EC0011124E82AF12C8E2D8770AD
:1029F00090E00F2D10E0F39408171907D4F3149604
:102A00008C91149778267482E5FA882780F99E2D98
:102A100092959695969592709827E4FAFF24F0F88F
:102A2000F92604E0E09EC0011124F82AE12C8F2D44
:102A3000877090E00E2D10E0E39408171907D4F387
:102A400015968C91159778277583F3FA992790F945
:102A50008F2D881F8827881F89279F2D92959F700B
:102A60007F2D72957695777079277170982F9727BB
:102A70008F2D880F892B90E0082F0E7010E0E92E23
:102A8000F12C9F5FE016F106D4F316969C911697F1
:102A90006927668385FBFF24F0F8682F62956695A9
:102AA000669562706F2584FBFF24F0F86F2514E0B3
:102AB000819FC0011124F62EF82A80E06F2D6770E7
:102AC00070E0082F10E08F5F06171707D4F31796F2
:102AD0008C91179758275783F5FA992790F98F2DDE
:102AE00082958695869582708927F4FA992790F9C0
:102AF000892754E0F59EB0011124982F962B80E091
:102B0000692F677070E0082F10E08F5F06171707B6
:102B1000D4F318968C9118976826608695FB6627E3
:102B200060F9892F8295869586958270862794FB19
:102B3000662760F9682774E0979FC0011124862BEF
:102B400090E0682F677070E0092F10E09F5F061714
:102B50001707D4F319969C9119974927418785FB4C
:102B6000662760F9482F429546954695427046275C
:102B700084FB662760F9642794E0899FA0011124F3
:102B8000462B80E0042F077010E0E82EF12C8F5FB9
:102B9000E016F106D4F31A968C911A9738273287EB
:102BA00045FB882780F9642F62956695669562706B
:102BB000682744FB882780F9862704E0409FB001FE
:102BC0001124682B30E0862F877090E0432F50E06F
:102BD0003F5F48175907D4F31B968C911B97282702
:102BE000238765FB442740F9862F82958695869535
:102BF0008270842764FB442740F9482714E0619FD2
:102C0000C0011124842B90E0282F277030E0492F39
:102C100050E09F5F42175307D4F31C969C911C977A
:102C20005926548685FB222720F9482F4295469540
:102C300046954270422784FB222720F9242734E05E
:102C4000839FA0011124422B20E0842F877090E005
:102C5000622F70E02F5F68177907D4F31D968C916F
:102C60001D97B826B58645FB882780F9242F229525
:102C7000269526952270282744FB882780F98227ED
:102C800054E0459F90011124282B30E0822F87705B
:102C900090E0432F50E03F5F48175907D4F31E964A
:102CA0008C911E97A826A68625FB992790F9822F3E
:102CB0008295869586958270892724FB332730F983
:102CC000382764E0269FC0011124832B90E0282F31
:102CD000277030E0492F50E09F5F42175307D4F32D
:102CE0001F969C919926978683FB222720F9982F7F
:102CF000991F9927991F9227382F32953F70282FB7
:102D0000229526952770232721709227880F892BDB
:102D10008093D62620E08E7090E031E0320F422F73
:102D200050E04817590714F4232FF7CF2093B42607
:102D3000D1019C918091A3268927F10181931F01E4
:102D400009811A81E017F10799F70C945D1F8B83B5
:102D50009C83DC019C918091B52689278D932981E4
:102D60003A81A217B307B1F73091D62633FB9927E2
:102D700090F9832F881F8827881F8927932F929582
:102D80009F70232F22952695277029272170982F31
:102D90009227832F880F892B8093D62620E08E7070
:102DA00090E031E0320F622F70E06817790714F479
:102DB000232FF7CF2093B426808190E08C5C9B4D2D
:102DC000DC018C9180839091D62695FB662760F973
:102DD000892F8295869586958270862794FB662733
:102DE00060F96827B4E09B9FC0011124862B90E016
:102DF000282F277030E0692F70E09F5F62177307FC
:102E0000D4F3218130E02C5C3B4DD901BC91BA87D1
:102E1000B18385FB222720F9682F62956695669518
:102E20006270622784FB222720F9262704E0809F16
:102E3000B0011124622B20E0862F877090E0A22F32
:102E4000B0E02F5FA817B907D4F3828190E08C5CC3
:102E50009B4DDC01AC90A28265FB882780F9262F70
:102E60002295269526952270282764FB882780F9CD
:102E70008227B4E06B9F90011124282B30E0822F31
:102E8000877090E0632F70E03F5F68177907D4F395
:102E9000838190E08C5C9B4DDC014C90438225FB50
:102EA000992790F9822F8295869586958270892739
:102EB00024FB332730F93827B4E02B9FC0011124BD
:102EC000832B90E0682F677070E0292F30E09F5FC0
:102ED00026173707D4F3248130E02C5C3B4DD90111
:102EE000CC90C48285FB222720F9982F9295969545
:102EF00096959270922784FB222720F92927B4E027
:102F00008B9FC0011124822B30E0682F677070E026
:102F1000A32FB0E03F5FA617B707D4F3258130E0B9
:102F20002C5C3B4DD9011C91158385FB222720F990
:102F3000982F9295969596959270922784FB2227CA
:102F400020F99227B4E08B9F90011124292B80E077
:102F5000622F677070E0A82FB0E08F5FA617B707E9
:102F6000D4F3868190E0DC01AC5CBB4D0C910B8707
:102F7000068325FB552750F9822F829586958695E5
:102F80008270852724FB552750F9582734E0239F6A
:102F9000C0011124582B80E0252F277030E0682FC6
:102FA00070E08F5F62177307D4F3878190E08C5CC9
:102FB0009B4DDC019C90978255FB992790F9852FBA
:102FC0008295869586958270892754FB992790F97A
:102FD000282F2927B4E05B9FC0011124922F982B42
:102FE00080E0292F277030E0682F70E08F5F621734
:102FF0007307D4F3208530E02C5C3B4DD9012C9035
:10300000208695FB222720F9892F82958695869523
:103010008270822794FB662760F96827B4E09B9F43
:10302000C0011124862B90E0282F277030E0E92E74
:10303000F12C9F5FE216F306D4F3218530E02C5C7F
:103040003B4DD901DC90D18683FB662760F9982F30
:10305000991F9927991F6927282F22952F70982F3C
:10306000929596959770922791706927880F682B93
:1030700050E0862F8E7090E0252F30E05F5F28179C
:103080003907D4F3828590E08C5C9B4DDC01FC9089
:10309000F28665FB552750F9862F82958695869591
:1030A0008270852764FB552750F95827B4E06B9F41
:1030B000C0011124582B60E0852F877090E0262FE7
:1030C00030E06F5F28173907D4F3838590E0DC0187
:1030D000AC5CBB4D0C910C87038755FB992790F98D
:1030E000652F6295669566956270692754FB222765
:1030F00020F9262734E0539FB0011124922F962BFC
:1031000080E0292F277030E0682F70E08F5F621712
:103110007307D4F3248530E02C5C3B4DD9017C90BF
:10312000748695FB662760F9292F229526952695AA
:103130002270262794FB882780F98227B4E09B9F82
:1031400090011124682F622B50E0862F877090E049
:10315000252F30E05F5F28173907D4F3858590E08D
:103160008C5C9B4DDC018C90858665FB882780F903
:10317000962F9295969596959270982764FB552771
:1031800050F95927B4E06B9FC0011124952F982B5B
:1031900080E0292F277030E0682F70E08F5F621782
:1031A0007307D4F3268530E02C5C3B4DD9013C906D
:1031B000368693FB552750F9892F881F8827881F4B
:1031C0005827892F82958F70292F22952695277051
:1031D000282721705227892F880F582B60E0852FD0
:1031E0008E7090E0262F30E06F5F28173907D4F3F8
:1031F000878590E08C5C9B4DDC01BC9055FB99274A
:1032000090F9852F8295869586958270892754FB43
:10321000222720F92827B4E05B9FC0011124522FF8
:10322000582B60E0852F877090E0262F30E06F5F8D
:1032300028173907D4F355FB662760F9852F829547
:10324000869586958270862754FB662760F96827E5
:1032500004E0509FC0011124682B50E0862F877036
:1032600090E0252F30E05F5F28173907D4F31183F2
:1032700065FB552750F9862F829586958695827035
:10328000852764FB552750F9582724E0629FC00129
:103290001124582B60E0852F877090E0262F30E0B6
:1032A0006F5F28173907D4F3F28253FBEE24E0F85E
:1032B000852F881F8827881FE826852F82958F7085
:1032C000952F92959695977098279170E926852F5E
:1032D000880F582F5E2960E0852F8E7090E0262F92
:1032E00030E06F5F28173907D4F3B38255FBEE2423
:1032F000E0F8852F8295869586958270E82654FBA6
:10330000882780F9E82634E0539FC0011124E82A79
:10331000E092D62650E08E2D877090E061E0650F38
:10332000252F30E02817390714F4562FF7CF498F8F
:10333000EB8FFC8F5093B426009138258081802735
:103340008D830E94D1058D87E5FA662460F88E2D65
:1033500082958695869582706826E4FA882780F99A
:10336000682644E0E49EC0011124682A40E0862DCE
:10337000877090E0242F30E04F5F28173907D4F38F
:10338000E09039251E251F83812F0E94D1058E874D
:1033900065FA552450F8862D82958695869582701B
:1033A000582664FA882780F9582654E0659EC001A3
:1033B0001124582A40E0852D877090E0242F30E0BA
:1033C0004F5F28173907D4F310913A25F126F88674
:1033D0008F2D0E94D1058F8753FA662460F8852DC2
:1033E000881F8827881F6826952D92959F70852DA8
:1033F000829586958770892781706826550C652887
:1034000040E0862D8E7090E0242F30E04F5F28172B
:103410003907D4F3F0903B25BF24BE828B2D0E9448
:10342000D105888B65FA552450F8862D82958695AE
:1034300086958270582664FABB24B0F85B2464E059
:10344000669EC0011124582A40E0852D877090E0C7
:10345000242F30E04F5F28173907D4F3C026C986E0
:103460008C2D0E94D105898B55FA662460F8852D34
:103470008295869586958270682654FABB24B0F8AA
:103480006B2474E0579EC0011124682A40E0862D09
:10349000877090E0242F30E04F5F28173907D4F36E
:1034A0005D2C5E24852D0E94D1058A8B65FABB2494
:1034B000B0F8862D8295869586958270B82664FA36
:1034C000CC24C0F8BC24A4E06A9EC0011124B82A10
:1034D00040E08B2D877090E0242F30E04F5F28175D
:1034E0003907D4F3632C6126862D0E94D1058B8B7E
:1034F000B5FACC24C0F88B2D82958695869582707E
:10350000C826B4FADD24D0F8CD24B4E0BB9EC001B7
:103510001124C82A40E08C2D877090E0242F30E0E1
:103520004F5F28173907D4F34F24842D0E94D1050B
:10353000382EC5FADD24D0F88C2D82958695869597
:103540008270D826C4FA882780F98D25E4E0CE9EC3
:1035500060011124D82EDC2840E08D2D877090E08A
:10356000242F30E04F5F28173907D4F3B22CB02650
:103570008B2D0E94D1058C8BD3FA222720F98D2D1B
:10358000881F8827881F922F98272D2D22952F700E
:103590008D2D82958695877082278170292F282707
:1035A000DD0CD22A40E08D2D8E7090E0242F30E08B
:1035B0004F5F28173907D4F3282C2E24822D0E9420
:1035C000D1058D8BD5FA882480F82D2D229526954E
:1035D000269522708226D4FA222720F98226F4E04A
:1035E000DF9EC0011124882A40E0882D877090E07A
:1035F000242F30E04F5F28173907D4F3CA2CC12697
:103600008C2D0E94D1058E8B85FADD24D0F8282DD3
:1036100022952695269522702D2584FADD24D0F852
:103620002D2534E0839EC0011124282B30E0822F09
:10363000877090E0432F50E03F5F48175907D4F35D
:10364000A92CAF248A2D2A8F0E94D105882E2A8D7D
:1036500025FBDD24D0F8822F829586958695827091
:10366000D82624FB992790F9D92644E0249F90017D
:103670001124D22A40E08D2D877090E0242F30E075
:103680004F5F28173907D4F30725802F0E94D105F3
:10369000982ED5FA772470F89D2D9295969596954B
:1036A00092707926D4FA992790F9792654E0D59E1C
:1036B000C0011124782A40E0872D877090E0242FE4
:1036C00030E04F5F28173907D4F36A85E6268E2D40
:1036D0000E94D105D82E75FA332730F9972D92958F
:1036E000969596959270932774FA332730F9392777
:1036F00074E0779EC0011124932F982B80E0292F2E
:10370000277030E0482F50E08F5F42175307D4F303
:103710002B851227812F9A8F0E94D105782E9A8DA2
:1037200095FB332730F9492F4295469546954270CF
:10373000432794FB332730F9432734E0939FC0019C
:103740001124342F382B20E0832F877090E0622FD4
:1037500070E02F5F68177907D4F34C85F4268F2D1E
:103760003A8F0E94D1053A8D35FB222720F9432F4D
:103770004295469546954270422734FB222720F910
:10378000242764E0369FA0011124422B4093D626C3
:1037900050E04770242F30E091E0950F452F50E026
:1037A0004217530714F4592FF7CF28857F81272715
:1037B0009E8192273D8593274E859427AB8DBC8DA6
:1037C0009C9398853E8193274D8194275E8595270C
:1037D0006F85962711969C931197972F932794277F
:1037E00096277889972712969C93129724279D8570
:1037F0002927272713962C934091D62643FB22276F
:1038000020F9942F991F9927991F2927342F329532
:103810003F70942F92959695977039273170322783
:10382000242F220F922F932B20E0492F4E7050E02F
:10383000622F70E02F5F64177507D4F3262D2525BE
:103840002425398923274A892427AB8DBC8D1496DA
:103850002C93149729852625242524273B89232763
:1038600015962C9315972985252542264326432412
:1038700016964C92169726254989242732261796A4
:103880003C9295FB332730F9292F229526952695D2
:103890002270232794FB442740F9422754E0959F48
:1038A00090011124242B90E0422F477050E0692FA3
:1038B00070E09F5F64177507D4F39C2D92259A25BD
:1038C0006C8996277D899727AB8DBC8D18969C9324
:1038D00018979C2D9B259A25672E69263E8963267D
:1038E00019966C9219972B24A224B32EBA24B824CB
:1038F0001A96BC921A97C224C6268C241B968C92C8
:1039000023FB332730F9922F991F9927991F93276B
:10391000422F42954F70322F3295369537703427AB
:1039200031709327220F292B2093D62690E02E70FA
:1039300030E061E0690F492F50E04217530714F45B
:10394000962FF7CF9093B426912F9E259F259925EA
:103950009D25AB8DBC8D1C969C931C97912F902719
:103960009F25D926D7241D96DC921D970E25F0267B
:103970007F2478261E967C921E9710271925812772
:103980001F968C931F9720E030E0F901E370FF272A
:10399000EC5CFA4D9C91808189278D932F5F3F4F7E
:1039A0002031310591F79091D62695FB882780F933
:1039B000292F2295269526952270282794FB882763
:1039C00080F98227B4E09B9F90011124282B20933B
:1039D000D62630E02770822F90E021E0230F432F7E
:1039E00050E04817590714F4322FF7CF3093B4261C
:1039F000AF89B88D098DE0E10E9FA00DB11D112496
:103A0000EB8DFC8D90818C91892780833091D62617
:103A100035FB992790F9832F82958695869582703C
:103A2000892734FB442740F94827F4E03F9FC00131
:103A30001124842B90E0282F277030E0492F50E08C
:103A40009F5F42175307D4F3EB8DFC8D21811196B4
:103A50009C9111979227918383FB332730F9982FFC
:103A6000991F9927991F9327382F32953F70582F08
:103A700052955695577053275170392F3527880F17
:103A8000982F932B80E0292F2E7030E0482F50E0A4
:103A90008F5F42175307D4F3EB8DFC8D2281129672
:103AA0008C9112978227828395FB222720F9492F38
:103AB0004295469546954270422794FB222720F96D
:103AC0002427F4E09F9FA0011124422B20E0842FA3
:103AD000877090E0622F70E02F5F68177907D4F34A
:103AE000EB8DFC8D938113968C911397892783839B
:103AF00045FB882780F9242F22952695269522704C
:103B0000282744FB882780F98227F4E04F9F900103
:103B10001124282B30E0822F877090E0432F50E053
:103B20003F5F48175907D4F3EB8DFC8D94811496B1
:103B30008C9114978927848325FB992790F9822FEC
:103B40008295869586958270892724FB442740F9C3
:103B50004827F4E02F9FC0011124842B90E0282FE8
:103B6000277030E0492F50E09F5F42175307D4F38E
:103B7000EB8DFC8D258115969C9115979227958349
:103B800083FB332730F9982F991F9927991F932783
:103B9000382F32953F70582F5295569557705327AE
:103BA0005170392F3527880F982F932B80E0292FBC
:103BB0002E7030E0482F50E08F5F42175307D4F348
:103BC000EB8DFC8D268116968C9116978227868325
:103BD00095FB222720F9492F42954695469542703C
:103BE000422794FB222720F92427F4E09F9FA0017D
:103BF0001124422B20E0842F877090E0622F70E028
:103C00002F5F68177907D4F3EB8DFC8D978117969A
:103C10008C9117978927878345FB882780F9242F64
:103C20002295269526952270282744FB882780F91F
:103C30008227F4E04F9F90011124282B30E0822F3F
:103C4000877090E0432F50E03F5F48175907D4F347
:103C5000EB8DFC8D908518968C911897892780871D
:103C600025FB442740F9822F8295869586958270A0
:103C7000842724FB442740F94827F4E02F9FC00104
:103C80001124842B90E0282F277030E0492F50E03A
:103C90009F5F42175307D4F3EB8DFC8D2185199656
:103CA0009C9119979227918785FB222720F9482F0D
:103CB0004295469546954270422784FB222720F97B
:103CC0002427F4E08F9FA0011124422B20E0842FB1
:103CD000877090E0622F70E02F5F68177907D4F348
:103CE000EB8DFC8D92851A968C911A978927828785
:103CF00045FB882780F9242F22952695269522704A
:103D0000282744FB882780F98227F4E04F9F900101
:103D10001124282B30E0822F877090E0432F50E051
:103D20003F5F48175907D4F3EB8DFC8D93851B96A5
:103D30008C911B978927838725FB442740F9822F85
:103D40008295869586958270842724FB442740F9C6
:103D50004827F4E02F9FC0011124842B90E0282FE6
:103D6000277030E0492F50E09F5F42175307D4F38C
:103D7000EB8DFC8D24851C969C911C979227948733
:103D800085FB222720F9482F42954695469542709B
:103D9000422784FB222720F92427F4E08F9FA001EB
:103DA0001124422B20E0842F877090E0622F70E076
:103DB0002F5F68177907D4F3EB8DFC8D95851D96E1
:103DC0008C911D978927858745FB882780F9242FAB
:103DD0002295269526952270282744FB882780F96E
:103DE0008227F4E04F9F90011124282B30E0822F8E
:103DF000877090E0432F50E03F5F48175907D4F396
:103E0000EB8DFC8D96851E968C911E978927868753
:103E100025FB992790F9822F829586958695827049
:103E2000892724FB332730F93827F4E02F9FC0017E
:103E30001124832B90E0282F277030E0492F50E089
:103E40009F5F42175307D4F3EB8DFC8D27851F9698
:103E50009C919227978783FB222720F9982F991FFF
:103E60009927991F9227382F32953F70282F229536
:103E700026952770232721709227880F892B8093FE
:103E8000D62620E08E7090E031E0320F422F50E0D5
:103E90004817590714F4232FF7CF2093B426AB818A
:103EA000BC819C918091B52689278D93AB83BC837F
:103EB00009811A81A017B10791F76C96CDBFDEBFBB
:103EC000DF91CF911F910F91FF90EF90DF90CF90F6
:103ED000BF90AF909F908F907F906F905F904F902A
:103EE0003F902F9008958F929F92AF92BF92CF9262
:103EF000DF92EF92FF920F931F93CF93DF931F9266
:103F0000CDB7DEB78C017B0149014423E1F04A3093
:103F1000B9F562E070E00E944D03C8010E949C0464
:103F2000B70160567F4FC8010F90DF91CF911F916D
:103F30000F91FF90EF90DF90CF90BF90AF909F9048
:103F40008F900C94F6025901640180E1C80ED11CD7
:103F5000F40190818091B52689278193EC15FD05A8
:103F6000C1F7B701C8010E94F602F5019081809166
:103F7000B526892781935F01EC15FD05B1F73EC099
:103F800069015901F0E1AF0EB11CF90190818091F6
:103F9000B52689278193EA15FB05C1F762E070E039
:103FA000C80149830E944D03C8010E949C04C801B6
:103FB0000E94D905D40180E090E04981FC01E370C2
:103FC000FF27EC5CFA4D3C91208123272D9301962D
:103FD0008031910599F7B70180E1489F600D711D0F
:103FE0001124C8010E94F602F60190818091B52645
:103FF000892781936F01EA15FB05B1F70F90DF91D7
:10400000CF911F910F91FF90EF90DF90CF90BF90D5
:10401000AF909F908F9008952F923F924F925F9212
:104020006F927F928F929F92AF92BF92CF92DF92C8
:10403000EF92FF920F931F93CF93DF93CDB7DEB72D
:104040006B97CDBFDEBF8A8F9B8F1B01B901605F6D
:104050007F4F69837A83442341F04A3011F00C94F6
:104060001F292B833C83D901CCC2F901D9019C9132
:104070008091B52689278D9329813A81A217B307AC
:10408000B1F79091D62695FB882780F9292F2295A4
:10409000269526952270282794FB882780F9822769
:1040A00044E0949F90011124282B2093D62630E0E1
:1040B0002770822F90E021E0230F432F50E0481714
:1040C000590714F4322FF7CF3093B426AA8DBB8D45
:1040D0009C91D1018C918927AA8DBB8D8C933091B5
:1040E000D62635FB992790F9832F8295869586955C
:1040F0008270892734FB442740F94827B4E03B9F6E
:10410000C0011124842B90E0282F277030E0492F24
:1041100050E09F5F42175307D4F3AA8DBB8D1196D1
:104120002C91D10111969C919227AA8DBB8D11964D
:104130009C9383FB332730F9982F991F9927991F58
:104140009327382F32953F70582F529556955770B8
:1041500053275170392F3527880F982F932B80E0E4
:10416000292F2E7030E0482F50E08F5F4217530701
:10417000D4F3AA8DBB8D12962C91D10112968C91FD
:104180008227AA8DBB8D12968C9395FB222720F94E
:10419000492F4295469546954270422794FB222727
:1041A00020F92427B4E09B9FA0011124422B20E09A
:1041B000842F877090E0622F70E02F5F6817790777
:1041C000D4F3AA8DBB8D13969C91D10113968C913B
:1041D0008927AA8DBB8D13968C9345FB882780F980
:1041E000242F2295269526952270282744FB882780
:1041F00080F98227B4E04B9F90011124282B30E0F6
:10420000822F877090E0432F50E03F5F4817590797
:10421000D4F3AA8DBB8D14969C91D10114968C91E8
:104220008927AA8DBB8D14968C9325FB992790F92D
:10423000822F8295869586958270892724FB442754
:1042400040F94827B4E02B9FC0011124842B90E053
:10425000282F277030E0492F50E09F5F4217530707
:10426000D4F3AA8DBB8D15962C91D10115969C91F6
:104270009227AA8DBB8D15969C9383FB332730F92B
:10428000982F991F9927991F9327382F32953F70A0
:10429000582F52955695577053275170392F3527FF
:1042A000880F982F932B80E0292F2E7030E0482F15
:1042B00050E08F5F42175307D4F3AA8DBB8D16963B
:1042C0002C91D10116968C918227AA8DBB8D1696C2
:1042D0008C9395FB222720F9492F429546954695C8
:1042E0004270422794FB222720F92427B4E09B9FA9
:1042F000A0011124422B20E0842F877090E0622FD0
:1043000070E02F5F68177907D4F3AA8DBB8D1796DD
:104310009C91D10117968C918927AA8DBB8D1796F8
:104320008C9345FB882780F9242F22952695269586
:104330002270282744FB882780F98227B4E04B9F0E
:1043400090011124282B30E0822F877090E0432FBA
:1043500050E03F5F48175907D4F3AA8DBB8D1896DC
:104360009C91D10118968C918927AA8DBB8D1896A6
:104370008C9325FB662760F9822F8295869586951A
:104380008270862724FB662760F96827B4E02B9F9C
:10439000C0011124862B90E0282F277030E0492F90
:1043A00050E09F5F42175307D4F3AA8DBB8D199637
:1043B0002C91D10119969C919227AA8DBB8D1996AB
:1043C0009C9385FB442740F9682F62956695669516
:1043D0006270642784FB442740F94627B4E08B9F32
:1043E000B0011124642B20E0862F877090E0422FCB
:1043F00050E02F5F48175907D4F3AA8DBB8D1A964A
:104400009C91D1011A968C918927AA8DBB8D1A9601
:104410008C9365FB882780F9462F429546954695F3
:104420004270482764FB882780F98427B4E06B9F9B
:10443000A0011124482B20E0842F877090E0622F88
:1044400070E02F5F68177907D4F3AA8DBB8D1B9698
:104450009C91D1011B968C918927AA8DBB8D1B96AF
:104460008C9345FB662760F9842F82958695869507
:104470008270862744FB662760F96827B4E04B9F6B
:10448000C0011124862B90E0282F277030E0492F9F
:1044900050E09F5F42175307D4F3AA8DBB8D1C9643
:1044A0002C91D1011C969C919227AA8DBB8D1C96B4
:1044B0009C9385FB442740F9682F62956695669525
:1044C0006270642784FB442740F94627B4E08B9F41
:1044D000B0011124642B20E0862F877090E0422FDA
:1044E00050E02F5F48175907D4F3AA8DBB8D1D9656
:1044F0009C91D1011D968C918927AA8DBB8D1D960B
:104500008C9365FB882780F9462F42954695469502
:104510004270482764FB882780F98427B4E06B9FAA
:10452000A0011124482B20E0842F877090E0622F97
:1045300070E02F5F68177907D4F3AA8DBB8D1E96A4
:104540009C91D1011E968C918927AA8DBB8D1E96B8
:104550008C9345FB992790F9842F829586958695B3
:104560008270892744FB222720F92827B4E04B9F3B
:10457000C0011124822B90E0282F277030E0492FB2
:1045800050E09F5F42175307D4F3AA8DBB8D1F964F
:104590002C91D1011F969C919227AA8DBB8D1F96BD
:1045A0009C9383FB222720F9982F991F9927991F05
:1045B0009227382F32953F70282F22952695277005
:1045C000232721709227880F892B8093D62620E0FD
:1045D0008E7090E031E0320F422F50E048175907BB
:1045E00014F4232FF7CF2093B42690818091B52621
:1045F0008927819329813A81E217F307B1F70C9457
:104600005B329C918091B52689278D9349815A818F
:10461000A417B507B1F79091D62695FB882780F9A6
:10462000292F2295269526952270282794FB8827E6
:1046300080F9822754E0959F90011124282B209324
:10464000D62630E02770822F90E021E0230F432F01
:1046500050E04817590714F4322FF7CF3093B4269F
:10466000AA8DBB8D9C91892F8F70A92FA295AF70B9
:10467000E0E1AE9FD0011124A80FB11DAE5CBD4D8D
:104680008C91AA8DBB8D8C939091D62695FB222779
:1046900020F9492F4295469546954270422794FB52
:1046A000222720F92427B4E09B9FA0011124422B4C
:1046B00020E0842F877090E0622F70E02F5F6817F2
:1046C0007907D4F3EA8DFB8D9181892F8F70A92F03
:1046D000A295AF70F0E1AF9FD0011124A80FB11DDA
:1046E000AE5CBD4D9C9045FB882780F9242F229518
:1046F000269526952270282744FB882780F9822753
:1047000054E0459F90011124282B30E0822F8770C0
:1047100090E0432F50E03F5F48175907D4F3AA8D2C
:10472000BB8D12969C91892F8F70A92FA295AF7087
:10473000E0E1AE9FD0011124A80FB11DAE5CBD4DCC
:104740005C9123FB662760F9822F881F8827881FCA
:104750008627622F62956F70922F9295969597702B
:1047600096279170682F6927822F880F982F962B94
:1047700080E0292F2E7030E0682F70E08F5F621785
:104780007307D4F3AA8DBB8D13962C91822F8F7053
:10479000A22FA295AF70E0E1AE9FD0011124A80F27
:1047A000B11DAE5CBD4D6C9095FB662760F9892FFD
:1047B0008295869586958270862794FB662760F998
:1047C0006827F4E09F9FC0011124862B90E0282FDA
:1047D000277030E0692F70E09F5F62177307D4F392
:1047E000AA8DBB8D14962C91922F9F70A22FA2950B
:1047F000AF70E0E1AE9FD0011124A90FB11DAE5CF6
:10480000BD4D0C91AA8DBB8D14960C9385FB66272C
:1048100060F9282F2295269526952270262784FB5D
:10482000662760F92627B4E08B9FB0011124622B24
:1048300020E0862F877090E0A22FB0E02F5FA817AE
:10484000B907D4F3EA8DFB8D9581892F8F70A92F3D
:10485000A295AF70F0E1AF9FD0011124A80FB11D58
:10486000AE5CBD4DBC9065FB882780F9962F929574
:10487000969596959270982764FB882780F98927EA
:1048800044E0649F90011124822B90E0282F277030
:1048900030E0692F70E09F5F62177307D4F3AA8D31
:1048A000BB8D16962C91922F9F70A22FA295AF7060
:1048B000E0E1AE9FD0011124A90FB11DAE5CBD4D4A
:1048C0008C9083FB222720F9982F991F9927991FF5
:1048D0009227382F32953F70282F229526952770E2
:1048E000232721709227880F982B80E0292F2E7084
:1048F00030E0682F70E08F5F62177307D4F3AA8DE2
:10490000BB8D17962C91822F8F70A22FA295AF701E
:10491000E0E1AE9FD0011124A80FB11DAE5CBD4DEA
:104920004C9195FB662760F9892F8295869586952F
:104930008270862794FB662760F96827F4E09F9FC2
:10494000C0011124682B70E0862F877090E0272F1C
:1049500030E07F5F28173907D4F3AA8DBB8D1896F6
:104960009C91892F8F70A92FA295AF70E0E1AE9F27
:10497000D0011124A80FB11DAE5CBD4D7C91AA8D54
:10498000BB8D18967C9365FB882780F9962F9295AE
:10499000969596959270982764FB222720F92927EF
:1049A000B4E06B9FC0011124922F982B80E0292F37
:1049B000277030E0E82EF12C8F5FE216F306D4F377
:1049C000EA8DFB8D2185822F8F70A22FA295AF706B
:1049D000F0E1AF9FD0011124A80FB11DAE5CBD4D19
:1049E0001C9193FB222720F9892F881F8827881F75
:1049F0008227392F32953F70292F229526952770CF
:104A0000232721708227990F982B80E0292F2E7061
:104A100030E0E82EF12C8F5FE216F306D4F3AA8D76
:104A2000BB8D1A962C91822F8F70A22FA295AF70FA
:104A3000E0E1AE9FD0011124A80FB11DAE5CBD4DC9
:104A4000EC9095FB332730F9892F829586958695D2
:104A50008270832794FB332730F93827F4E09F9F37
:104A6000C0011124382B20E0832F877090E0C22EE4
:104A7000D12C2F5FC816D906D4F3AA8DBB8D1B96F7
:104A80009C91892F8F70A92FA295AF70E0E1AE9F06
:104A9000D0011124A80FB11DAE5CBD4D7C9035FB3B
:104AA000662760F9832F8295869586958270862782
:104AB00034FB662760F9A82FA627F4E03F9FC001CA
:104AC00011246A2F682B20E0862F8770C82ED12CE6
:104AD000822F90E02F5F8C159D05D4F3AA8DBB8D9E
:104AE0001C969C91892F8F70A92FA295AF70E0E141
:104AF000AE9FD0011124A80FB11DAE5CBD4DAC908E
:104B0000AA8DBB8D1C96AC9265FB332730F9A62F7E
:104B1000A295A695A695A270A32764FB222720F94B
:104B20002A27E4E06E9FD0011124322F3A2B80E037
:104B3000A32FA770B0E0C82ED12C8F5FCA16DB065A
:104B4000D4F3AA8DBB8D1D969C91892F8F70A92FB0
:104B5000A295AF70E0E1AE9FD0011124A80FB11D66
:104B6000AE5CBD4D6C9135FB992790F9232F2295B2
:104B7000269526952270292734FB882780F98227DD
:104B8000F4E03F9F90011124982F922B80E0292F71
:104B9000277030E0A82FB0E08F5FA217B307D4F3DF
:104BA000AA8DBB8D1E962C91822F8F70A22FA2955D
:104BB000AF70E0E1AE9FD0011124A80FB11DAE5C33
:104BC000BD4D5C9095FB222720F9892F8295869513
:104BD00086958270822794FB222720F92827F4E00B
:104BE0009F9FC0011124822B90E0282F277030E076
:104BF000A92FB0E09F5FA217B307D4F3AA8DBB8D96
:104C00001F962C91922F9F70A22FA295AF70E0E17A
:104C1000AE9FD0011124A90FB11DAE5CBD4DFC901B
:104C200083FB222720F9982F991F9927991F9227F4
:104C3000382F32953F70282F2295269527702327ED
:104C400021709227880FA82FA92BB0E08A2F8E7091
:104C500090E02B2F30E0BF5F28173907D4F3A5FB76
:104C6000992790F98A2F8295869586958270892753
:104C7000A4FB222720F92827F4E0AF9FC0011124CC
:104C8000E22FE82BB0E08E2F877090E02B2F30E0E2
:104C9000BF5F28173907D4F3AA8DBB8D1196BC923C
:104CA000119715961C93159719966C9319971D9645
:104CB0009C92E5FB222720F98E2F8295869586957A
:104CC00082708227E4FB222720F92827B4E0EB9F9B
:104CD000C0011124822B90E0282F277030E0A92FEB
:104CE000B0E09F5FA217B307D4F3EA8DFB8DE28299
:104CF00052875682868683FB222720F9982F991F98
:104D00009927991F9227282F22952F70382F329597
:104D100036953770322731709327880F892B90E0B2
:104D2000282F2E7030E0A92FB0E09F5FA217B307A5
:104D3000D4F3AA8DBB8D1396FC9213971F967C9289
:104D40001F971B964C931B9717966C9285FB992780
:104D500090F9282F2295269526952270292784FBE5
:104D6000992790F99227B4E08B9F90011124292B69
:104D70002093D626A0E02770822F90E0B1E0BA0FF2
:104D80002A2F30E02817390714F4AB2FF7CFA09360
:104D9000B426D101A056BF4FEA8DFB8D90818C9136
:104DA000892780832091D62625FB882780F9922F9A
:104DB0009295969596959270982724FB882780F96E
:104DC000D92ED826F4E02F9FC00111248D2990E020
:104DD000282F277030E0C92ED12C9F5FC216D30632
:104DE000D4F311969C911197B926EA8DFB8DB1826F
:104DF00083FB222720F9982F991F9927991F922723
:104E0000382F32953F70282F22952695277023271B
:104E100021709227880F892B90E0282F2E7030E088
:104E2000C92ED12C9F5FC216D306D4F312969C9143
:104E30001297E926EA8DFB8DE28285FB992790F98E
:104E4000282F2295269526952270292784FBEE246B
:104E5000E0F82E25F4E08F9FC0011124E22EE82A0D
:104E600080E02E2D277030E0C82ED12C8F5FC21627
:104E7000D306D4F313968C911397F826EA8DFB8D05
:104E8000F382E5FA882780F99E2D9295969596955E
:104E900092709827E4FAFF24F0F8F926F4E0EF9EE8
:104EA000C0011124F82AE12C8F2D877090E02E2D5F
:104EB00030E0E39428173907D4F314968C911497B3
:104EC0000827EA8DFB8D0483F5FA882780F99F2D4A
:104ED00092959695969592709827F4FA882780F97E
:104EE000292F2827F4E0FF9EC0011124822B90E097
:104EF000282F277030E0E92EF12C9F5FE216F30691
:104F0000D4F315969C9115971927EA8DFB8D15837F
:104F100083FB222720F9982F991F9927991F922701
:104F2000382F32953F70282F2295269527702327FA
:104F300021709227880F892B90E0282F2E7030E067
:104F4000092F10E09F5F02171307D4F316969C9168
:104F500016979525EA8DFB8D968385FB992790F909
:104F6000282F2295269526952270292784FB99279C
:104F700090F92927F4E08F9FC0011124F22EF82A1E
:104F800080E02F2D277030E0082F10E08F5F021790
:104F90001307D4F317968C9117978625EA8DFB8D0E
:104FA0008783F5FA992790F93F2D329536953695F6
:104FB00032703927F4FA882780F98327F4E0FF9EBE
:104FC00090011124982F922B80E0292F277030E038
:104FD000082F10E08F5F02171307D4F318968C91F7
:104FE00018977827EA8DFB8D708795FB222720F98B
:104FF000892F8295869586958270822794FB222739
:1050000020F92827F4E09F9FC0011124822B90E013
:10501000282F277030E0092F10E09F5F0217130739
:10502000D4F319969C9119976927EA8DFB8D6187B6
:1050300085FB222720F9682F629566956695627038
:10504000622784FB222720F92627F4E08F9FB001F6
:105050001124622B80E0962F9770292F30E0082FC3
:1050600010E08F5F02171307D4F31A968C911A97EA
:105070005827EA8DFB8D528765FB882780F9262FFC
:105080002295269526952270282764FB882780F98B
:105090008227F4E06F9F90011124282B30E0822FAB
:1050A000877090E0632F70E03F5F68177907D4F353
:1050B0001B968C911B974827EA8DFB8D438725FB18
:1050C000442740F9822F82958695869582708427A1
:1050D00024FB442740F94827F4E02F9FC001112406
:1050E000842B90E0282F277030E0492F50E09F5FFD
:1050F00042175307D4F31C969C911C97A926EA8D5E
:10510000FB8DA48685FB222720F9482F42954695E2
:1051100046954270422784FB222720F92427F4E099
:105120008F9FA0011124422B20E0842F877090E0F4
:10513000622F70E02F5F68177907D4F31D968C916A
:105140001D979826EA8DFB8D958645FB882780F96B
:10515000242F2295269526952270282744FB882700
:1051600080F98227F4E04F9F90011124282B30E032
:10517000822F877090E0432F50E03F5F4817590718
:10518000D4F31E968C911E978826EA8DFB8D868619
:1051900025FB992790F9822F8295869586958270B6
:1051A000892724FB332730F93827F4E02F9FC001EB
:1051B0001124832B90E0282F277030E0492F50E0F6
:1051C0009F5F42175307D4F31F969C917926AA8DAF
:1051D000BB8D1F967C9283FB222720F9982F991F65
:1051E0009927991F9227382F32953F70282F2295A3
:1051F00026952770232721709227880F892B80936B
:10520000D62620E08E7090E031E0320F422F50E041
:105210004817590714F4232FF7CF2093B426EB81B6
:10522000FC8190818091B52689278193EB83FC8353
:1052300029813A81E217F30791F70C945B322B83B3
:105240003C83F90190818091B526892781936981FA
:105250007A81E617F707B1F79091D62695FB882754
:1052600080F9692F6295669566956270682794FB50
:10527000882780F98627A4E09A9FB0011124682B23
:105280006093D62650E06770862F90E0E1E0E50F4E
:10529000652F70E06817790714F45E2FF7CF5093ED
:1052A000B426AA8DBB8DEC918E2F8F70E295EF7096
:1052B000B0E1EB9FF0011124E80FF11DEE5CFD4D14
:1052C0008081EA8DFB8D80839091D62695FBEE2719
:1052D000E0F9692F62956695669562706E2794FB7A
:1052E000EE27E0F96E2754E0959FF00111246E2B14
:1052F00090E0A62FA770B0E0E92FF0E09F5FEA17DB
:10530000FB07D4F3AA8DBB8D1196EC918E2F8F7075
:10531000E295EF70B0E1EB9FF0011124E80FF11D71
:10532000EE5CFD4D5081588765FB882780F9962FEC
:105330009295969596959270982764FB882780F9A8
:10534000892794E0699FB0011124682B50E0862FD3
:10535000877090E0E52FF0E05F5FE817F907D4F37E
:10536000AA8DBB8D1296EC918E2F8F70E295EF7007
:10537000B0E1EB9FF0011124E80FF11DEE5CFD4D53
:105380005081598763FB992790F9862F881F8827BA
:10539000881F8927962F92959F70562F5295569564
:1053A000577059275170982F9527862F880F982B63
:1053B00080E0692F6E7070E0E82FF0E08F5FE617F5
:1053C000F707D4F3AA8DBB8D1396EC918E2F8F70B7
:1053D000E295EF70B0E1EB9FF0011124E80FF11DB1
:1053E000EE5CFD4D708095FB552750F9892F829515
:1053F000869586958270852794FB552750F9582706
:10540000E4E09E9FC0011124852B90E0682F677017
:1054100070E0E92FF0E09F5FE617F707D4F3AA8D5D
:10542000BB8D1496EC919E2F9F70E295EF70B0E1CA
:10543000EB9FF0011124E90FF11DEE5CFD4D508151
:105440005A8785FB552750F9982F929596959695F2
:105450009270952784FB662760F9692774E0879F1F
:10546000C0011124862B90E0E82FE770F0E0A92F0F
:10547000B0E09F5FAE17BF07D4F3AA8DBB8D159622
:10548000EC919E2F9F70E295EF70B0E1EB9FF001E1
:105490001124E90FF11DEE5CFD4D50815B8785FB0A
:1054A000992790F9582F529556955695527059272D
:1054B00084FB992790F9592764E0869FC001112445
:1054C000952F982B80E0E92FE770F0E0A82FB0E04F
:1054D0008F5FAE17BF07D4F3AA8DBB8D1696EC91E4
:1054E0008E2F8F70E295EF70B0E1EB9FF0011124E9
:1054F000E80FF11DEE5CFD4D50815C8793FB662744
:1055000060F9892F881F8827881F6827892F82952F
:105510008F70592F5295569557705827517065279F
:10552000990F962B80E0692F6E7070E0E82FF0E005
:105530008F5FE617F707D4F3AA8DBB8D1796EC9112
:105540008E2F8F70E295EF70B0E1EB9FF001112488
:10555000E80FF11DEE5CFD4D50815D8795FB8827BE
:1055600080F9692F6295669566956270682794FB4D
:10557000882780F98627A4E09A9FB0011124682B20
:1055800080E0E62FE770F0E0A82FB0E08F5FAE1765
:10559000BF07D4F3AA8DBB8D1896EC918E2F8F7018
:1055A000E295EF70B0E1EB9FF0011124E80FF11DDF
:1055B000EE5CFD4D50815D8365FB992790F9862F48
:1055C0008295869586958270892764FB552750F9C8
:1055D000582774E0679FC0011124852B90E0A82F05
:1055E000A770B0E0692F70E09F5F6A177B07D4F364
:1055F000EA8DFB8DA1859A2F9F70A295AF70F0E187
:10560000AF9FD0011124A90FB11DAE5CBD4D8C9090
:1056100083FB662760F9982F991F9927991F962772
:10562000682F62956F70582F529556955770562770
:105630005170692F6527880F982F962B80E0A92F2E
:10564000AE70B0E0682F70E08F5F6A177B07D4F30D
:10565000EA8DFB8DA2858A2F8F70A295AF70F0E145
:10566000AF9FD0011124A80FB11DAE5CBD4D6C9051
:1056700095FB882780F9692F62956695669562701B
:10568000682794FB882780F9862754E0959FB0010E
:105690001124682B80E0A62FA770B0E0E82FF0E07F
:1056A0008F5FEA17FB07D4F3EA8DFB8DA3858A2F62
:1056B0008F70A295AF70F0E1AF9FD0011124A80FB9
:1056C000B11DAE5CBD4D5C915E8365FBEE27E0F9DC
:1056D000862F82958695869582708E2764FBEE27AD
:1056E000E0F9E82774E0679FC00111248E2B90E059
:1056F000A82FA770B0E0692F70E09F5F6A177B0743
:10570000D4F3EA8DFB8DA4859A2F9F70A295AF707C
:10571000F0E1AF9FD0011124A90FB11DAE5CBD4DCA
:105720005C915F8385FB552750F9E82FE295E6955C
:10573000E695E270E52784FB662760F96E2774E042
:10574000879FF0011124562F5E2B80E0E52FE77034
:10575000F0E0A82FB0E08F5FAE17BF07D4F3EA8D5B
:10576000FB8DA5858A2F8F70A295AF70F0E1AF9F5A
:10577000D0011124A80FB11DAE5CBD4DAC9055FBFE
:10578000992790F9652F62956695669562706927ED
:1057900054FB882780F9862794E0599FB001112493
:1057A000982F962B80E0692F677070E0E82FF0E06B
:1057B0008F5FE617F707D4F3AA8DBB8D1E96EC9189
:1057C0008E2F8F70E295EF70B0E1EB9FF001112406
:1057D000E80FF11DEE5CFD4D908095FB552750F9CB
:1057E000892F8295869586958270852794FB55270B
:1057F00050F95827E4E09E9FC0011124852B90E0CA
:10580000682F677070E0E92FF0E09F5FE617F707F9
:10581000D4F3AA8DBB8D1F96EC919E2F9F70E295BD
:10582000EF70B0E1EB9FF0011124E90FF11DEE5C88
:10583000FD4D108183FB552750F9982F991F99270B
:10584000991F5927682F62956F70982F929596959A
:105850009770962791705927880F582BE0E0852F75
:105860008E7090E06E2F70E0EF5F68177907D4F3C9
:1058700055FBFF27F0F9852F8295869586958270D6
:105880008F2754FBFF27F0F9F827E4E05E9FC00163
:105890001124F82B50E08F2F877090E0652F70E077
:1058A0005F5F68177907D4F3F5FB882780F9EF2F3E
:1058B000E295E695E695E270E827F4FB882780F903
:1058C000E82754E0F59FC0011124E82B50E08E2F0B
:1058D000877090E0652F70E05F5F68177907D4F3F9
:1058E000E3FB552750F98E2F881F8827881F5827DC
:1058F0009E2F92959F708E2F829586958770982700
:10590000917059278E2F880F582BE0E0852F8E70CD
:1059100090E06E2F70E0EF5F68177907D4F355FBC6
:10592000FF24F0F8852F82958695869582708F25C5
:1059300054FBFF24F0F8F82664E0569FC0011124C0
:10594000F82AF092D62650E08F2D877090E0E1E0A3
:10595000E50F652F70E06817790714F45E2FF7CF15
:105960002E8B3F8B4D8B2B8A3C8A5093B426AA8D6D
:10597000BB8D0C91802F0E94D105382EF3FADD24C7
:10598000D0F88F2D881F8827881FD8269F2D9295A5
:105990009F708F2D829586958770982791709D2591
:1059A000FF0CF92A40E08F2D8E7090E0242F30E01C
:1059B0004F5F28173907D4F38B850E94D1058E8756
:1059C000F5FADD24D0F88F2D829586958695827024
:1059D000D826F4FABB24B0F8DB24B4E0FB9EC00167
:1059E0001124D82A40E08D2D877090E0242F30E0DC
:1059F0004F5F28173907D4F3862D0E94D105282E32
:105A0000D5FABB24B0F88D2D829586958695827047
:105A1000B826D4FAFF24F0F8BF24E4E0DE9EC001EB
:105A20001124B82A40E08B2D877090E0242F30E0BD
:105A30004F5F28173907D4F3812F0E94D105482ED4
:105A4000B5FAFF24F0F88B2D8295869586958270A5
:105A5000F826B4FAEE24E0F8FE24F4E0BF9EC0017C
:105A60001124F82A40E08F2D877090E0242F30E039
:105A70004F5F28173907D4F38A850E94D1058F8795
:105A8000F3FAEE24E0F88F2D881F8827881FE82678
:105A9000CF2CC2948FE0C8228F2D82958695877077
:105AA0008C2581708E25EF2CEE0CE82A40E08E2D9F
:105AB0008E7090E0242F30E04F5F28173907D4F321
:105AC000882D0E94D105582EE5FACC24C0F88E2DE1
:105AD0008295869586958270C826E4FADD24D0F8F2
