:100000000C94E4000C9405010C9405010C9405017A
:100010000C9405010C9405010C9405010C94050148
:100020000C9405010C9405010C9405010C94050138
:100030000C9405010C9405010C9405010C94050128
:100040000C9405010C9405010C9405010C94050118
:100050000C9405010C9405010C9405010C94050108
:100060000C9405010C9405010C9405010C940501F8
:100070000C9405010C9405010C9405010C940501E8
:100080000C9405010C9405010C9405010C940501D8
:100090000C9405010C9405010C9405010C940501C8
:1000A0000C9405010C9405010C9405010C940501B8
:1000B0000C9405010C9405010C9405010C940501A8
:1000C0000C9405010C9405010C9405010C94050198
:1000D0000C9405010C9405010C9405010C94050188
:1000E0000C9405010C9405010C9405010C94050178
:1000F0000C9405010C9405010C9405010C94050168
:100100000C9405010C9405010C9405010C94050157
:100110000C9405010C9405010C9405010C94050147
:100120000C9405010C9405010C9405010C94050137
:100130000C9405010C9405010C9405010C94050127
:100140000C9405010C9405010C9405010C94050117
:100150000C9405010C9405010C9405010C94050107
:100160000C9405010C9405010C9405010C940501F7
:100170000C9405010C9405010C9405010C940501E7
:100180000C9405010C9405010C9405010C940501D7
:100190000C9405010C9405010C9405010C940501C7
:1001A0000C9405010C9405010C9405010C940501B7
:1001B0000C9405010C9405010C9405010C940501A7
:1001C0000C9405010C94050111241FBECFEFDFE351
:1001D000DEBFCDBF00E00CBF11E2A0E0B0E2E8EA74
:1001E000F8E000E00BBF02C007900D92AE31B107FE
:1001F000D9F711E2AEE1B1E201C01D92A03DB10715
:10020000E1F70E94DC030C9452040C940000CF939D
:10021000DF93C42FD52FA0E0B0E0A617B707F0F406
:10022000FC01EA0FFB1F20812A3328F0206230E016
:100230002755310903C030E020533109E181EA3309
:1002400028F0E062F0E0E755F10902C0F0E0F09735
:100250002295207FE22BE9931296DFCFCA01DF912E
:10026000CF9108951F93CF93DF93DA0111969C01EC
:10027000260F371F82179307B9F0EC01FC0111918B
:10028000CF01E12FE295EF70F0E0E050F04E1081E9
:10029000FD0131971083E881EF70F0E0E050F04EFF
:1002A000E081EC931296E6CF660F771FFA01E60F16
:1002B000F71F1082DF91CF911F910895E0E4F6E0DF
:1002C00088E0818384E08283E0EAF8E083E085834C
:1002D0008BE0868317828481806184838481886037
:1002E00084830895CF93DF931F921F92CDB7DEB71B
:1002F00069837A8320E030E049815A8124173507E9
:1003000069F04091A10847FF06C02091A008FC01B8
:10031000208381E004C02F5F3F4FEECF80E00F903D
:100320000F90DF91CF9108958091A10887FFFCCFB6
:100330008091A00808959091A10895FFFCCF80932B
:10034000A0080895FC01608371834283148613869C
:10035000168615860895FC0162830895FC01958533
:1003600026859F5F937081E0921301C080E008951D
:100370000F931F93CF93DF931F92CDB7DEB78C01FE
:1003800069830E94AE0169818823A9F0D8011D9676
:100390009C911D97F801E90FF11D67839F5F937092
:1003A000F80195870190F081E02D93819C7F129652
:1003B0002C91922B93830F90DF91CF911F910F91EE
:1003C0000895FC012385948581E0291301C080E014
:1003D0000895FC018485DF01A80FB11D13968C914F
:1003E00094859F5F937094870895FC0183858F5F48
:1003F00083702485A081B1819C91821749F0238567
:10040000DF01A20FB11D13969C93838781E00895AD
:1004100080E00895CF93DF93FC0186859585A081C8
:10042000B181981307C013968C9113978C7F139604
:100430008C930AC08685EF01C80FD11D8F818C93E4
:1004400086858F5F83708687DF91CF910895FC0149
:10045000848170FF02C0816001C08E7F84836083CD
:100460000895FC01848180FF04C0808190E0916048
:100470000895808190E008951092520010925500E6
:10048000809150008860809350008091510083FFDC
:10049000FCCF88ED84BF83E08093400088E08093A8
:1004A000500080E680930106809305060895FC01C4
:1004B0009C01205F3F4FDB018D91BD019081892719
:1004C0008193E217F307B9F70895FC014096A081E4
:1004D000B0E0A35EBF4D2C912193E817F907B9F75F
:1004E0000895FC01818195819183918595839585FE
:1004F000918785878285928192878283868596817E
:100500009687868383819785938393859787978141
:10051000938787830895982F880F97FF02C09BE1E8
:10052000892708954F925F926F927F928F929F9248
:10053000AF92BF92CF92DF92EF92FF920F931F93F1
:10054000CF93DF93EC015C018FEFA81AB80A6E011C
:10055000E2E0CE0ED11C7E01F3E0EF0EF11C4E0165
:1005600080E1880E911C0881F5015080F6014080E1
:10057000F7017080852D8027672C6424162D18279D
:100580000E948B028127982F90279883842D8525A0
:100590000E948B02912F9827F501808198279083E4
:1005A000862D0E948B02912F9827F6018081982733
:1005B0009083872D80270E948B028127F70110816D
:1005C000812780832496F4E0AF0EB11C84E0C80E2E
:1005D000D11CE4E0EE0EF11CC815D90521F6DF911F
:1005E000CF911F910F91FF90EF90DF90CF90BF9030
:1005F000AF909F908F907F906F905F904F900895F5
:10060000CF93DF93FB0165854685A42FB0E0A35E01
:10061000BF4D7C919785A92FB0E0A35EBF4D5C9143
:10062000A485CA2FD0E0C35EDF4DB8813081832717
:10063000C62FD0E0C35EDF4D3881832780833181B0
:100640007327718332815327528323812B2723837E
:1006500034818327848335817327758336815327BB
:1006600056833781232727833085832780873185E9
:100670007327718732855327528733852327238732
:10068000A827A487672765874527468792279787E6
:10069000DF91CF910895CF92DF92EF92FF920F9367
:1006A0001F93CF93DF93CDB7DEB7A097CDBFDEBF4B
:1006B0009E012F5E3F4F6B01FE013196AC01405F02
:1006C0005F4F79018F01DC016D91CD01D9016D93EF
:1006D0009D01D6016D916D0161938417950799F77E
:1006E000B801C7010E94570280E1C82E80E2D82ECF
:1006F000B801C7010E946502B801C7010E947102DA
:10070000B801C7010E949202B801F60181916F0100
:100710000E940003B801C7010E945702F9E1CF16F9
:10072000F0E2DF0629F7B801C7010E946502B801AF
:10073000C7010E947102B801809119200E94000334
:10074000B801C7010E945702C701A096CDBFDEBF06
:10075000DF91CF911F910F91FF90EF90DF90CF909D
:1007600008950895E0ECF1E220E12E0FDC013D91C7
:10077000CD0131932E13FACF0895CF93DF93D82F65
:10078000C92F60EC71E20E944B038093BE219093CD
:10079000BF21ED2FFC2F80E090E0A091BE21B09111
:1007A000BF21A80FB91F2C9121930196803191058B
:1007B000A1F7DF91CF9108950E943C020E945E0153
:1007C00081E0809301060E94B1038EE191E20E94D4
:1007D000B20310E0C0E0D0E0FF24F3940E94940143
:1007E000883711F410E003C08B3621F411E0C0E02B
:1007F000D0E0F4CF803711F412E0F9CF1130B1F42A
:10080000FE01E25DFE4D8A3019F08D3009F047C0DF
:1008100010824EE151E2BE018EE291E20E94070198
:100820008EE191E20E94B20310E0D8CF1230B1F60F
:100830008A3011F08D3069F5FE01E25DFE4D1082C7
:100840004EE651E2BE018EE291E20E940701F09273
:1008500005068EE691E20E94BD03F09206064EE286
:1008600051E260E170E08EE691E20E94320182E79F
:100870000E949B010EE211E2F80181918F010E941A
:100880009B01F1E20E341F07B9F78AE00E949B0139
:10089000CBCFC034D10544F6FE01E25DFE4D80832E
:0808A00021969CCFF894FFCFD4
:1008A800303132333435363738394142434445469E
:1008B80001020408102040801B366CD8AB637C779B
:1008C8007BF26B6FC53001672BFED7AB76CA82C946
:1008D8007DFA5947F0ADD4A2AF9CA472C0B7FD937E
:1008E80026363FF7CC34A5E5F171D8311504C72376
:1008F800C31896059A071280E2EB27B27509832C74
:100908001A1B6E5AA0523BD6B329E32F8453D10049
:10091800ED20FCB15B6ACBBE394A4C58CFD0EFAA68
:10092800FB434D338545F9027F503C9FA851A340B6
:100938008F929D38F5BCB6DA2110FFF3D2CD0C1397
:10094800EC5F974417C4A77E3D645D197360814FBF
:10095800DC222A908846EEB814DE5E0BDBE0323AE1
:100968000A4906245CC2D3AC629195E479E7C8379A
:100978006D8DD54EA96C56F4EA657AAE08BA78251D
:100988002E1CA6B4C6E8DD741F4BBD8B8A703EB51D
:10099800664803F60E613557B986C11D9EE1F89881
:1009A8001169D98E949B1E87E9CE5528DF8CA189C1
:0E09B8000DBFE6426841992D0FB054BB1600EA
:00000001FF
