:100000000C94E4000C9405010C9405010C9405017A
:100010000C9405010C9405010C9405010C94050148
:100020000C9405010C9405010C9405010C94050138
:100030000C9405010C9405010C9405010C94050128
:100040000C9405010C9405010C9405010C94050118
:100050000C9405010C9405010C9405010C94050108
:100060000C9405010C9405010C9405010C940501F8
:100070000C9405010C9405010C9405010C940501E8
:100080000C9405010C9405010C9405010C940501D8
:100090000C9405010C9405010C9405010C940501C8
:1000A0000C9405010C9405010C9405010C940501B8
:1000B0000C9405010C9405010C9405010C940501A8
:1000C0000C9405010C9405010C9405010C94050198
:1000D0000C9405010C9405010C9405010C94050188
:1000E0000C9405010C9405010C9405010C94050178
:1000F0000C9405010C9405010C9405010C94050168
:100100000C9405010C9405010C9405010C94050157
:100110000C9405010C9405010C9405010C94050147
:100120000C9405010C9405010C9405010C94050137
:100130000C9405010C9405010C9405010C94050127
:100140000C9405010C9405010C9405010C94050117
:100150000C9405010C9405010C9405010C94050107
:100160000C9405010C9405010C9405010C940501F7
:100170000C9405010C9405010C9405010C940501E7
:100180000C9405010C9405010C9405010C940501D7
:100190000C9405010C9405010C9405010C940501C7
:1001A0000C9405010C9405010C9405010C940501B7
:1001B0000C9405010C9405010C9405010C940501A7
:1001C0000C9405010C94050111241FBECFEFDFE351
:1001D000DEBFCDBF00E00CBF14E2A0E0B0E2EAE772
:1001E000F6EB00E00BBF02C007900D92A233B107FF
:1001F000D9F719E2A2E3B4E201C01D92A83DB1070C
:10020000E1F70E947B590C943B5B0C940000CF9368
:10021000DF93C42FD52FA0E0B0E0A617B707F0F406
:10022000FC01EA0FFB1F20812A3328F0206230E016
:100230002755310903C030E020533109E181EA3309
:1002400028F0E062F0E0E755F10902C0F0E0F09735
:100250002295207FE22BE9931296DFCFCA01DF912E
:10026000CF9108951F93CF93DF93DA0111969C01EC
:10027000260F371F82179307B9F0EC01FC0111918B
:10028000CF01E12FE295EF70F0E0E050F04E1081E9
:10029000FD0131971083E881EF70F0E0E050F04EFF
:1002A000E081EC931296E6CF660F771FFA01E60F16
:1002B000F71F1082DF91CF911F910895E0E4F6E0DF
:1002C00088E0818384E08283E0EAF8E083E085834C
:1002D0008BE0868317828481806184838481886037
:1002E00084830895CF93DF931F921F92CDB7DEB71B
:1002F00069837A8320E030E049815A8124173507E9
:1003000069F04091A10847FF06C02091A008FC01B8
:10031000208381E004C02F5F3F4FEECF80E00F903D
:100320000F90DF91CF9108958091A10887FFFCCFB6
:100330008091A00808959091A10895FFFCCF80932B
:10034000A0080895FC01608371834283148613869C
:10035000168615860895FC0162830895FC01958533
:1003600026859F5F937081E0921301C080E008951D
:100370000F931F93CF93DF931F92CDB7DEB78C01FE
:1003800069830E94AE0169818823A9F0D8011D9676
:100390009C911D97F801E90FF11D67839F5F937092
:1003A000F80195870190F081E02D93819C7F129652
:1003B0002C91922B93830F90DF91CF911F910F91EE
:1003C0000895FC012385948581E0291301C080E014
:1003D0000895FC018485DF01A80FB11D13968C914F
:1003E00094859F5F937094870895FC0183858F5F48
:1003F00083702485A081B1819C91821749F0238567
:10040000DF01A20FB11D13969C93838781E00895AD
:1004100080E00895CF93DF93FC0186859585A081C8
:10042000B181981307C013968C9113978C7F139604
:100430008C930AC08685EF01C80FD11D8F818C93E4
:1004400086858F5F83708687DF91CF910895FC0149
:10045000848170FF02C0816001C08E7F84836083CD
:100460000895FC01848180FF04C0808190E0916048
:100470000895808190E008951092520010925500E6
:10048000809150008860809350008091510083FFDC
:10049000FCCF88ED84BF83E08093400088E08093A8
:1004A000500080E680930106809305060895DF9250
:1004B000EF92FF920F931F93CF93DF93FC019B0169
:1004C000205F3F4FDC01EB014991BE014D93C21704
:1004D000D307C9F7BC01635F7F4F08E210E2AC01AC
:1004E000425F5F4F9C01215F3F4FDC011C9681E022
:1004F000E801E9908E019081E926EB019881C92FEE
:10050000D0E0CE5CDC4D9881E926E08AEA01988152
:10051000C92FD0E0CE5CDC4DF8809181F926F18ABC
:10052000E9019881C92FD0E0CE5CDC4DD881928161
:10053000DD2ED926D28ACC91D0E0CE5CDC4DC881AC
:1005400093819C27938BC481EC26E48AC581FC2689
:10055000F58AC681DD2DDC27D68BC7819C27978B3A
:10056000C085EC26E08EC185FC26F18EC285DD2E8D
:10057000DC26D28EC3859C27938FCC91EC26E48E0B
:10058000EB01E880FE24F58EEA01F880DD2DDF2501
:10059000D68FE901F8809F25978F8F5F605F7F4F2F
:1005A0007096405F5F4F205F3F4F50968B3009F051
:1005B0009FCFDF91CF911F910F91FF90EF90DF9030
:1005C00008953091D62935FB222720F9432F4295F3
:1005D000469546954270422734FB222720F924276E
:1005E000E4E03E9FA0011124422B4093D62950E025
:1005F0004770242F30E041E0450FE52FF0E0E2178F
:10060000F30714F4542FF7CF5093B429DB01FC0106
:10061000AC01405F5F4F8D919081892781939091CC
:10062000D62995FB882780F9292F2295269526958E
:100630002270282794FB882780F9822764E0969F00
:1006400090011124282B2093D62930E02770822F87
:1006500090E021E0230F632F70E06817790714F40E
:10066000322FF7CF3093B429E417F507A1F6089598
:100670003091D62935FB222720F9432F4295469504
:1006800046954270422734FB222720F92427E4E0D4
:100690003E9FA0011124422B4093D62950E0477081
:1006A000242F30E041E0450FE52FF0E0E217F3079B
:1006B00014F4542FF7CF5093B4296130710599F594
:1006C000FC01AC01405F5F4FA081B0E0AE5CBC4D6F
:1006D0008C9181939091D62995FB882780F9292FB9
:1006E0002295269526952270282794FB882780F945
:1006F000822764E0969F90011124282B2093D6290D
:1007000030E02770822F90E021E0230F632F70E00C
:100710006817790714F4322FF7CF3093B429E41710
:10072000F50791F6089562307105D9F5DC01AC0149
:10073000405F5F4FEC918E2F8F70E295EF7090E1EC
:10074000E99FF0011124E80FF11DEE5CFD4D808161
:100750008D939091D62995FB882780F9292F229592
:10076000269526952270282794FB882780F98227D2
:10077000E4E09E9F90011124282B2093D62930E09D
:100780002770822F90E021E0230F632F70E068171D
:10079000790714F4322FF7CF3093B429A417B50793
:1007A00049F608953091D62935FB222720F9432FA9
:1007B0004295469546954270422734FB222720F900
:1007C0002427E4E03E9FA0011124422B4093D62928
:1007D00050E04770242F30E041E0450FE52FF0E076
:1007E000E217F30714F4542FF7CF5093B429613074
:1007F000710599F5FC01AC01405F5F4FA081B0E04D
:10080000AE5CB84D8C9181939091D62995FB882749
:1008100080F9292F2295269526952270282794FB6A
:10082000882780F9822764E0969F90011124282B65
:100830002093D62930E02770822F90E021E0230F0B
:10084000632F70E06817790714F4322FF7CF3093D5
:10085000B429E417F50791F6089562307105D9F5CA
:10086000DC01AC01405F5F4FEC918E2F8F70E29501
:10087000EF7090E1E99FF0011124E80FF11DEE5CAB
:10088000F94D80818D939091D62995FB882780F929
:10089000292F2295269526952270282794FB8827B4
:1008A00080F98227E4E09E9F90011124282B209359
:1008B000D62930E02770822F90E021E0230F632FAC
:1008C00070E06817790714F4322FF7CF3093B4290A
:1008D000A417B50749F60895FC019091D62995FB18
:1008E000662760F9292F22952695269522702627BE
:1008F00094FB662760F9622784E0989F9001112499
:10090000262B30E0822F877090E0432F50E03F5F2E
:1009100048175907D4F381819581918391859583F7
:1009200095859187858725FB442740F9622F62953D
:10093000669566956270642724FB442740F9462734
:1009400084E0289FB0011124642B20E0862F87705B
:1009500090E0422F50E02F5F48175907D4F382816F
:10096000928592838287868196859683868765FBAA
:10097000222720F9462F42954695469542704227F8
:1009800064FB222720F9242784E0689FA00111241A
:10099000422B4093D62980E04770242F30E091E02D
:1009A000980F482F50E04217530714F4892FF7CFC0
:1009B0008093B429838197859383938597879781C3
:1009C000938787830895FC019091D62995FB66272C
:1009D00060F9292F2295269526952270262794FBCB
:1009E000662760F9622784E0989F90011124262BE6
:1009F00030E0822F877090E0432F50E03F5F481730
:100A00005907D4F384819581948396819583978146
:100A10009683878325FB442740F9622F629566956C
:100A200066956270642724FB442740F9462784E0DA
:100A3000289FB0011124642B20E0862F877090E05E
:100A4000422F50E02F5F48175907D4F380859285D5
:100A500090878287818593859187838765FB22278D
:100A600020F9462F4295469546954270422764FBF1
:100A7000222720F9242784E0689FA0011124422B1B
:100A80004093D62980E04770242F30E091E0980F02
:100A9000482F50E04217530714F4892FF7CF809363
:100AA000B4298485978594879685978795859687B9
:100AB0008587089587FF04C0880F9BE189270895E3
:100AC000880F08958F929F92AF92BF92CF92DF923C
:100AD000EF92FF920F931F93CF93DF93CDB7DEB7C3
:100AE000A097CDBFDEBF5C016C01CE0101967C01F9
:100AF0008E010F5E1F4F80E1982E900E9091D629A7
:100B000095FB222720F9492F42954695469542703C
:100B1000422794FB222720F92427E4E09E9FA0018E
:100B20001124422B4093D62980E04770242F30E0D7
:100B300091E0980F482F50E04217530714F4892F83
:100B4000F7CF8093B429F60181916F01F801819369
:100B50008F010E945A05F70181937F019012CECF39
:100B60004E01F4E08F0E911C33E0A30EB11CDE01A8
:100B70005496BD019091D62995FB222720F9492F43
:100B80004295469546954270422794FB222720F9CC
:100B9000242784E0989FA0011124422B4093D6295A
:100BA00080E04770242F30E091E0980F482F50E00C
:100BB0004217530714F4892FF7CF8093B429C40147
:100BC0000397FC01E0800196FC0180819D01225089
:100BD0003109F90100812F5F3F4FF90110814C91DC
:100BE0009501235031099E2D98279427902791270E
:100BF000F90190839D0123503109F901508194013D
:100C000021503109F901F0809501225031098127E5
:100C1000842785278F25F90180839091D62995FB1C
:100C2000222720F9892F82958695869582708227C2
:100C300094FB222720F92827F4E09F9FC00111246C
:100C4000822B8093D629D12C8770282F30E0CC249A
:100C5000C394CD0C8D2D90E08217930714F4DC2CF7
:100C6000F6CFD092B429F4012081C5010197422723
:100C700040274527F426FC01F0820E250227102785
:100C80005127F5015083F4E08F0E911C34E0A30E40
:100C9000B11C14968616970609F06CCFA096CDBFAE
:100CA000DEBFDF91CF911F910F91FF90EF90DF900A
:100CB000CF90BF90AF909F908F9008956F927F924A
:100CC0008F929F92AF92BF92CF92DF92EF92FF925C
:100CD0000F931F93CF93DF93CDB7DEB7A197CDBF0F
:100CE000DEBF4C018C016E0131E1C30ED11CCE017F
:100CF00001967C01540190E08091D62985FB222742
:100D000020F9482F4295469546954270422784FB2C
:100D1000222720F92427A4E08A9FA0011124422B36
:100D20004093D62980E04770242F30E061E0680FBF
:100D3000482F50E04217530714F4862FF7CF8093C3
:100D4000B429F50121915F01E92FE370F0E0EA5C3D
:100D5000F74D80818227D6018D936D0199A30E9462
:100D60005A05F70181937F0199A19F5F903121F688
:100D7000DE0114963401F3E06F0E711CBE016C5E4F
:100D80007F4F7B019091D62995FB222720F9492F8F
:100D90004295469546954270422794FB222720F9BA
:100DA000242734E0939FA0011124422B4093D6299D
:100DB00080E04770242F30E091E0980F482F50E0FA
:100DC0004217530714F4892FF7CF8093B429CD012C
:100DD0000397FC01B0800196FC0180819B012250A9
:100DE0003109F901C0802F5F3F4FF901D080FB012D
:100DF00040819301235031099B2D982794279C25EE
:100E00009D25F90190839B0123503109F9015081FF
:100E10009D0121503109F901A0809301225031092F
:100E20008D25842785278A25F90180833091D6294D
:100E300035FB882780F9932F929596959695927019
:100E4000982734FB882780F9292F2827F4E03F9F33
:100E5000C0011124822B8093D629912C8770282FD2
:100E600030E088248394890C892D90E082179307C1
:100E700014F4982CF6CF9092B4292C91C3010197C9
:100E800042274C254527A426FC01A082CB24C2265C
:100E9000DC245D25F30150831496F4E06F0E711C81
:100EA0006C5F7F4FAE15BF0509F06CCF80E0E82F77
:100EB000E370F0E0EE5CF74DD8012C919081922721
:100EC000F80191938F018F5F803189F7A196CDBF93
:100ED000DEBFDF91CF911F910F91FF90EF90DF90D8
:100EE000CF90BF90AF909F908F907F906F9008951C
:100EF0002F923F924F925F926F927F928F929F922A
:100F0000AF92BF92CF92DF92EF92FF920F931F9317
:100F1000CF93DF93CDB7DEB72A97CDBFDEBF8987EA
:100F20009A87DC011496AC90149718962C90189719
:100F30001C96BC901C971596FC90159719963C90A2
:100F400019971D96CC901D9716960C9116971A9688
:100F50004C901A971E96DC901E9717961C91179727
:100F60001B965C901B971F96EC901F976C911196A7
:100F70005C91119712964C91129713963C91262FE3
:100F80002A25952F9F25B42FB027B983E32FE1277A
:100F9000EA8369847A844301F0E18F0E911CD301C6
:100FA0008C912F833E834D835C836B8398870E9453
:100FB0005A05F30181933F012F813E814D815C8170
:100FC0006B819885E815F90551F7A985BA856C906C
:100FD00011968C91119712969C90129713968C9063
:100FE000F091D629F5FBAA27A0F97F2F7295769567
:100FF000769572707A27F4FBAA27A0F97A27E4E0A5
:10100000FE9FD0011124A72BA093D62970E0A770D2
:10101000EA2FF0E077247394770EA72FB0E0AE1795
:10102000BF0714F4772DF6CF7093B429A985BA853C
:1010300014967C911497A224AB24EC91AE26A7269B
:10104000AC921596AC901597F324FC24F826FA245C
:101050001196FC9211971696FC90169704250D2573
:1010600009250F2512960C93129717960C91179736
:1010700015251E251825102713961C93F091D629A7
:10108000F5FBEE27E0F91F2F1295169516951270B5
:101090001E27F4FBEE27E0F91E27B4E0FB9FF001CA
:1010A00011241E2B712CE12FE770F0E0A72DB0E08A
:1010B0007394AE17BF07D4F3E985FA85A085EB2DAD
:1010C000E2256E2776277A27E985FA857483B1852C
:1010D0006C2D63255627A526AB26A582A2845D2DFF
:1010E00054254527F426FA24F682F3844E2D45250F
:1010F000342703270F25078315FB442740F9E12FE9
:10110000E295E695E695E270E42714FB442740F962
:101110004E2734E0139FF00111240E2F042B30E0F2
:10112000402F477050E0632F70E03F5F64177507F2
:10113000D4F3E985FA853485BA26B326B226B0867B
:10114000A585CB26CA26C926C186B685DA24DB2624
:101150004981D426D2861785EF24E1265A81E526D7
:10116000E38605FB552750F9402F42954695469555
:101170004270452704FB552750F9452754E0059F49
:10118000F0011124E42BE093D629F0E0E7704E2F14
:1011900050E0E1E0EF0F6F2F70E06417750714F473
:1011A000FE2FF7CFF093B429262423262225E985A4
:1011B000FA85248738263A269325958749244B2695
:1011C000398143264686582451264A81542657861B
:1011D0002A96CDBFDEBFDF91CF911F910F91FF9077
:1011E000EF90DF90CF90BF90AF909F908F907F90C7
:1011F0006F905F904F903F902F9008952F923F9265
:101200004F925F926F927F928F929F92AF92BF9216
:10121000CF92DF92EF92FF920F931F93CF93DF93C2
:10122000CDB7DEB7A697CDBFDEBF8C015C016E01E6
:1012300021E1C20ED11CCE0101967C01912C90912E
:10124000D62995FB222720F9492F429546954695A8
:101250004270422794FB222720F92427A4E09A9F7A
:10126000A0011124822E842A8092D62980E0282D84
:10127000277030E091E0980F682F70E062177307D5
:1012800014F4892FF7CF8093B429F50191915F0170
:10129000E92DE695E695F0E0EA5CF74D8081892737
:1012A000D6018D936D010E945A05F70181937F014C
:1012B0009394F0E19F12C3CF85FA882780F9282DF7
:1012C0002295269526952270282784FA882780F96A
:1012D000822794E0899E90011124282B2093D629FF
:1012E00030E02770822F90E041E0430F232F30E061
:1012F0002817390714F4342FF7CF39807D817D8882
:10130000F98CED8C872F832587258F258E25D80195
:101310008C933A8D4A81432749A32E80AE896E8DE6
:101320008A2F822586278427F80181838091D629F8
:1013300085FBCC24C0F8B82FB295B695B695B2709F
:10134000CB2684FBBB27B0F9CB26F4E08F9FC001EE
:101350001124BC2DB82B80E04B2F477050E0E82FB4
:10136000F0E08F5FE417F507D4F32B8D2AA34F8CA1
:10137000622E64248B818BA39F819DA35F88892724
:1013800085258625F80182839885F88DFEA39C8C9F
:1013900058A12C812CA38F2F892789258527822767
:1013A000F8018383B5FBCC24C0F88B2F82958695FA
:1013B00086958270C826B4FB882780F98C25F4E0D6
:1013C000BF9F600111248C2920E0482F4770C42E54
:1013D000D12CA22EB12C2F5FAC14BD04D4F34985BF
:1013E000B9897F257E2574277B27F80174838A8835
:1013F0007A853225362738253727358385FB3327ED
:1014000030F9282F2295269526952270232784FBD4
:10141000DD24D0F8D226F4E08F9F900111242D29ED
:1014200080E0322F3770C32ED12CA82EB12C8F5FC5
:10143000AC14BD04D4F3BB88AB84EDA1EB25EA2545
:101440006E26F80166822C886C8499259527922552
:101450009625978325FB332730F9922F9295969501
:1014600096959270932724FB332730F93927F4E0BF
:101470002F9FC0011124932F982B80E0292F2770D4
:1014800030E0C82ED12C8F5FC216D306D4F3DD8492
:10149000E7244E254B274D25F80140874E856A27C6
:1014A000682576277427718795FB222720F9892FD5
:1014B0008295869586958270822794FB222720F953
:1014C0002827F4E09F9FC0011124822B90E0282F51
:1014D000277030E0692F70E09F5F62177307D4F3C5
:1014E0005B24EF84A424AE24A524F801A286C88836
:1014F000FEA15F27522565266C24F801638685FBD3
:10150000222720F9982F929596959695927092277A
:1015100084FB222720F92927F4E08F9FC0011124A2
:10152000922F982B80E0292F277030E0682F70E0F1
:101530008F5F62177307D4F37324F724BF25BD258B
:10154000F801B487A825A427F9A1AF27F801A5873A
:1015500095FB222720F9892F8295869586958270A2
:10156000822794FB222720F92827F4E09F9FC001BF
:101570001124822B8093D62920E0877090E031E0FF
:10158000320F422F50E04817590714F4232FF7CF9A
:101590002093B429BBA02AA1B226EB245E24D80153
:1015A0001E965C92FEA1F925BCA1FB27E22DEF2738
:1015B000EC25D8011F96EC93A696CDBFDEBFDF9138
:1015C000CF911F910F91FF90EF90DF90CF90BF9040
:1015D000AF909F908F907F906F905F904F903F90D3
:1015E0002F900895FC01818194819183848382816D
:1015F0009085928380878381948593838487868175
:101600009185968381878781958597838587838553
:101610009685938786870895CF93DF93DC01FB013E
:101620009091D62995FB882780F9292F2295269518
:1016300026952270282794FB882780F9822744E08A
:10164000949F90011124282B2093D62930E02770F5
:10165000822F90E021E0230F432F50E048175907D5
:1016600014F4322FF7CF3093B429858190E08E5C4B
:101670009F4DC081D0E09E012E5C3E4DEC019881D3
:10168000E90188818927C285D0E0CE5CDC4D988154
:101690008927C785D0E0CE5CDC4D988189278C9363
:1016A000858190E08E5C9E4DC081D0E09E012E5CD5
:1016B0003C4DEC019881E90188818927C285D0E001
:1016C000CE5CDF4D98818927C785D0E0CE5CDC4DAC
:1016D0009881892711968C9311979091D62995FB23
:1016E000882780F9292F229526952695227028276C
:1016F00094FB882780F98227D4E09D9F90011124D4
:10170000282B2093D62980E0422F477050E091E0AB
:10171000980F682F70E06417750714F4892FF7CFBE
:101720008093B429858190E08E5C9C4DC081D0E08F
:10173000AE014E5C5C4DEC019881EA0188818927FD
:10174000C285D0E0CE5CDE4D98818927C785D0E088
:10175000CE5CDF4D9881892712968C9312978581F4
:1017600090E08E5C9C4DC081D0E0AE014E5C5F4D40
:10177000EC019881EA0188818927C285D0E0CE5C9E
:10178000DC4D98818927C785D0E0CE5CDE4D9881FD
:10179000892713968C93139725FB992790F9822F0D
:1017A0008295869586958270892724FB992790F9E2
:1017B000482F4927D4E02D9FC0011124942F982B46
:1017C00080E0292F277030E0482F50E08F5F4217CC
:1017D0005307D4F3218530E02E5C3F4DC481D0E027
:1017E000AE014E5C5E4DE9012881EA0188818227C5
:1017F000C685D0E0CE5CDC4D28818227C381D0E055
:10180000CE5CDC4D2881822714968C931497218519
:1018100030E02E5C3E4DC481D0E0AE014E5C5C4DAC
:10182000E9012881EA0188818227C685D0E0CE5C63
:10183000DF4D28818227C381D0E0CE5CDC4D28813A
:10184000822715968C93159795FB442740F9892F8D
:101850008295869586958270842794FB442740F96B
:101860004827D4E09D9FC0011124842B90E0282FAD
:10187000277030E0492F50E09F5F42175307D4F3A1
:10188000218530E02E5C3C4DC481D0E0AE014E5C41
:101890005C4DE9012881EA0198819227C685D0E054
:1018A000CE5CDE4D28819227C381D0E0CE5CDF4D37
:1018B0002881922716969C931697218530E02E5CFE
:1018C0003C4DC481D0E0AE014E5C5F4DE901288102
:1018D000EA0198819227C685D0E0CE5CDC4D288154
:1018E0009227C381D0E0CE5CDE4D288192271796E7
:1018F0009C93179785FB222720F9482F4295469500
:1019000046954270422784FB222720F92427D4E001
:101910008D9FA0011124422B20E0842F877090E03E
:10192000622F70E02F5F68177907D4F3858590E008
:101930008E5C9F4DC085D0E09E012E5C3E4DEC013B
:101940009881E90188818927C281D0E0CE5CDC4D95
:1019500098818927C781D0E0CE5CDC4D98818927AA
:1019600018968C931897858590E08E5C9E4DC08567
:10197000D0E09E012E5C3C4DEC019881E90188810C
:101980008927C281D0E0CE5CDF4D98818927C7814D
:10199000D0E0CE5CDC4D9881892719968C931997FD
:1019A00045FB882780F9242F2295269526952270BD
:1019B000282744FB882780F98227D4E04D9F900197
:1019C0001124282B30E0822F877090E0432F50E0C5
:1019D0003F5F48175907D4F3858590E08E5C9C4D96
:1019E000C085D0E0AE014E5C5C4DEC019881EA010F
:1019F00088818927C281D0E0CE5CDE4D988189271D
:101A0000C781D0E0CE5CDF4D988189271A968C93F0
:101A10001A97858590E08E5C9C4DC085D0E0AE0124
:101A20004E5C5F4DEC019881EA0188818927C28173
:101A3000D0E0CE5CDC4D98818927C781D0E0CE5CB8
:101A4000DE4D988189271B968C931B9725FB442795
:101A500040F9822F8295869586958270842724FB93
:101A6000442740F94827D4E02D9FC0011124842B3E
:101A700090E0282F277030E0492F50E09F5F4217F9
:101A80005307D4F3218130E02E5C3F4DC485D0E074
:101A9000AE014E5C5E4DE9012881EA0198819227F2
:101AA000C681D0E0CE5CDC4D28819227C385D0E092
:101AB000CE5CDC4D288192271C969C931C9721813B
:101AC00030E02E5C3E4DC485D0E0AE014E5C5C4DF6
:101AD000E9012881EA0198819227C681D0E0CE5C95
:101AE000DF4D28819227C385D0E0CE5CDC4D288174
:101AF00092271D969C931D9785FB222720F9482F3E
:101B00004295469546954270422784FB222720F94C
:101B10002427D4E08D9FA0011124422B4093D62985
:101B200080E04770242F30E091E0980F482F50E07C
:101B30004217530714F4892FF7CF8093B42981817A
:101B400090E08E5C9C4DC485D0E09E012E5C3C4DA7
:101B5000EC019881E90188818927C681D0E0CE5CBB
:101B6000DE4D98818927C385D0E0CE5CDF4D98811A
:101B700089271E968C931E97818190E08E5C9C4DE8
:101B8000C485D0E09E012E5C3F4DEC019881E901B7
:101B900088818927C681D0E0CE5CDC4D9881892779
:101BA000E385F0E0EE5CFE4D908189271F968C93D3
:101BB000DF91CF910895AF92BF92CF92DF92EF92D3
:101BC000FF920F931F93CF93DF931F92CDB7DEB792
:101BD0005C018B0140967C01442329F04A30E9F5F1
:101BE0006501F50119C06501F50190818091B52964
:101BF00089278193EE15FF05C1F7B801C5010E9441
:101C0000E102F60190818091B529892781936F01C6
:101C1000EE15FF05B1F74BC090818091B52989275A
:101C20008193EE15FF05C1F761E070E0C5010E94E8
:101C3000D203C5010E946C04B80160567F4FC501F4
:101C40000E94E102F60190818091A2298927819367
:101C50006F01EE15FF05B1F72AC06501F50190810E
:101C60008091B52989278193EE15FF05C1F761E0C1
:101C700070E0C50149830E94D203C5010E946C0433
:101C8000C5010E945E064981B801F0E14F9F600DD9
:101C9000711D1124C5010E94E102F601908180911D
:101CA000B529892781936F01EE15FF05B1F70F90D4
:101CB000DF91CF911F910F91FF90EF90DF90CF9028
:101CC000BF90AF9008952F923F924F925F926F9284
:101CD0007F928F929F92AF92BF92CF92DF92EF92BC
:101CE000FF920F931F93CF93DF93CDB7DEB76D971E
:101CF000CDBFDEBFFC01688F798F8C01005F1F4F65
:101D000009831A83442331F04A3009F0A5C78B8335
:101D10009C8379C28C01DC013C912091B529232759
:101D20002D93CD0129813A81A217B307A1F7909194
:101D3000D62995FB882780F9292F22952695269567
:101D40002270282794FB882780F9822744E0949FFB
:101D500090011124282B2093D62930E02770822F60
:101D600090E021E0230F432F50E04817590714F467
:101D7000322FF7CF3093B4299081A88DB98D8C91F3
:101D8000892780839091D62995FB882780F9292F70
:101D90002295269526952270282794FB882780F97E
:101DA0008227B4E09B9F90011124282B30E0822FE2
:101DB000877090E0432F50E03F5F48175907D4F3F6
:101DC0009181A88DB98D11968C918927818325FBEE
:101DD000442740F9822F82958695869582708427C4
:101DE00024FB442740F94827B4E02B9FC00111246D
:101DF000842B90E0282F277030E0492F50E09F5F20
:101E000042175307D4F32281A88DB98D12969C9165
:101E10009227928385FB222720F9482F42954695E9
:101E200046954270422784FB222720F92427B4E0FC
:101E30008B9FA0011124422B20E0842F877090E01B
:101E4000622F70E02F5F68177907D4F39381A88D14
:101E5000B98D13968C918927838345FB882780F958
:101E6000242F2295269526952270282744FB882723
:101E700080F98227B4E04B9F90011124282B30E099
:101E8000822F877090E0432F50E03F5F481759073B
:101E9000D4F39481A88DB98D14968C91892784836D
:101EA00025FB442740F9822F82958695869582707E
:101EB000842724FB442740F94827B4E02B9FC00126
:101EC0001124842B90E0282F277030E0492F50E018
:101ED0009F5F42175307D4F32581A88DB98D1596BE
:101EE0009C919227958385FB222720F9482F4295C4
:101EF000469546954270422784FB222720F92427E5
:101F0000B4E08B9FA0011124422B20E0842F877026
:101F100090E0622F70E02F5F68177907D4F3968105
:101F2000A88DB98D16968C918927868345FB8827C5
:101F300080F9242F2295269526952270282744FB88
:101F4000882780F98227B4E04B9F90011124282B29
:101F500030E0822F877090E0432F50E03F5F4817BA
:101F60005907D4F39781A88DB98D17968C9189273D
:101F7000878325FB442740F9822F82958695869595
:101F80008270842724FB442740F94827B4E02B9F24
:101F9000C0011124842B90E0282F277030E0492FB6
:101FA00050E09F5F42175307D4F32085A88DB98D69
:101FB00018969C919227908785FB222720F9482F1D
:101FC0004295469546954270422784FB222720F988
:101FD0002427B4E08B9FA0011124422B20E0842F02
:101FE000877090E0622F70E02F5F68177907D4F355
:101FF0009185A88DB98D19968C918927818745FB8C
:10200000882780F9242F2295269526952270282747
:1020100044FB882780F98227B4E04B9F900111246C
:10202000282B30E0822F877090E0432F50E03F5FF5
:1020300048175907D4F39285A88DB98D1A968C91BB
:102040008927828725FB442740F9822F8295869530
:1020500086958270842724FB442740F94827B4E002
:102060002B9FC0011124842B90E0282F277030E093
:10207000492F50E09F5F42175307D4F32385A88D63
:10208000B98D1B969C919227938785FB222720F977
:10209000482F4295469546954270422784FB222759
:1020A00020F92427B4E08B9FA0011124422B20E0CB
:1020B000842F877090E0622F70E02F5F6817790798
:1020C000D4F39485A88DB98D1C968C91892784872B
:1020D00045FB882780F9242F229526952695227086
:1020E000282744FB882780F98227B4E04B9F900182
:1020F0001124282B30E0822F877090E0432F50E08E
:102100003F5F48175907D4F39585A88DB98D1D9663
:102110008C918927858725FB442740F9822F82955A
:10212000869586958270842724FB442740F94827AA
:10213000B4E02B9FC0011124842B90E0282F27703E
:1021400030E0492F50E09F5F42175307D4F32685B4
:10215000A88DB98D1E969C919227968785FB222784
:1021600020F9482F4295469546954270422784FBB8
:10217000222720F92427B4E08B9FA0011124422BB1
:1021800020E0842F877090E0622F70E02F5F681747
:102190007907D4F39785A88DB98D1F968C918927DF
:1021A000878745FB882780F9242F22952695269539
:1021B0002270282744FB882780F98227B4E04B9FB0
:1021C00090011124282B2093D62930E02770822FEC
:1021D00090E021E0230F432F50E04817590714F4F3
:1021E000322FF7CF3093B429F80190818091B5292F
:1021F0008927D8018D938D0129813A81A217B307D0
:1022000099F70C943A1FDC013C912091B5292327C2
:102210002D93CD0109811A81A017B107A1F79091E3
:10222000D62995FB882780F9292F22952695269572
:102230002270282794FB882780F9822714E0919F39
:1022400090011124282B2093D62930E02770822F6B
:1022500090E021E0230F432F50E04817590714F472
:10226000322FF7CF3093B429808190E08E5C984D67
:10227000DC018C9180839091D62995FB882780F989
:10228000292F2295269526952270282794FB8827AA
:1022900080F98227B4E09B9F90011124282B30E025
:1022A000822F877090E0432F50E03F5F4817590717
:1022B000D4F3818190E08E5C984DDC01BC90B182BA
:1022C00025FB442740F9822F82958695869582705A
:1022D000842724FB442740F94827B4E02B9FC00102
:1022E0001124842B90E0282F277030E0492F50E0F4
:1022F0009F5F42175307D4F3228130E02E5C384DA4
:10230000D9013C91328385FB662760F9482F4295BD
:10231000469546954270462784FB662760F96427F8
:10232000B4E08B9FA0011124462B20E0842F8770FE
:1023300090E0622F70E02F5F68177907D4F38381F4
:1023400090E08E5C984DDC015C91538345FB8827BF
:1023500080F9642F6295669566956270682744FBE4
:10236000882780F98627B4E04B9FB0011124682BA1
:1023700020E0862F877090E0022F10E02F5F081773
:102380001907D4F3848190E08E5C984DDC015C9059
:10239000548265FB992790F9862F829586958695BC
:1023A0008270892764FB992790F9282F2927B4E0A8
:1023B0006B9FC0011124922F982B80E0692F6770CA
:1023C00070E0082F10E08F5F06171707D4F36581C0
:1023D00070E06E5C784DDB010C91058395FB662700
:1023E00060F9892F8295869586958270862794FB61
:1023F000662760F96827B4E09B9FC0011124862BF3
:1024000090E0682F677070E0E92EF12C9F5FE61670
:10241000F706D4F3668170E06E5C784DDB01AC901A
:10242000A68285FB992790F9682F62956695669537
:102430006270692784FBCC24C0F8C626B4E08B9F69
:10244000B00111246C2980E0962F9770E92EF12CB1
:10245000882E912C8F5F8E149F04D4F39781892F3F
:1024600090E08E5C984DDC012C91278365FB8827DA
:1024700080F9962F9295969596959270982764FB81
:10248000442740F94927B4E06B9FC0011124482B31
:1024900010E0842F877090E0612F70E01F5F681755
:1024A0007907D4F3608570E06E5C784DDB014C9069
:1024B000408645FBCC24C0F8942F9295969596952E
:1024C00092709C2544FB882780F9C92EC826B4E069
:1024D0004B9FC00111248C2990E0682F677070E039
:1024E000892E912C9F5F86169706D4F3618570E044
:1024F0006E5C784DDB017C91718785FBEE24E0F802
:10250000982F92959695969592709E2584FBEE2431
:10251000E0F8E926B4E08B9F600111246E2D6C2950
:1025200080E0962F9770892E912C682E712C8F5FEA
:1025300068147904D4F3828590E08E5C984DDC01B8
:102540001C91128765FBEE24E0F8462F42954695D4
:10255000469542704E2564FBEE24E0F84E25B4E02B
:102560006B9F700111244E2980E0942F9770892E63
:10257000912C682E712C8F5F68147904D4F38385B5
:1025800090E08E5C984DDC017C90738645FBCC24FA
:10259000C0F8842F82958695869582708C2544FBA1
:1025A000CC24C0F8C826B4E04B9FC00111248C296C
:1025B00090E0482F4770C42ED12C892E912C9F5F1C
:1025C0008C149D04D4F38484912CD401AE5CB84D5A
:1025D0006C90648685FBCC24C0F8682F6295669564
:1025E00066956270C62684FBEE24E0F8EC24B4E025
:1025F0008B9F600111246E2D6C2980E0962F9770BF
:10260000892E912CC82ED12C8F5FC814D904D4F3F5
:10261000858590E08E5C984DDC014C91458765FB8B
:10262000EE24E0F8862F8295869586958270E826BE
:1026300064FB882780F98E25B4E06B9F700111241C
:10264000382E3E2880E0932D9770892E912CE82E0D
:10265000F12C8F5FE814F904D4F3868590E08E5C4A
:10266000984DDC016C91668735FADD24D0F8832D16
:1026700082958695869582708D2534FACC24C0F893
:10268000C826B4E03B9EC0011124DC2CD82AC12C02
:102690008D2D877090E0EC2CF12CC394E816F90690
:1026A000D4F38784882D90E08E5C984DDC019C905B
:1026B000D5FACC24C0F88D2D8295869586958270AA
:1026C000C826D4FAEE24E0F8EC24B4E0DB9E6001E6
:1026D0001124CE28D12C8C2D877090E0ED2CF12C7C
:1026E000D394E816F906D4F3C5FAEE24E0F88C2D5D
:1026F0008295869586958270E826C4FA882780F9A7
:102700008E2594E0C99E70011124882E8E28D12C2C
:10271000882D877090E0ED2CF12CD394E816F90603
:10272000D4F3018375834187B58685FADD24D0F81B
:10273000882D82958695869582708D2584FACC2485
:10274000C0F8C826A4E08A9EC0011124DC2CD82A37
:10275000C12C8D2D877090E0EC2CF12CC394E816E1
:10276000F906D4F3128332876683A686D5FACC2481
:10277000C0F89D2D9295969596959270C926D4FA9B
:10278000EE24E0F8EC24B4E0DB9E600111249E2DE1
:102790009C2980E0A92FA770EA2EF12CC82ED12CFD
:1027A0008F5FCE14DF04D4F3938277862387578319
:1027B00095FBEE24E0F8892F8295869586958270A8
:1027C000E82694FB882780F98E25B4E09B9F700152
:1027D00011248E298093D629D12C877090E0CC24A7
:1027E000C394CD0CED2CF12CE816F90614F4DC2C76
:1027F000F6CFD092B429A88DB98DA056BF4F908145
:102800008C9189278083F090D629F5FADD24D0F8C1
:102810009F2D9295969596959270D926F4FA8827D1
:1028200080F9D82684E0F89E70011124DE28C12C9E
:102830008D2D877090E0EC2CF12CC394E816F906EE
:10284000D4F311968C91119708270183D5FA992713
:1028500090F98D2D82958695869582708927D4FA78
:10286000002700F9F02EF82604E0D09EC0011124C4
:102870000F2D082B80E0902F9770E92EF12CC82E99
:10288000D12C8F5FCE14DF04D4F312968C91129763
:102890001827128305FB882780F9902F929596952B
:1028A00096959270982704FBCC24C0F8C92614E0B2
:1028B000019FC0011124C82A80E00C2D077010E090
:1028C000E82EF12C8F5FE016F106D4F313968C916D
:1028D000139798269382C5FA882780F99C2D9295A4
:1028E0009695969592709827C4FADD24D0F8D9264B
:1028F00004E0C09EC0011124D82A80E00D2D07708D
:1029000010E0E82EF12C8F5FE016F106D4F3149658
:102910008C91149758265482D5FA882780F99D2DDA
:1029200092959695969592709827D4FAFF24F0F890
:10293000F92614E0D19EC0011124F82AE12C8F2D34
:10294000877090E00E2D10E0E39408171907D4F378
:1029500015968C91159778277583F5FA882780F955
:102960009F2D92959695969592709827F4FA7727D1
:1029700070F9792704E0F09EC0011124972F982B5D
:1029800080E0092F077010E0E82EF12C8F5FE01631
:10299000F106D4F316968C9116976827668395FBFB
:1029A000882780F9092F0295069506950270082759
:1029B00094FB882780F9082714E0919FC001112417
:1029C000802B90E0682F677070E0092F10E09F5F08
:1029D00006171707D4F317969C9117975927578313
:1029E00085FB552750F9082F02950695069502702C
:1029F000052784FB552750F9052754E0859FC00122
:102A00001124502F582B80E0652F677070E0082F3D
:102A100010E08F5F06171707D4F318968C9118975C
:102A20004826408655FB992790F9052F0295069573
:102A300006950270092754FB662760F9602774E049
:102A4000579F80011124962F902B80E0692F67708B
:102A500070E0082F10E08F5F06171707D4F3199660
:102A60008C9119974827418795FB882780F9692F12
:102A70006295669566956270682794FB882780F951
:102A8000862704E0909FB0011124682B80E0062F78
:102A9000077010E0E82EF12C8F5FE016F106D4F3FA
:102AA0001A968C911A973827328765FB442740F98C
:102AB000862F8295869586958270842764FB4427AD
:102AC00040F9482714E0619FC0011124842B90E055
:102AD000482F477050E0692F70E09F5F64177507BB
:102AE000D4F31B969C911B972927238785FB2227CC
:102AF00020F9482F4295469546954270422784FB1F
:102B0000222720F9242734E0839FA0011124422B9F
:102B100020E0842F877090E0622F70E02F5F6817AD
:102B20007907D4F31C968C911C976826648645FB24
:102B3000882780F9242F229526952695227028270C
:102B400044FB882780F9822754E0459F9001112497
:102B5000282B30E0822F877090E0432F50E03F5FBA
:102B600048175907D4F31D968C911D97B826B58642
:102B700025FB442740F9822F8295869586958270A1
:102B8000842724FB442740F9482764E0269FC0019E
:102B90001124842B90E0282F277030E0492F50E03B
:102BA0009F5F42175307D4F31E969C911E97A92648
:102BB000A68685FB222720F9482F42954695469503
:102BC0004270422784FB222720F9242774E0879F44
:102BD000A0011124422B20E0842F877090E0622F07
:102BE00070E02F5F68177907D4F31F968C917826D1
:102BF000778645FB882780F9242F229526952695F0
:102C00002270282744FB882780F9822794E0499F77
:102C100090011124282B2093D62930E02770822F91
:102C200090E021E0230F432F50E04817590714F498
:102C3000322FF7CF3093B429AB81BC819C91809126
:102C4000A22989278D93AB83BC8309811A81A017A0
:102C5000B10791F70C943A1F8B839C83DC019C9104
:102C60008091B52989278D9329813A81A217B307CD
:102C7000B1F79091D62995FB882780F9292F2295C5
:102C8000269526952270282794FB882780F982278D
:102C900054E0959F90011124282B2093D62930E0F1
:102CA0002770822F90E021E0230F632F70E06817D8
:102CB000790714F4322FF7CF3093B429808190E054
:102CC0008E5C984DDC018C9180839091D62995FB88
:102CD000662760F9892F829586958695827086276A
:102CE00094FB662760F96827B4E09B9FC00111241C
:102CF000862B90E0282F277030E0692F70E09F5FCF
:102D000062177307D4F3218130E02E5C384DD9016E
:102D1000BC91BA87B18385FB222720F9682F629581
:102D2000669566956270622784FB222720F9262724
:102D300004E0809FB0011124622B20E0862F877071
:102D400090E0A22FB0E02F5FA817B907D4F38281DB
:102D500090E08E5C984DDC01AC90A28265FB8827E8
:102D600080F9262F2295269526952270282764FB28
:102D7000882780F98227B4E06B9F90011124282BCB
:102D800030E0822F877090E0632F70E03F5F68171C
:102D90007907D4F3838190E08E5C984DDC014C90F0
:102DA000438225FB992790F9822F829586958695F7
:102DB0008270892724FB332730F93827B4E02B9F12
:102DC000C0011124832B90E0682F677070E0292FD9
:102DD00030E09F5F26173707D4F3248130E02E5C64
:102DE000384DD901DC90D48285FB222720F9982F19
:102DF0009295969596959270922784FB222720F9BA
:102E00002927B4E08B9FC0011124822B30E0682F6A
:102E1000677070E0A32FB0E03F5FA617B707D4F349
:102E2000258130E02E5C384DD9011C91158385FB3E
:102E3000222720F9982F9295969596959270922731
:102E400084FB222720F99227B4E08B9F9001112464
:102E5000292B80E0922F9770692F70E0E82EF12CDB
:102E60008F5FE616F706D4F3868190E0DC01AE5C56
:102E7000B84D0C910B87068325FB332730F9822F41
:102E80008295869586958270832724FB332730F9B7
:102E9000382754E0259FC0011124382B20E0832FD0
:102EA000877090E0622F70E02F5F68177907D4F386
:102EB000878190E08E5C984DDC019C90978235FB79
:102EC000662760F9832F829586958695827086277E
:102ED00034FB662760F96827B4E03B9FC0011124EA
:102EE000862B90E0282F277030E0E92EF12C9F5F91
:102EF000E216F306D4F3208530E02E5C384DD9017C
:102F0000CC90C08685FB222720F9682F62956695B4
:102F100066956270622784FB222720F92627B4E099
:102F20008B9FB0011124622B80E0962F9770292F80
:102F300030E0E82EF12C8F5FE216F306D4F38185A2
:102F400090E08E5C984DDC01EC90E18665FB772784
:102F500070F9262F2295269526952270272764FB47
:102F6000882780F98227B4E06B9F90011124782F85
:102F7000722B50E0872F877090E0252F30E05F5F45
:102F800028173907D4F3828590E08E5C984DDC01D8
:102F90000C91028775FB552750F9872F82958695EE
:102FA00086958270852774FB662760F96827B4E0F0
:102FB0007B9FC0011124562F582B60E0852F87700E
:102FC00090E0262F30E06F5F28173907D4F3838510
:102FD00090E0DC01AE5CB84D2C912C87238755FB2B
:102FE000222720F9652F62956695669562706227A3
:102FF00054FB222720F9262734E0539FB0011124E7
:10300000622B80E0262F277030E0A82FB0E08F5F82
:10301000A217B307D4F3848590E0DC01AE5CB84D11
:103020005C915D87548765FB882780F9262F229560
:10303000269526952270282764FB882780F9822709
:1030400074E0679F90011124282B30E0822F877055
:1030500090E0632F70E03F5F68177907D4F38585B0
:1030600090E08E5C984DDC018C90858625FB662770
:1030700060F9822F8295869586958270862724FB3B
:10308000662760F96827B4E02B9FC0011124862BC6
:1030900090E0682F677070E0292F30E09F5F26175F
:1030A0003707D4F3268530E02E5C384DD9013C90AB
:1030B000368685FB222720F9682F629566956695EE
:1030C0006270622784FB222720F92627B4E08B9FB9
:1030D000B0011124622B50E0862F877090E0252FDD
:1030E00030E05F5F28173907D4F3878590E08E5C66
:1030F000984DDC01BC9065FB772770F9262F22954F
:10310000269526952270272764FB882780F9822739
:10311000B4E06B9F90011124782F722B50E0872F21
:10312000877090E0252F30E05F5F28173907D4F3D0
:1031300075FB552750F9872F829586958695827065
:10314000852774FB662760F9682724E0729FC00119
:103150001124562F582B60E0852F877090E0262F82
:1031600030E06F5F28173907D4F3118355FB22270E
:1031700020F9652F6295669566956270622754FB0B
:10318000222720F9262734E0539FB0011124622B17
:1031900050E0862F877090E0252F30E05F5F281782
:1031A0003907D4F3028365FB552750F9262F229562
:1031B000269526952270252764FB882780F982278B
:1031C00054E0659F90011124582F522B60E0852F09
:1031D000877090E0262F30E06F5F28173907D4F30F
:1031E000B38255FBFF24F0F8852F8295869586954E
:1031F0008270F82654FB882780F9F82664E0569FF1
:10320000C0011124F82AF092D62950E08F2D877042
:1032100090E061E0650F252F30E02817390714F49E
:10322000562FF7CF4A8FEC8FFD8F5093B4297090B3
:103230003628808187258D830E945A058E87F5FA6E
:10324000662460F88F2D8295869586958270682613
:10325000F4FA882780F9682674E0F79EC0011124EB
:10326000682A40E0862D877090E0242F30E04F5F81
:1032700028173907D4F3F09037281F251E83812F94
:103280000E945A058F8765FA222420F8862D8295A0
:10329000869586958270282664FA552450F8252450
:1032A000A4E06A9EC0011124282A40E0822D877084
:1032B00090E0242F30E04F5F28173907D4F31091A6
:1032C000382801270F83802F0E945A05888B25FA02
:1032D000662460F8822D8295869586958270682690
:1032E00024FA552450F86524B4E02B9EC001112423
:1032F000682A40E0862D877090E0242F30E04F5FF1
:1033000028173907D4F3009139282B2C2026822D39
:103310000E945A05898B65FA552450F8862D8295AE
:10332000869586958270582664FABB24B0F85B2493
:10333000E4E06E9EC0011124582A40E0852D87707C
:1033400090E0242F30E04F5F28173907D4F3D724BB
:10335000D8868D2D0E945A058A8B55FA662460F80E
:10336000852D8295869586958270682654FABB24B1
:10337000B0F86B24F4E05F9EC0011124682A40E09D
:10338000862D877090E0242F30E04F5F2817390793
:10339000D4F3EF24E9868E2D0E945A058B8B65FAB3
:1033A000BB24B0F8862D8295869586958270B826C6
:1033B00064FAEE24E0F8BE2424E0629EC0011124E9
:1033C000B82A40E08B2D877090E0242F30E04F5FCB
:1033D00028173907D4F3632C6126862D0E945A05DD
:1033E0008C8BB5FAEE24E0F88B2D82958695869528
:1033F0008270E826B4FADD24D0F8ED2434E0B39EE0
:10340000C0011124E82A40E08E2D877090E0242F1F
:1034100030E04F5F28173907D4F34026842D0E94EF
:103420005A05382EE5FADD24D0F88E2D8295869542
:1034300086958270D826E4FA882780F9D82644E059
:10344000E49EC0011124D82A40E08D2D877090E0C1
:10345000242F30E04F5F28173907D4F3BC2CB72452
:103460008B2D0E945A058D8BD5FACC24C0F88D2D5A
:103470008295869586958270C826D4FAEE24E0F867
:10348000CE2454E0D59EC0011124C82A40E08C2DE2
:10349000877090E0242F30E04F5F28173907D4F36E
:1034A000582C5F24852D0E945A058E8BC5FA8824DE
:1034B00080F88C2D82958695869582708826C4FA30
:1034C000EE24E0F88E2464E0C69E600111248C286E
:1034D00040E0882D877090E0242F30E04F5F281760
:1034E0003907D4F3CA2CC1268C2D0E945A058F8B24
:1034F00085FAEE24E0F8882D82958695869582706F
:10350000E82684FADD24D0F8ED2474E0879EC0011B
:103510001124E82A40E08E2D877090E0242F30E0BF
:103520004F5F28173907D4F3A92CA0268A2D0E94B3
:103530005A05882EE5FADD24D0F88E2D82958695E1
:1035400086958270D826E4FA992790F9D926A4E0C6
:10355000EA9EC0011124D82A40E08D2D877090E0AA
:10356000242F30E04F5F28173907D4F32D857226BA
:10357000872D0E945A05982ED5FAEE24E0F89D2D4D
:103580009295969596959270E926D4FA992790F996
:10359000E92634E0D39EC0011124E82A40E08E2DB4
:1035A000877090E0242F30E04F5F28173907D4F35D
:1035B0004A85F4268F2D0E945A05D82EE5FA332726
:1035C00030F99E2D92959695969592709327E4FAF0
:1035D000332730F9392754E0E59EC0011124932F99
:1035E000982B80E0292F277030E0482F50E08F5F24
:1035F00042175307D4F36B851627812F9B8F0E94A8
:103600005A05E82E9B8D95FB332730F9492F4295BB
:10361000469546954270432794FB332730F943275C
:1036200074E0979FC0011124342F382B20E0832FA2
:10363000877090E0622F70E02F5F68177907D4F3EE
:103640009C850927802F3B8F0E945A05982F3B8D20
:1036500035FB222720F9432F429546954695427027
:10366000422734FB222720F92427A4E03A9FA00117
:103670001124422B4093D62950E04770242F30E08C
:1036800081E0850F452F50E04217530714F4582F5F
:10369000F7CF8F812E818227282F22253E85232751
:1036A0004F852427AC8DBD8D2C932F8122253D8104
:1036B000232724274889242711962C933091D62933
:1036C00035FB222720F9732F7295769576957270C7
:1036D000722734FB222720F9722754E0359F90018E
:1036E0001124722B60E0272F277030E0462F50E026
:1036F0006F5F42175307D4F36E8126262D81222651
:103700003889232649892426AC8DBD8D12962C92AA
:10371000129782272E858227842713968C9375FB18
:10372000442740F9672F6295669566956270642715
:1037300074FB442740F9462734E0739FB0011124FD
:10374000642B80E0262F277030E0482F50E08F5FF9
:1037500042175307D4F38985862584254A8984270F
:103760005B898527AC8DBD8D14968C9314978885C5
:103770008625842585272C89822715968C9365FBC1
:10378000882780F9462F42954695469542704827EE
:1037900064FB222720F9242734E0639FA001112431
:1037A000822F842B60E0282F277030E0462F50E0D6
:1037B0006F5F42175307D4F3298548852427422693
:1037C0005C8945264324AC8DBD8D16964C92169788
:1037D00026253A892327322617963C9285FB3327E4
:1037E00030F9282F2295269526952270232784FBD1
:1037F000442740F9422754E0859F90011124842FEB
:10380000822B60E0282F277030E0462F50E06F5F5A
:1038100042175307D4F32C2D25252A256D892627F9
:103820007E892727AC8DBD8D18962C9318972C2D4B
:103830002B252A25672E62262F89622619966C92DF
:1038400085FB332730F9282F22952695269522705F
:10385000232784FB442740F9422754E0859F9001A9
:103860001124842F822B60E0282F277030E0462F10
:1038700050E06F5F42175307D4F3252D2B25A22666
:10388000BF88BA24B824AC8DBD8D1A96BC921A9705
:10389000C2262D89C2268C241B968C9285FB332749
:1038A00030F9282F2295269526952270232784FB10
:1038B000442740F9422754E0859F90011124242B8E
:1038C00080E0422F477050E0682F70E08F5F6417F0
:1038D0007507D4F3812F8F25802789258D25AC8D01
:1038E000BD8D1C968C931C97812F87258027D82609
:1038F000DE241D96DC9225FB332730F9822F82953A
:10390000869586958270832724FB332730F9832799
:10391000B4E02B9F90011124282B2093D62980E01E
:10392000277030E061E0680F482F50E042175307DE
:1039300014F4862FF7CF8093B429F7240F25E026BF
:10394000E926EC8DFD8DE6861F25192591279787A1
:10395000DF0120E030E0F901E370FF27EE5CF74D76
:103960009C91808189278D932F5F3F4F20313105B6
:1039700091F79091D62995FB882780F9292F2295D8
:10398000269526952270282794FB882780F9822780
:10399000F4E09F9F90011124282B2093D62930E03A
:1039A0002770822F90E021E0230F432F50E048172B
:1039B000590714F4322FF7CF3093B429A88DB98D5D
:1039C0001A8D00E1109FA00DB11D1124EC8DFD8D0D
:1039D00090818C91892780839091D62995FB8827A7
:1039E00080F9292F2295269526952270282794FB69
:1039F000882780F98227F4E09F9F90011124282BCB
:103A000030E0822F877090E0432F50E03F5F4817EF
:103A10005907D4F3EC8DFD8D918111968C911197FE
:103A20008927818325FB442740F9822F829586953B
:103A300086958270842724FB442740F94827F4E0C8
:103A40002F9FC0011124842B90E0282F277030E095
:103A5000492F50E09F5F42175307D4F3EC8DFD8D43
:103A6000228112969C9112979227928385FB22279E
:103A700020F9482F4295469546954270422784FB8F
:103A8000222720F92427F4E08F9FA0011124422B44
:103A900020E0842F877090E0622F70E02F5F68171E
:103AA0007907D4F3EC8DFD8D938113968C91139748
:103AB0008927838345FB882780F9242F2295269523
:103AC00026952270282744FB882780F98227F4E076
:103AD0004F9F90011124282B30E0822F877090E0B7
:103AE000432F50E03F5F48175907D4F3EC8DFD8D0D
:103AF000948114968C9114978927848325FB4427FD
:103B000040F9822F8295869586958270842724FBC2
:103B1000442740F94827F4E02F9FC0011124842B4B
:103B200090E0282F277030E0492F50E09F5F421728
:103B30005307D4F3EC8DFD8D258115969C91159737
:103B40009227958385FB222720F9482F4295469599
:103B500046954270422784FB222720F92427F4E06F
:103B60008F9FA0011124422B20E0842F877090E0CA
:103B7000622F70E02F5F68177907D4F3EC8DFD8D0D
:103B8000968116968C9116978927868345FB882700
:103B900080F9242F2295269526952270282744FB0C
:103BA000882780F98227F4E04F9F90011124282B69
:103BB00030E0822F877090E0432F50E03F5F48173E
:103BC0005907D4F3EC8DFD8D978117968C9117973B
:103BD0008927878325FB442740F9822F8295869584
:103BE00086958270842724FB442740F94827F4E017
:103BF0002F9FC0011124842B90E0282F277030E0E4
:103C0000492F50E09F5F42175307D4F3EC8DFD8D91
:103C1000208518969C9118979227908785FB2227DC
:103C200020F9482F4295469546954270422784FBDD
:103C3000222720F92427F4E08F9FA0011124422B92
:103C400020E0842F877090E0622F70E02F5F68176C
:103C50007907D4F3EC8DFD8D918519968C91199788
:103C60008927818745FB882780F9242F229526956F
:103C700026952270282744FB882780F98227F4E0C4
:103C80004F9F90011124282B30E0822F877090E005
:103C9000432F50E03F5F48175907D4F3EC8DFD8D5B
:103CA00092851A968C911A978927828725FB44273B
:103CB00040F9822F8295869586958270842724FB11
:103CC000442740F94827F4E02F9FC0011124842B9A
:103CD00090E0282F277030E0492F50E09F5F421777
:103CE0005307D4F3EC8DFD8D23851B969C911B9778
:103CF0009227938785FB222720F9482F42954695E6
:103D000046954270422784FB222720F92427F4E0BD
:103D10008F9FA0011124422B20E0842F877090E018
:103D2000622F70E02F5F68177907D4F3EC8DFD8D5B
:103D300094851C968C911C978927848745FB88273E
:103D400080F9242F2295269526952270282744FB5A
:103D5000882780F98227F4E04F9F90011124282BB7
:103D600030E0822F877090E0432F50E03F5F48178C
:103D70005907D4F3EC8DFD8D95851D968C911D977B
:103D80008927858725FB442740F9822F82958695D0
:103D900086958270842724FB442740F94827F4E065
:103DA0002F9FC0011124842B90E0282F277030E032
:103DB000492F50E09F5F42175307D4F3EC8DFD8DE0
:103DC00026851E969C911E979227968785FB222713
:103DD00020F9482F4295469546954270422784FB2C
:103DE000222720F92427F4E08F9FA0011124422BE1
:103DF00020E0842F877090E0622F70E02F5F6817BB
:103E00007907D4F3EC8DFD8D97851F968C918927CA
:103E1000878745FB882780F9242F229526952695AC
:103E20002270282744FB882780F98227F4E04F9FDF
:103E300090011124282B2093D62930E02770822F5F
:103E400090E021E0230F432F50E04817590714F466
:103E5000322FF7CF3093B429AB81BC819C918091F4
:103E6000B52989278D93AB83BC8309811A81A0175B
:103E7000B10791F76D96CDBFDEBFDF91CF911F9156
:103E80000F91FF90EF90DF90CF90BF90AF909F90F9
:103E90008F907F906F905F904F903F902F900895FC
:103EA000AF92BF92CF92DF92EF92FF920F931F9348
:103EB000CF93DF931F92CDB7DEB75C018B014096A5
:103EC0007C01442329F04A30E9F56501F50119C068
:103ED0006501F50190818091B52989278193EE15BF
:103EE000FF05C1F7B801C5010E94E102F60190810A
:103EF0008091B529892781936F01EE15FF05B1F7F0
:103F00004BC090818091B52989278193EE15FF05DB
:103F1000C1F762E070E0C5010E94D203C5010E94B2
:103F20006C04B80160567F4FC5010E94E102F601A2
:103F300090818091A229892781936F01EE15FF0559
:103F4000B1F72AC06501F50190818091B5298927D3
:103F50008193EE15FF05C1F762E070E0C50149836A
:103F60000E94D203C5010E946C04C5010E945E0636
:103F70004981B801F0E14F9F600D711D1124C50109
:103F80000E94E102F60190818091B52989278193F1
:103F90006F01EE15FF05B1F70F90DF91CF911F91E3
:103FA0000F91FF90EF90DF90CF90BF90AF9008956A
:103FB0002F923F924F925F926F927F928F929F9239
:103FC000AF92BF92CF92DF92EF92FF920F931F9327
:103FD000CF93DF93CDB7DEB76B97CDBFDEBF8A8FB0
:103FE0009B8F1B01B901605F7F4F69837A834423F4
:103FF00041F04A3011F00C94DF282B833C83D90127
:10400000C3C2F901D9019C918091B52989278D936B
:1040100029813A81A217B307B1F79091D62995FB70
:10402000882780F9292F2295269526952270282702
:1040300094FB882780F9822744E0949F9001112403
:10404000282B2093D62930E02770822F90E021E0A2
:10405000230F432F50E04817590714F4322FF7CF9E
:104060003093B429AA8DBB8D9C91D1018C91892765
:10407000AA8DBB8D8C939091D62995FB882780F9CA
:10408000292F2295269526952270282794FB88278C
:1040900080F98227B4E09B9F90011124282B30E007
:1040A000822F877090E0432F50E03F5F48175907F9
:1040B000D4F3AA8DBB8D11969C91D10111968C9150
:1040C0008927AA8DBB8D11968C9325FB442740F937
:1040D000822F8295869586958270842724FB4427BB
:1040E00040F94827B4E02B9FC0011124842B90E0B5
:1040F000282F277030E0492F50E09F5F4217530769
:10410000D4F3AA8DBB8D12962C91D10112969C915D
:104110009227AA8DBB8D12969C9385FB222720F9AE
:10412000482F4295469546954270422784FB2227A8
:1041300020F92427B4E08B9FA0011124422B20E01A
:10414000842F877090E0622F70E02F5F68177907E7
:10415000D4F3AA8DBB8D13969C91D10113968C91AB
:104160008927AA8DBB8D13968C9345FB882780F9F0
:10417000242F2295269526952270282744FB8827F0
:1041800080F98227B4E04B9F90011124282B30E066
:10419000822F877090E0432F50E03F5F4817590708
:1041A000D4F3AA8DBB8D14969C91D10114968C9159
:1041B0008927AA8DBB8D14968C9325FB442740F943
:1041C000822F8295869586958270842724FB4427CA
:1041D00040F94827B4E02B9FC0011124842B90E0C4
:1041E000282F277030E0492F50E09F5F4217530778
:1041F000D4F3AA8DBB8D15962C91D10115969C9167
:104200009227AA8DBB8D15969C9385FB222720F9BA
:10421000482F4295469546954270422784FB2227B7
:1042200020F92427B4E08B9FA0011124422B20E029
:10423000842F877090E0622F70E02F5F68177907F6
:10424000D4F3AA8DBB8D16969C91D10116968C91B4
:104250008927AA8DBB8D16968C9345FB882780F9FC
:10426000242F2295269526952270282744FB8827FF
:1042700080F98227B4E04B9F90011124282B30E075
:10428000822F877090E0432F50E03F5F4817590717
:10429000D4F3AA8DBB8D17969C91D10117968C9162
:1042A0008927AA8DBB8D17968C9325FB442740F94F
:1042B000822F8295869586958270842724FB4427D9
:1042C00040F94827B4E02B9FC0011124842B90E0D3
:1042D000282F277030E0492F50E09F5F4217530787
:1042E000D4F3AA8DBB8D18962C91D10118969C9170
:1042F0009227AA8DBB8D18969C9385FB222720F9C7
:10430000482F4295469546954270422784FB2227C6
:1043100020F92427B4E08B9FA0011124422B20E038
:10432000842F877090E0622F70E02F5F6817790705
:10433000D4F3AA8DBB8D19969C91D10119968C91BD
:104340008927AA8DBB8D19968C9345FB882780F908
:10435000242F2295269526952270282744FB88270E
:1043600080F98227B4E04B9F90011124282B30E084
:10437000822F877090E0432F50E03F5F4817590726
:10438000D4F3AA8DBB8D1A969C91D1011A968C916B
:104390008927AA8DBB8D1A968C9325FB662760F919
:1043A000822F8295869586958270862724FB6627C4
:1043B00060F96827B4E02B9FC0011124862B90E0A0
:1043C000282F277030E0492F50E09F5F4217530796
:1043D000D4F3AA8DBB8D1B962C91D1011B969C9179
:1043E0009227AA8DBB8D1B969C9385FB442740F991
:1043F000682F6295669566956270642784FB4427F2
:1044000040F94627B4E08B9FB0011124642B20E0D3
:10441000862F877090E0422F50E02F5F4817590792
:10442000D4F3AA8DBB8D1C969C91D1011C968C91C6
:104430008927AA8DBB8D1C968C9365FB882780F9F4
:10444000462F4295469546954270482764FB88273B
:1044500080F98427B4E06B9FA0011124482B20E051
:10446000842F877090E0622F70E02F5F68177907C4
:10447000D4F3AA8DBB8D1D969C91D1011D968C9174
:104480008927AA8DBB8D1D968C9345FB662760F905
:10449000842F8295869586958270862744FB6627B1
:1044A00060F96827B4E04B9FC0011124862B90E08F
:1044B000282F277030E0492F50E09F5F42175307A5
:1044C000D4F3AA8DBB8D1E962C91D1011E969C9182
:1044D0009227AA8DBB8D1E969C9385FB442740F99D
:1044E000682F6295669566956270642784FB442701
:1044F00040F94627B4E08B9FB0011124642B20E0E3
:10450000862F877090E0422F50E02F5F48175907A1
:10451000D4F3AA8DBB8D1F969C91D1011F968C91CF
:104520008927AA8DBB8D1F968C9365FB882780F900
:10453000462F4295469546954270482764FB88274A
:1045400080F98427B4E06B9FA0011124482B40938D
:10455000D62920E04770842F90E031E0320F422FBF
:1045600050E04817590714F4232FF7CF2093B429AC
:1045700090818091B5298927819329813A81E21719
:10458000F307B1F70C9476329C918091B529892775
:104590008D9349815A81A417B507B1F79091D62917
:1045A00095FB882780F9292F22952695269522703C
:1045B000282794FB882780F9822754E0959F900153
:1045C0001124282B2093D62930E02770822F90E0E9
:1045D00021E0230F432F50E04817590714F4322FDE
:1045E000F7CF3093B429AA8DBB8D9C91892F8F7002
:1045F000A92FA295AF70E0E1AE9FD0011124A80FC2
:10460000B11DAE5CBD4D8C91AA8DBB8D8C939091EC
:10461000D62995FB882780F9292F2295269526955E
:104620002270282794FB882780F98227B4E09B9F7B
:1046300090011124282B30E0822F877090E0432FC7
:1046400050E03F5F48175907D4F3EA8DFB8D918105
:10465000892F8F70A92FA295AF70F0E1AF9FD00185
:104660001124A80FB11DAE5CBD4D9C9025FB6627A3
:1046700060F9822F8295869586958270862724FB25
:10468000662760F9682734E0239FC0011124862B38
:1046900090E0282F277030E0492F50E09F5F4217AD
:1046A0005307D4F3AA8DBB8D12962C91922F9F7035
:1046B000A22FA295AF70E0E1AE9FD0011124A90F07
:1046C000B11DAE5CBD4D5C9185FB222720F9682FA2
:1046D0006295669566956270622784FB222720F9B1
:1046E0002627F4E08F9FB0011124622B20E0862F53
:1046F000877090E0A22FB0E02F5FA817B907D4F31E
:10470000AA8DBB8D13969C91892F8F70A92FA2958E
:10471000AF70E0E1AE9FD0011124A80FB11DAE5CD7
:10472000BD4D6C9065FB882780F9262F2295269534
:1047300026952270282764FB882780F98227F4E0D9
:104740006F9F90011124282B30E0822F877090E01A
:10475000632F70E03F5F68177907D4F3AA8DBB8D94
:1047600014969C91892F8F70A92FA295AF70E0E1CC
:10477000AE9FD0011124A80FB11DAE5CBD4D0C91B0
:10478000AA8DBB8D14960C9325FB882780F9622F88
:104790006295669566956270682724FB882780F984
:1047A0006827B4E02B9FC0011124862B90E0282FAE
:1047B000277030E0692F70E09F5F62177307D4F3B2
:1047C000EA8DFB8D2581922F9F70A22FA295AF704D
:1047D000F0E1AF9FD0011124A90FB11DAE5CBD4D1A
:1047E000BC9085FB222720F9982F92959695969557
:1047F0009270922784FB662760F9292F262734E0E0
:10480000839FB0011124622B40E0862F877090E0D7
:10481000242F30E04F5F28173907D4F3AA8DBB8DC2
:1048200016969C91892F8F70A92FA295AF70E0E109
:10483000AE9FD0011124A80FB11DAE5CBD4D8C9070
:1048400065FB222720F9962F929596959695927062
:10485000922764FB222720F9892F8227F4E06F9F9B
:1048600090011124282B80E0622F677070E0E82E01
:10487000F12C8F5FE616F706D4F3AA8DBB8D179641
:104880009C91892F8F70A92FA295AF70E0E1AE9F08
:10489000D0011124A80FB11DAE5CBD4D4C9125FB7C
:1048A000882780F9322F3295369536953270382721
:1048B00024FB882780F93827F4E02F9FC0011124BA
:1048C000382B20E0832F877090E0622F70E02F5FFD
:1048D00068177907D4F3AA8DBB8D18969C91892F00
:1048E0008F70A92FA295AF70E0E1AE9FD001112487
:1048F000A80FB11DAE5CBD4D7C91AA8DBB8D1896E5
:104900007C9335FBAA27A0F9932F929596959695BF
:1049100092709A2734FBAA27A0F9A927B4E03B9FFD
:10492000C00111249A2F982B80E0292F2770E22EA6
:10493000F12CC82ED12C8F5FCE14DF04D4F3EA8D76
:10494000FB8D2185822F8F70A22FA295AF70F0E191
:10495000AF9FD0011124A80FB11DAE5CBD4D1C91BD
:1049600095FB222720F9A92FA295A695A695A270BE
:10497000A22794FB222720F92A2734E0939FD00115
:104980001124922F9A2B80E0292F2770E22EF12CF0
:10499000C82ED12C8F5FCE14DF04D4F3AA8DBB8D2B
:1049A0001A962C91822F8F70A22FA295AF70E0E102
:1049B000AE9FD0011124A80FB11DAE5CBD4DEC908F
:1049C00095FB882780F9292F229526952695227018
:1049D000282794FB882780F98227F4E09F9F900185
:1049E0001124282B30E0822F877090E0C32ED12C29
:1049F0003F5FC816D906D4F3AA8DBB8D1B969C9138
:104A0000892F8F70A92FA295AF70E0E1AE9FD001E2
:104A10001124A80FB11DAE5CBD4D7C9025FB66270F
:104A200060F9822F8295869586958270862724FB71
:104A3000AA27A0F9A827F4E02F9FC00111246A2F0C
:104A4000682B20E0862F8770C82ED12C822F90E013
:104A50002F5F8C159D05D4F3AA8DBB8D1C969C9160
:104A6000892F8F70A92FA295AF70E0E1AE9FD00182
:104A70001124A80FB11DAE5CBD4DAC90AA8DBB8DAD
:104A80001C96AC9265FB332730F9A62FA295A6950C
:104A9000A695A270A32764FB222720F92A27E4E029
:104AA0006E9FD0011124322F3A2B80E0932F977004
:104AB000C92ED12CA82FB0E08F5FAC15BD05D4F363
:104AC000AA8DBB8D1D969C91892F8F70A92FA295C1
:104AD000AF70E0E1AE9FD0011124A80FB11DAE5C14
:104AE000BD4D6C9135FB992790F9232F2295269582
:104AF00026952270292734FB882780F98227F4E045
:104B00003F9F90011124982F922B80E0292F27702E
:104B1000C22ED12C282F30E08F5F2C153D05D4F309
:104B2000AA8DBB8D1E962C91822F8F70A22FA295DD
:104B3000AF70E0E1AE9FD0011124A80FB11DAE5CB3
:104B4000BD4D5C9095FB332730F9892F8295869572
:104B500086958270832794FBAA27A0F9A827F4E002
:104B60009F9FC00111243A2F382B20E0832F87709C
:104B7000C82ED12C822F90E02F5F8C159D05D4F389
:104B8000AA8DBB8D1F969C91892F8F70A92FA295FE
:104B9000AF70E0E1AE9FD0011124A80FB11DAE5C53
:104BA000BD4DFC9035FB222720F9A32FA295A69599
:104BB000A695A270A22734FB222720F92A27F4E029
:104BC0003F9FD0011124A22BB0E08A2F877090E084
:104BD0002B2F30E0BF5F28173907D4F3A5FBDD2466
:104BE000D0F82A2F22952695269522702D25A4FBF4
:104BF000882780F9822794E0A99F90011124D82E5C
:104C0000D22AA0E08D2D877090E02A2F30E0AF5F90
:104C100028173907D4F3AA8DBB8D1196BC92119732
:104C200015961C93159719966C9319971D969C923F
:104C3000D5FABB27B0F98D2D829586958695827021
:104C40008B27D4FAAA27A0F9A827B4E0DB9EC001DD
:104C50001124EA2FE82BA0E08E2F877090E02A2FF6
:104C600030E0AF5F28173907D4F3AA8DBB8D1296B9
:104C7000EC9212971A965C931A9716965C92169776
:104C80001E968C92E5FB992790F9AE2FA295A695DA
:104C9000A695A270A927E4FB222720F92A27F4E091
:104CA000EF9FD0011124922F9A2B80E0292F27709B
:104CB00030E0A82FB0E08F5FA217B307D4F3AA8D1E
:104CC000BB8D1396FC9213971F967C921F971B9691
:104CD0004C931B9717966C9295FB882780F9292F88
:104CE0002295269526952270282794FB882780F9FF
:104CF0008227B4E09B9F90011124282B2093D62972
:104D0000A0E02770822F90E0B1E0BA0F2A2F30E0A8
:104D10002817390714F4AB2FF7CFA093B429D1018A
:104D2000A056BF4FEA8DFB8D90818C91892780839F
:104D30002091D62925FB882780F9922F9295969568
:104D400096959270982724FB332730F9D32ED926D5
:104D5000F4E02F9FC00111249D2D982B80E0292F76
:104D6000277030E0C82ED12C8F5FC216D306D4F343
:104D700011968C911197B826EA8DFB8DB18295FB27
:104D8000222720F9892F8295869586958270822721
:104D900094FBBB24B0F8B826F4E09F9FC001112417
:104DA000B82A80E02B2D277030E0C82ED12C8F5FE1
:104DB000C216D306D4F312968C911297E826EA8D88
:104DC000FB8DE282B5FA882780F99B2D9295969506
:104DD000969592709827B4FAEE24E0F8E926F4E06C
:104DE000BF9EC0011124E82A80E02E2D277030E0FC
:104DF000C82ED12C8F5FC216D306D4F313968C9194
:104E00001397F826EA8DFB8DF382E5FA882780F95F
:104E10009E2D92959695969592709827E4FADD24AA
:104E2000D0F8D926F4E0EF9EC0011124D82A80E002
:104E30002D2D277030E0E82EF12C8F5FE216F3065F
:104E4000D4F314968C9114970827EA8DFB8D048374
:104E5000D5FA882780F99D2D929596959695927012
:104E60009827D4FA002700F90927F4E0DF9EC00153
:104E70001124082B80E0202F277030E0E82EF12C41
:104E80008F5FE216F306D4F315968C9115971827C9
:104E9000EA8DFB8D158305FB882780F9902F92956D
:104EA000969596959270982704FB222720F929273A
:104EB000F4E00F9FC0011124922F982B80E0292F3E
:104EC000277030E0082F10E08F5F02171307D4F32C
:104ED00016968C9116978525EA8DFB8D868395FB1A
:104EE000882780F9192F1295169516951270182794
:104EF00094FB882780F91827F4E09F9FC0011124B4
:104F0000812B90E0282F277030E0092F10E09F5F61
:104F100002171307D4F317969C9117979625EA8DDD
:104F2000FB8D978385FB112710F9982F9295969505
:104F300096959270912784FB222720F92927F4E087
:104F40008F9FC0011124122F182B80E0212F277072
:104F500030E0E82EF12C8F5FE216F306D4F31896BA
:104F60008C9118977827EA8DFB8D708715FB992710
:104F700090F9812F8295869586958270892714FBFA
:104F8000222720F92827F4E01F9FC0011124922F27
:104F9000982B80E0292F277030E0082F10E08F5FDA
:104FA00002171307D4F319968C9119976827EA8D85
:104FB000FB8D618795FB882780F9292F22952695FF
:104FC00026952270282794FB882780F98227F4E011
:104FD0009F9F90011124282B80E0622F677070E062
:104FE000082F10E08F5F06171707D4F31A968C91DD
:104FF0001A975827EA8DFB8D528725FB992790F940
:10500000822F8295869586958270892724FB332787
:1050100030F93827F4E02F9FC0011124832B90E052
:10502000282F277030E0692F70E09F5F62177307A9
:10503000D4F31B969C911B974927EA8DFB8D4387E0
:1050400085FB222720F9482F4295469546954270C8
:10505000422784FB222720F92427F4E08F9FA00118
:105060001124422B20E0842F877090E0622F70E0A3
:105070002F5F68177907D4F31C968C911C97A8268C
:10508000EA8DFB8DA48645FB882780F9242F229585
:10509000269526952270282744FB882780F98227A9
:1050A000F4E04F9F90011124282B30E0822F87706D
:1050B00090E0432F50E03F5F48175907D4F31D9607
:1050C0008C911D979826EA8DFB8D958625FB4427AC
:1050D00040F9822F8295869586958270842724FBDD
:1050E000442740F94827F4E02F9FC0011124842B66
:1050F00090E0282F277030E0492F50E09F5F421743
:105100005307D4F31E969C911E978926EA8DFB8D3A
:10511000868685FB222720F9482F4295469546959D
:105120004270422784FB222720F92427F4E08F9F36
:10513000A0011124422B20E0842F877090E0622F81
:1051400070E02F5F68177907D4F31F968C9178264B
:10515000AA8DBB8D1F967C9245FB882780F9242F52
:105160002295269526952270282744FB882780F9CA
:105170008227B4E04B9F90011124282B2093D6293D
:1051800030E02770822F90E021E0230F432F50E082
:105190004817590714F4322FF7CF3093B429EB8115
:1051A000FC8190818091B52989278193EB83FC83D1
:1051B00029813A81E217F30791F70C9476322B8319
:1051C0003C83F90190818091B52989278193698178
:1051D0007A81E617F707B1F79091D62995FB8827D2
:1051E00080F9692F6295669566956270682794FBD1
:1051F000882780F98627A4E09A9FB0011124682BA4
:105200006093D62950E06770862F90E0E1E0E50FCB
:10521000652F70E06817790714F45E2FF7CF50936D
:10522000B429AA8DBB8DEC918E2F8F70E295EF7013
:10523000B0E1EB9FF0011124E80FF11DEE5CFD4D94
:105240008081EA8DFB8D80839091D62995FB66271E
:1052500060F9892F8295869586958270862794FBC2
:10526000662760F98627F4E09F9FB0011124862B02
:1052700090E0A82FA770B0E0692F70E09F5F6A17D9
:105280007B07D4F3AA8DBB8D1196EC919E2F9F7056
:10529000E295EF70B0E1EB9FF0011124E90FF11DF1
:1052A000EE5CFD4D5081588785FBEE27E0F9982F85
:1052B00092959695969592709E2784FBEE27E0F93D
:1052C000E92764E0869FC00111248E2B90E0682FAF
:1052D000677070E0E92FF0E09F5FE617F707D4F3FF
:1052E000AA8DBB8D1296EC919E2F9F70E295EF7068
:1052F000B0E1EB9FF0011124E90FF11DEE5CFD4DD3
:105300005081598785FB992790F9E82FE295E6951A
:10531000E695E270E92784FB662760F96E2774E062
:10532000879FF0011124962F9E2B80E0692F6770D4
:1053300070E0E82FF0E08F5FE617F707D4F3AA8D4F
:10534000BB8D1396EC918E2F8F70E295EF70B0E1CC
:10535000EB9FF0011124E80FF11DEE5CFD4D708014
:1053600095FB882780F9692F62956695669562702E
:10537000682794FB882780F98627E4E09E9FB00188
:105380001124682B50E0862F877090E0E52FF0E025
:105390005F5FE817F907D4F3AA8DBB8D1496EC91E3
:1053A0008E2F8F70E295EF70B0E1EB9FF00111242A
:1053B000E80FF11DEE5CFD4D50815A8765FB992782
:1053C00090F9862F8295869586958270892764FB51
:1053D000552750F9582774E0679FC0011124652FA5
:1053E000682B80E0E62FE770F0E0A82FB0E08F5F39
:1053F000AE17BF07D4F3AA8DBB8D1596EC918E2FF7
:105400008F70E295EF70B0E1EB9FF0011124E80F8F
:10541000F11DEE5CFD4D50815B8765FB992790F98E
:10542000562F5295569556955270592764FB8827EA
:1054300080F9852794E0699FB0011124982F962B5D
:1054400080E0692F677070E0A82FB0E08F5FA6172B
:10545000B707D4F3EA8DFB8DA6818A2F8F70A295B2
:10546000AF70F0E1AF9FD0011124A80FB11DAE5C69
:10547000BD4D5C915C8795FB552750F9892F82952E
:10548000869586958270852794FB552750F9582775
:1054900064E0969FC0011124582B60E0852F87702F
:1054A00090E0A62FB0E06F5FA817B907D4F3EA8D9C
:1054B000FB8DA7818A2F8F70A295AF70F0E1AF9F0F
:1054C000D0011124A80FB11DAE5CBD4D6C916D874C
:1054D00055FBEE27E0F9852F82958695869582709B
:1054E0008E2754FBEE27E0F9E82774E0579FC001B0
:1054F00011248E2B90E0A82FA770B0E0692F70E0E8
:105500009F5F6A177B07D4F3EA8DFB8DA0859A2FE6
:105510009F70A295AF70F0E1AF9FD0011124A90F49
:10552000B11DAE5CBD4D5C915D8385FB662760F966
:10553000E82FE295E695E695E270E62784FB66277C
:1055400060F96E2774E0879FF0011124E62B80E05C
:10555000AE2FA770B0E0682F70E08F5F6A177B07EF
:10556000D4F3AA8DBB8D19969C91892F8F70A92F8A
:10557000A295AF70F0E1AF9FD0011124A80FB11D2B
:10558000AE5CBD4D8C90E5FB882780F96E2F62954F
:105590006695669562706827E4FB882780F9862700
:1055A00054E0E59FB0011124682B80E0A62FA7707E
:1055B000B0E0E82FF0E08F5FEA17FB07D4F3EA8D45
:1055C000FB8DA2858A2F8F70A295AF70F0E1AF9FFF
:1055D000D0011124A80FB11DAE5CBD4D6C9065FBD0
:1055E000EE27E0F9862F82958695869582708E2724
:1055F00064FBEE27E0F9E82754E0659FC001112421
:105600008E2B90E0A82FA770B0E0692F70E09F5F0D
:105610006A177B07D4F3EA8DFB8DA3859A2F9F70C1
:10562000A295AF70F0E1AF9FD0011124A90FB11D79
:10563000AE5CBD4D5C915E8385FB662760F9E82F0B
:10564000E295E695E695E270E62784FB662760F929
:105650006E2774E0879FF0011124E62B80E0AE2FC7
:10566000A770B0E0682F70E08F5F6A177B07D4F3F4
:10567000AA8DBB8D1C969C91892F8F70A92FA29506
:10568000AF70F0E1AF9FD0011124A80FB11DAE5C47
:10569000BD4D5C915F83E5FB882780F96E2F629595
:1056A0006695669562706827E4FB882780F98627EF
:1056B00094E0E99FB0011124682B80E0A62FA77029
:1056C000B0E0E82FF0E08F5FEA17FB07D4F3EA8D34
:1056D000FB8DA5858A2F8F70A295AF70F0E1AF9FEB
:1056E000D0011124A80FB11DAE5CBD4DAC9065FB7F
:1056F000EE27E0F9862F82958695869582708E2713
:1057000064FBEE27E0F9E82754E0659FC00111240F
:105710008E2B90E0A82FA770B0E0692F70E09F5FFC
:105720006A177B07D4F3EA8DFB8DA6859A2F9F70AD
:10573000A295AF70F0E1AF9FD0011124A90FB11D68
:10574000AE5CBD4D9C9085FB662760F9E82FE29525
:10575000E695E695E270E62784FB662760F96E27FA
:1057600054E0859FF0011124E62B80E0AE2FA77056
:10577000B0E0682F70E08F5F6A177B07D4F3AA8DC3
:10578000BB8D1F969C91892F8F70A92FA295AF700A
:10579000F0E1AF9FD0011124A80FB11DAE5CBD4D4B
:1057A0001C91E5FBFF27F0F96E2F629566956695D3
:1057B00062706F27E4FB882780F9862754E0E59F15
:1057C000B0011124F82FF62B50E08F2F877090E056
:1057D000652F70E05F5F68177907D4F3F5FB5527F5
:1057E00050F98F2F82958695869582708527F4FBD8
:1057F000EE27E0F9E82764E0F69FC00111245E2F50
:10580000582BE0E0852F877090E06E2F70E0EF5FFF
:1058100068177907D4F355FB662760F9E52FE29501
:10582000E695E695E270E62754FB662760F96E2759
:1058300074E0579FF0011124E62B50E08E2F877003
:1058400090E0652F70E05F5F68177907D4F3E5FBA0
:10585000552750F96E2F629566956695627065279B
:10586000E4FB882780F9862794E0E99FB0011124A2
:10587000582F562BE0E0852F877090E06E2F70E058
:10588000EF5F68177907D4F355FBFF24F0F8852FF5
:1058900082958695869582708F2554FBFF24F0F8BB
:1058A000F826A4E05A9FC0011124F82AF092D629C4
:1058B00050E08F2D877090E0E1E0E50F652F70E0FC
:1058C0006817790714F45E2FF7CF2E8B3F8B4D8B23
:1058D0002B8A3C8A5093B429EA8DFB8D0081802F5E
:1058E0000E945A05382EF5FACC24C0F88F2D8295E7
:1058F000869586958270C826F4FA882780F9C8268E
:10590000F4E0FF9EC0011124FC2CF82A40E08F2D0A
:10591000877090E0242F30E04F5F28173907D4F3C9
:105920008B850E945A058E87F5FACC24C0F88F2DFE
:105930008295869586958270C826F4FADD24D0F883
:10594000CD2424E0F29EC0011124C82A40E08C2D11
:10595000877090E0242F30E04F5F28173907D4F389
:10596000862D0E945A05282EC5FADD24D0F88C2DEC
:105970008295869586958270D826C4FAFF24F0F821
:10598000FD2434E0C39E60011124DF2CDC2840E0BC
:105990008D2D877090E0242F30E04F5F2817390756
:1059A000D4F3812F0E945A05482ED5FAFF24F0F82F
:1059B0008D2D8295869586958270F826D4FAEE24F0
:1059C000E0F8FE2444E0D49EC0011124F82A40E00F
:1059D0008F2D877090E0242F30E04F5F2817390714
:1059E000D4F38A850E945A058F87F5FAEE24E0F8F1
:1059F0008F2D8295869586958270E826F4FACC24C0
:105A0000C0F8EC2454E0F59EC0011124E82A40E0DF
:105A10008E2D877090E0242F30E04F5F28173907D4
:105A2000D4F3882D0E945A05582EE5FACC24C0F8EC
:105A30008E2D8295869586958270C826E4FADD249F
:105A4000D0F8CD2464E0E69E70011124CE2840E019
:105A50008C2D877090E0242F30E04F5F2817390796
:105A6000D4F3892D0E945A05888BC5FADD24D0F81D
:105A70008C2D8295869586958270D826C4FAFF244F
:105A8000F0F8FD2474E0C79E60011124DF2CDC28AF
:105A900040E08D2D877090E0242F30E04F5F281775
:105AA0003907D4F3872D0E945A05898BD5FAFF2434
:105AB000F0F88D2D8295869586958270F826D4FA19
:105AC000EE24E0F8FE24A4E0DA9EC0011124F82AB6
:105AD00040E08F2D877090E0242F30E04F5F281733
