:100000000C94E4000C9405010C9405010C9405017A
:100010000C9405010C9405010C9405010C94050148
:100020000C9405010C9405010C9405010C94050138
:100030000C9405010C9405010C9405010C94050128
:100040000C9405010C9405010C9405010C94050118
:100050000C9405010C9405010C9405010C94050108
:100060000C9405010C9405010C9405010C940501F8
:100070000C9405010C9405010C9405010C940501E8
:100080000C9405010C9405010C9405010C940501D8
:100090000C9405010C9405010C9405010C940501C8
:1000A0000C9405010C9405010C9405010C940501B8
:1000B0000C9405010C9405010C9405010C940501A8
:1000C0000C9405010C9405010C9405010C94050198
:1000D0000C9405010C9405010C9405010C94050188
:1000E0000C9405010C9405010C9405010C94050178
:1000F0000C9405010C9405010C9405010C94050168
:100100000C9405010C9405010C9405010C94050157
:100110000C9405010C9405010C9405010C94050147
:100120000C9405010C9405010C9405010C94050137
:100130000C9405010C9405010C9405010C94050127
:100140000C9405010C9405010C9405010C94050117
:100150000C9405010C9405010C9405010C94050107
:100160000C9405010C9405010C9405010C940501F7
:100170000C9405010C9405010C9405010C940501E7
:100180000C9405010C9405010C9405010C940501D7
:100190000C9405010C9405010C9405010C940501C7
:1001A0000C9405010C9405010C9405010C940501B7
:1001B0000C9405010C9405010C9405010C940501A7
:1001C0000C9405010C94050111241FBECFEFDFE351
:1001D000DEBFCDBF00E00CBF11E2A0E0B0E2EAEA72
:1001E000FAE000E00BBF02C007900D92A232B10707
:1001F000D9F711E2A2E2B1E201C01D92A43FB1071A
:10020000E1F70E9420040C9453050C940000CF9356
:10021000DF93C42FD52FA0E0B0E0A617B707F0F406
:10022000FC01EA0FFB1F20812A3328F0206230E016
:100230002755310903C030E020533109E181EA3309
:1002400028F0E062F0E0E755F10902C0F0E0F09735
:100250002295207FE22BE9931296DFCFCA01DF912E
:10026000CF9108951F93CF93DF93DA0111969C01EC
:10027000260F371F82179307B9F0EC01FC0111918B
:10028000CF01E12FE295EF70F0E0E050F04E1081E9
:10029000FD0131971083E881EF70F0E0E050F04EFF
:1002A000E081EC931296E6CF660F771FFA01E60F16
:1002B000F71F1082DF91CF911F910895E0E4F6E0DF
:1002C00088E0818384E08283E0EAF8E083E085834C
:1002D0008BE0868317828481806184838481886037
:1002E00084830895CF93DF931F921F92CDB7DEB71B
:1002F00069837A8320E030E049815A8124173507E9
:1003000069F04091A10847FF06C02091A008FC01B8
:10031000208381E004C02F5F3F4FEECF80E00F903D
:100320000F90DF91CF9108958091A10887FFFCCFB6
:100330008091A00808959091A10895FFFCCF80932B
:10034000A0080895FC01608371834283148613869C
:10035000168615860895FC0162830895FC01958533
:1003600026859F5F937081E0921301C080E008951D
:100370000F931F93CF93DF931F92CDB7DEB78C01FE
:1003800069830E94AE0169818823A9F0D8011D9676
:100390009C911D97F801E90FF11D67839F5F937092
:1003A000F80195870190F081E02D93819C7F129652
:1003B0002C91922B93830F90DF91CF911F910F91EE
:1003C0000895FC012385948581E0291301C080E014
:1003D0000895FC018485DF01A80FB11D13968C914F
:1003E00094859F5F937094870895FC0183858F5F48
:1003F00083702485A081B1819C91821749F0238567
:10040000DF01A20FB11D13969C93838781E00895AD
:1004100080E00895CF93DF93FC0186859585A081C8
:10042000B181981307C013968C9113978C7F139604
:100430008C930AC08685EF01C80FD11D8F818C93E4
:1004400086858F5F83708687DF91CF910895FC0149
:10045000848170FF02C0816001C08E7F84836083CD
:100460000895FC01848180FF04C0808190E0916048
:100470000895808190E008951092520010925500E6
:10048000809150008860809350008091510083FFDC
:10049000FCCF88ED84BF83E08093400088E08093A8
:1004A000500080E6809301068093050608952F9200
:1004B0003F924F925F926F927F928F929F92AF92F4
:1004C000BF92CF92DF92EF92FF920F931F93CF9341
:1004D000DF93CDB7DEB7A097CDBFDEBF7E0181E150
:1004E000E80EF11C84ECC82E81E2D82E8E010F5F3D
:1004F0001F4F3E01E1E26E0E711C580146012701BB
:1005000017010E94E304F20161932F01F40181912C
:100510004F01F50181935F014614570491F7A4EC54
:10052000B1E2F70191917F018C91E92FE827F0E08A
:10053000EF5DFF4D80818D93F1E2A43DBF0789F708
:10054000F80181918F01F60181936F010215130566
:10055000B9F7A096CDBFDEBFDF91CF911F910F916C
:10056000FF90EF90DF90CF90BF90AF909F908F90D3
:100570007F906F905F904F903F902F900895A4EEE2
:10058000B1E2E4ECF1E28D9190818927819381E2DF
:10059000E43DF807C1F70895A4ECB1E2EC91F0E076
:1005A000EF5DFF4D80818D9381E2A43DB807B1F7E7
:1005B0000895E4ECF1E281819581918391859583A1
:1005C00095859187858782859281928782838685AA
:1005D0009681968786838381978593839385978772
:1005E0009781938787830895982F880F97FF03C07B
:1005F0009BE18927089500000000000008956F9294
:100600007F928F929F92AF92BF92CF92DF92EF92A2
:10061000FF920F931F93CF93DF9304EC11E285ECCD
:10062000A82E81E2B82E96ECC92E91E2D92E27ECA5
:10063000E22E21E2F22EF801D081F5017080F60160
:100640006080F7019080872D8D27892C8624C82D06
:10065000C8270E94F4029C2F9827F80180819827D0
:100660009083862D87250E94F4029C2F9827F50100
:10067000808198279083882D0E94F4029C2F9827D0
:10068000F601808198279083892D8D270E94F4029E
:100690008C27F701C0818C2780830C5F1F4FF4E00B
:1006A000AF0EB11C84E0C80ED11CE4E0EE0EF11CCC
:1006B000F1E2043D1F0709F0BECFDF91CF911F91FA
:1006C0000F91FF90EF90DF90CF90BF90AF909F90F1
:1006D0008F907F906F900895CF93DF93E4EEF1E2D7
:1006E00065854685A42FB0E0AF5DBF4D7C919785B1
:1006F000A92FB0E0AF5DBF4D5C91A485CA2FD0E0BB
:10070000CF5DDF4DB881C62FD0E0CF5DDF4D3881A2
:1007100083273081832780833181732771833281DE
:100720005327528323812B27238334818327848378
:100730003581732775833681532756833781232765
:10074000278330858327808731857327718732859A
:1007500053275287338523272387A827A487672712
:1007600065874527468792279787DF91CF91089520
:100770000F931F93CF93DF93C4ECD1E28B01A4EED0
:10078000B1E29C01205F3F4FFC014191CF014993B1
:10079000F80141918F014D9382179307A9F70E94A9
:1007A00057020E94BF02C0E1D0E20E94CC020E9428
:1007B000D9020E94FF0289910E946C030E94BF022D
:1007C000F0E2C931DF0789F70E94CC020E94D9020A
:1007D000809119200E946C030E94BF0284EC91E278
:1007E000DF91CF911F910F9108950895E4EDF1E20B
:1007F00020E12E0FDC013D91CD0131932E13FACF74
:100800000895CF93DF93D82FC92F64ED71E20E9432
:10081000B8038093C2219093C321ED2FFC2F80E079
:1008200090E0A091C221B091C321A80FB91F2C91D3
:100830002193019680319105A1F7DF91CF91089521
:100840000E943C020E945E0181E0809301060E94AA
:10085000F50382E291E20E94F60310E0C0E0D0E0EE
:10086000FF24F3940E949401883711F410E003C030
:100870008B3621F411E0C0E0D0E0F4CF803711F4E2
:1008800012E0F9CF1130B1F4FE01EE5CFE4D8A307A
:1008900019F08D3009F047C0108242E251E2BE01EA
:1008A00082E391E20E94070182E291E20E94F60354
:1008B00010E0D8CF1230B1F68A3011F08D3069F5E2
:1008C000FE01EE5CFE4D108242E751E2BE0182E382
:1008D00091E20E940701F092050682E791E20E94F0
:1008E0000104F092060642E351E260E170E082E723
:1008F00091E20E94320182E70E949B0102E311E231
:10090000F80181918F010E949B01F1E202351F07DE
:10091000B9F78AE00E949B01CBCFC034D10544F6E1
:10092000FE01EE5CFE4D808321969CCF8F929F92BC
:10093000AF92BF92CF92DF92EF92FF92CF93DF936D
:10094000EC01688179818A819B816115710581053E
:10095000910521F464E279ED8BE597E02DE133EF29
:1009600041E050E00E94030549015A019B01AC019E
:10097000A7EAB1E40E94F0046B017C01ACEEB4EF95
:10098000A50194010E94FE04DC01CB018C0D9D1D8C
:10099000AE1DBF1DB7FF03C00197A109B0488883F2
:1009A0009983AA83BB83BC01CD019F77DF91CF914F
:1009B000FF90EF90DF90CF90BF90AF909F908F907F
:1009C00008950C9496048DE190E20C949604609343
:1009D0001D2070931E2080931F2090932020089547
:1009E0000E942205A59F900DB49F900DA49F800D9D
:1009F000911D11240895B7FF0C94F0040E94F00497
:100A0000821B930B0895052E97FB1EF400940E9401
:100A10001A0557FD07D00E94310507FC03D04EF49C
:100A20000C941A0550954095309521953F4F4F4FA6
:100A30005F4F089590958095709561957F4F8F4F8A
:100A40009F4F0895A29FB001B39FC001A39F700D57
:100A5000811D1124911DB29F700D811D1124911DC6
:100A60000895A1E21A2EAA1BBB1BFD010DC0AA1FEF
:100A7000BB1FEE1FFF1FA217B307E407F50720F007
:100A8000A21BB30BE40BF50B661F771F881F991F82
:100A90001A9469F760957095809590959B01AC01CB
:0A0AA000BD01CF010895F894FFCFC7
:100AAA00303132333435363738394142434445469A
:100ABA0001020408102040801B366CD8AB010000EC
:100ACA0000637C777BF26B6FC53001672BFED7AB77
:100ADA0076CA82C97DFA5947F0ADD4A2AF9CA472F6
:100AEA00C0B7FD9326363FF7CC34A5E5F171D8316E
:100AFA001504C723C31896059A071280E2EB27B29A
:100B0A007509832C1A1B6E5AA0523BD6B329E32FC0
:100B1A008453D100ED20FCB15B6ACBBE394A4C58F4
:100B2A00CFD0EFAAFB434D338545F9027F503C9F56
:100B3A00A851A3408F929D38F5BCB6DA2110FFF375
:100B4A00D2CD0C13EC5F974417C4A77E3D645D19A0
:100B5A007360814FDC222A908846EEB814DE5E0B61
:100B6A00DBE0323A0A4906245CC2D3AC629195E4CE
:100B7A0079E7C8376D8DD54EA96C56F4EA657AAE19
:100B8A0008BA78252E1CA6B4C6E8DD741F4BBD8BA7
:100B9A008A703EB5664803F60E613557B986C11D9F
:100BAA009EE1F8981169D98E949B1E87E9CE552843
:100BBA00DF8CA1890DBFE6426841992D0FB054BB65
:020BCA00160013
:00000001FF
