:100000000C94F9000C941A010C941A010C941A0126
:100010000C941A010C941A010C941A010C941A01F4
:100020000C941A010C941A010C941A010C941A01E4
:100030000C941A010C941A010C941A010C941A01D4
:100040000C941A010C941A010C941A010C941A01C4
:100050000C941A010C941A010C941A010C941A01B4
:100060000C941A010C941A010C941A010C941A01A4
:100070000C941A010C941A010C941A010C941A0194
:100080000C941A010C941A010C941A010C941A0184
:100090000C941A010C941A010C941A010C941A0174
:1000A0000C941A010C941A010C941A010C941A0164
:1000B0000C941A010C941A010C941A010C941A0154
:1000C0000C941A010C941A010C941A010C941A0144
:1000D0000C941A010C941A010C941A010C941A0134
:1000E0000C941A010C941A010C941A010C941A0124
:1000F0000C941A010C941A010C941A010C941A0114
:100100000C941A010C941A010C941A010C941A0103
:100110000C941A010C941A010C941A010C941A01F3
:100120000C941A010C941A010C941A010C941A01E3
:100130000C941A010C941A010C941A010C941A01D3
:100140000C941A010C941A010C941A010C941A01C3
:100150000C941A010C941A010C941A010C941A01B3
:100160000C941A010C941A010C941A010C941A01A3
:100170000C941A010C941A010C941A010C941A0193
:100180000C941A010C941A010C941A010C941A0183
:100190000C941A010C941A010C941A010C941A0173
:1001A0000C941A010C941A010C941A010C941A0163
:1001B0000C941A010C941A010C941A010C941A0153
:1001C0000C941A010C941A01614766476B477047FB
:1001D00075477A477F470C947A470C946B470C9489
:1001E00075470C947F470C9470470C9466470C94A9
:1001F000614711241FBECFEFDFE3DEBFCDBF00E0BC
:100200000CBF14E2A0E0B0E2E8E8F3E900E00BBFC5
:1002100002C007900D92A232B107D9F716E2A2E20E
:10022000B4E201C01D92A134B107E1F70E94FA4780
:100230000C94C2490C940000CF93DF93C42FD52FA8
:10024000A0E0B0E0A617B707F0F4FC01EA0FFB1F2F
:1002500020812A3328F0206230E02755310903C07D
:1002600030E020533109E181EA3328F0E062F0E028
:10027000E755F10902C0F0E0F0972295207FE22BCC
:10028000E9931296DFCFCA01DF91CF9108951F93B2
:10029000CF93DF93DA0111969C01260F371F821747
:1002A0009307B9F0EC01FC011191CF01E12FE29528
:1002B000EF70F0E0E050F04E1081FD0131971083B7
:1002C000E881EF70F0E0E050F04EE081EC931296A0
:1002D000E6CF660F771FFA01E60FF71F1082DF9156
:1002E000CF911F910895E0E4F6E088E0818384E0F7
:1002F0008283E0EAF8E083E085838BE086831782DF
:100300008481806184838481886084830895CF930D
:10031000DF931F921F92CDB7DEB769837A8320E007
:1003200030E049815A812417350769F04091A108CE
:1003300047FF06C02091A008FC01208381E004C093
:100340002F5F3F4FEECF80E00F900F90DF91CF9166
:1003500008958091A10887FFFCCF8091A00808959F
:100360009091A10895FFFCCF8093A0080895FC010F
:1003700060837183428314861386168615860895DA
:10038000FC0162830895FC01958526859F5F93702B
:1003900081E0921301C080E008950F931F93CF93E3
:1003A000DF931F92CDB7DEB78C0169830E94C30132
:1003B00069818823A9F0D8011D969C911D97F801A9
:1003C000E90FF11D67839F5F9370F8019587019096
:1003D000F081E02D93819C7F12962C91922B938338
:1003E0000F90DF91CF911F910F910895FC0123850C
:1003F000948581E0291301C080E00895FC01848583
:10040000DF01A80FB11D13968C9194859F5F9370A7
:1004100094870895FC0183858F5F83702485A08174
:10042000B1819C91821749F02385DF01A20FB11D94
:1004300013969C93838781E0089580E00895CF937D
:10044000DF93FC0186859585A081B181981307C053
:1004500013968C9113978C7F13968C930AC0868584
:10046000EF01C80FD11D8F818C9386858F5F8370BC
:100470008687DF91CF910895FC01848170FF02C0CF
:10048000816001C08E7F848360830895FC01848134
:1004900080FF04C0808190E091600895808190E0A9
:1004A000089510925200109255008091500088607B
:1004B000809350008091510083FFFCCF88ED84BF72
:1004C00083E08093400088E08093500080E6809332
:1004D0000106809305060895DF92EF92FF920F9335
:1004E0001F93CF93DF93FC019B01205F3F4FDC0103
:1004F000EB014991BE014D93C217D307C9F7BC0167
:10050000635F7F4F08E110E2AC01425F5F4F9C01E7
:10051000215F3F4FDC011C9681E0E801E9908E01EC
:100520009081E926EB019881C92FD0E0CE5DDC4DAA
:100530009881E926E08AEA019881C92FD0E0CE5D52
:10054000DC4DF8809181F926F18AE9019881C92F63
:10055000D0E0CE5DDC4DD8819281DD2ED926D28AC5
:10056000CC91D0E0CE5DDC4DC88193819C27938BEC
:10057000C481EC26E48AC581FC26F58AC681DD2D7E
:10058000DC27D68BC7819C27978BC085EC26E08E15
:10059000C185FC26F18EC285DD2EDC26D28EC38578
:1005A0009C27938FCC91EC26E48EEB01E880FE240F
:1005B000F58EEA01F880DD2DDF25D68FE901F88080
:1005C0009F25978F8F5F605F7F4F7096405F5F4F73
:1005D000205F3F4F50968B3009F09FCFDF91CF9136
:1005E0001F910F91FF90EF90DF900895509140265A
:1005F00053FB332730F9252F221F2227221F2327C1
:10060000352F32953F70452F4295469547704327C9
:100610004170322F3427252F220F232B2093402681
:1006200040E02E7030E051E0540FE42FF0E0E2178C
:10063000F30714F4452FF7CF40937F25DB01FC012E
:10064000AC01405F5F4F8D919081892781933091FC
:10065000402633FB992790F9832F881F8827881F0E
:100660008927932F92959F70232F22952695277087
:1006700029272170982F9227832F880F892B809309
:10068000402620E08E7090E031E0320F622F70E063
:100690006817790714F4232FF7CF20937F25E417E9
:1006A000F50789F608955091402653FB332730F91A
:1006B000252F221F2227221F2327352F32953F70F7
:1006C000452F42954695477043274170322F342776
:1006D000252F220F232B2093402640E02E7030E060
:1006E00051E0540FE42FF0E0E217F30714F4452F24
:1006F000F7CF40937F2561307105B1F5FC01AC0166
:10070000405F5F4FA081B0E0AE5DBC4D8C918193A6
:100710003091402633FB992790F9832F881F882733
:10072000881F8927932F92959F70232F22952695B6
:10073000277029272170982F9227832F880F892BC4
:100740008093402620E08E7090E031E0320F622FDF
:1007500070E06817790714F4232FF7CF20937F25D3
:10076000E417F50779F6089562307105F1F5DC01BB
:10077000AC01405F5F4FEC918E2F8F70E295EF7070
:1007800090E1E99FF0011124E80FF11DEE5DFD4DB0
:1007900080818D933091402633FB992790F9832FE8
:1007A000881F8827881F8927932F92959F70232F52
:1007B00022952695277029272170982F9227832F1D
:1007C000880F892B8093402620E08E7090E031E0E6
:1007D000320F622F70E06817790714F4232FF7CFD8
:1007E00020937F25A417B50731F60895FC014091A9
:1007F000402643FB332730F9842F881F8827881F22
:100800003827942F92959F70242F22952695277034
:1008100029272170932F9227342F330F392B20E073
:10082000832F8E7090E0422F50E02F5F48175907BA
:10083000D4F3818195819183918595839585918765
:10084000858733FB992790F9832F881F8827881F76
:100850008927932F92959F70232F22952695277095
:1008600029272170982F9227832F880F892B90E0BA
:10087000282F2E7030E0492F50E09F5F421753071A
:10088000D4F39281228522839287968126852683BE
:10089000968783FB222720F9982F991F9927991F64
:1008A0009227382F32953F70282F22952695277052
:1008B000232721709227880F892B8093402620E0E0
:1008C0008E7090E031E0320F422F50E04817590708
:1008D00014F4232FF7CF20937F258381978593836B
:1008E000938597879781938787830895FC0140912B
:1008F000402643FB332730F9842F881F8827881F21
:100900003827942F92959F70242F22952695277033
:1009100029272170932F9227342F330F392B20E072
:10092000832F8E7090E0422F50E02F5F48175907B9
:10093000D4F384819581948396819583978196835E
:10094000878333FB992790F9832F881F8827881F77
:100950008927932F92959F70232F22952695277094
:1009600029272170982F9227832F880F892B90E0B9
:10097000282F2E7030E0492F50E09F5F4217530719
:10098000D4F39085228520879287918523852187BE
:10099000938783FB222720F9982F991F9927991F66
:1009A0009227382F32953F70282F22952695277051
:1009B000232721709227880F892B8093402620E0DF
:1009C0008E7090E031E0320F422F50E04817590707
:1009D00014F4232FF7CF20937F2584859785948760
:1009E00096859787958596878587089587FF04C0A4
:1009F000880F9BE189270895880F08959F92AF92F1
:100A0000BF92CF92DF92EF92FF920F931F93CF93FB
:100A1000DF93CDB7DEB7A097CDBFDEBF7C015C0111
:100A2000CE0101966C018E010F5E1F4F80E1982E62
:100A3000900EF50181915F01F80181938F010E9471
:100A4000F604F60181936F019012F3CFDE01549604
:100A5000AE014C5F5F4F5701F3E0AF0EB11CBE011A
:100A60006C5D7F4F8091402683FB222720F9982FD1
:100A7000991F9927991F2927982F92959F70382F92
:100A800032953695377039273170922F9327282F5A
:100A9000220F292B2093402680E02E7030E091E039
:100AA000980F082F10E00217130714F4892FF7CFBF
:100AB00080937F25CA010397FC01E0800196FC0129
:100AC00090819D0122503109F901F0802F5F3F4F45
:100AD000F90130818C918501035011092E2D2927B0
:100AE00028272F252327F80120838D010350110982
:100AF000F80120818A0101501109F801D080850197
:100B0000025011099327982792279D25F801908379
:100B1000FA0190810F5F1F4F89278F2582278D252E
:100B2000F8018083FE24F9263F252327F501208341
:100B300014964C5F5F4FF4E0AF0EB11CA617B707D9
:100B400009F090CFA096CDBFDEBFDF91CF911F916E
:100B50000F91FF90EF90DF90CF90BF90AF909F905C
:100B600008952F923F924F925F926F927F928F9251
:100B70009F92AF92BF92CF92DF92EF92FF920F932C
:100B80001F93CF93DF93CDB7DEB72A97CDBFDEBFDC
:100B900089879A87DC011496AC90149718962C904C
:100BA00018971C96BC901C971596FC901597199653
:100BB0003C9019971D96CC901D9716960C91169700
:100BC0001A964C901A971E96DC901E9717961C91B9
:100BD00017971B965C901B971F96EC901F976C9134
:100BE00011965C91119712964C91129713963C9125
:100BF000262F2A25952F9F25B42FB027B983E32FC1
:100C0000E127EA8369847A844301F0E18F0E911C25
:100C1000D3018C912F833E834D835C836B839887B4
:100C20000E94F604F30181933F012F813E814D81A3
:100C30005C816B819885E815F90551F7A985BA851E
:100C40006C9011968C91119712969C901297139616
:100C50008C90A0914026A3FBEE27E0F97A2F771F16
:100C60007727771FE727FA2FF295FF707A2F729573
:100C700076957770F727F1707E2F7F27EA2FEE0F9A
:100C8000E72BE093402670E0EE70F0E07724739459
:100C9000770EA72FB0E0AE17BF0714F4772DF6CF6D
:100CA00070937F25E985FA857480A224AB24708136
:100CB000A726A724A082A580F324FC24F826FA24E2
:100CC000F182F68004250D2509250F250283078171
:100CD00015251E25182510271383A0914026A3FB58
:100CE000EE27E0F97A2F771F7727771F7E27FA2FD5
:100CF000F295FF70EA2FE295E695E770FE27F17016
:100D0000E72FEF277A2F770F7E2B10E0E72FEE707B
:100D1000F0E0A12FB0E01F5FAE17BF07D4F3A985A5
:100D2000BA851896EC911897FB2DF2256F27762639
:100D30007E2614967C9214971996FC9119976C2D27
:100D400063255627A526AF261596AC9215971A96B9
:100D5000AC901A975D2D54254527F426FA24169653
:100D6000FC9216971B96FC901B974E2D4525342719
:100D700003270F2517960C9373FB442740F9372F51
:100D8000331F3327331F3427472F42954F70572F78
:100D9000529556955770452741703427770F372B5A
:100DA00010E0432F4E7050E0612F70E01F5F64171A
:100DB0007507D4F3A985BA851C961C911C97BE268D
:100DC000B126B2261896BC9218971D96EC911D97E5
:100DD000CF26CE26C9261996CC9219971E96FC913D
:100DE0001E97DA24DF264981D4261A96DC921A97B8
:100DF0001F960C911F97EF24E0264A81E4261B964C
:100E0000EC9233FB552750F9432F441F4427441FCE
:100E10005427432F42954F70632F629566956770F4
:100E2000462741705427330F352B30934026B0E0CE
:100E30003E70432F50E031E03B0F6B2F70E06417A2
:100E4000750714F4B32FF7CFB0937F2526242126FE
:100E50002225A985BA851C962C931C9738263E26F8
:100E600093251D969C931D9749244F26498144261E
:100E70001E964C921E97582450264A8154261F963F
:100E80005C922A96CDBFDEBFDF91CF911F910F916B
:100E9000FF90EF90DF90CF90BF90AF909F908F909A
:100EA0007F906F905F904F903F902F900895FC013E
:100EB00081819481918384838281908592838087CC
:100EC00083819485938384878681918596838187A6
:100ED0008781958597838587838596859387868780
:100EE0000895CF93DF93DC01FB013091402633FB63
:100EF000992790F9832F881F8827881F8927932F88
:100F000092959F70232F229526952770292721706F
:100F1000982F9227832F880F892B8093402620E0DB
:100F20008E7090E031E0320F422F50E048175907A1
:100F300014F4232FF7CF20937F25858190E08E5DD9
:100F40009F4DC081D0E09E012E5D3E4DEC01988109
:100F5000E90188818927C285D0E0CE5DDC4D98818A
:100F60008927C785D0E0CE5DDC4D988189278C9399
:100F7000858190E08E5D9E4DC081D0E09E012E5D0A
:100F80003C4DEC019881E90188818927C285D0E038
:100F9000CE5DDF4D98818927C785D0E0CE5DDC4DE1
:100FA0009881892711968C931197858190E08E5DA9
:100FB0009C4DC081D0E09E012E5D3C4DEC0198819E
:100FC000E90188818927C285D0E0CE5DDE4D988118
:100FD0008927C785D0E0CE5DDF4D9881892712969D
:100FE0008C931297858190E08E5D9C4DC081D0E0FE
:100FF0009E012E5D3F4DEC019881E9018881892792
:10100000C285D0E0CE5DDC4D98818927C785D0E0D0
:10101000CE5DDE4D9881892713968C93139740916E
:10102000402643FB992790F9842F881F8827881F23
:101030009827242F22952F70342F329536953770AC
:1010400032273170292F2327942F990F922B80E07C
:10105000292F2E7030E0482F50E08F5F4217530742
:10106000D4F3218530E02E5D3F4DC481D0E0AE0148
:101070004E5D5E4DE9012881EA0188818227C6859F
:10108000D0E0CE5DDC4D28818227C381D0E0CE5DEB
:10109000DC4D2881822714968C931497218530E0AB
:1010A0002E5D3E4DC481D0E0AE014E5D5C4DE90148
:1010B0002881EA0188818227C685D0E0CE5DDF4D98
:1010C00028818227C381D0E0CE5DDC4D2881822734
:1010D00015968C931597218530E02E5D3C4DC4818B
:1010E000D0E0AE014E5D5C4DE9012881EA018881C6
:1010F0008227C685D0E0CE5DDE4D28818227C38160
:10110000D0E0CE5DDF4D2881822716968C9316970E
:10111000218530E02E5D3C4DC481D0E0AE014E5DB6
:101120005F4DE9012881EA0188818227C685D0E0E8
:10113000CE5DDC4D28818227C381D0E0CE5DDE4DBF
:101140002881822717968C93179793FB222720F9E3
:10115000892F881F8827881F8227392F32953F7053
:10116000292F229526952770232721708227990FF2
:10117000892B90E0282F2E7030E0492F50E09F5FA0
:1011800042175307D4F3258530E02E5D3F4DC085CF
:10119000D0E0AE014E5D5E4DE9012881EA01988103
:1011A0009227C281D0E0CE5DDC4D28819227C78195
:1011B000D0E0CE5DDC4D2881922718969C9318973D
:1011C000258530E02E5D3E4DC085D0E0AE014E5D00
:1011D0005C4DE9012881EA0198819227C281D0E023
:1011E000CE5DDF4D28819227C781D0E0CE5DDC4DFA
:1011F0002881922719969C931997258530E02E5DBA
:101200003C4DC085D0E0AE014E5D5C4DE9012881CA
:10121000EA0198819227C281D0E0CE5DDE4D28811F
:101220009227C781D0E0CE5DDF4D288192271A96A4
:101230009C931A97258530E02E5D3C4DC085D0E00B
:10124000AE014E5D5F4DE9012881EA019881922748
:10125000C281D0E0CE5DDC4D28819227C781D0E0ED
:10126000CE5DDE4D288192271B969C931B9783FBB6
:10127000222720F9982F991F9927991F9227382FF5
:1012800032953F70282F22952695277023272170AD
:101290009227880F892B8093402620E08E7090E063
:1012A00031E0320F422F50E04817590714F4232F32
:1012B000F7CF20937F25818190E08E5D9F4DC4857F
:1012C000D0E09E012E5D3E4DEC019881E9018881C0
:1012D0008927C681D0E0CE5DDC4D98818927C38502
:1012E000D0E0CE5DDC4D988189271C968C931C97AD
:1012F000818190E08E5D9E4DC485D0E09E012E5D83
:101300003C4DEC019881E90188818927C681D0E0B4
:10131000CE5DDF4D98818927C385D0E0CE5DDC4D61
:10132000988189271D968C931D97818190E08E5D11
:101330009C4DC485D0E09E012E5D3C4DEC01988112
:10134000E90188818927C681D0E0CE5DDE4D988194
:101350008927C385D0E0CE5DDF4D988189271E9611
:101360008C931E97818190E08E5D9C4DC485D0E06A
:101370009E012E5D3F4DEC019881E901888189270E
:10138000C681D0E0CE5DDC4D98818927E385F0E011
:10139000EE5DFE4D908189271F968C93DF91CF9152
:1013A0000895FF920F931F93CF93DF93442321F16E
:1013B000F42E8B01EC018AE048130CC061E070E070
:1013C000CE010E945303CE010E94F603B80160567D
:1013D0007F4F11C061E070E0CE010E945303CE0147
:1013E0000E94F603CE010E94FE04B80180E1F89E3F
:1013F000600D711D1124CE01DF91CF911F910F91CE
:10140000FF900C94F6022F923F924F925F926F9250
:101410007F928F929F92AF92BF92CF92DF92EF9284
:10142000FF920F931F93CF93DF93CDB7DEB76597EE
:10143000CDBFDEBFFC016F87788B809140264423AF
:10144000F1F04A3011F00C942D1283FB222720F981
:10145000982F991F9927991F9227382F32953F70FF
:10146000282F229526952770232721709227880FF1
:10147000892B8093402620E08E7090E099C283FBF8
:10148000222720F9982F991F9927991F9227382FE3
:1014900032953F70282F229526952770232721709B
:1014A0009227880F892B8093402620E08E7090E051
:1014B00031E0320F422F50E04817590714F4232F20
:1014C000F7CF20937F259081AF85B8898C918927AC
:1014D00080835091402653FB442740F9852F881F75
:1014E0008827881F4827852F82958F70952F929582
:1014F0009695977098279170842F8927452F440FD0
:10150000482B20E0842F8E7090E0622F70E02F5FD8
:1015100068177907D4F39181AF85B88911968C91BA
:101520008927818343FB332730F9842F881F88273D
:10153000881F3827842F82958F70942F92959695C7
:10154000977098279170832F8927342F330F382B6A
:1015500020E0832F8E7090E0422F50E02F5F4817DD
:101560005907D4F39281AF85B88912968C91892757
:10157000828333FB222720F9832F881F8827881F27
:101580002827832F82958F70932F92959695977029
:1015900098279170822F8927232F220F282B30E044
:1015A000822F8E7090E0432F50E03F5F481759071D
:1015B000D4F39381AF85B88913968C91892783835F
:1015C00023FB552750F9822F881F8827881F58270B
:1015D000822F82958F70922F92959695977098276B
:1015E0009170852F8927522F550F582B20E0852F7A
:1015F0008E7090E0622F70E02F5F68177907D4F348
:101600009481AF85B88914968C918927848353FB84
:10161000442740F9852F881F8827881F4827852F52
:1016200082958F70952F92959695977098279170C7
:10163000842F8927452F440F482B20E0842F8E705C
:1016400090E0622F70E02F5F68177907D4F39581DF
:10165000AF85B88915968C918927858343FB3327FD
:1016600030F9842F881F8827881F3827842F829578
:101670008F70942F92959695977098279170832FDD
:101680008927342F330F382B20E0832F8E7090E082
:10169000422F50E02F5F48175907D4F39681AF854A
:1016A000B88916968C918927868333FB222720F9E7
:1016B000832F881F8827881F2827832F82958F7064
:1016C000932F92959695977098279170822F8927DE
:1016D000232F220F282B30E0822F8E7090E0432F93
:1016E00050E03F5F48175907D4F39781AF85B88919
:1016F00017968C918927878323FB552750F9822FD2
:10170000881F8827881F5827822F82958F70922FD5
:1017100092959695977098279170852F8927522FCB
:10172000550F582B20E0852F8E7090E0622F70E0CF
:101730002F5F68177907D4F39085AF85B88918961D
:101740008C918927808753FB442740F9852F881F78
:101750008827881F4827852F82958F70952F92950F
:101760009695977098279170842F8927452F440F5D
:10177000482B20E0842F8E7090E0622F70E02F5F66
:1017800068177907D4F39185AF85B88919968C913C
:101790008927818743FB332730F9842F881F8827C7
:1017A000881F3827842F82958F70942F9295969555
:1017B000977098279170832F8927342F330F382BF8
:1017C00020E0832F8E7090E0422F50E02F5F48176B
:1017D0005907D4F39285AF85B8891A968C918927D9
:1017E000828733FB222720F9832F881F8827881FB1
:1017F0002827832F82958F70932F929596959770B7
:1018000098279170822F8927232F220F282B30E0D1
:10181000822F8E7090E0432F50E03F5F48175907AA
:10182000D4F39385AF85B8891B968C9189278387DC
:1018300023FB552750F9822F881F8827881F582798
:10184000822F82958F70922F9295969597709827F8
:101850009170852F8927522F550F582B20E0852F07
:101860008E7090E0622F70E02F5F68177907D4F3D5
:101870009485AF85B8891C968C918927848753FB02
:10188000442740F9852F881F8827881F4827952FD0
:1018900092959F70252F22952695277029272170D4
:1018A000942F9227452F440F492B20E0842F8E70D0
:1018B00090E0622F70E02F5F68177907D4F3958569
:1018C000AF85B8891D968C918927858743FB33277F
:1018D00030F9842F881F8827881F3827942F9295E6
:1018E0009F70242F22952695277029272170932FEA
:1018F0009227342F330F392B20E0832F8E7090E006
:10190000422F50E02F5F48175907D4F39685AF85D3
:10191000B8891E968C918927868733FB992790F981
:10192000832F881F8827881F8927932F92959F7060
:10193000232F22952695277029272170982F9227EB
:10194000832F880F892B90E0282F2E7030E0492FAD
:1019500050E09F5F42175307D4F32785AF85B889BE
:101960001F969C919227978783FB222720F9982F17
:10197000991F9927991F9227382F32953F70282F4A
:10198000229526952770232721709227880F892B6F
:101990008093402620E08E7090E031E0320F422F9D
:1019A00050E04817590714F00C94FC18232FF5CF7A
:1019B00031E0320F422F50E04817590714F4232F1B
:1019C000F7CF20937F25808190E08E5D9C4DDC01D8
:1019D0008C9180834091402643FB552750F9842FFA
:1019E000881F8827881F5827842F82958F70942FEF
:1019F00092959695977098279170852F8927542FE7
:101A0000550F582B20E0852F8E7090E0622F70E0EC
:101A10002F5F68177907D4F3818190E08E5D9C4D2C
:101A2000DC019C9053FB332730F9852F881F8827D2
:101A3000881F3827852F82958F70952F92959695C0
:101A4000977098279170832F8927352F330F382B64
:101A500020E0832F8E7090E0422F50E02F5F4817D8
:101A60005907D4F3828190E08E5D9C4DDC01EC90AF
:101A700033FB222720F9832F881F8827881F2827D8
:101A8000832F82958F70932F9295969597709827B4
:101A90009170822F8927232F220F282B30E0822F4D
:101AA0008E7090E0432F50E03F5F48175907D4F302
:101AB000838190E08E5D9C4DDC016C9123FB44277B
:101AC00040F9822F881F8827881F4827822F8295F8
:101AD0008F70922F92959695977098279170842F7A
:101AE0008927422F440F482B20E0842F8E7090E0EE
:101AF000A22FB0E02F5FA817B907D4F3848190E03C
:101B00008E5D9C4DDC015C90548243FB552750F95F
:101B1000842F881F8827881F5827842F82958F70CD
:101B2000942F92959695977098279170852F892775
:101B3000542F550F582B20E0852F8E7090E0022FE8
:101B400010E02F5F08171907D4F3858190E08E5DB0
:101B50009C4DDC01FC9053FB332730F9852F881F07
:101B60008827881F3827852F82958F70452F4295AB
:101B70004695477048274170832F8427352F330FB0
:101B8000382B20E0832F8E7090E0422F50E02F5FA3
:101B900048175907D4F3868190E08E5D9C4DDC0197
:101BA0008C9033FB222720F9832F881F8827881FDA
:101BB0002827832F82958F70432F42954695477033
:101BC000842781702827330F232B30E0822F8E70DB
:101BD00090E0432F50E03F5F48175907D4F38781C7
:101BE00090E08E5D9C4DDC01BC9023FB992790F921
:101BF000822F881F8827881F9827822F82958F70B1
:101C0000322F329536953770382731709327220F4F
:101C1000922B80E0292F2E7030E0482F50E08F5F0C
:101C200042175307D4F3208530E02E5D3C4DD90197
:101C30005C91508793FB222720F9892F881F8827E2
:101C4000881F8227392F32953F70292F229526959C
:101C50002770232721708227990F892B90E0282F46
:101C60002E7030E0092F10E09F5F02171307D4F3A6
:101C7000218530E02E5D3C4DD9014C9083FB4427FB
:101C800040F9982F991F9927991F4927982F9295C6
:101C90009F70282F229526952770922791704927AB
:101CA000880F482B80E0242F2E7030E0082F10E0A2
:101CB0008F5F02171307D4F3828590E08E5D9C4DF1
:101CC000DC010C9143FB772770F9842F881F88274C
:101CD000881F7827842F82958F70242F2295269530
:101CE0002770282721707227842F880F782B40E0D7
:101CF000872F8E7090E0242F30E04F5F2817390730
:101D0000D4F3838590E08E5D9C4DDC017C9073FB69
:101D1000442740F9872F881F8827881F4827272FA7
:101D200022952F70372F32953695377023272170E3
:101D3000942F9227872F880F482F492B70E0842FEC
:101D40008E7090E0272F30E07F5F28173907D4F39B
:101D5000248530E02E5D3C4DD901AC90A48643FB38
:101D6000772770F9842F881F8827881F7827842F6A
:101D700082958F70342F32953695377038273170B1
:101D8000872F8327942F990F792F782B40E0872F67
:101D90008E7090E0242F30E04F5F28173907D4F37E
:101DA000858590E08E5D9C4DDC014C9173FB112785
:101DB00010F9872F881F8827881F1827272F22951B
:101DC0002F70372F32953695377032273170212F8B
:101DD0002327872F880F182F122B70E0812F8E70EA
:101DE00090E0272F30E07F5F28173907D4F38685EE
:101DF00090E08E5D9C4DDC017C9113FBDD24D0F8DE
:101E0000812F881F8827881FD826912F92959F7031
:101E1000312F329536953770392731709D2D9327A4
:101E2000212F220FD22ED92A10E08D2D8E7090E016
:101E3000212F30E01F5F28173907D4F3878590E002
:101E40008E5D9C4DDC011C91D3FACC24C0F88D2D05
:101E5000881F8827881FC8269D2D92959F703D2D2D
:101E600032953695377039273170C3269D2D990FDD
:101E7000C92AD12C8C2D8E7090E02D2D30E0D3947A
:101E800028173907D4F3C3FADD24D0F88C2D881F26
:101E90008827881FD8262C2D22952F703C2D32950F
:101EA00036953770322731702D2D23278C2D880FD2
:101EB000D82ED22AC12C8D2D8E7090E02C2D30E0A2
:101EC000C39428173907D4F3F18245824187958658
:101ED000D3FA662460F88D2D881F8827881F68260E
:101EE0009D2D92959F703D2D3295369537703927EF
:101EF0003170962D93272D2D220F622E692A80E0B6
:101F0000262D2E7030E0C82ED12C8F5FC216D3063E
:101F1000D4F30283E2867683868663FA992790F962
:101F2000862D881F8827881F8927962D92959F7058
:101F3000262D229526952770292721708227962DF8
:101F4000990F892B90E0282F2E7030E0C92ED12CCC
:101F50009F5FC216D306D4F313837786B386678355
:101F600083FB222720F9982F991F9927991F9227E1
:101F7000382F32953F70282F2295269527702327DA
:101F800021709227880F892B80934026D12C8E7048
:101F900090E0CC24C394CD0C2D2D30E028173907C8
:101FA00014F4DC2CF6CFD0927F25AF85B889A056EB
:101FB000BF4F90818C91892780836090402663FA7F
:101FC000CC24C0F8862D881F8827881FC826862D18
:101FD00082958F70D62CD294D69497E0D9228D25F5
:101FE00081703C2D3827262D220FC22EC32AD12CDA
:101FF0008C2D8E7090E02D2D30E0D394281739076A
:10200000D4F311968C911197F826F182C3FADD244E
:10201000D0F88C2D881F8827881FD8269C2D929554
:102020009F703C2D329536953770392731709D2D34
:1020300093272C2D220FD22ED92AF12C8D2D8E7084
:1020400090E02F2D30E0F39428173907D4F312963F
:102050008C91129708270283D3FAFF24F0F88D2D74
:10206000881F8827881FF8268D2D82958F702D2D2B
:10207000229526952770282721708F2D82279D2D48
:10208000990FF92EF82A00E08F2D8E7090E0202F06
:1020900030E00F5F28173907D4F313968C9113970C
:1020A00018271383F3FA002700F98F2D881F88273C
:1020B000881F08271F2D12951F702F2D22952695FA
:1020C000277021272170102F12278F2D880F082F9E
:1020D000012B10E0802F8E7090E0212F30E01F5FE9
:1020E00028173907D4F314968C9114978525848387
:1020F00003FB112710F9802F881F8827881F1827B6
:10210000902F92959F70802F829586958770892752
:1021100081701827000F102B00E0812F8E7090E047
:10212000202F30E00F5F28173907D4F315968C91D4
:1021300015978425858313FB992790F9812F881F94
:102140008827881F9827212F22952F70812F82950D
:1021500086958770822781708927110F182B00E0E0
:10216000812F8E7090E0202F30E00F5F2817390705
:10217000D4F316968C9116977827768313FB9927BC
:1021800090F9812F881F8827881F292F2827812FC2
:1021900082958F70912F9295969597709827917050
:1021A000822F8927110F182B70E0812F8E7090E0FD
:1021B000272F30E07F5F28173907D4F317968C91CB
:1021C00017976827678313FB772770F9812F881F7C
:1021D0008827881F7827812F82958F70912F92955D
:1021E0009695977098279170872F8927712F770F71
:1021F000782B60E0872F8E7090E0262F30E06F5FA5
:1022000028173907D4F318968C91189758275087B8
:1022100073FB662760F9872F881F8827881F682728
:10222000872F82958F70972F929596959770982704
:102230009170862F8927672F660F682B20E0862FE5
:102240008E7090E0022F10E02F5F08171907D4F36B
:1022500019968C9119974827418763FB332730F9EA
:10226000862F881F8827881F3827862F82958F7092
:10227000962F92959695977098279170832F89271E
:10228000362F330F382B20E0832F8E7090E0422FB3
:1022900050E02F5F48175907D4F31A968C911A977C
:1022A000E826E28633FB222720F9832F881F882720
:1022B000881F2827832F82958F70932F929596954C
:1022C000977098279170822F8927232F220F282B10
:1022D00030E0822F8E7090E0432F50E03F5F481730
:1022E0005907D4F31B968C911B97B826B38623FB12
:1022F000552750F9822F881F8827881F5827822F3B
:1023000082958F70922F92959695977098279170DD
:10231000852F8927522F550F582B20E0852F8E703F
:1023200090E0622F70E02F5F68177907D4F31C9656
:102330008C911C97A826A48653FB442740F9852F2F
:10234000881F8827881F4827952F92959F70252FD3
:1023500022952695277029272170942F9227452FA3
:10236000440F492B20E0842F8E7090E0622F70E0A4
:102370002F5F68177907D4F31D968C911D979826C7
:10238000958643FB332730F9842F881F8827881FC1
:102390003827942F92959F70242F22952695277089
:1023A00029272170932F9227342F330F392B20E0C8
:1023B000832F8E7090E0422F50E02F5F481759070F
:1023C000D4F31E968C911E978826868633FB992718
:1023D00090F9832F881F8827881F8927932F92952C
:1023E0009F70232F22952695277029272170982FDB
:1023F0009227832F880F892B90E0282F2E7030E0B2
:10240000492F50E09F5F42175307D4F31F969C91CA
:102410007926778683FB222720F9982F991F992701
:10242000991F9227382F32953F70282F2295269595
:102430002770232721709227880F892B80934026AD
:1024400020E08E7090E031E0320F422F50E04817CC
:1024500059070CF0D1C6232FF6CF83FB222720F992
:10246000982F991F9927991F9227382F32953F70DF
:10247000282F229526952770232721709227880FD1
:10248000892B8093402620E08E7090E031E0320F5F
:10249000622F70E06817790714F4232FF7CF209389
:1024A0007F25808190E08E5D9C4DDC018C91808346
:1024B0006091402663FB332730F9862F881F8827D9
:1024C000881F3827862F82958F70962F9295969524
:1024D000977098279170832F8927362F330F382BC9
:1024E00020E0832F8E7090E0622F70E02F5F6817DE
:1024F0007907D4F3818190E0DC01AE5DBC4D0C9195
:10250000098333FB222720F9832F881F8827881F00
:102510002827832F82958F70932F92959695977089
:1025200098279170822F8927232F220F282B30E0A4
:10253000822F8E7090E0632F70E03F5F68177907FD
:10254000D4F3828190E08E5D9C4DDC013C9023FBB6
:10255000552750F9822F881F8827881F5827822FD8
:1025600082958F70922F929596959770982791707B
:10257000852F8927522F550F582B20E0852F8E70DD
:1025800090E0622F70E02F5F68177907D4F38381A2
:1025900090E08E5D9C4DDC01DC9053FB662760F97A
:1025A000852F881F8827881F6827852F82958F7021
:1025B000952F92959695977098279170862F8927D9
:1025C000652F660F682B20E0862F8E7090E0A22F7B
:1025D000B0E02F5FA817B907D4F3848190E0DC0145
:1025E000AE5DBC4D0C910A8363FB332730F9862F17
:1025F000881F8827881F3827862F82958F70562F2F
:1026000052955695577058275170832F8527362F2E
:10261000330F382B20E0832F8E7090E0622F70E014
:102620002F5F68177907D4F3858190E08E5D9C4D0C
:10263000DC012C9033FB222720F9832F881F882769
:10264000881F2827832F82958F70532F5295569578
:102650005770852781702827330F232B30E0822F76
:102660008E7090E0632F70E03F5F68177907D4F3B6
:10267000868190E08E5D9C4DDC014C9023FB992778
:1026800090F9822F881F8827881F9827822F82958C
:102690008F70322F329536953770382731709327E7
:1026A000220F922B80E0292F2E7030E0682F70E0EF
:1026B0008F5F62177307D4F3278130E02E5D3C4DA6
:1026C000D901BC91BB8393FB222720F9892F881F56
:1026D0008827881F8227392F32953F70292F22950E
:1026E00026952770232721708227990F892B90E048
:1026F000282F2E7030E0692F70E09F5F62177307FC
:10270000D4F3208530E02E5D3C4DD9017C9083FBD5
:10271000662760F9982F991F9927991F6927982F85
:1027200092959F70282F2295269527709227917059
:102730006927880F682B80E0262F2E7030E0A82FA5
:10274000B0E08F5FA217B307D4F3818590E08E5D70
:102750009C4DDC015C9063FB552750F9862F881F48
:102760008827881F5827862F82958F70262F2295BD
:1027700026952770282721705227862F880F582BDF
:1027800060E0852F8E7090E0262F30E06F5F281775
:102790003907D4F3828590E08E5D9C4DDC01CC90AE
:1027A00053FB662760F9852F881F8827881F6827B5
:1027B000252F22952F70352F329536953770232788
:1027C0002170962F9227852F880F682F692B50E054
:1027D000862F8E7090E0252F30E05F5F2817390735
:1027E000D4F3838590E08E5D9C4DDC016C9063FB9F
:1027F000552750F9862F881F8827881F5827862F2E
:1028000082958F70362F3295369537703827317014
:10281000852F8327962F990F592F582B60E0852FEE
:102820008E7090E0262F30E06F5F28173907D4F3C1
:10283000848590E08E5D9C4DDC018C9053FB662777
:1028400060F9852F881F8827881F6827252F2295E4
:102850002F70352F32953695377032273170262FED
:102860002327852F880F682F622B50E0862F8E70CC
:1028700090E0252F30E05F5F28173907D4F3858576
:1028800090E08E5D9C4DDC01FC9063FB552750F978
:10289000862F881F8827881F5827962F92959F700C
:1028A000362F32953695377039273170952F93270B
:1028B000262F220F522F592B60E0852F8E7090E02B
:1028C000262F30E06F5F28173907D4F3868590E014
:1028D0008E5D9C4DDC01EC9053FB662760F9852FE3
:1028E000881F8827881F6827852F82958F70352F2E
:1028F00032953695377038273170862F8327952F7C
:10290000990F692F682B50E0862F8E7090E0252F4D
:1029100030E05F5F28173907D4F3878590E08E5D3C
:102920009C4DDC010C9163FB552750F9862F881FC5
:102930008827881F5827862F82958F70362F3295CB
:1029400036953770382731705327862F880F582BCC
:1029500060E0852F8E7090E0262F30E06F5F2817A3
:102960003907D4F353FB662760F9852F881F882722
:10297000881F6827952F92959F70352F3295369531
:10298000377039273170962F9327252F220F622F0A
:10299000692B50E0862F8E7090E0252F30E05F5F2E
:1029A00028173907D4F363FB552750F9862F881F62
:1029B0008827881F5827862F82958F70262F22956B
:1029C0002695277028272170852F8227962F990F0B
:1029D000592F582B60E0852F8E7090E0262F30E025
:1029E0006F5F28173907D4F353FB112710F9852F90
:1029F000881F8827881F1827952F92959F70852FED
:102A0000829586958770892781701827852F880F72
:102A1000182B1093402650E0812F8E7090E061E0DB
:102A2000650F252F30E02817390714F4562FF7CFFC
:102A3000498BEC8BFD8B50937F25B0808B2D0E94B2
:102A4000F604982F822D9B8B0E94F604982E8C2DD5
:102A50000E94F604A82E802F0E94F604682F8A8117
:102A60006A8B0E94F6048C83852D0E94F6048D8368
:102A70008E2D0E94F6048E838D2D0E94F6048F8386
:102A8000872D0E94F60488878F2D0E94F60489877F
:102A9000832D0E94F6048A878B810E94F6048B871F
:102AA000882D0E94F6048C8789810E94F6048D8708
:102AB000842D0E94F6048E87862D0E94F604B82F7E
:102AC00013FB442740F9812F881F8827881F482738
:102AD000212F22952F70812F8295869587708227CE
:102AE00081704827110F142B1093402620E01E7090
:102AF000412F50E06A899B8981E0820F30E02417E2
:102B0000350714F4282FF8CF8C2D8225282F202765
:102B100029272925EC89FD892083C026CB249C24E4
:102B20009A24918202250B25A026A626A282B826E9
:102B3000B926B626B3822091402623FB332730F9ED
:102B4000822F881F8827881F3827822F82958F70B1
:102B5000922F929596959770892781708327220FDF
:102B6000822B90E0282F2E7030E0492F50E09F5F9D
:102B700042175307D4F3C52CCD24CE240C81C02694
:102B80001D81C126EC89FD89C4827A817D25972F1C
:102B90009E25D12ED9260E81D026D5827525702767
:102BA0002F80272626821A815126E5249C81E9263A
:102BB0005F805E24578283FB662760F9982F991FF8
:102BC0009927991F6927282F22952F70982F929562
:102BD00096959770922791706927880F682B40E02F
:102BE000862F8E7090E0242F30E04F5F2817390732
:102BF000D4F35B815325752F7F25088570271985B0
:102C00007127EC89FD897087572551270A85502740
:102C100051874B8147254F2540271B8541274287F8
:102C2000372D33253F25988539273127338763FB97
:102C3000AA27A0F9862F881F8827881FA827862FF4
:102C400082958F70962F92959695977089278170AF
:102C5000A827660FA62B80E00A2F0E7010E0E82E42
:102C6000F12C8F5FE016F106D4F389818425682F5B
:102C700066250C8560271D856127EC89FD896487A1
:102C8000262D2425282521270E8520272587998173
:102C90009625982590279B27968788251C85812730
:102CA0008B278787A3FB112710F9BA2FBB1FBB27E0
:102CB000BB1FB1270A2F02950F701A2F1295169578
:102CC000177010271170B127AA0FAB2BA0934026C5
:102CD000F12CAE70B0E0EE24E394EF0C0F2D10E079
:102CE0000A171B0714F4FE2CF6CFF0927F25AF8550
:102CF000B8890989E0E10E9FA00DB11D1124EC896E
:102D0000FD8900811C91102710836090402663FA92
:102D1000882480F8162D111F1127111F8126162DCA
:102D200012951F70762C7294769407E07022172506
:102D30001170E82CE126F62CFF0C8F2C8E28712CBC
:102D4000082D0E7010E0E72CF12C7394E016F106BC
:102D5000D4F311961C9111979126EC89FD899182EB
:102D600083FA992490F8182D111F1127111F91260D
:102D7000182D12951F70E82CE294E694F7E0EF22EC
:102D80001E251170092D0127F82CFF0C9F2C902A6D
:102D9000812C092D0E7010E0E82CF12C8394E016A4
:102DA000F106D4F312960C911297A026EC89FD89B6
:102DB000A28293FAAA24A0F8192D111F1127111F1E
:102DC000A126092D02950F70F92CF294F694E7E0F4
:102DD000FE220F2501701A2D1027092D000FA02E9D
:102DE000A12A912C0A2D0E7010E0E92CF12C93945D
:102DF000E016F106D4F313961C911397B126EC89D3
:102E0000FD89B382A3FABB24B0F81A2D111F112734
:102E1000111FB126FA2CF2941FE0F122EA2CE29461
:102E2000E69407E0E0221F2D1E251170FB2CF126F1
:102E30001A2D110FB12EBF28A12C0B2D0E7010E0F2
:102E4000EA2CF12CA394E016F106D4F314961C910D
:102E50001497C126EC89FD89C482B3FACC24C0F84A
:102E60001B2D111F1127111FC1260B2D02950F704D
:102E70001B2D12951695177010271170C126BB0CCB
:102E8000CB28B12C0C2D0E7010E0EB2CF12CB39450
:102E9000E016F106D4F315961C911597D126EC890E
:102EA000FD89D582C3FADD24D0F81C2D111F11270E
:102EB000111FD1260C2D02950F701C2D1295169501
:102EC000177010271170D126CC0CDC28C12C0D2DC9
:102ED0000E7010E0EC2CF12CC394E016F106D4F344
:102EE00016961C9116971225EC89FD891683D3FA44
:102EF000002700F9FD2DFF1FFF27FF1F0F271D2DA6
:102F000012951F70FD2CF294F694F7E0FF221F2516
:102F1000117010270D2D000F012BF0E0102F1E70E7
:102F2000E12EF12CCF2ED12CFF5FCE14DF04D4F391
:102F30001796FC9117975F26EC89FD89578203FB52
:102F4000FF27F0F9E02FEE1FEE27EE1FFE27102FD0
:102F500012951F70F02EF294F694E7E0FE221F25E2
:102F60001170EF2FE127000FD02EDE2AE0E00D2DAB
:102F70000E7010E0EE2EF12CEF5FE016F106D4F3A8
:102F80001896EC9118977E27EC89FD897087D3FA03
:102F9000002700F97D2D771F7727771F07277D2DC5
:102FA00072957F70ED2DE295E695E770E727E17069
:102FB000702F7E270D2D000F072B70E0E02FEE7095
:102FC000F0E0E72EF12C7F5FEE16FF06D4F31996A2
:102FD0007C9119975727EC89FD89518703FB1127AD
:102FE00010F9502F551F5527551F1527502F529553
:102FF0005F70E02FE295E695E770E527E170512FCD
:103000005E27102F110F152B50E0E12FEE70F0E02E
:10301000E52EF12C5F5FEE16FF06D4F31A965C9155
:103020001A974527EC89FD89428713FBFF27F0F9A2
:10303000412F441F4427441FF427412F42954F70CE
:10304000E12FE295E695E770E427E1704F2F4E27D8
:10305000F12FFF0FFF2EF42A70E04F2D4E7050E03D
:10306000072F10E07F5F04171507D4F31B964C91D0
:103070001B973427EC89FD893387F3FA772770F99A
:103080003F2D331F3327331F73273F2D32953F705A
:10309000EF2DE295E695E770E327E170372F3E27A5
:1030A0007F2D770F732B30E0472F4E7050E0E32FCA
:1030B000F0E03F5FE417F507D4F31C963C911C97B2
:1030C0006327EC89FD89648773FB552750F9372FF7
:1030D000331F3327331F5327372F32953F70672F06
:1030E00062956695677063276170352F3627572F75
:1030F000550F532B30E0652F6E7070E0E32FF0E03A
:103100003F5FE617F707D4F31D963C911D972327E1
:10311000EC89FD89258753FB442740F9252F221F81
:103120002227221F4227252F22952F70352F3295D7
:103130003695377032273170242F2327452F440FBF
:10314000422B50E0242F2E7030E0652F70E05F5F3F
:1031500062177307D4F31E962C911E979227EC8961
:10316000FD89968743FB222720F9942F991F9927E1
:10317000991F9227242F22952F70342F3295369540
:10318000377032273170292F2327942F990F922BD4
:1031900040E0292F2E7030E0642F70E04F5F6217FF
:1031A0007307D4F31F962C918227AC89BD891F9693
:1031B0008C9393FB222720F9892F881F8827881F4B
:1031C0008227392F32953F70292F22952695277017
:1031D000232721708227990F982B9093402620E077
:1031E0009E70892F90E031E0320F422F50E0481757
:1031F000590714F4232FF7CF20937F256596CDBF71
:10320000DEBFDF91CF911F910F91FF90EF90DF9084
:10321000CF90BF90AF909F908F907F906F905F9076
:103220004F903F902F900895FF920F931F93CF934D
:10323000DF93442321F1F42E8B01EC018AE0481343
:103240000CC062E070E0CE010E945303CE010E94E8
:10325000F603B80160567F4F11C062E070E0CE0106
:103260000E945303CE010E94F603CE010E94FE0489
:10327000B80180E1F89E600D711D1124CE01DF912F
:10328000CF911F910F91FF900C94F6022F923F92D5
:103290004F925F926F927F928F929F92AF92BF9266
:1032A000CF92DF92EF92FF920F931F93CF93DF9312
:1032B000CDB7DEB76597CDBFDEBFFC016F87788BDA
:1032C000809140264423F1F04A3011F00C940322FF
:1032D00083FB222720F9982F991F9927991F92275E
:1032E000382F32953F70282F229526952770232757
:1032F00021709227880F892B8093402620E08E70C2
:1033000090E099C283FB222720F9982F991F9927D3
:10331000991F9227382F32953F70282F2295269596
:103320002770232721709227880F892B80934026AE
:1033300020E08E7090E031E0320F422F50E04817CD
:10334000590714F4232FF7CF20937F259081AF8561
:10335000B8898C91892780835091402653FB44275C
:1033600040F9852F881F8827881F4827852F829539
:103370008F70952F92959695977098279170842FBE
:103380008927452F440F482B20E0842F8E7090E032
:10339000622F70E02F5F68177907D4F39181AF85B2
:1033A000B88911968C918927818343FB332730F9A3
:1033B000842F881F8827881F3827842F82958F7035
:1033C000942F92959695977098279170832F8927BF
:1033D000342F330F382B20E0832F8E7090E0422F54
:1033E00050E02F5F48175907D4F39281AF85B88911
:1033F00012968C918927828333FB222720F9832F11
:10340000881F8827881F2827832F82958F70932FE6
:1034100092959695977098279170822F8927232FE0
:10342000220F282B30E0822F8E7090E0432F50E047
:103430003F5F48175907D4F39381AF85B889139636
:103440008C918927838323FB552750F9822F881F6E
:103450008827881F5827822F82958F70922F9295E8
:103460009695977098279170852F8927522F550F21
:10347000582B20E0852F8E7090E0622F70E02F5F38
:1034800068177907D4F39481AF85B88914968C9125
:103490008927848353FB442740F9852F881F882779
:1034A000881F4827852F82958F70952F9295969526
:1034B000977098279170842F8927452F440F482BA8
:1034C00020E0842F8E7090E0622F70E02F5F6817ED
:1034D0007907D4F39581AF85B88915968C918927A2
:1034E000858343FB332730F9842F881F8827881F63
:1034F0003827842F82958F70942F92959695977088
:1035000098279170832F8927342F330F382B20E091
:10351000832F8E7090E0422F50E02F5F481759079D
:10352000D4F39681AF85B88916968C9189278683C6
:1035300033FB222720F9832F881F8827881F2827FD
:10354000832F82958F70932F9295969597709827D9
:103550009170822F8927232F220F282B30E0822F72
:103560008E7090E0432F50E03F5F48175907D4F327
:103570009781AF85B88917968C918927878323FB1C
:10358000552750F9822F881F8827881F5827822F98
:1035900082958F70922F929596959770982791703B
:1035A000852F8927522F550F582B20E0852F8E709D
:1035B00090E0622F70E02F5F68177907D4F3908551
:1035C000AF85B88918968C918927808753FB44274B
:1035D00040F9852F881F8827881F4827852F8295C7
:1035E0008F70952F92959695977098279170842F4C
:1035F0008927452F440F482B20E0842F8E7090E0C0
:10360000622F70E02F5F68177907D4F39185AF853B
:10361000B88919968C918927818743FB332730F924
:10362000842F881F8827881F3827842F82958F70C2
:10363000942F92959695977098279170832F89274C
:10364000342F330F382B20E0832F8E7090E0422FE1
:1036500050E02F5F48175907D4F39285AF85B8899A
:103660001A968C918927828733FB222720F9832F92
:10367000881F8827881F2827832F82958F70932F74
:1036800092959695977098279170822F8927232F6E
:10369000220F282B30E0822F8E7090E0432F50E0D5
:1036A0003F5F48175907D4F39385AF85B8891B96B8
:1036B0008C918927838723FB552750F9822F881FF8
:1036C0008827881F5827822F82958F70922F929576
:1036D0009695977098279170852F8927522F550FAF
:1036E000582B20E0852F8E7090E0622F70E02F5FC6
:1036F00068177907D4F39485AF85B8891C968C91A7
:103700008927848753FB442740F9852F881F882702
:10371000881F4827952F92959F70252F22952695D3
:10372000277029272170942F9227452F440F492B6A
:1037300020E0842F8E7090E0622F70E02F5F68177A
:103740007907D4F39585AF85B8891D968C91892723
:10375000858743FB332730F9842F881F8827881FEC
:103760003827942F92959F70242F229526952770A5
:1037700029272170932F9227342F330F392B20E0E4
:10378000832F8E7090E0422F50E02F5F481759072B
:10379000D4F39685AF85B8891E968C918927868744
:1037A00033FB992790F9832F881F8827881F892743
:1037B000932F92959F70232F229526952770292766
:1037C0002170982F9227832F880F892B90E0282F24
:1037D0002E7030E0492F50E09F5F42175307D4F31B
:1037E0002785AF85B8891F969C919227978783FB81
:1037F000222720F9982F991F9927991F9227382F50
:1038000032953F70282F2295269527702327217007
:103810009227880F892B8093402620E08E7090E0BD
:1038200031E0320F422F50E04817590714F00C9442
:103830006829232FF5CF31E0320F422F50E048178F
:10384000590714F4232FF7CF20937F259081892FD8
:103850008F70292F22952F70B0E12B9F900111249A
:10386000280F311D2E5D3D4DD9018C918083309103
:10387000402633FB552750F9832F881F8827881F40
:103880005827932F92959F70232F22952695277066
:1038900029272170952F9227532F550F592B20E060
:1038A000852F8E7090E0622F70E02F5F6817790788
:1038B000D4F39181892F8F70292F22952F70B0E139
:1038C0002B9F90011124280F311D2E5D3D4DD901F4
:1038D0009C9053FB992790F9852F881F8827881F74
:1038E0008927952F92959F70252F229526952770D1
:1038F00029272170982F9227852F880F892B90E0F8
:10390000282F2E7030E0492F50E09F5F4217530759
:10391000D4F32281922F9F70322F32953F70B0E105
:103920003B9FA0011124490F511D4E5D5D4DDA01F1
:10393000EC9083FB442740F9982F991F9927991FF2
:103940004927382F32953F70982F9295969597700A
:10395000932791704927880F482B20E0842F8E7081
:1039600090E0622F70E02F5F68177907D4F393819E
:10397000892F8F70292F22952F70B0E12B9F9001F6
:103980001124280F311D2E5D3D4DD9016C9143FB53
:10399000332730F9842F881F8827881F3827242F42
:1039A00022952F70842F829586958770822781704B
:1039B0003827440F342B20E0832F8E7090E0422F65
:1039C00050E02F5F48175907D4F39481892F8F70E7
:1039D000292F22952F70B0E12B9FA0011124480FB1
:1039E000511D4E5D5D4DDA015C90548233FB222700
:1039F00020F9832F881F8827881F2827832F8295E7
:103A00008F70432F429546954770842781702827F1
:103A1000330F232B30E0822F8E7090E0432F50E045
:103A20003F5F48175907D4F38581382F3F7082953F
:103A30008F70B0E18B9FC0011124830F911D8E5DAB
:103A40009D4DDC01FC9023FB992790F9822F881F64
:103A50008827881F9827822F82958F70322F329562
:103A600036953770382731709327220F922B80E0DC
:103A7000292F2E7030E0482F50E08F5F42175307F8
:103A8000D4F32681822F8F7022952F70B0E12B9F67
:103A900090011124280F311D2E5D3D4DD9018C90D0
:103AA00093FB222720F9892F881F8827881F8227C8
:103AB000392F32953F70292F22952695277023277D
:103AC00021708227990F892B90E0282F2E7030E0EB
:103AD000492F50E09F5F42175307D4F32781922F5D
:103AE0009F7022952F70B0E12B9F90011124290F18
:103AF000311D2E5D3D4DD901BC9083FB442740F91B
:103B0000982F991F9927991F4927982F92959F7051
:103B1000282F229526952770292721704227880F64
:103B2000482B20E0842F8E7090E0022F10E02F5F52
:103B300008171907D4F32085822F8F7022952F70D4
:103B4000B0E12B9F90011124280F311D2E5D3D4DBA
:103B5000D9015C91508743FB992790F9842F881FE6
:103B60008827881F8927242F22952F70342F32957C
:103B70003695377023272170982F9227842F880F2E
:103B8000892B90E0282F2E7030E0092F10E09F5FE6
:103B900002171307D4F32185922F9F7022952F705F
:103BA000B0E12B9F90011124290F311D2E5D3D4D59
:103BB000D9014C9083FB222720F9982F991F992730
:103BC000991F9227282F22952F70382F32953695DE
:103BD000377032273170292F2327982F990F922B76
:103BE00080E0092F0E7010E0C82ED12C8F5FC01618
:103BF000D106D4F32285822F8F7022952F70B0E1E9
:103C00002B9F90011124280F311D2E5D3D4DD901B0
:103C10000C9193FB772770F9892F881F8827881FBD
:103C20007827892F82958F70392F32953695377086
:103C3000382731707327892F880F782B40E0872F22
:103C40008E7090E0242F30E04F5F28173907D4F3AF
:103C50008385282F2F7082958F70B0E18B9FC001D4
:103C60001124820F911D8E5D9D4DDC017C9073FBB4
:103C7000442740F9872F881F8827881F4827972FB8
:103C800092959F70372F329536953770392731705E
:103C9000942F9327272F220F422F492B70E0842F38
:103CA0008E7090E0272F30E07F5F28173907D4F31C
:103CB0008485282F2F7082958F70B0E18B9FC00173
:103CC0001124820F911D8E5D9D4DDC01AC90A48668
:103CD00043FB772770F9842F881F8827881F782750
:103CE000842F82958F70342F329536953770382710
:103CF0003170872F8327942F990F792F782B40E0ED
:103D0000872F8E7090E0242F30E04F5F28173907FF
:103D1000D4F38585282F2F7082958F70B0E18B9F0B
:103D2000C0011124820F911D8E5D9D4DDC014C91CF
:103D300073FB112710F9872F881F8827881F1827E2
:103D4000272F22952F70372F3295369537703227CF
:103D50003170212F2327872F880F182F122B70E007
:103D6000812F8E7090E0272F30E07F5F2817390772
:103D7000D4F38685282F2F7082958F70B0E18B9FAA
:103D8000C0011124820F911D8E5D9D4DDC017C913F
:103D900013FBDD24D0F8812F881F8827881FD826A1
:103DA000912F92959F70312F329536953770392724
:103DB00031709D2D9327212F220FD22ED92A10E06A
:103DC0008D2D8E7090E0212F30E01F5F281739076E
:103DD000D4F38785282F2F7082958F70B0E18B9F49
:103DE000C0011124820F911D8E5D9D4DDC011C913F
:103DF000D3FACC24C0F88D2D881F8827881FC826A9
:103E00008D2D82958F703D2D3295369537703827E0
:103E100031708C2D83279D2D990FC92EC82AD12C46
:103E20008C2D8E7090E02D2D30E0D394281739071B
:103E3000D4F3C3FADD24D0F88C2D881F8827881F7F
:103E4000D8262C2D22952F703C2D32953695377023
:103E5000322731702D2D23278C2D880FD82ED22A72
:103E6000C12C8D2D8E7090E02C2D30E0C39428173E
:103E70003907D4F3F182458241879586D3FA6624C7
:103E800060F88D2D881F8827881F68269D2D9295A4
:103E90009F703D2D32953695377039273170962DAC
:103EA00093272D2D220F622E692A80E0262D2E7059
:103EB00030E0C82ED12C8F5FC216D306D4F3028314
:103EC000E2867683868663FA992790F9862D881F85
:103ED0008827881F8927962D92959F70262D2295D9
:103EE00026952770292721708227962D990F892BD7
:103EF00090E0282F2E7030E0C92ED12C9F5FC21683
:103F0000D306D4F313837786B386678383FB222794
:103F100020F9982F991F9927991F9227382F3295AA
:103F20003F70282F229526952770232721709227EE
:103F3000880F892B80934026D12C8E7090E0CC2462
:103F4000C394CD0C2D2D30E02817390714F4DC2C48
:103F5000F6CFD0927F25AF85B889A056BF4F90810C
:103F60008C91892780836090402663FACC24C0F826
:103F7000862D881F8827881FC826862D82958F70DA
:103F8000D62CD294D69497E0D9228D2581703C2DE1
:103F90003827262D220FC22EC32AD12C8C2D8E70AD
:103FA00090E02D2D30E0D39428173907D4F31196E3
:103FB0008C911197F826F182C3FADD24D0F88C2D6C
:103FC000881F8827881FD8269C2D92959F703C2D8E
:103FD000329536953770392731709D2D93272C2DCA
:103FE000220FD22ED92AF12C8D2D8E7090E02F2DFC
:103FF00030E0F39428173907D4F312968C91129776
:1040000008270283D3FAFF24F0F88D2D881F882714
:10401000881FF8268D2D82958F702D2D229526953F
:104020002770282721708F2D82279D2D990FF92E1B
:10403000F82A00E08F2D8E7090E0202F30E00F5F87
:1040400028173907D4F313968C91139718271383E5
:10405000F3FA002700F98F2D881F8827881F08276B
:104060001F2D12951F702F2D229526952770212721
:104070002170102F12278F2D880F082F012B10E091
:10408000802F8E7090E0212F30E01F5F28173907B6
:10409000D4F314968C9114978525848303FB112700
:1040A00010F9802F881F8827881F1827902F929536
:1040B0009F70802F82958695877089278170182739
:1040C000000F102B00E0812F8E7090E0202F30E049
:1040D0000F5F28173907D4F315968C91159784250F
:1040E000858313FB992790F9812F881F8827881FC4
:1040F0009827212F22952F70812F82958695877082
:10410000822781708927110F182B00E0812F8E7074
:1041100090E0202F30E00F5F28173907D4F3169670
:104120008C9116977827768313FB992790F9812F26
:10413000881F8827881F292F2827812F82958F7015
:10414000912F92959695977098279170822F892735
:10415000110F182B70E0812F8E7090E0272F30E028
:104160007F5F28173907D4F317968C911797682724
:10417000678313FB772770F9812F881F8827881F93
:104180007827812F82958F70912F929596959770B1
:1041900098279170872F8927712F770F782B60E0F0
:1041A000872F8E7090E0262F30E06F5F2817390739
:1041B000D4F318968C9118975827508773FB66276D
:1041C00060F9872F881F8827881F6827872F829587
:1041D0008F70972F92959695977098279170862F4C
:1041E0008927672F660F682B20E0862F8E7090E05E
:1041F000022F10E02F5F08171907D4F319968C913E
:1042000019974827418763FB332730F9862F881F8A
:104210008827881F3827862F82958F70962F929532
:104220009695977098279170832F8927362F330F93
:10423000382B20E0832F8E7090E0422F50E02F5FCC
:1042400048175907D4F31A968C911A97E826E286F4
:1042500033FB222720F9832F881F8827881F2827D0
:10426000832F82958F70932F9295969597709827AC
:104270009170822F8927232F220F282B30E0822F45
:104280008E7090E0432F50E03F5F48175907D4F3FA
:104290001B968C911B97B826B38623FB552750F9A4
:1042A000822F881F8827881F5827822F82958F701A
:1042B000922F92959695977098279170852F8927C0
:1042C000522F550F582B20E0852F8E7090E0622FD3
:1042D00070E02F5F68177907D4F31C968C911C97B8
:1042E000A826A48653FB442740F9852F881F8827DA
:1042F000881F4827952F92959F70252F22952695E8
:10430000277029272170942F9227452F440F492B7E
:1043100020E0842F8E7090E0622F70E02F5F68178E
:104320007907D4F31D968C911D979826958643FBAB
:10433000332730F9842F881F8827881F3827942F28
:1043400092959F70242F22952695277029272170FA
:10435000932F9227342F330F392B20E0832F8E7029
:1043600090E0422F50E02F5F48175907D4F31E9674
:104370008C911E978826868633FB992790F9832F88
:10438000881F8827881F8927932F92959F70232F36
:1043900022952695277029272170982F9227832F01
:1043A000880F892B90E0282F2E7030E0492F50E0A5
:1043B0009F5F42175307D4F31F969C917926778607
:1043C00083FB222720F9982F991F9927991F92275D
:1043D000382F32953F70282F229526952770232756
:1043E00021709227880F892B8093402620E08E70C1
:1043F00090E031E0320F422F50E0481759070CF09F
:1044000067C7232FF6CF83FB222720F9982F991F08
:104410009927991F9227382F32953F70282F229580
:1044200026952770232721709227880F892B809348
:10443000402620E08E7090E031E0320F622F70E075
:104440006817790714F4232FF7CF20937F259081E5
:10445000892F8F70292F22952F70B0E12B9F90010B
:104460001124280F311D2E5D3D4DD9018C91808383
:104470006091402663FB992790F9862F881F882733
:10448000881F8927962F92959F70262F2295269513
:10449000277029272170982F9227862F880F892B24
:1044A00090E0282F2E7030E0692F70E09F5F621738
:1044B0007307D4F32181922F9F70322F32953F7072
:1044C000B0E13B9FB0011124690F711D6E5D7D4D00
:1044D000DB01BC91B98383FB552750F9982F991FB5
:1044E0009927991F5927382F32953F70982F929509
:1044F00096959770932791705927880F582B20E035
:10450000852F8E7090E0622F70E02F5F681779071B
:10451000D4F39281892F8F70292F22952F7000E17B
:10452000209F90011124280F311D2E5D3D4DD90192
:104530003C9053FB332730F9852F881F8827881F2D
:104540003827252F22952F70852F82958695877085
:10455000822781703827550F352B20E0832F8E70EE
:1045600090E0622F70E02F5F68177907D4F3938192
:10457000892F8F70292F22952F70B0E12B9FB001CA
:104580001124680F711D6E5D7D4DDB01DC9033FBE6
:10459000222720F9832F881F8827881F2827832F09
:1045A00082958F70532F529556955770852781703D
:1045B0002827330F232B30E0822F8E7090E0632F5B
:1045C00070E03F5F68177907D4F39481892F8F706B
:1045D000392F32953F70B0E13B9FB0011124680F35
:1045E000711D6E5D7D4DDB01BC91BA8323FB992764
:1045F00090F9822F881F8827881F9827822F8295FD
:104600008F70322F32953695377038273170932757
:10461000220F922B80E0292F2E7030E0682F70E05F
:104620008F5F62177307D4F32581822F8F70322F2B
:1046300032953F7000E1309FB0011124680F711D69
:104640006E5D7D4DDB012C9093FB222720F9892F95
:10465000881F8827881F8227392F32953F70292F7E
:10466000229526952770232721708227990F892B61
:1046700090E0282F2E7030E0692F70E09F5F621766
:104680007307D4F32681922F9F70322F32953F709B
:10469000B0E13B9FB0011124690F711D6E5D7D4D2E
:1046A000DB014C9083FB332730F9982F991F992712
:1046B000991F3927282F22952F70982F929596951C
:1046C0009770922791703927880F382B20E0832F1D
:1046D0008E7090E0622F70E02F5F68177907D4F337
:1046E0009781892F8F70292F22952F70B0E12B9FF2
:1046F000B0011124680F711D6E5D7D4DDB01BC9111
:10470000BB8333FB222720F9832F881F8827881F2C
:104710008227932F92959F70532F529556955770DD
:1047200095279170282F2927832F880F822B90E0BF
:10473000282F2E7030E0692F70E09F5F621773079B
:10474000D4F32085922F9F70322F32953F7000E175
:10475000309FB0011124690F711D6E5D7D4DDB012D
:104760007C9083FB222720F9982F991F9927991F66
:104770002927982F92959F70382F3295369537704C
:10478000392731702327880F822B90E0282F2E7035
:1047900030E0092F10E09F5F02171307D4F3218543
:1047A000922F9F70322F32953F70B0E13B9FB00146
:1047B0001124690F711D6E5D7D4DDB015C9083FBE3
:1047C000552750F9982F991F9927991F5927282F56
:1047D00022952F70382F32953695377032273170E9
:1047E0005327282F220F522B60E0852F8E7090E0E8
:1047F000262F30E06F5F28173907D4F39285892F71
:104800008F70292F22952F70B0E12B9F90011124DA
:10481000280F311D2E5D3D4DD901CC9053FB112742
:1048200010F9852F881F8827881F1827852F8295C4
:104830008F70352F32953695377038273170812F2C
:104840008327952F990F192F182B50E0812F8E70E9
:1048500090E0252F30E05F5F28173907D4F3938568
:10486000892F8F70292F22952F70B0E12B9F9001F7
:104870001124280F311D2E5D3D4DD9016C9013FB85
:10488000662760F9812F881F8827881F6827212FB6
:1048900022952F70312F329536953770322731702F
:1048A000262F2327812F880F682F622B50E0862F19
:1048B0008E7090E0252F30E05F5F28173907D4F322
:1048C0009485892F8F70292F22952F70B0E12B9F0F
:1048D00090011124280F311D2E5D3D4DD9018C9082
:1048E00063FB112710F9862F881F8827881F182738
:1048F000962F92959F70362F3295369537703927BF
:104900003170912F9327262F220F122F192B50E051
:10491000812F8E7090E0252F30E05F5F28173907D8
:10492000D4F39585892F8F70292F22952F70B0E1B0
:104930002B9F90011124280F311D2E5D3D4DD90173
:10494000FC9013FB662760F9812F881F8827881F3A
:104950006827812F82958F70212F229526952770A9
:1049600028272170862F8227912F990F692F682B76
:1049700050E0862F8E7090E0252F30E05F5F281783
:104980003907D4F39685892F8F70292F22952F70A0
:10499000B0E12B9F90011124280F311D2E5D3D4D5C
:1049A000D901EC9063FB552750F9862F881F882783
:1049B000881F5827962F92959F70862F82958695EF
:1049C0008770892781705827862F880F582B60E0C1
:1049D000852F8E7090E0262F30E06F5F2817390703
:1049E000D4F39785892F8F70292F22952F70B0E1EE
:1049F0002B9F90011124280F311D2E5D3D4DD901B3
:104A00000C9153FB992790F9852F881F8827881FC1
:104A1000292F2827852F82958F70952F929596950F
:104A20009770892781708227550F782F752B50E05A
:104A3000872F8E7090E0252F30E05F5F28173907B1
:104A4000D4F373FB662760F9872F881F8827881F98
:104A50006827572F52955F70972F9295969597706C
:104A6000952791706927572F550F652B50E0862F9A
:104A70008E7090E0252F30E05F5F28173907D4F360
:104A800063FB552750F9862F881F8827881F5827D2
:104A9000862F82958F70962F92959695977098276E
:104AA0009170852F8927562F550F582B60E0852F41
:104AB0008E7090E0262F30E06F5F28173907D4F30F
:104AC00053FB112710F9852F881F8827881F182767
:104AD000952F92959F70852F82958695877089274F
:104AE00081701827852F880F182B1093402650E0CF
:104AF000812F8E7090E061E0650F252F30E0281740
:104B0000390714F4562FF7CF498BEC8BFD8B50935C
:104B10007F25B0808B2D0E94F604982F822D9B8BD1
:104B20000E94F604982E8C2D0E94F604A82E802F49
:104B30000E94F604682F8A816A8B0E94F6048C8397
:104B4000852D0E94F6048D838E2D0E94F6048E839F
:104B50008D2D0E94F6048F83872D0E94F60488878E
:104B60008F2D0E94F6048987832D0E94F6048A8780
:104B70008B810E94F6048B87882D0E94F6048C8717
:104B800089810E94F6048D87842D0E94F6048E8709
:104B9000862D0E94F604B82F13FB442740F9812F7D
:104BA000881F8827881F4827212F22952F70812F43
:104BB000829586958770822781704827110F142B64
:104BC0001093402620E01E70412F50E06A899B8997
:104BD00081E0820F30E02417350714F4282FF8CF36
:104BE0008C2D8225282F202729272925EC89FD892E
:104BF0002083C026CB249C249A24918202250B2555
:104C0000A026A626A282B826B926B626B38220916F
:104C1000402623FB332730F9822F881F8827881FDF
:104C20003827822F82958F70922F92959695977044
:104C3000892781708327220F822B90E0282F2E70E6
:104C400030E0492F50E09F5F42175307D4F3C52C43
:104C5000CD24CE240C81C0261D81C126EC89FD897E
:104C6000C4827A817D25972F9E25D12ED9260E814B
:104C7000D026D582752570272F80272626821A8177
:104C80005126E5242C81E2265F805E24578283FB37
:104C9000662760F9982F991F9927991F6927282F50
:104CA00022952F70982F92959695977092279170D4
:104CB0006927880F682B40E0862F8E7090E0242FA4
:104CC00030E04F5F28173907D4F35B815325752FE8
:104CD0007F253885732749857427EC89FD8970877E
:104CE000572554270A85502751874B8147254F2543
:104CF00040271B8541274287372D33253F252885AF
:104D000032273127338763FBAA27A0F9862F881F14
:104D10008827881FA827862F82958F70962F9295B7
:104D20009695977089278170A827660FA62B80E03B
:104D30000A2F0E7010E0E82EF12C8F5FE016F106BE
:104D4000D4F389818425682F66259C8569270D8584
:104D50006027EC89FD896487262D242528252027B6
:104D60000E852027258799819625982590279B27B2
:104D7000968788251C8581278B278787A3FB11278A
:104D800010F9BA2FBB1FBB27BB1FB1270A2F0295F3
:104D90000F701A2F12951695177010271170B127E2
:104DA000AA0FAB2BA0934026F12CAE70B0E0EE24FE
:104DB000E394EF0C0F2D10E00A171B0714F4FE2CE0
:104DC000F6CFF0927F25AF85B8890989E0E10E9F83
:104DD000A00DB11D1124EC89FD8900811C911027C3
:104DE00010836090402663FA882480F8162D111FE6
:104DF0001127111F8126162D12951F70762C729483
:104E0000769407E0702217251170E82CE126F62C25
:104E1000FF0C8F2C8E28712C082D0E7010E0E72CC3
:104E2000F12C7394E016F106D4F311961C911197AE
:104E30009126EC89FD89918283FA992490F8182DA6
:104E4000111F1127111F9126182D12951F70E82C84
:104E5000E294E694F7E0EF221E251170092D012758
:104E6000F82CFF0C9F2C902A812C092D0E7010E03D
:104E7000E82CF12C8394E016F106D4F312960C91F1
:104E80001297A026EC89FD89A28293FAAA24A0F8A1
:104E9000192D111F1127111FA126092D02950F7021
:104EA000F92CF294F694E7E0FE220F2501701A2DFA
:104EB0001027092D000FA02EA12A912C0A2D0E706B
:104EC00010E0E92CF12C9394E016F106D4F313963C
:104ED0001C911397B126EC89FD89B382A3FABB24F8
:104EE000B0F81A2D111F1127111FB126FA2CF294B8
:104EF0001FE0F122EA2CE294E69407E0E0221F2D65
:104F00001E251170FB2CF1261A2D110FB12EBF2872
:104F1000A12C0B2D0E7010E0EA2CF12CA394E016BE
:104F2000F106D4F314961C911497C126EC89FD89DF
:104F3000C482B3FACC24C0F81B2D111F1127111FF6
:104F4000C1260B2D02950F701B2D1295169517700B
:104F500010271170C126BB0CCB28B12C0C2D0E7064
:104F600010E0EB2CF12CB394E016F106D4F3159677
:104F70001C911597D126EC89FD89D582C3FADD24D1
:104F8000D0F81C2D111F1127111FD1260C2D0295B1
:104F90000F701C2D12951695177010271170D126C1
:104FA000CC0CDC28C12C0D2D0E7010E0EC2CF12C5B
:104FB000C394E016F106D4F316961C9116971225A9
:104FC000EC89FD891683D3FA002700F9FD2DFF1F18
:104FD000FF27FF1F0F271D2D12951F70FD2CF29428
:104FE000F694F7E0FF221F25117010270D2D000FFA
:104FF000012BF0E0102F1E70E12EF12CCF2ED12CC2
:10500000FF5FCE14DF04D4F31796FC9117975F2649
:10501000EC89FD89578203FBFF27F0F9E02FEE1F93
:10502000EE27EE1FFE27102F12951F70F02EF29420
:10503000F694E7E0FE221F251170EF2FE127000F05
:10504000D02EDE2AE0E00D2D0E7010E0EE2EF12CB9
:10505000EF5FE016F106D4F31896EC9118977E27CF
:10506000EC89FD897087D3FA002700F97D2D771F21
:105070007727771F07277D2D72957F70ED2DE2959D
:10508000E695E770E727E170702F7E270D2D000F62
:10509000072B70E0E02FEE70F0E0E72EF12C7F5F41
:1050A000EE16FF06D4F319967C9119975727EC89D1
:1050B000FD89518703FB112710F9502F551F5527E4
:1050C000551F1527502F52955F70E02FE295E695FA
:1050D000E770E527E170512F5E27102F110F152B78
:1050E00050E0E12FEE70F0E0E52EF12C5F5FEE1660
:1050F000FF06D4F31A965C911A974527EC89FD892F
:10510000428713FBFF27F0F9412F441F4427441F18
:10511000F427412F42954F70E12FE295E695E77015
:10512000E427E1704F2F4E27F12FFF0FFF2EF42AB7
:1051300070E04F2D4E7050E0072F10E07F5F041796
:105140001507D4F31B964C911B973427EC89FD89E6
:105150003387F3FA772770F93F2D331F3327331F37
:1051600073273F2D32953F70EF2DE295E695E7705E
:10517000E327E170372F3E277F2D770F732B30E029
:10518000472F4E7050E0E32FF0E03F5FE417F50744
:10519000D4F31C963C911C976327EC89FD896487A6
:1051A00073FB552750F9372F331F3327331F5327EE
:1051B000372F32953F70672F62956695677063272A
:1051C0006170352F3627572F550F532B30E0652F41
:1051D0006E7070E0E32FF0E03F5FE617F707D4F35F
:1051E0001D963C911D972327EC89FD89258753FB4C
:1051F000442740F9252F221F2227221F4227252F2F
:1052000022952F70352F32953695377032273170B1
:10521000242F2327452F440F422B50E0242F2E709C
:1052200030E0652F70E05F5F62177307D4F31E965E
:105230002C911E979227EC89FD89968743FB2227A4
:1052400020F9942F991F9927991F9227242F22958F
:105250002F70342F32953695377032273170292FC1
:105260002327942F990F922B40E0292F2E7030E0A6
:10527000642F70E04F5F62177307D4F31F962C9171
:105280008227AC89BD891F968C9393FB222720F936
:10529000892F881F8827881F8227392F32953F70D2
:1052A000292F229526952770232721708227990F71
:1052B000982B9093402620E09E70892F90E031E05B
:1052C000320F422F50E04817590714F4232FF7CF1D
:1052D00020937F256596CDBFDEBFDF91CF911F91D3
:1052E0000F91FF90EF90DF90CF90BF90AF909F9085
:1052F0008F907F906F905F904F903F902F90089588
:10530000CF92DF92EF92FF920F931F93CF93DF9391
:10531000CDB7DEB76197CDBFDEBF7C016B018E01DB
:105320000F5F1F4F80E1F80111928A95E9F744233E
:1053300011F14A3061F461E070E0C7010E9453034B
:10534000C7010E94F603B60160567F4F14C0B70133
:10535000C801498B0E947107D701F80180E1800FD5
:10536000498991919D938E13FCCFB601F0E14F9F37
:10537000600D711D1124C7010E94F6026196CDBF18
:10538000DEBFDF91CF911F910F91FF90EF90DF90E3
:10539000CF9008952F923F924F925F926F927F929B
:1053A0008F929F92AF92BF92CF92DF92EF92FF9235
:1053B0000F931F93CF93DF93CDB7DEB76097CDBF29
:1053C000DEBFFC011B01942F9E012F5F3F4F80E148
:1053D000D9011D928A95E9F7409140269923F1F071
:1053E0009A3011F00C94F33143FB992790F9842FF4
:1053F000881F8827881F9827842F82958F70242FD5
:10540000229526952770822781709827440F492B73
:105410004093402680E04E7050E089C243FB9927BC
:1054200090F9842F881F8827881F9827842F8295BA
:105430008F70242F229526952770822781709827B8
:10544000440F492B4093402680E04E7050E091E09D
:10545000980F282F30E02417350714F4892FF7CF41
:1054600080937F259081D1018C91892780835091F1
:10547000402653FB442740F9852F881F8827881F23
:105480004827852F82958F70952F929596959770C6
:1054900098279170842F8927452F440F482B20E0AF
:1054A000842F8E7090E0622F70E02F5F681779076D
:1054B000D4F39181D10111968C918927818343FB8B
:1054C000332730F9842F881F8827881F3827842F97
:1054D00082958F70942F92959695977098279170DA
:1054E000832F8927342F330F382B20E0832F8E70A2
:1054F00090E0422F50E02F5F48175907D4F3928174
:10550000D10112968C918927828333FB222720F9BF
:10551000832F881F8827881F2827832F82958F70C5
:10552000932F92959695977098279170822F89273F
:10553000232F220F282B30E0822F8E7090E0432FF4
:1055400050E03F5F48175907D4F39381D101139678
:105550008C918927838323FB552750F9822F881F3D
:105560008827881F5827822F82958F70922F9295B7
:105570009695977098279170852F8927522F550FF0
:10558000582B20E0852F8E7090E0622F70E02F5F07
:1055900068177907D4F39481D10114968C918927E7
:1055A000848353FB442740F9852F881F8827881F51
:1055B0004827852F82958F70952F92959695977095
:1055C00098279170842F8927452F440F482B20E07E
:1055D000842F8E7090E0622F70E02F5F681779073C
:1055E000D4F39581D10115968C918927858343FB4E
:1055F000332730F9842F881F8827881F3827842F66
:1056000082958F70942F92959695977098279170A8
:10561000832F8927342F330F382B20E0832F8E7070
:1056200090E0422F50E02F5F48175907D4F396813E
:10563000D10116968C918927868333FB222720F986
:10564000832F881F8827881F2827832F82958F7094
:10565000932F92959695977098279170822F89270E
:10566000232F220F282B30E0822F8E7090E0432FC3
:1056700050E03F5F48175907D4F39781D10117963F
:105680008C918927878323FB552750F9822F881F08
:105690008827881F5827822F82958F70922F929586
:1056A0009695977098279170852F8927522F550FBF
:1056B000582B20E0852F8E7090E0622F70E02F5FD6
:1056C00068177907D4F39085D10118968C918927B2
:1056D000808753FB442740F9852F881F8827881F20
:1056E0004827852F82958F70952F92959695977064
:1056F00098279170842F8927452F440F482B20E04D
:10570000842F8E7090E0622F70E02F5F681779070A
:10571000D4F39185D10119968C918927818743FB18
:10572000332730F9842F881F8827881F3827842F34
:1057300082958F70942F9295969597709827917077
:10574000832F8927342F330F382B20E0832F8E703F
:1057500090E0422F50E02F5F48175907D4F392850D
:10576000D1011A968C918927828733FB222720F951
:10577000832F881F8827881F2827832F82958F7063
:10578000932F92959695977098279170822F8927DD
:10579000232F220F282B30E0822F8E7090E0432F92
:1057A00050E03F5F48175907D4F39385D1011B960A
:1057B0008C918927838723FB552750F9822F881FD7
:1057C0008827881F5827822F82958F70922F929555
:1057D0009695977098279170852F8927522F550F8E
:1057E000582B20E0852F8E7090E0622F70E02F5FA5
:1057F00068177907D4F39485D1011C968C91892779
:10580000848753FB442740F9852F881F8827881FEA
:105810004827952F92959F70252F229526952770C2
:1058200029272170942F9227452F440F492B20E0E0
:10583000842F8E7090E0622F70E02F5F68177907D9
:10584000D4F39585D1011D968C918927858743FBDB
:10585000332730F9842F881F8827881F3827942FF3
:1058600092959F70242F22952695277029272170C5
:10587000932F9227342F330F392B20E0832F8E70F4
:1058800090E0422F50E02F5F48175907D4F39685D8
:10589000D1011E968C918927868733FB992790F931
:1058A000832F881F8827881F8927932F92959F70A1
:1058B000232F22952695277029272170982F92272C
:1058C000832F880F892B90E0282F2E7030E0492FEE
:1058D00050E09F5F42175307D4F32785D1011F96ED
:1058E0009C919227978783FB222720F9982F991F55
:1058F0009927991F9227382F32953F70282F22958C
:1059000026952770232721709227880F892B809353
:10591000402620E08E7090E031E0320F422F50E0C0
:105920004817590714F00C944B36232FF5CF91E00C
:10593000980F282F30E02417350714F4892FF7CF5C
:1059400080937F25808190E08E5D9C4DDC018C9161
:1059500080833091402633FB222720F9832F881F34
:105960008827881F2827832F82958F70932F9295E1
:105970009695977098279170822F8927232F220F51
:10598000282B30E0822F8E7090E0432F50E03F5F55
:1059900048175907D4F3818190E08E5D9C4DDC015E
:1059A0007C9023FB442740F9822F881F8827881F7B
:1059B0004827822F82958F70922F92959695977097
:1059C00098279170842F8927422F440F482B20E07D
:1059D000842F8E7090E0622F70E02F5F6817790738
:1059E000D4F3828190E08E5D9C4DDC01AC9043FB52
:1059F000662760F9842F881F8827881F6827842FCF
:105A000082958F70942F92959695977098279170A4
:105A1000862F8927642F660F682B20E0862F8E70D3
:105A200090E0422F50E02F5F48175907D4F383814D
:105A300090E08E5D9C4DDC015C9163FB332730F977
:105A4000862F881F8827881F3827862F82958F707A
:105A5000462F42954695477048274170832F8427EB
:105A6000362F330F382B20E0832F8E7090E0622F7B
:105A700070E02F5F68177907D4F3848190E08E5D22
:105A80009C4DDC011C91148333FB222720F9832FCA
:105A9000881F8827881F2827832F82958F70432F80
:105AA000429546954770842781702827330F232B12
:105AB00030E0822F8E7090E0632F70E03F5F6817B8
:105AC0007907D4F3858190E08E5D9C4DDC01EC90EC
:105AD00023FB992790F9822F881F8827881F9827F2
